:020000040800F2
:10000000C0060020D501000861120008591200083E
:100010005D120008D1050008D91500080000000095
:100020000000000000000000000000008D12000829
:10003000D505000800000000EB010008ED010008F4
:10004000EF010008EF010008EF010008EF010008D0
:10005000EF010008EF010008EF010008EF010008C0
:10006000EF010008EF010008EF010008EF010008B0
:10007000EF010008EF010008EF010008EF010008A0
:10008000EF010008EF010008EF010008EF01000890
:10009000EF010008EF010008EF010008EF01000880
:1000A000EF010008EF010008EF010008EF01000870
:1000B000EF010008EF010008EF010008EF01000860
:1000C000EF010008EF010008EF010008EF01000850
:1000D000EF010008EF010008EF010008EF01000840
:1000E000EF010008EF010008EF010008EF01000830
:1000F000EF010008EF010008EF010008EF01000820
:10010000EF010008EF010008EF010008EF0100080F
:10011000EF010008EF010008EF010008EF010008FF
:10012000EF010008EF010008EF010008EF010008EF
:1001300000F002F800F03FF80AA090E8000C8244BA
:100140008344AAF10107DA4501D100F034F8AFF297
:10015000090EBAE80F0013F0010F18BFFB1A43F0A5
:10016000010318470816000028160000103A24BFA3
:1001700078C878C1FAD8520724BF30C830C144BF0C
:1001800004680C607047000000230024002500264E
:10019000103A28BF78C1FBD8520728BF30C148BFEA
:1001A0000B607047642900F06B80002070471FB51A
:1001B0001FBD10B510BD00F0D9F91146FFF7F7FFCC
:1001C00001F05CFA00F0F7F903B4FFF7F2FF03BCAB
:1001D00001F027FA0948804709480047FEE7FEE793
:1001E000FEE7FEE7FEE7FEE7FEE7FEE7FEE7FEE7E7
:1001F00004480549054A064B70470000A312000851
:1002000031010008C0000020C0060020C00200200C
:10021000C0020020704700000FB4044910B503AAC3
:10022000029800F075F910BC5DF814FB0400002082
:1002300070B5044685690068C10601D5302600E026
:100240002026C00707D070BDD4E901213046904771
:10025000206A401C20626D1EF6D570BD70B5044644
:1002600085690078C00707D170BDD4E9012120203D
:100270009047206A401C20626D1EF6D570BD0000BC
:100280002DE9F0410646002410687529314616A56F
:1002900010D0AFF30080002802DA404213A507E037
:1002A00031688A0701D512A502E0490704D511A5D6
:1002B000012401E0AFF3008000210A2206F12407A7
:1002C00009E0B0FBF2FCB0FBF2F302FB1C003030A3
:1002D00078541846491C0028F3D123462A46304654
:1002E000BDE8F04100F0BAB8000000002D000000A9
:1002F0002B000000200000002DE9F0474FF0000A1D
:1003000089460446C0F820A02046E16888470028B6
:1003100076D0252806D0D4E901219047206A401CD8
:100320002062F1E7E168204600258847C4F81CA058
:1003300006460027C4F818A02A2E09D0304601F03E
:1003400069F938B304EB8708303EC8F8186019E043
:1003500059F8041B204604EB87029161E168884745
:10036000012F064618D1E069002820DA25F0200583
:100370001DE0D8F8180000EB800006EB4000303894
:10038000C8F818002046E1688847064601F042F99F
:100390000028EED1012F0AD02E2E08D12046E16888
:1003A00088477F1C0646022F45F02005C4DBA06964
:1003B000002803DA404245F00105A061E80701D0BA
:1003C00025F01005B6B1A6F14100192802D8203653
:1003D00045F400654A463146204625604D46FFF704
:1003E000E1FE58B1012806D0ED1D25F0070000F10F
:1003F000080989E704E005F1040985E730468AE742
:10040000206ABDE8F0874FF0000200B5134694461D
:100410009646203922BFA0E80C50A0E80C50B1F15C
:100420002001BFF4F7AF090728BFA0E80C5048BF70
:100430000CC05DF804EB890028BF40F8042B08BF0E
:10044000704748BF20F8022B11F0804F18BF00F80A
:10045000012B704770477047704770472DE9F04790
:100460000D4699469246044600F124080168880624
:1004700004D5E06921F01001216000E00120A842CC
:1004800001DD471B00E00027A1697A1902EB090092
:10049000081AA0612078C00602D42046FFF7C8FEE3
:1004A000002608E0D4E901211AF806009047206AE6
:1004B000401C761C20624E45F4DB2078C0060AD52D
:1004C0002046FFF7B5FE06E0D4E901213020904731
:1004D000206A401C2062381EA7F10107F4DC07E007
:1004E000D4E9012118F805009047206A401C2062D9
:1004F000281EA5F10105F3DC2046FFF7AFFE2078AA
:10050000000602D50220BDE8F0870120FBE70000CD
:10051000074B70B50D467B4400F011F804462846A1
:1005200000F020F810B14FF0FF3070BD204670BDD4
:100530004711000001694A1C02610878704700B544
:100540008FB0CDE901310021059105497944CDE90C
:10055000031011466846FFF7CFFE0FB000BD000044
:10056000E5FFFFFF007B00F080007047754600F05C
:100570002BF8AE4605006946534620F00700854635
:1005800018B020B5FFF734FEBDE820404FF000065C
:100590004FF000074FF000084FF0000B21F007016B
:1005A000AC46ACE8C009ACE8C009ACE8C009ACE8AE
:1005B000C0098D46704710B50446AFF30080204651
:1005C000BDE81040FFF700BE004870475C00002007
:1005D00000BFFEE7704700002DE9F8470246002300
:1005E0009C467BE14FF0010808FA03F4D1F8008043
:1005F00008EA0400A0427DD1DFF8F4A2D1F804801B
:10060000A8EB0A09D0453AD014DCB8F1030F50D05A
:1006100009DCB8F1000F31D0B8F1010F1CD0B8F1EE
:10062000020F49D120E0B8F1110F18D0B8F1120F24
:1006300042D11EE0B9F5881F25D006DCB9F5803F10
:1006400020D0B9F5801F37D11AE0B9F5001F18D0B6
:10065000B9F5041F30D117E0D1F80CC02DE0D1F866
:100660000C8008F1040C28E0D1F80C8008F1080C8B
:1006700023E0D1F80C8008F10C0C1EE000BF00BF95
:1006800000BF00BF00BF00BFD1F80880B8F1000F65
:1006900002D14FF0040C0BE0D1F80880B8F1010F43
:1006A00003D14FF0080C146102E04FF0080C5461C4
:1006B00003E04FF0000C00E000BF00BFFF2801D8AE
:1006C000904601E002F104084646FF2802D84FEAAE
:1006D000830803E0A3F108084FEA88084746D6F8E4
:1006E00000804FF00F0909FA07F928EA09080CFA07
:1006F00007F900E07AE048EA0908C6F80080D1F876
:10070000048008F08058B8F1805F6FD100BFDFF837
:10071000E481D8F8188048F00108DFF8D891C9F8CA
:100720001880C846D8F8188008F00108CDF8008075
:1007300000BF00BF4FEAB9384FEA930958F8295073
:100740004FEA83784FEA18794FF00F0808FA09F852
:1007500025EA0805DFF8A081424502D14FF00008E4
:1007600024E0DFF89881424502D14FF001081DE0F6
:10077000DFF88C81424502D14FF0020816E0DFF825
:100780008481424502D14FF003080FE0DFF8788101
:10079000424502D14FF0040808E0DFF8708142457D
:1007A00002D14FF0050801E04FF006084FEA8379C7
:1007B0004FEA197908FA09F848EA0505DFF8508187
:1007C0004FEA930948F82950D1F8048008F48018BA
:1007D000B8F5801F0BD1DFF83C81D8F8008048EADB
:1007E0000008DFF83091C9F800800AE075E0DFF812
:1007F0002481D8F8008028EA0008DFF81891C9F8A9
:100800000080D1F8048008F40018B8F5001F0ED15C
:10081000DFF8008108F10408D8F8008048EA0008F1
:10082000DFF8F09009F10409C9F800800DE0DFF865
:10083000E48008F10408D8F8008028EA0008DFF80E
:10084000D49009F10409C9F80080D1F8048008F4B3
:100850000038B8F5003F0ED1DFF8B880A8F10408E1
:10086000D8F8008048EA0008DFF8A890A9F1040948
:10087000C9F800800DE0DFF89C80A8F10408D8F8E2
:10088000008028EA0008DFF88C90A9F10409C9F873
:100890000080D1F8048008F48038B8F5803F0ED18C
:1008A000DFF87080A8F10808D8F8008048EA00084E
:1008B000DFF86090A9F10809C9F800800DE0DFF8C1
:1008C0005480A8F10808D8F8008028EA0008DFF86A
:1008D0004490A9F10809C9F800805B1CD1F8008098
:1008E00028FA03F8B8F1000F7FF47CAEBDE8F88772
:1008F000000011100010024000080140000C0140EF
:10090000001001400014014000180140001C01408B
:100910000800014008040140024693680B400BB1F7
:10092000012000E0002070470AB1016101E00B04E2
:10093000036170470148006870470000080000200C
:1009400010B50848006840F0100006490860032010
:1009500000F070F80F2000F007F800F02BF80020EE
:1009600010BD00000020024070B504460E4800781B
:100970004FF47A71B1FBF0F00C490968B1FBF0F566
:10098000284600F0C1FB08B1012070BD102C07D231
:1009900000222146501E00F00EF80548046001E0D8
:1009A0000120F2E70020F0E7100000200000002006
:1009B0000C00002070472DE9F05F80460D4616467A
:1009C000002700F00BFE074639462A46334601F061
:1009D0000700C0F1070ABAF1040F02D94FF0040A68
:1009E00001E0C0F1070AD14600F1040ABAF1070F8D
:1009F00002D24FF0000A01E0A0F1030AD4464FF002
:100A0000010A0AFA09FAAAF1010A0AEA020A0AFA2A
:100A10000CFA4FF0010B0BFA0CFBABF1010B0BEADC
:100A2000030B4AEA0B042146404600F0DFFDBDE817
:100A3000F09F000000BF00F00702064B19684FF658
:100A4000FF031940044B0B4343EA0221014B196099
:100A500000BF70470CED00E00000FA0570B50446D9
:100A60000D460CB9012070BD5A48006800F007001F
:100A7000A8420ED25748006820F007002843554985
:100A800008600846006800F00700A84201D0012075
:100A9000E9E7207800F0020002281DD1207800F05C
:100AA0000400042805D14C48406840F4E0604A49FD
:100AB0004860207800F00800082805D146484068C2
:100AC00040F46050444948604348406820F0F000DA
:100AD000A168084340494860207800F0010078B3DD
:100AE0006068012806D13C48006800F4003090B9E5
:100AF0000120B8E76068022806D13748006800F096
:100B0000007040B90120AEE73348006800F00200F1
:100B100008B90120A7E73048406820F00300616869
:100B200008432D494860FFF705FF064609E0FFF737
:100B300001FF801B41F28831884202D9032092E7ED
:100B400007E02548406800F00C006168B0EB810FB9
:100B5000EDD12048006800F00700A8420ED91D48DA
:100B6000006820F0070028431A490860084600681A
:100B700000F00700A84201D0012074E7207800F0BF
:100B80000400042807D11448406820F4E060E168BC
:100B9000084311494860207800F00800082808D16F
:100BA0000D48406820F46050216940EAC1000A49BC
:100BB000486000F03FF808494968C1F30311074A4B
:100BC000515CC8400649086006480068FFF7CCFE43
:100BD000002048E7002002400010024042170008B1
:100BE000000000200C000020014800687047000051
:100BF0000000002000B5FFF7F7FF04494968C1F382
:100C00000221034A515CC84000BD000000100240B0
:100C10005217000800B5FFF7E7FF04494968C1F320
:100C2000C221034A515CC84000BD000000100240D0
:100C30005217000870B50021002200240023002074
:100C4000134D696801F00C05F5B1042D02D0082D93
:100C500019D101E00F4819E00F4DC1F38346AB5D98
:100C600001F4803555B10A4D6D68C5F340450B4E12
:100C7000725D084D5D43B5FBF2F402E0084D03FBE5
:100C800005F4204602E000BF024800BF00BF70BD6F
:100C90000010024000127A005A1700086A17000874
:100CA00000093D00F8B504460CB90120F8BD2078D4
:100CB00000F00100002878D0F848406800F00C00EF
:100CC00004280CD0F548406800F00C00082811D129
:100CD000F248406800F48030B0F5803F0AD1EF4818
:100CE000006800F4003000285FD0606800285CD104
:100CF0000120DBE700BF6068B0F5803F06D1E74820
:100D0000006840F48030E549086028E0606858B920
:100D1000E248006820F48030E04908600846006836
:100D200020F4802008601AE06068B0F5A02F0BD195
:100D3000DA48006840F48020D84908600846006816
:100D400040F4803008600AE0D448006820F4803025
:100D5000D24908600846006820F48020086000BF7F
:100D6000606888B1FFF7E6FD054606E0FFF7E2FDA3
:100D7000401B642801D9032098E7C848006800F4A4
:100D800000300028F2D010E0FFF7D4FD054606E061
:100D9000FFF7D0FD401B642801D9032086E7BF4838
:100DA000006800F400300028F2D1207800F0020042
:100DB000022857D1B948406800F00C0050B1B7483C
:100DC000406800F00C00082818D1B448406800F4CE
:100DD000803098B9B148006800F0020020B1206965
:100DE000012801D0012061E7AC48006820F0F8003C
:100DF000616940EAC100A949086033E02069E8B1AF
:100E00000120A7490860FFF795FD054606E0FFF7BA
:100E100091FD401B022801D9032047E79F48006845
:100E200000F002000028F2D09C48006820F0F80092
:100E3000616940EAC1009949086013E000209849BF
:100E40000860FFF777FD054606E0FFF773FD401BDE
:100E5000022801D9032029E79048006800F0020029
:100E60000028F2D1207800F0080008282DD1A069D0
:100E7000B8B101208B490860FFF75CFD054606E02C
:100E8000FFF758FD401B022801D903200EE78348D5
:100E9000406A00F002000028F2D0012000F0E2F9E0
:100EA00013E000207F490860FFF744FD054606E097
:100EB000FFF740FD401B022801D90320F6E67748E2
:100EC000406A00F002000028F2D1207800F004000F
:100ED000042873D100277148C06900F0805070B9B0
:100EE00000BF6E48C06940F080506C49C861084638
:100EF000C06900F08050009000BF00BF01276A4821
:100F0000006800F48070B0B96748006840F48070F1
:100F100065490860FFF70EFD054606E0FFF70AFD8C
:100F2000401B642801D90320C0E65F48006800F434
:100F300080700028F2D000BFE068012806D1574831
:100F4000006A40F001005549086227E0E06858B99E
:100F50005248006A20F00100504908620846006AC1
:100F600020F00400086219E0E06805280BD14B4826
:100F7000006A40F00400494908620846006A40F0EF
:100F8000010008620AE04548006A20F00100434978
:100F900008620846006A20F00400086200BFE068AA
:100FA000A0B1FFF7C7FC054609E0FFF7C3FC401BF3
:100FB00041F28831884202D9032077E622E037489F
:100FC000006A00F002000028EFD012E0FFF7B2FC48
:100FD000054608E0FFF7AEFC401B41F2883188422D
:100FE00001D9032062E62D48006A00F002000028C3
:100FF000F0D1012F05D12948C06920F08050274940
:10100000C86100BFE069C8B32448406800F00C0024
:10101000082860D0E069022848D1002020490866ED
:10102000FFF788FC054606E0FFF784FC401B02281A
:1010300001D903203AE61948006800F00070002842
:10104000F2D1206AB0F5803F07D11448406820F4FF
:101050000030A168084311494860D4E908010843F9
:101060000E49496821F4741108430C494860012075
:101070000B490866FFF75EFC054607E03DE0FFF719
:1010800059FC401B022801D903200FE603480068E1
:1010900000F000700028F2D02FE0000000100240A5
:1010A0000000424280044242007000400020144987
:1010B0000866FFF73FFC054606E0FFF73BFC401BD8
:1010C000022801D90320F1E50E48006800F0007005
:1010D0000028F2D111E0E069012800D1E6E50948D5
:1010E000466806F48031206A814204D106F470110A
:1010F000606A814201D00120D8E50020D6E50000D9
:10110000000042420010024070B504462546681EA9
:10111000B0F1807F01D301200FE0681E4FF0E02185
:1011200048610F214FF0FF3000F060FA00204FF0CF
:10113000E021886107200861002070BD10B50446D9
:101140000CB9012010BDA06900B100E000BF94F807
:10115000410028B9002084F84000204600F02AF819
:10116000242084F841002068C06820F400502168E1
:10117000C860204600F09CF92068006920F4904087
:10118000216808612068406920F02A0021684861D0
:101190002068C06840F400502168C8600020606486
:1011A000202084F8410084F842000020606300BFE2
:1011B000C8E7000010B586B004462449206888427C
:1011C00042D100BF00BF2248806940F0040020499E
:1011D00088610846806900F00400019000BF00BFEC
:1011E00000BF00BF00BF0846806940F0040088616E
:1011F0000846806900F00400019000BF00BF00BFF6
:1012000000BF00BF0846806940F4804088610846FE
:10121000806900F48040019000BF00BF00BF481506
:101220000290022003900320059002A90948FFF7CD
:10123000D3F94FF4806002900020039001200490C5
:1012400002A90448FFF7C8F906B010BD00380140F4
:10125000001002400008014000BFFEE700BFFEE7AB
:101260007047000008B508490968C9084FF47A7248
:10127000B1FBF2F14143009100BF00BF00994A1E4B
:1012800000920029F9D108BD00000020704700201D
:101290004FF0E02108610846006920F00400086171
:1012A0007047704770B50546002600224FF4007164
:1012B0003B48FFF739FB00224FF400613848FFF745
:1012C00033FB00241FE0002202213648FFF72CFBED
:1012D00005F0800028B1012251023148FFF724FBBC
:1012E00005E000224FF400712D48FFF71DFB680652
:1012F000050E012202212B48FFF716FB012000F00A
:1013000092F9601CC4B2082CDDDB002202212548C2
:10131000FFF70AFB00224FF400712148FFF704FB9E
:10132000062000F080F9002202211E48FFF7FCFA97
:10133000012000F078F9012202211A48FFF7F4FA9F
:10134000012000F070F900241CE04FF6FF7000EA65
:101350004606002202211348FFF7E6FA012000F0BA
:1013600062F9012202210F48FFF7DEFA04210D483D
:10137000FFF7D2FA08B146F00106012000F053F958
:10138000601CC4B20C2CE0DB0122D1020448FFF740
:10139000CBFA002202210348FFF7C6FA304670BD9F
:1013A000001C0140000C014000B585B000BF3D4865
:1013B000806940F080003B4988610846806900F000
:1013C0008000009000BF00BF00BF0846806940F069
:1013D000800088610846806900F08000009000BFAE
:1013E00000BF00BF0846806940F0080088610846D9
:1013F000806900F00800009000BF00BF00BF0846F1
:10140000806940F0800088610846806900F08000B3
:10141000009000BF00BF00BF0846806940F0080090
:1014200088610846806900F00800009000BF00BF96
:1014300008150190002002900120039003200490E1
:1014400001A91948FFF7C8F80420019001A917481D
:10145000FFF7C2F84FF4007001900120029001A93B
:101460001148FFF7B9F80220019001A90F48FFF7D2
:10147000B3F84FF40060019001A90B48FFF7ACF8F6
:101480000122D1020848FFF74FFA00220221074843
:10149000FFF74AFA00224FF400710348FFF744FABD
:1014A00005B000BD00100240001C0140000C0140CE
:1014B00070B504462168096921F44051E26811437E
:1014C000226811612269A1681143626941EA02053B
:1014D0002168C96841F20C62914329432268D160B6
:1014E0002168496921F44071A26911432268516160
:1014F0002D4A2168914202D1FFF78CFB01E0FFF7F2
:1015000079FB00EBC00101EB001162689200B1FBB6
:10151000F2F100EBC00202EB001263689B00B2FB29
:10152000F3F26423B2FBF3F202EBC20303EB021209
:10153000A1EB8201322202EB01116422B1FBF2F134
:1015400001F0F00100EBC00202EB001263689B00A7
:10155000B2FBF3F26423B2FBF3F201EB021200EBF5
:10156000C00101EB001163689B00B1FBF3F100EBDC
:10157000C00303EB00136668B600B3FBF6F3642602
:10158000B3FBF6F303EBC30606EB0313A1EB8301F6
:10159000322303EB01116423B1FBF3F101F00F01DE
:1015A00011442268916070BD0038014010B50446B6
:1015B0000748084908600846446000218160C1600E
:1015C000016181610C214161FFF7B8FD10BD000090
:1015D000003801401400002000BFFEE70248006808
:1015E000C0F30220704700000CED00E010B50028A9
:1015F00004DB0A07130E054A135406E00A07140E0B
:10160000034A00F00F031B1FD45410BD00E400E098
:1016100018ED00E030380A2801D201207047002080
:10162000704700BF7047FF214FF0E022916100EB4F
:10163000C00151611146096941F00101116100BF0A
:101640004FF0E021096901F480310029F8D04FF012
:10165000E021096921F001014FF0E022116170479A
:1016600000BF054A126802F04002002AF9D0C2B257
:10167000014B1B1D1A6070470038014000240025F3
:10168000FFF75EF94FF4E01000F028F8FFF7FFFDD8
:101690004FF4E130FFF78AFFFFF786FE12E04FF4C8
:1016A00080610948FFF738F960B9D020FFF7FAFDEB
:1016B00004469020FFF7F6FD05462A46214603A082
:1016C000FEF7AAFDEBE70000001C0140783A253444
:1016D00064202020793A2534640D0A0030B58FB09B
:1016E00005460124282105A8FEF78DFE1421684631
:1016F000FEF789FE01200590000406900020079067
:1017000002200C90C1030D910E9505A8FFF7CAFAAF
:1017100004460CB100BFFEE70F20009002200190AC
:10172000002002904FF4806003900020049002217A
:101730006846FFF793F904460CB100BFFEE70FB00F
:1017400030BD000000000000000001020304060795
:101750000809000000000102030402030405060753
:1017600008090A0B0C0D0E0F101001028C1700084F
:1017700000000020140000006C010008A017000801
:1017800014000020AC060000880100080024F400CA
:101790000000000000000000100000000100000038
:0400000508000131BD
:00000001FF
