:020000040800F2
:1000000020070020CD01000831120008A1110008CE
:100010002D120008690300084115000800000000C7
:10002000000000000000000000000000F9120008BD
:100030006D03000800000000E3010008E50100086E
:10004000E7010008E7010008E7010008E7010008F0
:10005000E7010008E7010008E7010008E7010008E0
:10006000E7010008E7010008E7010008E7010008D0
:10007000E7010008E7010008E7010008E7010008C0
:10008000E7010008E7010008E7010008E7010008B0
:10009000E7010008E7010008E7010008E7010008A0
:1000A000E7010008E7010008E7010008E701000890
:1000B000E7010008E7010008E7010008E701000880
:1000C000E7010008E7010008E7010008E701000870
:1000D000E70100084D140008E7010008E7010008E7
:1000E000E7010008E7010008E7010008E701000850
:1000F000E7010008E7010008E7010008E701000840
:10010000E7010008E7010008E7010008E70100082F
:10011000E7010008E7010008E7010008E70100081F
:10012000E7010008E7010008E7010008E70100080F
:1001300000F002F800F03AF80AA090E8000C8244BF
:100140008344AAF10107DA4501D100F02FF8AFF29C
:10015000090EBAE80F0013F0010F18BFFB1A43F0A5
:10016000010318470C1700002C170000103A24BF99
:1001700078C878C1FAD8520724BF30C830C144BF0C
:1001800004680C607047000000230024002500264E
:10019000103A28BF78C1FBD8520728BF30C148BFEA
:1001A0000B6070471FB51FBD10B510BD00F096F86D
:1001B0001146FFF7F7FF01F0BBFA00F0C8F803B4EF
:1001C000FFF7F2FF03BC01F0A3FA000009488047E3
:1001D00009480047FEE7FEE7FEE7FEE7FEE7FEE729
:1001E000FEE7FEE7FEE7FEE704480549054A064B41
:1001F000704700000F1300083101000820010020A3
:10020000200700202003002020030020704700006A
:100210000FB4044910B503AA029800F031F810BCDD
:100220005DF814FB080000204FF0000200B51346F3
:1002300094469646203922BFA0E80C50A0E80C5006
:10024000B1F12001BFF4F7AF090728BFA0E80C50B7
:1002500048BF0CC05DF804EB890028BF40F8042BB0
:1002600008BF704748BF20F8022B11F0804F18BF1D
:1002700000F8012B704770477047704770470000C7
:10028000074B70B50D467B4400F011F80446284634
:1002900000F020F810B14FF0FF3070BD204670BD67
:1002A0008B14000001694A1C02610878704700B590
:1002B0008FB0CDE901310021059105497944CDE99F
:1002C00003101146684600F02EF80FB000BD000084
:1002D000E5FFFFFF007B00F080007047754600F0EF
:1002E0003FF8AE4605006946534620F007008546B4
:1002F00018B020B5FFF778FFBDE820404FF00006AA
:100300004FF000074FF000084FF0000B21F00701FD
:10031000AC46ACE8C009ACE8C009ACE8C009ACE840
:10032000C0098D4670472DE9F04106460024D6E904
:100330000170F5688046304603E04146B847641CCA
:100340003046A8470028F8D12046BDE8F08110B516
:100350000446AFF300802046BDE81040FFF72FBFF2
:1003600000487047BC00002000BFFEE77047000057
:100370002DE9F847024600239C467BE14FF0010837
:1003800008FA03F4D1F8008008EA0400A0427DD105
:10039000DFF8F4A2D1F80480A8EB0A09D0453AD0DE
:1003A00014DCB8F1030F50D009DCB8F1000F31D0E4
:1003B000B8F1010F1CD0B8F1020F49D120E0B8F11B
:1003C000110F18D0B8F1120F42D11EE0B9F5881FF5
:1003D00025D006DCB9F5803F20D0B9F5801F37D194
:1003E0001AE0B9F5001F18D0B9F5041F30D117E095
:1003F000D1F80CC02DE0D1F80C8008F1040C28E0F5
:10040000D1F80C8008F1080C23E0D1F80C8008F139
:100410000C0C1EE000BF00BF00BF00BF00BF00BF4C
:10042000D1F80880B8F1000F02D14FF0040C0BE0B6
:10043000D1F80880B8F1010F03D14FF0080C146116
:1004400002E04FF0080C546103E04FF0000C00E0B4
:1004500000BF00BFFF2801D8904601E002F1040868
:100460004646FF2802D84FEA830803E0A3F10808B4
:100470004FEA88084746D6F800804FF00F0909FA7E
:1004800007F928EA09080CFA07F900E07AE048EAD7
:100490000908C6F80080D1F8048008F08058B8F147
:1004A000805F6FD100BFDFF8E481D8F8188048F092
:1004B0000108DFF8D891C9F81880C846D8F8188024
:1004C00008F00108CDF8008000BF00BF4FEAB9383E
:1004D0004FEA930958F829504FEA83784FEA187980
:1004E0004FF00F0808FA09F825EA0805DFF8A0819F
:1004F000424502D14FF0000824E0DFF898814245E0
:1005000002D14FF001081DE0DFF88C81424502D195
:100510004FF0020816E0DFF88481424502D14FF027
:1005200003080FE0DFF87881424502D14FF004085C
:1005300008E0DFF87081424502D14FF0050801E084
:100540004FF006084FEA83794FEA197908FA09F85B
:1005500048EA0505DFF850814FEA930948F8295029
:10056000D1F8048008F48018B8F5801F0BD1DFF8AB
:100570003C81D8F8008048EA0008DFF83091C9F8DB
:1005800000800AE075E0DFF82481D8F8008028EACE
:100590000008DFF81891C9F80080D1F8048008F449
:1005A0000018B8F5001F0ED1DFF8008108F104082B
:1005B000D8F8008048EA0008DFF8F09009F1040953
:1005C000C9F800800DE0DFF8E48008F10408D8F8ED
:1005D000008028EA0008DFF8D49009F10409C9F87E
:1005E0000080D1F8048008F40038B8F5003F0ED13F
:1005F000DFF8B880A8F10408D8F8008048EA0008BD
:10060000DFF8A890A9F10409C9F800800DE0DFF82F
:100610009C80A8F10408D8F8008028EA0008DFF8D8
:100620008C90A9F10409C9F80080D1F8048008F47D
:100630008038B8F5803F0ED1DFF87080A8F1080847
:10064000D8F8008048EA0008DFF86090A9F10809AE
:10065000C9F800800DE0DFF85480A8F10808D8F848
:10066000008028EA0008DFF84490A9F10809C9F8D9
:1006700000805B1CD1F8008028FA03F8B8F1000F65
:100680007FF47CAEBDE8F887000011100010024036
:1006900000080140000C014000100140001401401E
:1006A00000180140001C01400800014008040140FE
:1006B0000AB1016101E00B04036170470148006861
:1006C000704700001000002010B50848006840F096
:1006D000100006490860032000F080F80F2000F0A9
:1006E00007F800F02BF8002010BD000000200240A9
:1006F00070B504460E4800784FF47A71B1FBF0F003
:100700000C490968B1FBF0F5284600F08BFC08B1F4
:10071000012070BD102C07D200222146501E00F08F
:100720001EF80548046001E00120F2E70020F0E730
:10073000180000200000002014000020704701462F
:100740000846002809DB00F01F0301229A404309F4
:100750009B0003F1E023C3F8002100BF70472DE99F
:10076000F05F80460D461646002700F0B5FF0746AD
:1007700039462A46334601F00700C0F1070ABAF1AC
:10078000040F02D94FF0040A01E0C0F1070AD14674
:1007900000F1040ABAF1070F02D24FF0000A01E09B
:1007A000A0F1030AD4464FF0010A0AFA09FAAAF1A5
:1007B000010A0AEA020A0AFA0CFA4FF0010B0BFAD4
:1007C0000CFBABF1010B0BEA030B4AEA0B042146CD
:1007D000404600F089FFBDE8F09F000000BF00F038
:1007E0000702064B19684FF6FF031940044B0B43F1
:1007F00043EA0221014B196000BF70470CED00E095
:100800000000FA0570B504460D460CB9012070BD14
:100810005A48006800F00700A8420ED25748006806
:1008200020F007002843554908600846006800F09A
:100830000700A84201D00120E9E7207800F002007B
:1008400002281DD1207800F00400042805D14C486E
:10085000406840F4E0604A494860207800F00800B1
:10086000082805D14648406840F460504449486033
:100870004348406820F0F000A168084340494860C0
:10088000207800F0010078B36068012806D13C4868
:10089000006800F4003090B90120B8E760680228D1
:1008A00006D13748006800F0007040B90120AEE77B
:1008B0003348006800F0020008B90120A7E730487B
:1008C000406820F00300616808432D494860FFF745
:1008D000F5FE064609E0FFF7F1FE801B41F2883184
:1008E000884202D9032092E707E02548406800F0DB
:1008F0000C006168B0EB810FEDD12048006800F07A
:100900000700A8420ED91D48006820F007002843C0
:100910001A4908600846006800F00700A84201D0A4
:10092000012074E7207800F00400042807D114485F
:10093000406820F4E060E16808431149486020788D
:1009400000F00800082808D10D48406820F46050E5
:10095000216940EAC1000A49486000F03FF80849AF
:100960004968C1F30311074A515CC8400649086051
:1009700006480068FFF7BCFE002048E70020024060
:1009800000100240FA1700080000002014000020A8
:1009900001480068704700000000002000B5FFF724
:1009A000F7FF04494968C1F30221034A515CC8407A
:1009B00000BD0000001002400A18000800B5FFF753
:1009C000E7FF04494968C1F3C221034A515CC840AA
:1009D00000BD0000001002400A18000870B5002198
:1009E0000022002400230020134D696801F00C054B
:1009F000F5B1042D02D0082D19D101E00F4819E0FE
:100A00000F4DC1F38346AB5D01F4803555B10A4DFE
:100A10006D68C5F340450B4E725D084D5D43B5FBF7
:100A2000F2F402E0084D03FB05F4204602E000BFAB
:100A3000024800BF00BF70BD0010024000127A00E3
:100A4000121800082218000800093D00F8B50446F5
:100A50000CB90120F8BD207800F00100002878D002
:100A6000F848406800F00C0004280CD0F5484068B5
:100A700000F00C00082811D1F248406800F48030E2
:100A8000B0F5803F0AD1EF48006800F4003000283C
:100A90005FD0606800285CD10120DBE700BF6068A0
:100AA000B0F5803F06D1E748006840F48030E54962
:100AB000086028E0606858B9E248006820F4803097
:100AC000E04908600846006820F4802008601AE0C9
:100AD0006068B0F5A02F0BD1DA48006840F48020A0
:100AE000D84908600846006840F4803008600AE091
:100AF000D448006820F48030D24908600846006875
:100B000020F48020086000BF606888B1FFF7D6FD40
:100B1000054606E0FFF7D2FD401B642801D90320FB
:100B200098E7C848006800F400300028F2D010E0D0
:100B3000FFF7C4FD054606E0FFF7C0FD401B642833
:100B400001D9032086E7BF48006800F40030002880
:100B5000F2D1207800F00200022857D1B94840684D
:100B600000F00C0050B1B748406800F00C000828B5
:100B700018D1B448406800F4803098B9B148006892
:100B800000F0020020B12069012801D0012061E7B6
:100B9000AC48006820F0F800616940EAC100A9494A
:100BA000086033E02069E8B10120A7490860FFF739
:100BB00085FD054606E0FFF781FD401B022801D9AF
:100BC000032047E79F48006800F002000028F2D0A9
:100BD0009C48006820F0F800616940EAC10099492A
:100BE000086013E0002098490860FFF767FD05469C
:100BF00006E0FFF763FD401B022801D9032029E727
:100C00009048006800F002000028F2D1207800F03F
:100C1000080008282DD1A069B8B101208B490860CF
:100C2000FFF74CFD054606E0FFF748FD401B022894
:100C300001D903200EE78348406A00F00200002833
:100C4000F2D0012000F0F6FA13E000207F4908609E
:100C5000FFF734FD054606E0FFF730FD401B022894
:100C600001D90320F6E67748406A00F00200002828
:100C7000F2D1207800F00400042873D100277148D5
:100C8000C06900F0805070B900BF6E48C06940F084
:100C900080506C49C8610846C06900F080500090DF
:100CA00000BF00BF01276A48006800F48070B0B937
:100CB0006748006840F4807065490860FFF7FEFCF3
:100CC000054606E0FFF7FAFC401B642801D9032023
:100CD000C0E65F48006800F480700028F2D000BFD2
:100CE000E068012806D15748006A40F001005549E4
:100CF000086227E0E06858B95248006A20F0010015
:100D0000504908620846006A20F00400086219E0B1
:100D1000E06805280BD14B48006A40F004004949BF
:100D200008620846006A40F0010008620AE045488F
:100D3000006A20F00100434908620846006A20F07A
:100D40000400086200BFE068A0B1FFF7B7FC0546E9
:100D500009E0FFF7B3FC401B41F28831884202D919
:100D6000032077E622E03748006A00F002000028FE
:100D7000EFD012E0FFF7A2FC054608E0FFF79EFC6B
:100D8000401B41F28831884201D9032062E62D4898
:100D9000006A00F002000028F0D1012F05D1294897
:100DA000C06920F080502749C86100BFE069C8B31E
:100DB0002448406800F00C00082860D0E069022850
:100DC00048D1002020490866FFF778FC054606E078
:100DD000FFF774FC401B022801D903203AE61948AA
:100DE000006800F000700028F2D1206AB0F5803F62
:100DF00007D11448406820F40030A1680843114925
:100E00004860D4E9080108430E49496821F4741187
:100E100008430C49486001200B490866FFF74EFC67
:100E2000054607E03DE0FFF749FC401B022801D9D9
:100E300003200FE60348006800F000700028F2D09D
:100E40002FE00000001002400000424280044242B5
:100E500000700040002014490866FFF72FFC05468B
:100E600006E0FFF72BFC401B022801D90320F1E527
:100E70000E48006800F000700028F2D111E0E0692F
:100E8000012800D1E6E50948466806F48031206A69
:100E9000814204D106F47011606A814201D00120C0
:100EA000D8E50020D6E500000000424200100240D4
:100EB00010B504460CB9012010BD606A38B96068ED
:100EC000B0F5827F00D105E00021E16102E0002160
:100ED00021616161A06AB0F5005F00D100BF94F8A4
:100EE000510028B9002084F85000204600F04AF84C
:100EF000022084F851002068006820F0400021683A
:100F00000860A08800F48270218901F4044108433C
:100F1000A18901F400610843217C01F0020108432A
:100F2000217D01F001010843218B01F40071084388
:100F3000217F01F0380108432021095D01F0800183
:100F40000843218D01F40051084321680860042101
:100F5000A06901EA104021684860A06AB0F5005F0E
:100F600003D1A08D80B2216808612068C06920F497
:100F700000602168C86100206065012084F851008C
:100F8000002099E710B586B00446234920688842BE
:100F900040D100BF2148806940F008001F498861A6
:100FA0000846806900F00800019000BF00BF00BF44
:100FB0000846806940F0080088610846806900F0B2
:100FC0000800019000BF00BF00BF0846806940F0E4
:100FD000080088610846806900F00800019000BFA1
:100FE00000BF4FF4005002900220039003200590B0
:100FF00002A90B48FFF7BCF94FF48040029002A908
:101000000748FFF7B5F94FF40040029002A90448E1
:10101000FFF7AEF906B010BD0038004000100240E6
:10102000000C014070B504462546681EB0F1807F73
:1010300001D301200FE0681E4FF0E02148610F212D
:101040004FF0FF3000F050FB00204FF0E0218861AE
:1010500007200861002070BD10B504460CB90120BE
:1010600010BDA06900B100E000BF94F8410028B9AC
:10107000002084F84000204600F02AF8242084F85C
:1010800041002068C06820F400502168C8602046F4
:1010900000F03EF92068006920F490402168086162
:1010A0002068406920F02A00216848612068C068F3
:1010B00040F400502168C86000206064202084F85B
:1010C000410084F842000020606300BFC8E70000D0
:1010D00010B586B0044624492068884242D100BF3A
:1010E00000BF2248806940F004002049886108461A
:1010F000806900F00400019000BF00BF00BF00BF86
:1011000000BF0846806940F0040088610846806995
:1011100000F00400019000BF00BF00BF00BF00BF8F
:101120000846806940F4804088610846806900F480
:101130008040019000BF00BF00BF48150290022010
:1011400003900320059002A90948FFF711F94FF415
:1011500080600290002003900120049002A90448BE
:10116000FFF706F906B010BD00380140001002403C
:101170000008014070B504460D46164694F842003A
:1011800020280BD105B10EB9012070BD00202063CD
:1011900032462946204600F039F9F6E70220F4E706
:1011A00000BFFEE700B585B000BF1D48806940F074
:1011B00008001B4988610846806900F0080000901B
:1011C00000BF00BF00BF0846806940F04000886152
:1011D0000846806900F04000009000BF00BF20205A
:1011E00001900120029003900320049001A90D4872
:1011F000FFF7BEF82020019001A90B48FFF7B8F8CF
:1012000000BF012220210748FFF752FA00BF00BFAC
:10121000012220210448FFF74BFA00BF05B000BDB2
:1012200000100240000C01400018014000BFFEE722
:101230007047000008B508490968C9084FF47A7278
:10124000B1FBF2F14143009100BF00BF00994A1E7B
:1012500000920029F9D108BD0000002008B500BFA8
:101260001648C06940F480401449C8610846C06906
:1012700000F48040009000BF00BF11481149086091
:101280004FF48270486000210E488160C1600161A6
:1012900041614FF4007181610021C16101624162CD
:1012A00081620721C162FFF703FE064800680068FB
:1012B00040F0400003490968086008BD0010024082
:1012C000003800406400002000BF0A49096801F0AE
:1012D00002010029F9D00749091D086000BF05492E
:1012E000096801F001010029F9D00249091D0968C6
:1012F000C8B2704708380040704700204FF0E02126
:1013000008610846006920F00400086170477047D2
:1013100070B504462168096921F44051E26811431F
:10132000226811612269A1681143626941EA0205DC
:101330002168C96841F20C62914329432268D16057
:101340002168496921F44071A26911432268516101
:101350002D4A2168914202D1FFF730FB01E0FFF7EF
:101360001DFB00EBC00101EB001162689200B1FBB4
:10137000F2F100EBC00202EB001263689B00B2FBCB
:10138000F3F26423B2FBF3F202EBC20303EB0212AB
:10139000A1EB8201322202EB01116422B1FBF2F1D6
:1013A00001F0F00100EBC00202EB001263689B0049
:1013B000B2FBF3F26423B2FBF3F201EB021200EB97
:1013C000C00101EB001163689B00B1FBF3F100EB7E
:1013D000C00303EB00136668B600B3FBF6F36426A4
:1013E000B3FBF6F303EBC30606EB0313A1EB830198
:1013F000322303EB01116423B1FBF3F101F00F0180
:1014000011442268916070BD0038014010B5034658
:1014100099629A85DA8500205864222083F8420078
:10142000186928B11868C06840F480701C68E060D2
:101430001868406940F001001C6860611868C06865
:1014400040F020001C68E060002010BD08B51E4878
:1014500000680068C0F34010E8B100BF00222021FE
:101460001A48FFF725F900BF19480068C0B200907C
:101470006A4601211748006800F0B6F81548006870
:10148000401C144908601248001F006820F020002A
:101490000F49091F08600C4800680068C0F300107D
:1014A00080B100BF012220210848FFF701F900BFE9
:1014B0000748001F006820F010000549091F086058
:1014C000081D006808BD00001C000020000C014041
:1014D000043801400C00002010B504461548164998
:1014E00008600846446000218160C160016181613B
:1014F0000C214161FFF7B0FD2520FFF720F9012203
:1015000011462520FFF72BF90B480068C06840F012
:10151000100009490968C86007480068C06840F0C1
:10152000200005490968C860012204490248FFF704
:1015300021FE10BD003801401C00002004000020E6
:1015400000BFFEE710B5044600F0B4F800F0A8F8BC
:1015500000224FF480510848FFF7AAF8D820FFF77F
:10156000B3FE204600F08EF8012211030248FFF777
:101570009FF800F095F810BD000C014070B50546CD
:101580000C4606E02846FFF7DDFF05F58035601EB6
:10159000C4B2002CF6D170BD00B585B000BF1048B4
:1015A000806940F008000E4988610846806900F0B3
:1015B0000800009000BF00BF881401900120029035
:1015C0000320049001A90748FEF7D2FE012211036F
:1015D0000448FFF76DF8FFF741FE05B000BD0000BD
:1015E00000100240000C014070B506460C4615463E
:1015F00000F060F800224FF480510C48FFF758F8D3
:101600000220FFF761FE304600F03CF804E0287845
:10161000FFF75AFE6D1C641E002CF8D10122110345
:101620000248FFF745F800F03BF870BD000C0140A0
:1016300070B5044600250026012C04D0022C04D0ED
:10164000032C06D103E0052605E0352603E0152628
:1016500001E0052600BF00BF00224FF4805108487A
:10166000FFF726F83046FFF72FFEFF20FFF72CFE8E
:101670000546012211030248FFF71AF8284670BDFB
:10168000000C014010B50446C4F30740FFF71CFEF0
:10169000C4F30720FFF718FEE0B2FFF715FE10BDF8
:1016A00010B500BF0120FFF7C3FF00F001000028C4
:1016B000F8D110BD10B500224FF480510548FEF757
:1016C000F7FF0620FFF700FE012211030148FEF795
:1016D000EFFF10BD000C014002480068C0F302207B
:1016E000704700000CED00E010B5002804DB0A078D
:1016F000130E054A135406E00A07140E034A00F0BD
:101700000F031B1FD45410BD00E400E018ED00E0EF
:1017100000BF704700BF054A126802F04002002A6D
:10172000F9D0C2B2014B1B1D1A607047003801404E
:10173000FEF7CAFF4FF4E01000F02CF80520FFF789
:101740004DF8FFF7DAFD4FF4E130FFF7C5FEFFF784
:1017500029FDFFF721FF08A0FEF75AFD15214FF4E0
:101760003020FFF70BFF07A0FEF752FD0848FEF7F9
:101770004FFD00BFFEE70000BFAACABCB2C1B3FD67
:101780000D0A0000B2C1B3FDCDEAB3C90D0A0000D5
:101790002418000830B58FB005460124282105A87B
:1017A000FEF742FD14216846FEF73EFD012005903C
:1017B000000406900020079002200C90C1030D91B8
:1017C0000E9505A8FFF742F904460CB100BFFEE7ED
:1017D0000F20009002200190002002904FF48060C2
:1017E00003900020049002216846FFF70BF804469E
:1017F0000CB100BFFEE70FB030BD000000000000DC
:1018000000000102030406070809000000000102AD
:10181000030402030405060708090A0B0C0D0E0F4A
:1018200010100102C7EBB7A2C9FAD7D6BFE2B5C400
:1018300062696ECEC4BCFEA3ACB5B14C454430C1A8
:10184000C1CAB1A3ACCEC4BCFED5FDD4DAC9D5C2E1
:10185000BCD6D0A3ACB5B14C454430CFA8C3F0CA78
:10186000B1A3ACC9D5C2BCCDEAB3C90D0A00000012
:1018700090180008000000201C0000006C01000807
:10188000AC1800081C0000200407000088010008B4
:101890000024F400000000000000000000000B0025
:0C18A0000000000010000000010000002B
:0400000508000131BD
:00000001FF
