:020000040800F2
:10000000F0060020D5010008651D00085D1D0008F0
:10001000611D00088D060008911F00080000000007
:10002000000000000000000000000000911D00081A
:100030009106000800000000EB010008ED01000837
:10004000EF010008EF010008EF010008EF010008D0
:10005000EF010008EF010008EF010008EF010008C0
:10006000EF010008EF010008EF010008EF010008B0
:10007000EF010008EF010008EF010008EF010008A0
:10008000EF010008EF010008EF010008EF01000890
:10009000EF010008EF010008EF010008EF01000880
:1000A000EF010008EF010008EF010008EF01000870
:1000B000EF010008EF010008EF010008EF01000860
:1000C000EF010008EF010008EF010008EF01000850
:1000D000EF010008EF010008EF010008EF01000840
:1000E000EF010008EF010008EF010008EF01000830
:1000F000EF010008EF010008EF010008D904000833
:10010000EF010008EF010008EF010008EF0100080F
:10011000EF010008EF010008EF010008EF010008FF
:10012000EF010008EF010008EF010008EF010008EF
:1001300000F002F800F03FF80AA090E8000C8244BA
:100140008344AAF10107DA4501D100F034F8AFF297
:10015000090EBAE80F0013F0010F18BFFB1A43F0A5
:1001600001031847601F0000801F0000103A24BFE1
:1001700078C878C1FAD8520724BF30C830C144BF0C
:1001800004680C607047000000230024002500264E
:10019000103A28BF78C1FBD8520728BF30C148BFEA
:1001A0000B607047642900F07780002070471FB50E
:1001B0001FBD10B510BD00F05DF91146FFF7F7FF48
:1001C00001F014FF00F07BF903B4FFF7F2FF03BC6A
:1001D00001F0FCFE0948804709480047FEE7FEE7BA
:1001E000FEE7FEE7FEE7FEE7FEE7FEE7FEE7FEE7E7
:1001F00004480549054A064B70470000A71D000842
:1002000031010008F0000020F0060020F00200207C
:10021000F0020020704700000FB4044910B503AA93
:10022000029800F0F9F810BC5DF814FB04000020FF
:100230002DE9F0410E460446002020622046E16888
:10024000884730B3252805D0D4E901219047206A9A
:10025000401CF2E7E168204600278847050018D0D7
:10026000A5F14100192802D820354FF40067324625
:10027000294620462760FFF795FF40B1012804D0AA
:10028000F61D26F007060836D8E7361DD6E72846BD
:10029000DAE7206ABDE8F0812DE9F0410646002446
:1002A00010687529314616A510D0AFF300800028DC
:1002B00002DA404213A507E031688A0701D512A58A
:1002C00002E0490704D511A5012401E0AFF3008045
:1002D00000210A2206F1240709E0B0FBF2FCB0FB82
:1002E000F2F302FB1C00303078541846491C0028F9
:1002F000F3D123462A463046BDE8F04100F033B83A
:10030000000000002D0000002B0000002000000075
:100310004FF0000200B5134694469646203922BF9E
:10032000A0E80C50A0E80C50B1F12001BFF4F7AFE9
:10033000090728BFA0E80C5048BF0CC05DF804EBCB
:10034000890028BF40F8042B08BF704748BF20F839
:10035000022B11F0804F18BF00F8012B7047704737
:100360007047704770472DE9F0470D469946924611
:10037000044600F124080168880604D5E06921F0EC
:100380001001216000E00120A84201DD471B00E0D0
:100390000027A1697A1902EB0900081AA0612078E8
:1003A000C00602D42046AFF30080002608E0D4E95E
:1003B00001211AF806009047206A401C761C206232
:1003C0004E45F4DB2078C0060AD52046AFF3008006
:1003D00006E0D4E9012130209047206A401C2062C9
:1003E000381EA7F10107F4DC07E0D4E9012118F871
:1003F00005009047206A401C2062281EA5F10105D7
:10040000F3DC2046AFF300802078000602D50220FE
:10041000BDE8F0870120FBE7074B70B50D467B4434
:1004200000F011F80446284600F020F810B14FF013
:10043000FF3070BD204670BDAF1B000001694A1C33
:1004400002610878704700B58FB0CDE90131002115
:10045000059105497944CDE9031011466846FFF737
:10046000E7FE0FB000BD0000E5FFFFFF007B00F0DE
:1004700080007047754600F02BF8AE4605006946CF
:10048000534620F00700854618B020B5FFF7B0FEB0
:10049000BDE820404FF000064FF000074FF0000885
:1004A0004FF0000B21F00701AC46ACE8C009ACE806
:1004B000C009ACE8C009ACE8C0098D46704710B56A
:1004C0000446AFF300802046BDE81040FFF77CBE35
:1004D000004870478C00002010B5024800F07AFAFE
:1004E00010BD00005C00002000B58BB0182105A8ED
:1004F000FFF70EFF00BF2748806940F40040254900
:1005000088610846806900F40040009000BF00BF89
:10051000022005908003079005A800F02BFF1E48DD
:100520001E4908600020486000211C48816001735A
:10053000012101610021017581614FF46021C161D8
:1005400000F0D2FA0020019001A9144800F032F91D
:1005500006200290012003900720049002A90F4872
:1005600000F066F90D480068406840F020000B4933
:1005700009684860012211462F2000F01CFE2F2040
:1005800000F009FE054800F085F8044800F084FBFF
:100590000BB000BD00100240003C01405C00002098
:1005A00070B5044600252068806800F0010018B38B
:1005B0002068806820F001002168886000F0AAFDB2
:1005C000054613E000F0A6FD401B02280ED9206866
:1005D000806800F0010048B1A06A40F01000A062FD
:1005E000E06A40F00100E062012070BD2068806890
:1005F00000F001000028E5D10020F6E738B50446F8
:100600000025002000902068806800F0010078BB81
:100610002068806840F001002168886019480068FF
:100620001949B0FBF1F0009002E00098401E0090E4
:1006300000980028F9D100F06DFD054619E000F0A2
:1006400069FD401B022814D92068806800F0010071
:1006500078B9A06A40F01000A062E06A40F00100A2
:10066000E06200BF002084F8240000BF012038BDF4
:1006700005E02068806800F001000028DFD000203D
:10068000F5E700000000002040420F0000BFFEE739
:1006900070470000F8B5044600260020009000BF17
:1006A00094F82400012801D10220F8BD012084F82B
:1006B000240000BF2046FFF773FF06462046FFF7E1
:1006C0009DFF0646002E69D1A06A20F4885040F0B4
:1006D0000200A062022000F0C1FD34490968B1FBAC
:1006E000F0F04000009002E00098401E009000985A
:1006F0000028F9D12068806840F0080021688860EF
:1007000000F008FD054616E000F004FD401B0A2835
:1007100011D92068806800F0080060B1A06A20F05C
:10072000020040F01000A06200BF002084F8240006
:1007300000BF0120B9E72068806800F008000028A9
:10074000E2D12068806840F004002168886000F0F1
:10075000E1FC054616E000F0DDFC401B0A2811D93B
:100760002068806800F0040060B1A06A20F00200F8
:1007700040F01000A06200BF002084F8240000BFF9
:10078000012092E72068806800F004000028E2D190
:10079000A06A20F0020040F00100A06200BF00202B
:1007A00084F8240000BF30467FE7000000000020EE
:1007B0007047000070B58CB004460D46002630210D
:1007C0006846FFF7A5FD00BF94F82400012802D178
:1007D00002200CB070BD012084F8240000BF124834
:1007E00000902068806800F0010088B90098806857
:1007F00000F0010060B90D492068884208D12068E6
:10080000406820F47020296808432168486004E0AB
:10081000A06A40F02000A062012600BF002084F8FA
:10082000240000BF3046D4E70028014000240140E6
:1008300038B5024600230020009000BF92F8240043
:10084000012801D1022038BD012082F8240000BF18
:100850004868072812D21068406B0C79641E04EBBC
:1008600084051F24AC40A0430D796D1E05EB850562
:100870000C68AC4020431468606327E048680D288A
:1008800012D21068006B0C79E41F04EB84051F245E
:10089000AC40A0430D79ED1F05EB85050C68AC401D
:1008A00020431468206311E01068C06A0C790D3C85
:1008B00004EB84051F24AC40A0430D790D3D05EBEE
:1008C00085050C68AC4020431468E06208680A287B
:1008D00012D31068C0680C780A3C04EB4405072466
:1008E000AC40A0430D780A3D05EB45058C68AC4053
:1008F00020431468E0600FE0106800690C7804EB96
:1009000044050724AC40A0430D7805EB45058C68F1
:10091000AC402043146820610868102802D00868A1
:10092000112827D1174C1068A0421ED1106880688A
:1009300000F40000F0B91068806840F4000014680A
:10094000A0600868102815D10F4800680F4CB0FB54
:10095000F4F000EB80004000009002E00098401EA0
:10096000009000980028F9D104E0906A40F020003F
:100970009062012300BF002082F8240000BF1846C7
:1009800061E70000002401400000002040420F0009
:1009900070B504460849206888420CD1204600F012
:1009A00015F885B2294605A0FFF736FC6FF0020066
:1009B00005490968086070BD003C014064617461CC
:1009C0003A25640D0A0000005C000020014608681A
:1009D000C06C704770B5044620680568206846689A
:1009E00006F0200020282DD105F00200022829D190
:1009F000A06A00F0100018B9A06A40F40070A0626C
:100A00002068806800F46020B0F5602F13D1207B4F
:100A100088B92068406820F0200021684860A06AFA
:100A200020F48070A062A06A00F4805018B9A06A17
:100A300040F00100A0622046FFF7AAFF6FF012000D
:100A40002168086006F08000802839D105F0040094
:100A5000042835D1A06A00F0100018B9A06A40F44B
:100A60000050A0622068806800F4E040B0F5E04FDC
:100A70000DD02068406800F48060D0B9206880689C
:100A800000F46020B0F5602F13D1207B88B9206876
:100A9000406820F0800021684860A06A20F48050FF
:100AA000A062A06A00F4807018B9A06A40F001004A
:100AB000A0622046FFF77CFE6FF00C002168086002
:100AC00006F0400040280DD105F0010050B1A06AA9
:100AD00040F48030A062204600F0B6F86FF00100CC
:100AE0002168086070BD00002DE9F0410446002730
:100AF00000250026A84614B90120BDE8F081A068B1
:100B000010B1207D00B100BFA06A30B90020E062C2
:100B100084F82400204600F099F82046FFF740FDB5
:100B20000746A06A00F01000002873D1002F7ED184
:100B3000A06A20F4885040F00200A0623F4AD4E945
:100B40000001904208D1E069B0F5402F02D14FF486
:100B5000002002E0E06900E0E0690143207B41EA17
:100B600040000643A068B0F5807F02D0A06801284D
:100B700002D14FF4807000E000200543207D012861
:100B800011D1207B38B9A069401E4FF4006141EAC1
:100B90004030054307E0A06A40F02000A062E06A10
:100BA00040F00100E0622068406820F4694028437A
:100BB00021684860206880682149084030432168E6
:100BC0008860A068B0F5807F02D0A068012802D1BB
:100BD0004FF4807000E00020B0F5807F03D1208AC0
:100BE000401E4FEA00582068C06A20F4700040EAB6
:100BF00008002168C8622068806812490840B04235
:100C000009D10020E062A06A20F0020040F001005B
:100C1000A06211E00BE0A06A20F0020040F010009A
:100C2000A062E06A40F00100E062012704E0A06AEF
:100C300040F01000A062012738465EE7003C01400A
:100C4000FDF7E1FFFE0E1FFF7047000010B586B0F4
:100C500004460E492068884216D100BF0C488069BE
:100C600040F004000A4988610846806900F00400E9
:100C7000019000BF00BF0220029003200390059066
:100C800002A9044800F0A6F806B010BD003C0140DF
:100C9000001002400008014070B50446002500BF66
:100CA00094F82400012801D1022070BD012084F8AD
:100CB000240000BF2046FFF7A1FC0546002D7DD192
:100CC000A06A40F60161884340F48070A0623F4909
:100CD0002068884208D13E48006800F4702008B9B6
:100CE000012002E0002000E0012078B1A06A20F499
:100CF0008010A0622068406800F4806000B3A06AA1
:100D000020F4005040F48050A06219E0A06A40F442
:100D10008010A0622E49091F2068884203D02B4909
:100D20002068884204D12A48006800F4806000E00E
:100D3000002028B1A06A20F4005040F48050A06246
:100D4000A06A00F4805020B1E06A20F00600E06262
:100D500001E00020E06200BF002084F8240000BF12
:100D6000C01E216808602068406840F020002168AB
:100D700048602068806800F46020B0F5602F16D1CC
:100D800012492068884208D11148006800F4702098
:100D900008B9012002E0002000E0012038B12068FD
:100DA000806840F4A000216888600CE006E02068BC
:100DB000806840F480102168886004E000BF002053
:100DC00084F8240000BF28466FE700000028014097
:100DD000042401402DE9F847024600239C467BE1AC
:100DE0004FF0010808FA03F4D1F8008008EA040083
:100DF000A0427DD1DFF8F4A2D1F80480A8EB0A0963
:100E0000D0453AD014DCB8F1030F50D009DCB8F16A
:100E1000000F31D0B8F1010F1CD0B8F1020F49D149
:100E200020E0B8F1110F18D0B8F1120F42D11EE036
:100E3000B9F5881F25D006DCB9F5803F20D0B9F57B
:100E4000801F37D11AE0B9F5001F18D0B9F5041F7B
:100E500030D117E0D1F80CC02DE0D1F80C8008F1AA
:100E6000040C28E0D1F80C8008F1080C23E0D1F83C
:100E70000C8008F10C0C1EE000BF00BF00BF00BFDB
:100E800000BF00BFD1F80880B8F1000F02D14FF0C9
:100E9000040C0BE0D1F80880B8F1010F03D14FF03A
:100EA000080C146102E04FF0080C546103E04FF0AD
:100EB000000C00E000BF00BFFF2801D8904601E011
:100EC00002F104084646FF2802D84FEA830803E0EF
:100ED000A3F108084FEA88084746D6F800804FF08B
:100EE0000F0909FA07F928EA09080CFA07F900E0DE
:100EF0007AE048EA0908C6F80080D1F8048008F0D2
:100F00008058B8F1805F6FD100BFDFF8E481D8F876
:100F1000188048F00108DFF8D891C9F81880C84651
:100F2000D8F8188008F00108CDF8008000BF00BF95
:100F30004FEAB9384FEA930958F829504FEA8378B5
:100F40004FEA18794FF00F0808FA09F825EA080562
:100F5000DFF8A081424502D14FF0000824E0DFF81D
:100F60009881424502D14FF001081DE0DFF88C81E5
:100F7000424502D14FF0020816E0DFF88481424575
:100F800002D14FF003080FE0DFF87881424502D12B
:100F90004FF0040808E0DFF87081424502D14FF0BD
:100FA000050801E04FF006084FEA83794FEA197906
:100FB00008FA09F848EA0505DFF850814FEA930975
:100FC00048F82950D1F8048008F48018B8F5801F3B
:100FD0000BD1DFF83C81D8F8008048EA0008DFF840
:100FE0003091C9F800800AE075E0DFF82481D8F874
:100FF000008028EA0008DFF81891C9F80080D1F8CD
:10100000048008F40018B8F5001F0ED1DFF8008145
:1010100008F10408D8F8008048EA0008DFF8F090EA
:1010200009F10409C9F800800DE0DFF8E48008F157
:101030000408D8F8008028EA0008DFF8D49009F105
:101040000409C9F80080D1F8048008F40038B8F524
:10105000003F0ED1DFF8B880A8F10408D8F800806E
:1010600048EA0008DFF8A890A9F10409C9F800804F
:101070000DE0DFF89C80A8F10408D8F8008028EA89
:101080000008DFF88C90A9F10409C9F80080D1F8B4
:10109000048008F48038B8F5803F0ED1DFF8708006
:1010A000A8F10808D8F8008048EA0008DFF8609046
:1010B000A9F10809C9F800800DE0DFF85480A8F113
:1010C0000808D8F8008028EA0008DFF84490A9F161
:1010D0000809C9F800805B1CD1F8008028FA03F8E1
:1010E000B8F1000F7FF47CAEBDE8F8870000111066
:1010F0000010024000080140000C014000100140B7
:101100000014014000180140001C0140080001408B
:1011100008040140014800687047000008000020F2
:1011200010B50848006840F0100006490860032028
:1011300000F080F80F2000F007F800F02BF80020F6
:1011400010BD00000020024070B504460E48007833
:101150004FF47A71B1FBF0F00C490968B1FBF0F57E
:10116000284600F0F5FC08B1012070BD102C07D214
:1011700000222146501E00F01EF80548046001E0E0
:101180000120F2E70020F0E710000020000000201E
:101190000C000020704701460846002809DB00F0DB
:1011A0001F0301229A4043099B0003F1E023C3F887
:1011B000002100BF70472DE9F05F80460D461646BE
:1011C000002700F0E7FE074639462A46334601F07D
:1011D0000700C0F1070ABAF1040F02D94FF0040A60
:1011E00001E0C0F1070AD14600F1040ABAF1070F85
:1011F00002D24FF0000A01E0A0F1030AD4464FF0FA
:10120000010A0AFA09FAAAF1010A0AEA020A0AFA22
:101210000CFA4FF0010B0BFA0CFBABF1010B0BEAD4
:10122000030B4AEA0B042146404600F0BBFEBDE832
:10123000F09F000000BF00F00702064B19684FF650
:10124000FF031940044B0B4343EA0221014B196091
:1012500000BF70470CED00E00000FA052DE9F047F3
:1012600006464FF00008002500270024A146042E62
:1012700037D004DC012E3CD0022E6CD160E0082E69
:1012800033D0102E67D136484468006800F0807073
:1012900008B33448C4F38341475C04F4803078B128
:1012A0002F484068C0F340402F4911F8008004F4F3
:1012B000803040B12D48B0FBF8F000FB07F502E0AC
:1012C0002B4807FB00F52648406800F48000B0F585
:1012D000800F01D1A94603E068000321B0FBF1F9BA
:1012E0003AE000F0CBF9814636E000F0C7F98146DC
:1012F00032E01B48046A04F44070B0F5807F05D1E9
:1013000004F0020010B14FF4004918E004F44070FA
:10131000B0F5007F07D11248406A00F0020010B11A
:1013200049F640490BE004F44070B0F5407F06D127
:101330000B48006800F4003008B14FF224490BE07C
:1013400000F08CF906494968C1F38131491C490014
:10135000B0FBF1F900E000BF00BF4846BDE8F087F0
:1013600000100240B0200008C020000800127A00DF
:1013700000093D00F8B5044600260025207800F05D
:10138000010000286BD000274348C06900F080505E
:1013900070B900BF4048C06940F080503E49C86104
:1013A0000846C06900F08050009000BF00BF0127D0
:1013B0003A48006800F48070B0B93848006840F4DA
:1013C000807036490860FFF7A5FE064606E0FFF785
:1013D000A1FE801B642801D90320F8BD2F480068B6
:1013E00000F480700028F2D02B48006A00F44075A9
:1013F0002DB3A08800F44070A84220D02648006A8F
:1014000020F4407501202649086000200860224829
:10141000056205F0010090B1FFF77CFE064608E08A
:10142000FFF778FE801B41F28831884201D9032002
:10143000D3E71948006A00F002000028F0D01648EF
:10144000006A20F440706168084313490862012F64
:1014500004D10846C06920F08050C86100BF2078E0
:1014600000F00200022807D10B48406820F44040F9
:10147000A168084308494860207800F0100010284F
:1014800007D10548406820F480006169084302499B
:1014900048600020A1E700000010024000700040FA
:1014A0004004424270B504460D460CB9012070BD9F
:1014B0005A48006800F00700A8420ED2574800685A
:1014C00020F007002843554908600846006800F0EE
:1014D0000700A84201D00120E9E7207800F00200CF
:1014E00002281DD1207800F00400042805D14C48C2
:1014F000406840F4E0604A494860207800F0080005
:10150000082805D14648406840F460504449486086
:101510004348406820F0F000A16808434049486013
:10152000207800F0010078B36068012806D13C48BB
:10153000006800F4003090B90120B8E76068022824
:1015400006D13748006800F0007040B90120AEE7CE
:101550003348006800F0020008B90120A7E73048CE
:10156000406820F00300616808432D494860FFF798
:10157000D1FD064609E0FFF7CDFD801B41F2883121
:10158000884202D9032092E707E02548406800F02E
:101590000C006168B0EB810FEDD12048006800F0CD
:1015A0000700A8420ED91D48006820F00700284314
:1015B0001A4908600846006800F00700A84201D0F8
:1015C000012074E7207800F00400042807D11448B3
:1015D000406820F4E060E1680843114948602078E1
:1015E00000F00800082808D10D48406820F4605039
:1015F000216940EAC1000A49486000F03FF8084903
:101600004968C1F30311074A515CC84006490860A4
:1016100006480068FFF798FD002048E700200240D8
:101620000010024086200008000000200C0000206E
:1016300001480068704700000000002000B5FFF777
:10164000F7FF04494968C1F30221034A515CC840CD
:1016500000BD0000001002409620000800B5FFF712
:10166000E7FF04494968C1F3C221034A515CC840FD
:1016700000BD0000001002409620000870B5002157
:101680000022002400230020134D696801F00C059E
:10169000F5B1042D02D0082D19D101E00F4819E051
:1016A0000F4DC1F38346AB5D01F4803555B10A4D52
:1016B0006D68C5F340450B4E725D084D5D43B5FB4B
:1016C000F2F402E0084D03FB05F4204602E000BFFF
:1016D000024800BF00BF70BD0010024000127A0037
:1016E0009E200008AE20000800093D00F8B5044621
:1016F0000CB90120F8BD207800F00100002878D056
:10170000F848406800F00C0004280CD0F548406808
:1017100000F00C00082811D1F248406800F4803035
:10172000B0F5803F0AD1EF48006800F4003000288F
:101730005FD0606800285CD10120DBE700BF6068F3
:10174000B0F5803F06D1E748006840F48030E549B5
:10175000086028E0606858B9E248006820F48030EA
:10176000E04908600846006820F4802008601AE01C
:101770006068B0F5A02F0BD1DA48006840F48020F3
:10178000D84908600846006840F4803008600AE0E4
:10179000D448006820F48030D249086008460068C8
:1017A00020F48020086000BF606888B1FFF7B2FCB9
:1017B000054606E0FFF7AEFC401B642801D9032074
:1017C00098E7C848006800F400300028F2D010E024
:1017D000FFF7A0FC054606E0FFF79CFC401B6428D1
:1017E00001D9032086E7BF48006800F400300028D4
:1017F000F2D1207800F00200022857D1B9484068A1
:1018000000F00C0050B1B748406800F00C00082808
:1018100018D1B448406800F4803098B9B1480068E5
:1018200000F0020020B12069012801D0012061E709
:10183000AC48006820F0F800616940EAC100A9499D
:10184000086033E02069E8B10120A7490860FFF78C
:1018500061FC054606E0FFF75DFC401B022801D94C
:10186000032047E79F48006800F002000028F2D0FC
:101870009C48006820F0F800616940EAC10099497D
:10188000086013E0002098490860FFF743FC054614
:1018900006E0FFF73FFC401B022801D9032029E79F
:1018A0009048006800F002000028F2D1207800F093
:1018B000080008282DD1A069B8B101208B49086023
:1018C000FFF728FC054606E0FFF724FC401B022832
:1018D00001D903200EE78348406A00F00200002887
:1018E000F2D0012000F040FA13E000207F490860A8
:1018F000FFF710FC054606E0FFF70CFC401B022832
:1019000001D90320F6E67748406A00F0020000287B
:10191000F2D1207800F00400042873D10027714828
:10192000C06900F0805070B900BF6E48C06940F0D7
:1019300080506C49C8610846C06900F08050009032
:1019400000BF00BF01276A48006800F48070B0B98A
:101950006748006840F4807065490860FFF7DAFB6B
:10196000054606E0FFF7D6FB401B642801D903209B
:10197000C0E65F48006800F480700028F2D000BF25
:10198000E068012806D15748006A40F00100554937
:10199000086227E0E06858B95248006A20F0010068
:1019A000504908620846006A20F00400086219E005
:1019B000E06805280BD14B48006A40F00400494913
:1019C00008620846006A40F0010008620AE04548E3
:1019D000006A20F00100434908620846006A20F0CE
:1019E0000400086200BFE068A0B1FFF793FB054662
:1019F00009E0FFF78FFB401B41F28831884202D992
:101A0000032077E622E03748006A00F00200002851
:101A1000EFD012E0FFF77EFB054608E0FFF77AFB08
:101A2000401B41F28831884201D9032062E62D48EB
:101A3000006A00F002000028F0D1012F05D12948EA
:101A4000C06920F080502749C86100BFE069C8B371
:101A50002448406800F00C00082860D0E0690228A3
:101A600048D1002020490866FFF754FB054606E0F0
:101A7000FFF750FB401B022801D903203AE6194822
:101A8000006800F000700028F2D1206AB0F5803FB5
:101A900007D11448406820F40030A1680843114978
:101AA0004860D4E9080108430E49496821F47411DB
:101AB00008430C49486001200B490866FFF72AFBE0
:101AC000054607E03DE0FFF725FB401B022801D952
:101AD00003200FE60348006800F000700028F2D0F1
:101AE0002FE0000000100240000042428004424209
:101AF00000700040002014490866FFF70BFB054604
:101B000006E0FFF707FB401B022801D90320F1E59F
:101B10000E48006800F000700028F2D111E0E06982
:101B2000012800D1E6E50948466806F48031206ABC
:101B3000814204D106F47011606A814201D0012013
:101B4000D8E50020D6E50000000042420010024027
:101B500070B504462546681EB0F1807F01D3012090
:101B60000FE0681E4FF0E02148610F214FF0FF3079
:101B700000F018FA00204FF0E0218861072008618A
:101B8000002070BD10B504460CB9012010BDA0693D
:101B900000B100E000BF94F8410028B9002084F8AB
:101BA0004000204600F02AF8242084F841002068F4
:101BB000C06820F400502168C860204600F0F4F8A6
:101BC0002068006920F4904021680861206840691D
:101BD00020F02A00216848612068C06840F4005065
:101BE0002168C86000206064202084F8410084F8E7
:101BF00042000020606300BFC8E7000010B586B057
:101C0000044624492068884242D100BF00BF2248D0
:101C1000806940F00400204988610846806900F02E
:101C20000400019000BF00BF00BF00BF00BF084616
:101C3000806940F0040088610846806900F0040073
:101C4000019000BF00BF00BF00BF00BF0846806911
:101C500040F4804088610846806900F4804001902B
:101C600000BF00BF00BF4815029002200390032070
:101C7000059002A90948FFF7ADF84FF48060029083
:101C8000002003900120049002A90448FFF7A2F865
:101C900006B010BD003801400010024000080140AD
:101CA0002DE9F84F04460E46174699464FF0000AB4
:101CB00094F8420020284FD106B117B90120BDE8A1
:101CC000F88F00206064222084F842000020206306
:101CD000FFF720FA8246A785E785A068B0F5805F08
:101CE00004D1206910B90025B04602E035464FF016
:101CF000000829E05346002220212046CDF800901C
:101D000000F0D0F808B10320D9E745B92068406851
:101D1000C0F30800A8F8000008F1020811E0A0686C
:101D2000B0F5805F03D0A06828B9206918B9206891
:101D30004068287004E02068406800F07F00287048
:101D40006D1CE08D401EE085E08D0028D2D1202062
:101D500084F842000020B2E70220B0E700BFFEE7AF
:101D600000BFFEE77047000008B508490968C908C8
:101D70004FF47A72B1FBF2F14143009100BF00BF12
:101D800000994A1E00920029F9D108BD00000020E8
:101D9000704700204FF0E02108610846006920F0FC
:101DA000040008617047704770B5044621680969EE
:101DB00021F44051E2681143226811612269A1684F
:101DC0001143626941EA02052168C96841F20C6267
:101DD000914329432268D1602168496921F4407107
:101DE000A2691143226851612D4A2168914202D1B2
:101DF000FFF734FC01E0FFF721FC00EBC00101EB31
:101E0000001162689200B1FBF2F100EBC00202EB3C
:101E1000001263689B00B2FBF3F26423B2FBF3F29F
:101E200002EBC20303EB0212A1EB8201322202EBAE
:101E300001116422B1FBF2F101F0F00100EBC002EC
:101E400002EB001263689B00B2FBF3F26423B2FB67
:101E5000F3F201EB021200EBC00101EB0011636829
:101E60009B00B1FBF3F100EBC00303EB00136668CA
:101E7000B600B3FBF6F36426B3FBF6F303EBC3063D
:101E800006EB0313A1EB8301322303EB011164235F
:101E9000B1FBF3F101F00F0111442268916070BDB4
:101EA000003801402DE9F04104460D46174698469A
:101EB000069E34E0701C88B32EB1FFF72BF9A0EB1F
:101EC0000800B0422BD900BF00BF21680C3151E897
:101ED000001F21F4D07021680C3141E80002002A73
:101EE000F3D100BF00BF00BF2168143151E8001FCB
:101EF00021F001002168143141E80002002AF3D1E9
:101F000000BF202084F8410084F8420000BF002078
:101F100084F8400000BF0320BDE8F081FFE720689F
:101F200000682840A84201D1012000E00020B8420A
:101F3000C0D00020F0E7000008B500BF08480068E6
:101F40000068C0F340100028F8D04FF6FF7301225C
:101F500069460348FFF7A4FE9DF8000008BD000095
:101F60001400002010B504460748084908600846D8
:101F7000446000218160C160016181610C21416187
:101F8000FFF700FE10BD00000038014014000020E3
:101F900000BFFEE702480068C0F30220704700005F
:101FA0000CED00E010B5002804DB0A07130E054A0B
:101FB000135406E00A07140E034A00F00F031B1F18
:101FC000D45410BD00E400E018ED00E000BF7047FD
:101FD00000BF054A126802F04002002AF9D0C2B2DE
:101FE000014B1B1D1A60704700380140FFF798F83D
:101FF0004FF4E01000F014F80520FFF71BF9FFF78D
:10200000C8FE4FF4E130FFF7ADFFFEF76DFA04E0D4
:10201000FFF792FF0148FEF73FFEF9E75C00002062
:1020200030B58FB005460124282105A8FEF770F9C8
:1020300014216846FEF76CF9012005900004069013
:102040000020079002200C90C1030D910E9505A869
:10205000FFF74CFB04460CB100BFFEE70F200090D9
:1020600002200190002002904FF480600390002035
:10207000049002216846FFF715FA04460CB100BF30
:10208000FEE70FB030BD00000000000000000102BC
:10209000030406070809000000000102030402030C
:1020A0000405060708090A0B0C0D0E0F101001029B
:1020B00002030405060708090A0B0C0D0E0F101089
:1020C00001020000E42000080000002014000000CD
:1020D0006C010008F820000814000020DC06000055
:1020E000880100080024F400000000000000000047
:0820F0001000000001000000D7
:0400000508000131BD
:00000001FF
