:020000040800F2
:10000000C0060020D50100080F12000807120008E2
:100010000B1200082D040008A114000800000000C5
:10002000000000000000000000000000391200087D
:100030003104000800000000EB010008ED01000899
:10004000EF010008EF010008EF010008EF010008D0
:10005000EF010008EF010008EF010008EF010008C0
:10006000EF010008EF010008EF010008EF010008B0
:10007000EF010008EF010008EF010008EF010008A0
:10008000EF010008EF010008EF010008EF01000890
:10009000EF010008EF010008EF010008EF01000880
:1000A000EF010008EF010008EF010008EF01000870
:1000B000EF010008EF010008EF010008EF01000860
:1000C000EF010008EF010008EF010008EF01000850
:1000D000EF010008EF010008EF010008EF01000840
:1000E000EF010008EF010008EF010008EF01000830
:1000F000EF010008EF010008EF010008EF01000820
:10010000EF010008EF010008EF010008EF0100080F
:10011000EF010008EF010008EF010008EF010008FF
:10012000EF010008EF010008EF010008EF010008EF
:1001300000F002F800F03FF80AA090E8000C8244BA
:100140008344AAF10107DA4501D100F034F8AFF297
:10015000090EBAE80F0013F0010F18BFFB1A43F0A5
:10016000010318476C1400008C140000103A24BFDF
:1001700078C878C1FAD8520724BF30C830C144BF0C
:1001800004680C607047000000230024002500264E
:10019000103A28BF78C1FBD8520728BF30C148BFEA
:1001A0000B607047732900F0DD80002070471FB599
:1001B0001FBD10B510BD00F007F91146FFF7F7FF9E
:1001C00001F09CF900F025F903B4FFF7F2FF03BC3E
:1001D00001F084F90948804709480047FEE7FEE737
:1001E000FEE7FEE7FEE7FEE7FEE7FEE7FEE7FEE7E7
:1001F00004480549054A064B704700004F120008A5
:1002000031010008C0000020C0060020C00200200C
:10021000C0020020704700000FB4044910B503AAC3
:10022000029800F0A3F810BC5DF814FB0400002055
:100230002DE9F0410E460446002020622046E16888
:10024000884730B3252805D0D4E901219047206A9A
:10025000401CF2E7E168204600278847050018D0D7
:10026000A5F14100192802D820354FF40067324625
:10027000294620462760FFF795FF40B1012804D0AA
:10028000F61D26F007060836D8E7361DD6E72846BD
:10029000DAE7206ABDE8F08170B50C460546012A10
:1002A00005D02878800600D5EA69002302E0012302
:1002B00005E05B1C934202D2E05C0028F9D1A869FA
:1002C000E618C01AA861286A184428622846AFF3C5
:1002D000008004E0D5E9012114F8010B9047B442F5
:1002E000F8D32846AFF3008070BD4FF0000200B590
:1002F000134694469646203922BFA0E80C50A0E849
:100300000C50B1F12001BFF4F7AF090728BFA0E8F6
:100310000C5048BF0CC05DF804EB890028BF40F8C2
:10032000042B08BF704748BF20F8022B11F0804F04
:1003300018BF00F8012B704770477047704770472F
:1003400010B5436913B1AFF3008001E0FFF7A4FFDC
:10035000012010BD127800F124010A7000224A70B9
:100360000122EDE711684FF0FF32E9E7074B70B566
:100370000D467B4400F011F80446284600F020F8B2
:1003800010B14FF0FF3070BD204670BD6B11000002
:1003900001694A1C02610878704700B58FB0CDE949
:1003A00001310021059105497944CDE90310114639
:1003B0006846FFF73DFF0FB000BD0000E5FFFFFFFF
:1003C000007B00F080007047754600F02BF8AE46C9
:1003D00005006946534620F00700854618B020B551
:1003E000FFF706FFBDE820404FF000064FF0000782
:1003F0004FF000084FF0000B21F00701AC46ACE8CD
:10040000C009ACE8C009ACE8C009ACE8C0098D4639
:10041000704710B50446AFF300802046BDE8104099
:10042000FFF7D2BE004870475C00002000BFFEE727
:10043000704700002DE9F847024600239C467BE107
:100440004FF0010808FA03F4D1F8008008EA04002C
:10045000A0427DD1DFF8F4A2D1F80480A8EB0A090C
:10046000D0453AD014DCB8F1030F50D009DCB8F114
:10047000000F31D0B8F1010F1CD0B8F1020F49D1F3
:1004800020E0B8F1110F18D0B8F1120F42D11EE0E0
:10049000B9F5881F25D006DCB9F5803F20D0B9F525
:1004A000801F37D11AE0B9F5001F18D0B9F5041F25
:1004B00030D117E0D1F80CC02DE0D1F80C8008F154
:1004C000040C28E0D1F80C8008F1080C23E0D1F8E6
:1004D0000C8008F10C0C1EE000BF00BF00BF00BF85
:1004E00000BF00BFD1F80880B8F1000F02D14FF073
:1004F000040C0BE0D1F80880B8F1010F03D14FF0E4
:10050000080C146102E04FF0080C546103E04FF056
:10051000000C00E000BF00BFFF2801D8904601E0BA
:1005200002F104084646FF2802D84FEA830803E098
:10053000A3F108084FEA88084746D6F800804FF034
:100540000F0909FA07F928EA09080CFA07F900E087
:100550007AE048EA0908C6F80080D1F8048008F07B
:100560008058B8F1805F6FD100BFDFF8E481D8F820
:10057000188048F00108DFF8D891C9F81880C846FB
:10058000D8F8188008F00108CDF8008000BF00BF3F
:100590004FEAB9384FEA930958F829504FEA83785F
:1005A0004FEA18794FF00F0808FA09F825EA08050C
:1005B000DFF8A081424502D14FF0000824E0DFF8C7
:1005C0009881424502D14FF001081DE0DFF88C818F
:1005D000424502D14FF0020816E0DFF8848142451F
:1005E00002D14FF003080FE0DFF87881424502D1D5
:1005F0004FF0040808E0DFF87081424502D14FF067
:10060000050801E04FF006084FEA83794FEA1979AF
:1006100008FA09F848EA0505DFF850814FEA93091E
:1006200048F82950D1F8048008F48018B8F5801FE4
:100630000BD1DFF83C81D8F8008048EA0008DFF8E9
:100640003091C9F800800AE075E0DFF82481D8F81D
:10065000008028EA0008DFF81891C9F80080D1F876
:10066000048008F40018B8F5001F0ED1DFF80081EF
:1006700008F10408D8F8008048EA0008DFF8F09094
:1006800009F10409C9F800800DE0DFF8E48008F101
:100690000408D8F8008028EA0008DFF8D49009F1AF
:1006A0000409C9F80080D1F8048008F40038B8F5CE
:1006B000003F0ED1DFF8B880A8F10408D8F8008018
:1006C00048EA0008DFF8A890A9F10409C9F80080F9
:1006D0000DE0DFF89C80A8F10408D8F8008028EA33
:1006E0000008DFF88C90A9F10409C9F80080D1F85E
:1006F000048008F48038B8F5803F0ED1DFF87080B0
:10070000A8F10808D8F8008048EA0008DFF86090EF
:10071000A9F10809C9F800800DE0DFF85480A8F1BC
:100720000808D8F8008028EA0008DFF84490A9F10A
:100730000809C9F800805B1CD1F8008028FA03F88A
:10074000B8F1000F7FF47CAEBDE8F887000011100F
:100750000010024000080140000C01400010014060
:100760000014014000180140001C01400800014035
:10077000080401400148006870470000080000209C
:1007800010B50848006840F01000064908600320D2
:1007900000F070F80F2000F007F800F02BF80020B0
:1007A00010BD00000020024070B504460E480078DD
:1007B0004FF47A71B1FBF0F00C490968B1FBF0F528
:1007C000284600F0C1FB08B1012070BD102C07D2F3
:1007D00000222146501E00F00EF80548046001E09A
:1007E0000120F2E70020F0E71000002000000020C8
:1007F0000C00002070472DE9F05F80460D4616463C
:10080000002700F04FFE074639462A46334601F0DE
:100810000700C0F1070ABAF1040F02D94FF0040A29
:1008200001E0C0F1070AD14600F1040ABAF1070F4E
:1008300002D24FF0000A01E0A0F1030AD4464FF0C3
:10084000010A0AFA09FAAAF1010A0AEA020A0AFAEC
:100850000CFA4FF0010B0BFA0CFBABF1010B0BEA9E
:10086000030B4AEA0B042146404600F023FEBDE894
:10087000F09F000000BF00F00702064B19684FF61A
:10088000FF031940044B0B4343EA0221014B19605B
:1008900000BF70470CED00E00000FA0570B504469B
:1008A0000D460CB9012070BD5A48006800F00700E1
:1008B000A8420ED25748006820F007002843554947
:1008C00008600846006800F00700A84201D0012037
:1008D000E9E7207800F0020002281DD1207800F01E
:1008E0000400042805D14C48406840F4E0604A49BF
:1008F0004860207800F00800082805D14648406884
:1009000040F46050444948604348406820F0F0009B
:10091000A168084340494860207800F0010078B39E
:100920006068012806D13C48006800F4003090B9A6
:100930000120B8E76068022806D13748006800F057
:10094000007040B90120AEE73348006800F00200B3
:1009500008B90120A7E73048406820F0030061682B
:1009600008432D494860FFF705FF064609E0FFF7F9
:1009700001FF801B41F28831884202D9032092E7AF
:1009800007E02548406800F00C006168B0EB810F7B
:10099000EDD12048006800F00700A8420ED91D489C
:1009A000006820F0070028431A49086008460068DC
:1009B00000F00700A84201D0012074E7207800F081
:1009C0000400042807D11448406820F4E060E1687E
:1009D000084311494860207800F00800082808D131
:1009E0000D48406820F46050216940EAC1000A497E
:1009F000486000F03FF808494968C1F30311074A0D
:100A0000515CC8400649086006480068FFF7CCFE04
:100A1000002048E70020024000100240A615000810
:100A2000000000200C000020014800687047000012
:100A30000000002000B5FFF7F7FF04494968C1F343
:100A40000221034A515CC84000BD00000010024072
:100A5000B615000800B5FFF7E7FF04494968C1F380
:100A6000C221034A515CC84000BD00000010024092
:100A7000B615000870B500210022002400230020D4
:100A8000134D696801F00C05F5B1042D02D0082D55
:100A900019D101E00F4819E00F4DC1F38346AB5D5A
:100AA00001F4803555B10A4D6D68C5F340450B4ED4
:100AB000725D084D5D43B5FBF2F402E0084D03FBA7
:100AC00005F4204602E000BF024800BF00BF70BD31
:100AD0000010024000127A00BE150008CE15000872
:100AE00000093D00F8B504460CB90120F8BD207896
:100AF00000F00100002878D0F848406800F00C00B1
:100B000004280CD0F548406800F00C00082811D1EA
:100B1000F248406800F48030B0F5803F0AD1EF48D9
:100B2000006800F4003000285FD0606800285CD1C5
:100B30000120DBE700BF6068B0F5803F06D1E748E1
:100B4000006840F48030E549086028E0606858B9E2
:100B5000E248006820F48030E049086008460068F8
:100B600020F4802008601AE06068B0F5A02F0BD157
:100B7000DA48006840F48020D849086008460068D8
:100B800040F4803008600AE0D448006820F48030E7
:100B9000D24908600846006820F48020086000BF41
:100BA000606888B1FFF7E6FD054606E0FFF7E2FD65
:100BB000401B642801D9032098E7C848006800F466
:100BC00000300028F2D010E0FFF7D4FD054606E023
:100BD000FFF7D0FD401B642801D9032086E7BF48FA
:100BE000006800F400300028F2D1207800F0020004
:100BF000022857D1B948406800F00C0050B1B748FE
:100C0000406800F00C00082818D1B448406800F48F
:100C1000803098B9B148006800F0020020B1206926
:100C2000012801D0012061E7AC48006820F0F800FD
:100C3000616940EAC100A949086033E02069E8B170
:100C40000120A7490860FFF795FD054606E0FFF77C
:100C500091FD401B022801D9032047E79F48006807
:100C600000F002000028F2D09C48006820F0F80054
:100C7000616940EAC1009949086013E00020984981
:100C80000860FFF777FD054606E0FFF773FD401BA0
:100C9000022801D9032029E79048006800F00200EB
:100CA0000028F2D1207800F0080008282DD1A06992
:100CB000B8B101208B490860FFF75CFD054606E0EE
:100CC000FFF758FD401B022801D903200EE7834897
:100CD000406A00F002000028F2D0012000F098FAEB
:100CE00013E000207F490860FFF744FD054606E059
:100CF000FFF740FD401B022801D90320F6E67748A4
:100D0000406A00F002000028F2D1207800F00400D0
:100D1000042873D100277148C06900F0805070B971
:100D200000BF6E48C06940F080506C49C8610846F9
:100D3000C06900F08050009000BF00BF01276A48E2
:100D4000006800F48070B0B96748006840F48070B3
:100D500065490860FFF70EFD054606E0FFF70AFD4E
:100D6000401B642801D90320C0E65F48006800F4F6
:100D700080700028F2D000BFE068012806D15748F3
:100D8000006A40F001005549086227E0E06858B960
:100D90005248006A20F00100504908620846006A83
:100DA00020F00400086219E0E06805280BD14B48E8
:100DB000006A40F00400494908620846006A40F0B1
:100DC000010008620AE04548006A20F0010043493A
:100DD00008620846006A20F00400086200BFE0686C
:100DE000A0B1FFF7C7FC054609E0FFF7C3FC401BB5
:100DF00041F28831884202D9032077E622E0374861
:100E0000006A00F002000028EFD012E0FFF7B2FC09
:100E1000054608E0FFF7AEFC401B41F288318842EE
:100E200001D9032062E62D48006A00F00200002884
:100E3000F0D1012F05D12948C06920F08050274901
:100E4000C86100BFE069C8B32448406800F00C00E6
:100E5000082860D0E069022848D1002020490866AF
:100E6000FFF788FC054606E0FFF784FC401B0228DC
:100E700001D903203AE61948006800F00070002804
:100E8000F2D1206AB0F5803F07D11448406820F4C1
:100E90000030A168084311494860D4E908010843BB
:100EA0000E49496821F4741108430C494860012037
:100EB0000B490866FFF75EFC054607E03DE0FFF7DB
:100EC00059FC401B022801D903200FE603480068A3
:100ED00000F000700028F2D02FE000000010024067
:100EE0000000424280044242007000400020144949
:100EF0000866FFF73FFC054606E0FFF73BFC401B9A
:100F0000022801D90320F1E50E48006800F00070C6
:100F10000028F2D111E0E069012800D1E6E5094896
:100F2000466806F48031206A814204D106F47011CB
:100F3000606A814201D00120D8E50020D6E500009A
:100F4000000042420010024070B504462546681E6B
:100F5000B0F1807F01D301200FE0681E4FF0E02147
:100F600048610F214FF0FF3000F0A4FA00204FF04D
:100F7000E021886107200861002070BD10B504469B
:100F80000CB9012010BDA06900B100E000BF94F8C9
:100F9000410028B9002084F84000204600F02AF8DB
:100FA000242084F841002068C06820F400502168A3
:100FB000C860204600F04CF92068006920F4904099
:100FC000216808612068406920F02A002168486192
:100FD0002068C06840F400502168C8600020606448
:100FE000202084F8410084F842000020606300BFA4
:100FF000C8E7000010B586B004462449206888423E
:1010000042D100BF00BF2248806940F0040020495F
:1010100088610846806900F00400019000BF00BFAD
:1010200000BF00BF00BF0846806940F0040088612F
:101030000846806900F00400019000BF00BF00BFB7
:1010400000BF00BF0846806940F4804088610846C0
:10105000806900F48040019000BF00BF00BF4815C8
:101060000290022003900320059002A90948FFF78F
:10107000E1F94FF480600290002003900120049079
:1010800002A90448FFF7D6F906B010BD00380140A8
:1010900000100240000801402DE9F84F04460E46BA
:1010A000174699464FF0000A94F8420020284FD185
:1010B00006B117B90120BDE8F88F00206064222036
:1010C00084F8420000202063FFF754FB8246A78586
:1010D000E785A068B0F5805F04D1206910B90025CC
:1010E000B04602E035464FF0000829E053460022A2
:1010F00020212046CDF8009000F028F908B1032007
:10110000D9E745B920684068C0F30800A8F8000096
:1011100008F1020811E0A068B0F5805F03D0A06874
:1011200028B9206918B920684068287004E0206850
:10113000406800F07F0028706D1CE08D401EE08547
:10114000E08D0028D2D1202084F842000020B2E7B0
:101150000220B0E72DE9F84F04460E46174699469F
:101160004FF0000A94F8410020284AD106B117B97F
:101170000120BDE8F88F00206064212084F8410040
:10118000FFF7F8FA8246A784E784A068B0F5805F8D
:1011900004D1206910B90025B04602E035464FF071
:1011A00000081BE05346002280212046CDF8009025
:1011B00000F0CCF808B10320DBE745B9B8F800002F
:1011C000C0F308002168486008F1020803E02878AD
:1011D000216848606D1CE08C401EE084E08C002893
:1011E000E0D15346002240212046CDF8009000F087
:1011F000ADF808B10320BCE7202084F841000020AE
:10120000B7E70220B5E700BFFEE700BFFEE7704783
:1012100008B508490968C9084FF47A72B1FBF2F1C0
:101220004143009100BF00BF00994A1E009200296F
:10123000F9D108BD00000020704700204FF0E021E8
:1012400008610846006920F0040008617047704793
:1012500070B504462168096921F44051E2681143E0
:10126000226811612269A1681143626941EA02059D
:101270002168C96841F20C62914329432268D16018
:101280002168496921F44071A269114322685161C2
:101290002D4A2168914202D1FFF7DCFB01E0FFF704
:1012A000C9FB00EBC00101EB001162689200B1FBC9
:1012B000F2F100EBC00202EB001263689B00B2FB8C
:1012C000F3F26423B2FBF3F202EBC20303EB02126C
:1012D000A1EB8201322202EB01116422B1FBF2F197
:1012E00001F0F00100EBC00202EB001263689B000A
:1012F000B2FBF3F26423B2FBF3F201EB021200EB58
:10130000C00101EB001163689B00B1FBF3F100EB3E
:10131000C00303EB00136668B600B3FBF6F3642664
:10132000B3FBF6F303EBC30606EB0313A1EB830158
:10133000322303EB01116423B1FBF3F101F00F0140
:1013400011442268916070BD003801402DE9F041E0
:1013500004460D4617469846069E34E0701C88B336
:101360002EB1FFF707FAA0EB0800B0422BD900BF5F
:1013700000BF21680C3151E8001F21F4D0702168B2
:101380000C3141E80002002AF3D100BF00BF00BFCA
:101390002168143151E8001F21F001002168143147
:1013A00041E80002002AF3D100BF202084F8410068
:1013B00084F8420000BF002084F8400000BF0320F2
:1013C000BDE8F081FFE7206800682840A84201D10D
:1013D000012000E00020B842C0D00020F0E700006B
:1013E00010B5044625E000BF144800680068C0F34B
:1013F00040100028F8D04FF6FF73012221460F4815
:10140000FFF74AFE20780D2812D100BF0B48006874
:101410000068C0F340100028F8D04FF6FF73012297
:1014200021460648FFF738FE20780A2800D101E05F
:10143000641CD8E700BF0020207010BD14000020FD
:1014400010B504460FE000BF094800680068C0F30B
:1014500080100028F8D04FF6FF730122214604487F
:10146000FFF778FE641C20780028ECD110BD000046
:101470001400002010B504460748084908600846D3
:10148000446000218160C160016181610C21416182
:10149000FFF774FD10BD000000380140140000206B
:1014A00000BFFEE702480068C0F30220704700005A
:1014B0000CED00E010B5002804DB0A07130E054A06
:1014C000135406E00A07140E034A00F00F031B1F13
:1014D000D45410BD00E400E018ED00E000BF7047F8
:1014E00000BF054A126802F04002002AF9D0C2B2D9
:1014F000014B1B1D1A60704700380140B2B0FFF766
:101500003FF94FF4E01000F01BF8FFF796FE4FF4A0
:10151000E130FFF7AFFF0CE06846FFF761FF684678
:10152000FFF78EFF03A0FEF777FE694602A0FEF7E5
:1015300073FEF1E70D0A000025730D0A000000009C
:1015400030B58FB005460124282105A8FEF7CDFE51
:1015500014216846FEF7C9FE01200590000406909C
:101560000020079002200C90C1030D910E9505A854
:10157000FFF7B8FA04460CB100BFFEE70F20009059
:1015800002200190002002904FF480600390002020
:10159000049002216846FFF781F904460CB100BFB0
:1015A000FEE70FB030BD00000000000000000102A7
:1015B00003040607080900000000010203040203F7
:1015C0000405060708090A0B0C0D0E0F1010010286
:1015D000F015000800000020140000006C01000855
:1015E0000416000814000020AC0600008801000862
:1015F0000024F400000000000000000010000000C3
:0416000001000000E5
:0400000508000131BD
:00000001FF
