:020000040800F2
:1000000038070020D5010008011E00082D14000843
:10001000FD1D0008D90400083D2400080000000070
:100020000000000000000000000000002D1E00087D
:10003000DD04000800000000EB010008ED010008ED
:10004000EF010008EF010008EF010008EF010008D0
:10005000EF010008EF010008EF010008EF010008C0
:10006000EF010008EF010008EF010008EF010008B0
:10007000EF010008EF010008EF010008EF010008A0
:10008000EF010008EF010008EF010008EF01000890
:10009000EF010008EF010008EF010008EF01000880
:1000A000EF010008EF010008EF010008EF01000870
:1000B000EF010008EF010008EF010008EF01000860
:1000C000EF010008EF010008EF010008EF01000850
:1000D000EF010008EF010008EF010008EF01000840
:1000E000EF010008EF010008EF010008EF01000830
:1000F000EF010008EF010008EF010008EF01000820
:10010000EF010008EF010008EF010008EF0100080F
:10011000EF010008EF010008EF010008EF010008FF
:10012000EF010008EF010008EF010008EF010008EF
:1001300000F002F800F03FF80AA090E8000C8244BA
:100140008344AAF10107DA4501D100F034F8AFF297
:10015000090EBAE80F0013F0010F18BFFB1A43F0A5
:10016000010318472433000044330000103A24BF31
:1001700078C878C1FAD8520724BF30C830C144BF0C
:1001800004680C607047000000230024002500264E
:10019000103A28BF78C1FBD8520728BF30C148BFEA
:1001A0000B607047642900F07780002070471FB50E
:1001B0001FBD10B510BD00F05DF91146FFF7F7FF48
:1001C00002F0C6F900F07BF903B4FFF7F2FF03BCBD
:1001D00002F052F90948804709480047FEE7FEE768
:1001E000FEE7FEE7FEE7FEE7FEE7FEE7FEE7FEE7E7
:1001F00004480549054A064B70470000431E0008A5
:1002000031010008380100203807002038030020A1
:1002100038030020704700000FB4044910B503AA4A
:10022000029800F0F9F810BC5DF814FB04000020FF
:100230002DE9F0410E460446002020622046E16888
:10024000884730B3252805D0D4E901219047206A9A
:10025000401CF2E7E168204600278847050018D0D7
:10026000A5F14100192802D820354FF40067324625
:10027000294620462760FFF795FF40B1012804D0AA
:10028000F61D26F007060836D8E7361DD6E72846BD
:10029000DAE7206ABDE8F0812DE9F0410646002446
:1002A00010687529314616A510D0AFF300800028DC
:1002B00002DA404213A507E031688A0701D512A58A
:1002C00002E0490704D511A5012401E0AFF3008045
:1002D00000210A2206F1240709E0B0FBF2FCB0FB82
:1002E000F2F302FB1C00303078541846491C0028F9
:1002F000F3D123462A463046BDE8F04100F033B83A
:10030000000000002D0000002B0000002000000075
:100310004FF0000200B5134694469646203922BF9E
:10032000A0E80C50A0E80C50B1F12001BFF4F7AFE9
:10033000090728BFA0E80C5048BF0CC05DF804EBCB
:10034000890028BF40F8042B08BF704748BF20F839
:10035000022B11F0804F18BF00F8012B7047704737
:100360007047704770472DE9F0470D469946924611
:10037000044600F124080168880604D5E06921F0EC
:100380001001216000E00120A84201DD471B00E0D0
:100390000027A1697A1902EB0900081AA0612078E8
:1003A000C00602D42046AFF30080002608E0D4E95E
:1003B00001211AF806009047206A401C761C206232
:1003C0004E45F4DB2078C0060AD52046AFF3008006
:1003D00006E0D4E9012130209047206A401C2062C9
:1003E000381EA7F10107F4DC07E0D4E9012118F871
:1003F00005009047206A401C2062281EA5F10105D7
:10040000F3DC2046AFF300802078000602D50220FE
:10041000BDE8F0870120FBE7074B70B50D467B4434
:1004200000F011F80446284600F020F810B14FF013
:10043000FF3070BD204670BD1321000001694A1CC9
:1004400002610878704700B58FB0CDE90131002115
:10045000059105497944CDE9031011466846FFF737
:10046000E7FE0FB000BD0000E5FFFFFF007B00F0DE
:1004700080007047754600F02BF8AE4605006946CF
:10048000534620F00700854618B020B5FFF7B0FEB0
:10049000BDE820404FF000064FF000074FF0000885
:1004A0004FF0000B21F00701AC46ACE8C009ACE806
:1004B000C009ACE8C009ACE8C0098D46704710B56A
:1004C0000446AFF300802046BDE81040FFF77CBE35
:1004D00000487047D400002000BFFEE770470000CE
:1004E00000B593B000BF5048806940F008004E4905
:1004F00088610846806900F00800009000BF00BFD6
:1005000000BF0846806940F0200088610846806985
:1005100000F02000009000BF00BF00BF08468069C7
:1005200040F0400088610846806900F0400000907B
:1005300000BF00BF00BF0846806940F4807088613A
:100540000846806900F48070009000BF00BF00BFC3
:100550000846406940F4807048610846406900F4EC
:100560008070009000BF00BF01200F90109003200A
:1005700012900FA92D4800F0E5F84CF233700F905F
:10058000022010900FA92A4800F0DCF84FF6807086
:100590000F900FA9274800F0D5F841F201000F9005
:1005A0000FA9254800F0CEF820480C30006820F054
:1005B00001001E490C3108600020089009900F20AE
:1005C0000A9000200B900C900D900E9001900290DC
:1005D00001200390002004900590069007904FF0B2
:1005E00020401649086016484860062088600021AF
:1005F0001248C1601021416100218161C1614162E5
:100600004FF4805181620021C1624FF48041016347
:100610000021416381630161016201AA08A900F020
:1006200029FE13B000BD000000100240000C014084
:100630000014014000180140002001407C0000200F
:10064000040100A070B50446B3F5804F13D1D1E981
:10065000000540EA05108D6840EA05208D692843B1
:100660008D8940EA054054F82250064E3540284313
:1006700044F8220003E06FF0704044F822000020AC
:1006800070BD00000000F0CF70B50246086852F857
:10069000200020F001000E6842F826008868082833
:1006A00001D1402300E00023486818438E6830439E
:1006B000CE6830430E6930434E693043CE693043D3
:1006C0000E6A30434E6A30438E6A3043CE6A3043FE
:1006D0000E6B40EA060488690443486B0443074DE7
:1006E00045F4806545F4E025086852F82000A843E9
:1006F00020430E6842F82600002070BD7FFB0800F2
:1007000010B50346D1E9000440EA04108C6840EAC1
:1007100004208C8940EA0444088A401E44EA0054BC
:10072000087D801E44EA00608C692043541C53F805
:10073000244004F040442043541C43F8240000208B
:1007400010BD00002DE9F847024600239C467BE1DE
:100750004FF0010808FA03F4D1F8008008EA040019
:10076000A0427DD1DFF8F4A2D1F80480A8EB0A09F9
:10077000D0453AD014DCB8F1030F50D009DCB8F101
:10078000000F31D0B8F1010F1CD0B8F1020F49D1E0
:1007900020E0B8F1110F18D0B8F1120F42D11EE0CD
:1007A000B9F5881F25D006DCB9F5803F20D0B9F512
:1007B000801F37D11AE0B9F5001F18D0B9F5041F12
:1007C00030D117E0D1F80CC02DE0D1F80C8008F141
:1007D000040C28E0D1F80C8008F1080C23E0D1F8D3
:1007E0000C8008F10C0C1EE000BF00BF00BF00BF72
:1007F00000BF00BFD1F80880B8F1000F02D14FF060
:10080000040C0BE0D1F80880B8F1010F03D14FF0D0
:10081000080C146102E04FF0080C546103E04FF043
:10082000000C00E000BF00BFFF2801D8904601E0A7
:1008300002F104084646FF2802D84FEA830803E085
:10084000A3F108084FEA88084746D6F800804FF021
:100850000F0909FA07F928EA09080CFA07F900E074
:100860007AE048EA0908C6F80080D1F8048008F068
:100870008058B8F1805F6FD100BFDFF8E481D8F80D
:10088000188048F00108DFF8D891C9F81880C846E8
:10089000D8F8188008F00108CDF8008000BF00BF2C
:1008A0004FEAB9384FEA930958F829504FEA83784C
:1008B0004FEA18794FF00F0808FA09F825EA0805F9
:1008C000DFF8A081424502D14FF0000824E0DFF8B4
:1008D0009881424502D14FF001081DE0DFF88C817C
:1008E000424502D14FF0020816E0DFF8848142450C
:1008F00002D14FF003080FE0DFF87881424502D1C2
:100900004FF0040808E0DFF87081424502D14FF053
:10091000050801E04FF006084FEA83794FEA19799C
:1009200008FA09F848EA0505DFF850814FEA93090B
:1009300048F82950D1F8048008F48018B8F5801FD1
:100940000BD1DFF83C81D8F8008048EA0008DFF8D6
:100950003091C9F800800AE075E0DFF82481D8F80A
:10096000008028EA0008DFF81891C9F80080D1F863
:10097000048008F40018B8F5001F0ED1DFF80081DC
:1009800008F10408D8F8008048EA0008DFF8F09081
:1009900009F10409C9F800800DE0DFF8E48008F1EE
:1009A0000408D8F8008028EA0008DFF8D49009F19C
:1009B0000409C9F80080D1F8048008F40038B8F5BB
:1009C000003F0ED1DFF8B880A8F10408D8F8008005
:1009D00048EA0008DFF8A890A9F10409C9F80080E6
:1009E0000DE0DFF89C80A8F10408D8F8008028EA20
:1009F0000008DFF88C90A9F10409C9F80080D1F84B
:100A0000048008F48038B8F5803F0ED1DFF870809C
:100A1000A8F10808D8F8008048EA0008DFF86090DC
:100A2000A9F10809C9F800800DE0DFF85480A8F1A9
:100A30000808D8F8008028EA0008DFF84490A9F1F7
:100A40000809C9F800805B1CD1F8008028FA03F877
:100A5000B8F1000F7FF47CAEBDE8F88700001110FC
:100A60000010024000080140000C0140001001404D
:100A70000014014000180140001C01400800014022
:100A800008040140024693680B400BB1012000E0CE
:100A9000002070470AB1016101E00B040361704757
:100AA00001480068704700000800002010B50848A1
:100AB000006840F0100006490860032000F070F85C
:100AC0000F2000F007F800F02BF8002010BD000008
:100AD0000020024070B504460E4800784FF47A7149
:100AE000B1FBF0F00C490968B1FBF0F5284600F0C5
:100AF000F5FB08B1012070BD102C07D20022214661
:100B0000501E00F00EF80548046001E00120F2E7F5
:100B10000020F0E710000020000000200C00002062
:100B200070472DE9F05F80460D461646002701F01C
:100B300087FC074639462A46334601F00700C0F1D4
:100B4000070ABAF1040F02D94FF0040A01E0C0F11C
:100B5000070AD14600F1040ABAF1070F02D24FF09A
:100B6000000A01E0A0F1030AD4464FF0010A0AFA94
:100B700009FAAAF1010A0AEA020A0AFA0CFA4FF083
:100B8000010B0BFA0CFBABF1010B0BEA030B4AEA6E
:100B90000B042146404601F05BFCBDE8F09F0000DD
:100BA00000BF00F00702064B19684FF6FF0319401B
:100BB000044B0B4343EA0221014B196000BF70470D
:100BC0000CED00E00000FA0570B504460D460CB9C6
:100BD000012070BD5A48006800F00700A8420ED2FC
:100BE0005748006820F00700284355490860084628
:100BF000006800F00700A84201D00120E9E7207852
:100C000000F0020002281DD1207800F00400042822
:100C100005D14C48406840F4E0604A49486020787B
:100C200000F00800082805D14648406840F46050AC
:100C3000444948604348406820F0F000A1680843F8
:100C400040494860207800F0010078B360680128CE
:100C500006D13C48006800F4003090B90120B8E7A4
:100C60006068022806D13748006800F0007040B97B
:100C70000120AEE73348006800F0020008B9012007
:100C8000A7E73048406820F00300616808432D4919
:100C90004860FFF705FF064609E0FFF701FF801BEC
:100CA00041F28831884202D9032092E707E02548C3
:100CB000406800F00C006168B0EB810FEDD1204876
:100CC000006800F00700A8420ED91D48006820F017
:100CD000070028431A4908600846006800F007002A
:100CE000A84201D0012074E7207800F00400042815
:100CF00007D11448406820F4E060E16808431149D6
:100D00004860207800F00800082808D10D484068A5
:100D100020F46050216940EAC1000A49486000F0AF
:100D20003FF808494968C1F30311074A515CC840BC
:100D30000649086006480068FFF7CCFE002048E737
:100D400000200240001002404E3400080000002045
:100D50000C000020014800687047000000000020DF
:100D600000B5FFF7F7FF04494968C1F30221034AC0
:100D7000515CC84000BD0000001002405E34000815
:100D800000B5FFF7E7FF04494968C1F3C221034AF0
:100D9000515CC84000BD0000001002405E340008F5
:100DA00070B500210022002400230020134D696843
:100DB00001F00C05F5B1042D02D0082D19D101E088
:100DC0000F4819E00F4DC1F38346AB5D01F4803548
:100DD00055B10A4D6D68C5F340450B4E725D084D27
:100DE0005D43B5FBF2F402E0084D03FB05F4204639
:100DF00002E000BF024800BF00BF70BD001002400B
:100E000000127A00663400087634000800093D00BC
:100E1000F8B504460CB90120F8BD207800F00100B7
:100E2000002878D0F848406800F00C0004280CD066
:100E3000F548406800F00C00082811D1F2484068DD
:100E400000F48030B0F5803F0AD1EF48006800F42C
:100E5000003000285FD0606800285CD10120DBE70B
:100E600000BF6068B0F5803F06D1E748006840F4F5
:100E70008030E549086028E0606858B9E2480068B9
:100E800020F48030E04908600846006820F48020A3
:100E900008601AE06068B0F5A02F0BD1DA4800684E
:100EA00040F48020D84908600846006840F480304B
:100EB00008600AE0D448006820F48030D249086015
:100EC0000846006820F48020086000BF606888B190
:100ED000FFF7E6FD054606E0FFF7E2FD401B64284C
:100EE00001D9032098E7C848006800F400300028C2
:100EF000F2D010E0FFF7D4FD054606E0FFF7D0FD85
:100F0000401B642801D9032086E7BF48006800F42D
:100F100000300028F2D1207800F00200022857D1DA
:100F2000B948406800F00C0050B1B748406800F084
:100F30000C00082818D1B448406800F4803098B9F3
:100F4000B148006800F0020020B12069012801D0FA
:100F5000012061E7AC48006820F0F800616940EAD0
:100F6000C100A949086033E02069E8B10120A74920
:100F70000860FFF795FD054606E0FFF791FD401B71
:100F8000022801D9032047E79F48006800F00200CB
:100F90000028F2D09C48006820F0F800616940EA1F
:100FA000C1009949086013E0002098490860FFF7E4
:100FB00077FD054606E0FFF773FD401B022801D9C7
:100FC000032029E79048006800F002000028F2D1D1
:100FD000207800F0080008282DD1A069B8B10120C0
:100FE0008B490860FFF75CFD054606E0FFF758FDFA
:100FF000401B022801D903200EE78348406A00F015
:1010000002000028F2D0012000F0FCFE13E00020D6
:101010007F490860FFF744FD054606E0FFF740FD05
:10102000401B022801D90320F6E67748406A00F009
:1010300002000028F2D1207800F00400042873D1C7
:1010400000277148C06900F0805070B900BF6E4839
:10105000C06940F080506C49C8610846C06900F022
:101060008050009000BF00BF01276A48006800F46C
:101070008070B0B96748006840F4807065490860C6
:10108000FFF70EFD054606E0FFF70AFD401B64284A
:1010900001D90320C0E65F48006800F48070002892
:1010A000F2D000BFE068012806D15748006A40F03E
:1010B00001005549086227E0E06858B95248006AC3
:1010C00020F00100504908620846006A20F0040040
:1010D000086219E0E06805280BD14B48006A40F02F
:1010E0000400494908620846006A40F001000862AD
:1010F0000AE04548006A20F00100434908620846BA
:10110000006A20F00400086200BFE068A0B1FFF7A9
:10111000C7FC054609E0FFF7C3FC401B41F28831DC
:10112000884202D9032077E622E03748006A00F0BF
:1011300002000028EFD012E0FFF7B2FC054608E0FD
:10114000FFF7AEFC401B41F28831884201D90320F1
:1011500062E62D48006A00F002000028F0D1012F5D
:1011600005D12948C06920F080502749C86100BFD7
:10117000E069C8B32448406800F00C00082860D03B
:10118000E069022848D1002020490866FFF788FC62
:10119000054606E0FFF784FC401B022801D9032026
:1011A0003AE61948006800F000700028F2D1206A81
:1011B000B0F5803F07D11448406820F40030A168A2
:1011C000084311494860D4E9080108430E494968B9
:1011D00021F4741108430C49486001200B4908664A
:1011E000FFF75EFC054607E03DE0FFF759FC401BBA
:1011F000022801D903200FE60348006800F00070C0
:101200000028F2D02FE0000000100240000042420F
:101210008004424200700040002014490866FFF735
:101220003FFC054606E0FFF73BFC401B022801D9C6
:101230000320F1E50E48006800F000700028F2D1AC
:1012400011E0E069012800D1E6E50948466806F4A6
:101250008031206A814204D106F47011606A8142B3
:1012600001D00120D8E50020D6E500000000424270
:101270000010024070B504460E4615461CB1A06928
:10128000B0F5807F01D1012070BD94F8410028B9EC
:10129000002084F84000204600F01FF804F1080107
:1012A0002068FFF7F1F93146A2682068FFF728FAB5
:1012B0002946236BD4E90102FFF7C4F9A16820682D
:1012C00050F8210040F00100A268216841F8220096
:1012D000012084F841000020D6E7704770B504462D
:1012E0002546681EB0F1807F01D301200FE0681E03
:1012F0004FF0E02148610F214FF0FF3001F0A8F8D6
:1013000000204FF0E021886107200861002070BDB7
:1013100010B504460CB9012010BDA06900B100E071
:1013200000BF94F8410028B9002084F8400020460E
:1013300000F02AF8242084F841002068C06820F4D6
:1013400000502168C860204600F0E4FF2068006972
:1013500020F49040216808612068406920F02A004C
:10136000216848612068C06840F400502168C86066
:1013700000206064202084F8410084F842000020AE
:10138000606300BFC8E7000010B586B0044624497A
:101390002068884242D100BF00BF2248806940F0E7
:1013A0000400204988610846806900F0040001902B
:1013B00000BF00BF00BF00BF00BF0846806940F00B
:1013C000040088610846806900F00400019000BFB5
:1013D00000BF00BF00BF00BF0846806940F48040E6
:1013E00088610846806900F48040019000BF00BF1A
:1013F00000BF48150290022003900320059002A927
:101400000948FFF79FF94FF4806002900020039095
:101410000120049002A90448FFF794F906B010BD1A
:1014200000380140001002400008014000BFFEE704
:101430002DE9F04105460E461746A5F10A0084B293
:1014400006E03A463146204600F030FA601C84B28D
:1014500005F10A008442F4DBA6F10A0084B206E03A
:101460003A462146284600F021FA601C84B206F173
:101470000A008442F4DBBDE8F081000030B5044688
:101480000A4800880949498800FB01F500210846FF
:1014900000F0F4F9054800890549088003E0044894
:1014A000801C04806D1E002DF9D130BDC4000020C9
:1014B000FE07006C10B5044644B900200D49887140
:1014C000F02008804FF4A070488007E0012009490F
:1014D00088714FF4A0700880F02048802C200549C6
:1014E00008812A2048812B208881002000F034F9CF
:1014F00010BD0000C400002010B5FEF7F1FF32203F
:1015000000F0BCFF42F27D4091498880CF2000F07E
:1015100069FC002000F06CFCC12000F069FC302068
:1015200000F066FCED2000F05DFC642000F060FC43
:10153000032000F05DFC122000F05AFC812000F036
:1015400057FCE82000F04EFC852000F051FC1020F4
:1015500000F04EFC7A2000F04BFCCB2000F042FC67
:10156000392000F045FC2C2000F042FC002000F067
:101570003FFC342000F03CFC022000F039FCF72056
:1015800000F030FC202000F033FCEA2000F02AFCC0
:10159000002000F02DFC002000F02AFCC02000F00C
:1015A00021FC1B2000F024FCC12000F01BFC0120CA
:1015B00000F01EFCC52000F015FC302000F018FCE7
:1015C000302000F015FCC72000F00CFCB72000F024
:1015D0000FFC362000F006FC482000F009FC3A2001
:1015E00000F000FC552000F003FCB12000F0FAFBF5
:1015F000002000F0FDFB1A2000F0FAFBB62000F0FE
:10160000F1FB0A2000F0F4FBA22000F0F1FBF22035
:1016100000F0E8FB002000F0EBFB262000F0E2FBEE
:10162000012000F0E5FBE02000F0DCFB0F2000F0E3
:10163000DFFB2A2000F0DCFB282000F0D9FB08208B
:1016400000F0D6FB0E2000F0D3FB082000F0D0FB0A
:10165000542000F0CDFBA92000F0CAFB432000F08D
:10166000C7FB0A2000F0C4FB0F2000F0C1FB0020E4
:1016700000F0BEFB002000F0BBFB002000F0B8FB38
:10168000002000F0B5FBE12000F0ACFB002000F0F2
:10169000AFFB152000F0ACFB172000F0A9FB0720E2
:1016A00000F0A6FB112000F0A3FB062000F0A0FB39
:1016B0002B2000F09DFB562000F09AFB3C2000F010
:1016C00097FB052000F094FB102000F091FB0F2009
:1016D00000F08EFB3F2000F08BFB3F2000F088FBEA
:1016E0000F2000F085FB2B2000F07CFB002000F099
:1016F0007FFB002000F07CFB012000F079FB3F2005
:1017000000F076FB2A2000F06DFB002000F070FB5B
:10171000002000F06DFB002000F06AFBEF2000F0DD
:1017200067FB112000F05EFB782000F0C5FE292049
:1017300000F058FB0020FFF7BDFE012211460548CE
:10174000FFF7A8F94FF6FF70FFF798FE10BD0000F5
:10175000C4000020000C014030B5014600200023E9
:10176000444CA479012C18D1082915D2DFE801F0E6
:101770000406080A0C0E101206210DE007210BE0EA
:10178000042109E0052107E0012105E0002103E033
:10179000032101E0022100BF00BF08291CD2DFE8BD
:1017A00001F00406090C0F12151800BF14E040F0F8
:1017B000800011E040F040000EE040F0C0000BE07F
:1017C00040F0200008E040F0600005E040F0A0009C
:1017D00002E040F0E00000BF00BF362340F0080008
:1017E000254C2380A41C208000F020046CB1214CE7
:1017F0002488204D6D88AC4214DA1E4C22886488FF
:101800001C4D2C802C4662800CE01A4C2488194D0B
:101810006D88AC4206DD174C22886488154D2C80FB
:101820002C466280134C6489134D2C800024AD1C1F
:101830002C802C800F4C2488641EC4F30F242C8031
:101840000C4C2478641EE4B22C800A4CA489AD1E92
:101850002C800024AD1C2C802C80064C6488641ED7
:10186000C4F30F242C80034CA478641EE4B22C80B3
:1018700030BD0000C4000020FE07006C094A5289F8
:10188000094B1A8002129B1C1A80C2B21A80054AA8
:1018900092899B1E1A800A129B1C1A80CAB21A8057
:1018A00070470000C4000020FE07006C70B50546BC
:1018B0000E46144631462846FFF7E0FF03480089EC
:1018C00003490880881C048070BD0000C40000200B
:1018D000FE07006C2DE9F04F93B0FE4BD3E90012E8
:1018E000D3E90203CDE90C03CDE90A12FA480088D6
:1018F000143880B2ADF82C00F7484088143881B213
:10190000ADF83210F4480088143880B2ADF83400D5
:10191000F1484088143881B2ADF8361000BF4FF05E
:10192000000A37E00AAA02EB8A0251880AAA32F8B2
:101930002A004FF47842FFF77BFD00BF4FF480612F
:10194000E648FFF79FF80028F8D10A2000F0B4FD20
:1019500000F04AFC09900EA800EB8A00099901608A
:1019600000BF4FF48061DD48FFF78CF80028F8D005
:101970000AAA02EB8A0251880AAA32F82A004FF614
:10198000FF72FFF755FD962000F096FD0AF1010069
:1019900000F0FF0ABAF1040FC4DBBDF83810BDF83F
:1019A0003C20891A4943BDF83A30BDF83E209B1AC5
:1019B000BDF83AC0ACEB020203FB021001F070F874
:1019C00004460D46BDF84010BDF84420891A49432D
:1019D0000EAA5389D2899B1ABDF842C00EAAD28999
:1019E000ACEB020203FB021001F05AF806460F4668
:1019F00032463B462046294600F0FAFE8046B84A69
:101A0000B84B01F065F80BD332463B4620462946D9
:101A100000F0EEFE8046B44AB44B01F0E9F800D283
:101A20007DE7BDF83810BDF84020891A4943BDF85C
:101A30003A300EAA52899B1ABDF83AC00EAA5289B2
:101A4000ACEB020203FB021001F02AF804460D463B
:101A5000BDF83C10BDF84420891A4943BDF83E301A
:101A60000EAAD2899B1ABDF83EC00EAAD289ACEB51
:101A7000020203FB021001F013F806460F4632463D
:101A80003B462046294600F0B3FE8046944A954BDB
:101A900001F01EF80BD332463B462046294600F0A3
:101AA000A7FE8046904A914B01F0A2F800D236E79B
:101AB000BDF83810BDF844208A1A5243BDF83A30B8
:101AC0000EA9C9895B1ABDF83AC00EA9C989ACEB49
:101AD000010103FB012000F0E3FF04460D46BDF8C1
:101AE0003C10BDF84020891A4943BDF83E300EAA8B
:101AF00052899B1ABDF83EC00EAA5289ACEB020275
:101B000003FB021000F0CCFF06460F4632463B4670
:101B10002046294600F06CFE8046714A714B00F069
:101B2000D7FF0BD332463B462046294600F060FEE5
:101B300080466D4A6D4B01F05BF800D2EFE6BDF8D0
:101B40004410BDF83820881A00F0AAFFCDE908013A
:101B500061490988A1F1140001F002FB834601F0FC
:101B600073F90022624BCDE9040101F083F8CDE95D
:101B70000601DDE9082300F03BFE804600F052FD3F
:101B80005C490861BDF84010BDF83C20881A00F09F
:101B900087FF8046894650490988A1F1140001F069
:101BA000DFFA834601F050F90022514BCDE90001E4
:101BB00001F054F842464B46CDE9020100F018FE10
:101BC000CDE906014B49086901F03EF9CDE9040170
:101BD000DDE9062300F058FDCDE9080100F022FD03
:101BE0004449086108694FF0804101F0BBF941495F
:101BF00008610EA9C989BDF83A20881A00F050FF83
:101C0000CDE9060134494988A1F1140001F0A8FA90
:101C1000834601F019F980460022354B01F02AF87D
:101C2000CDE90401DDE9062300F0E2FDCDE908017C
:101C300000F0F8FC2F4948610EA94A89BDF83E1012
:101C4000501A00F02DFFCDE9020123494988A1F186
:101C5000140001F085FA834601F0F6F88046002270
:101C6000234B01F007F8CDE90001DDE9022300F084
:101C7000BFFDCDE906011F49486901F0E5F8CDE94E
:101C80000401DDE9062300F0FFFCCDE9080100F0C6
:101C9000C9FC1849486148694FF0804101F062F978
:101CA00014494861BDF8380001F072FA83461148C2
:101CB0000169584601F080FA81460F4901F048FB5E
:101CC000804601F011FA00B20A490883BDF84400C9
:101CD00014E0000078340008C4000020001C01401B
:101CE0000AD7A3703D0AEF3F7B14AE47E17AF03F7D
:101CF00000003440140000200000A04101F048FA28
:101D0000079035480169079801F056FA8346334930
:101D10000988A1F1140001F023FA5946089001F056
:101D200021FB81462C49B1F9180001F019FA494606
:101D3000099001F0B5F8804601F0D6F900B22649C5
:101D40000883B1F9180000EBD0714910224A1183C1
:101D5000BDF83A0001F01CFA83461F484169584615
:101D600001F02AFA81461E4901F0F2FA804601F09C
:101D7000BBF900B2184948830EA9C88901F008FAD6
:101D8000079015484169079801F016FA83461349F0
:101D90004988A1F1140001F0E3F95946089001F0D7
:101DA000E1FA81460C49B1F91A0001F0D9F9494626
:101DB000099001F075F8804601F096F900B20649E5
:101DC0004883B1F91A0000EBD0714910024A5183DF
:101DD00013B0BDE8F08F000014000020C400002004
:101DE0000000A0410149088070470000FE07006C18
:101DF00001490880704700000008006C00BFFEE742
:101E00007047000008B508490968C9084FF47A729C
:101E1000B1FBF2F14143009100BF00BF00994A1E9F
:101E200000920029F9D108BD000000207047002071
:101E30004FF0E02108610846006920F004000861C5
:101E40007047704770B50546002600224FF40071B8
:101E50003B48FEF71FFE00224FF400613848FEF7B2
:101E600019FE00241FE0002202213648FEF712FE70
:101E700005F0800028B1012251023148FEF70AFE28
:101E800005E000224FF400712D48FEF703FE6806BE
:101E9000050E012202212B48FEF7FCFD012000F077
:101EA0002CFB601CC4B2082CDDDB0022022125487B
:101EB000FEF7F0FD00224FF400712148FEF7EAFD25
:101EC000062000F01AFB002202211E48FEF7E2FD68
:101ED000012000F012FB012202211A48FEF7DAFD70
:101EE000012000F00AFB00241CE04FF6FF7000EA1E
:101EF0004606002202211348FEF7CCFD012000F027
:101F0000FCFA012202210F48FEF7C4FD04210D480E
:101F1000FEF7B8FD08B146F00106012000F0EDFA29
:101F2000601CC4B20C2CE0DB0122D1020448FEF795
:101F3000B1FD002202210348FEF7ACFD304670BD22
:101F4000001C0140000C014000B585B000BF3D48B9
:101F5000806940F080003B4988610846806900F054
:101F60008000009000BF00BF00BF0846806940F0BD
:101F7000800088610846806900F08000009000BF02
:101F800000BF00BF0846806940F00800886108462D
:101F9000806900F00800009000BF00BF00BF084645
:101FA000806940F0800088610846806900F0800008
:101FB000009000BF00BF00BF0846806940F00800E5
:101FC00088610846806900F00800009000BF00BFEB
:101FD0000815019000200290012003900320049036
:101FE00001A91948FEF7AEFB0420019001A917488A
:101FF000FEF7A8FB4FF4007001900120029001A9A8
:102000001148FEF79FFB0220019001A90F48FEF73F
:1020100099FB4FF40060019001A90B48FEF792FB79
:102020000122D1020848FEF735FD002202210748AF
:10203000FEF730FD00224FF400710348FEF72AFD41
:1020400005B000BD00100240001C0140000C014022
:1020500010B500200E4908770846007F0D498979A0
:1020600001F0010108430A490877FFF76DFF0848AE
:10207000007F00F0010028B1902005490873D020AE
:10208000487304E0D020024908739020487310BDC3
:1020900014000020C40000201CB5044600F0A4F881
:1020A000019000F0A1F80090BDF80000BDF8041008
:1020B000884206DCBDF80410BDF8000032308142D1
:1020C0000CDBBDF80400BDF80010884236DCBDF81A
:1020D0000010BDF80400323081422FDABDF8020052
:1020E000BDF80610884206DCBDF80610BDF80200F7
:1020F000323081420CDBBDF80600BDF80210884288
:102100001CDCBDF80210BDF806003230814215DA41
:10211000BDF80410BDF80020881800EBD071C1F3A1
:102120004F012180BDF80610BDF80220881800EB91
:10213000D071C1F34F01618001201CBD0020FCE77C
:102140002DE9F84304460020ADF80000ADF8020088
:102150004FF480612248FEF795FC00283CD11CB961
:102160006846FFF799FF37E06846FFF795FF98B399
:102170001C49B1F9180000F0F3FF0746BDF8000054
:1021800001F006F8804617480169404601F014F84E
:102190000646394600F084FE054600F0C1FF80B2D5
:1021A000ADF800000F49B1F91A0000F0D9FF074659
:1021B000BDF8020000F0ECFF80460A484169404645
:1021C00000F0FAFF0646394600F06AFE054600F0C8
:1021D000A7FF80B2ADF802000098BDE8F8830000C8
:1021E000001C014014000020F0B587B00026002735
:1021F00000250FE04649087BFFF724FE04A921F8DB
:1022000015004349487BFFF71DFE01A921F8150081
:10221000681CC5B2052DEDDB012553E000244BE021
:1022200004A830F8141004AA601C32F8100081428F
:102230001BDD04A830F81400611C32F8111048406E
:1022400004A921F81400601C31F8100031F81410B2
:102250004840611C22F8110004A830F8140032F83C
:102260001110484004A921F8140001A830F81410F6
:1022700001AA601C32F8100081421BDD01A830F871
:102280001400611C32F81110484001A921F8140013
:10229000601C31F8100031F814104840611C22F81D
:1022A000110001A830F8140032F81110484001A9BB
:1022B00021F81400601CC4B2C5F10500A042AFDCD7
:1022C000681CC5B2052DA9DB01250BE004A830F878
:1022D0001500304486B201A830F81500384487B2A2
:1022E000681CC5B2042DF1DB3046F11706EB917185
:1022F000C1F38F01ADF800103846F91707EB917163
:10230000C1F38F01ADF80210009807B0F0BD0000D6
:102310001400002070B504462168096921F4405179
:10232000E2681143226811612269A1681143626960
:1023300041EA02052168C96841F20C6291432943D0
:102340002268D1602168496921F44071A269114372
:10235000226851612D4A2168914202D1FEF710FD99
:1023600001E0FEF7FDFC00EBC00101EB001162682B
:102370009200B1FBF2F100EBC00202EB00126368C5
:102380009B00B2FBF3F26423B2FBF3F202EBC20355
:1023900003EB0212A1EB8201322202EB0111642253
:1023A000B1FBF2F101F0F00100EBC00202EB001210
:1023B00063689B00B2FBF3F26423B2FBF3F201EB20
:1023C000021200EBC00101EB001163689B00B1FB3E
:1023D000F3F100EBC00303EB00136668B600B3FB38
:1023E000F6F36426B3FBF6F303EBC30606EB031325
:1023F000A1EB8301322303EB01116423B1FBF3F161
:1024000001F00F0111442268916070BD0038014055
:1024100010B5044607480849086008464460002192
:102420008160C160016181610C214161FEF770FF33
:1024300010BD0000003801403400002000BFFEE75E
:1024400002480068C0F30220704700000CED00E075
:1024500010B5002804DB0A07130E054A135406E0E2
:102460000A07140E034A00F00F031B1FD45410BDBB
:1024700000E400E018ED00E000BF7047FF214FF0DE
:10248000E022916142F228314143516111460969CC
:1024900041F00101116100BF4FF0E021096901F431
:1024A00080310029F8D04FF0E021096921F00101C5
:1024B0004FF0E0221161704730B503460025B3F5B7
:1024C000E96F03DC1846FFF7D9FF15E004E0A3F538
:1024D000E96083B2681C85B2B3F5E96FF7DA0024CE
:1024E00005E04FF4E960FFF7C9FF601C84B2AC421D
:1024F000F7DB1846FFF7C2FF30BDFF214FF0E022A7
:10250000916100EBC00151611146096941F001017F
:10251000116100BF4FF0E021096901F48031002909
:10252000F8D04FF0E021096921F001014FF0E022DD
:102530001161704700BF054A126802F04002002A8C
:10254000F9D0C2B2014B1B1D1A6070470038014020
:1025500008B5FEF7ABFA4FF4E01000F02FF8FFF7E4
:1025600066FC4FF4E130FFF753FFFEF7C5FF0D495E
:10257000086880470B494868804711E04FF4806144
:102580000948FEF77FFA58B9064881680120884754
:102590000090BDF80220BDF8001004A0FDF73CFE3D
:1025A000ECE7000014000020001C0140783A25648C
:1025B000202020793A25640D0A00000030B58FB044
:1025C00005460124282105A8FDF7A2FE142168462E
:1025D000FDF79EFE01200590000406900020079064
:1025E00002200C90C1030D910E9505A8FEF710FC7A
:1025F00004460CB100BFFEE70F20009002200190BE
:10260000002002904FF4806003900020049002218B
:102610006846FEF7D9FA04460CB100BFFEE70FB0DA
:1026200030BD000021F00042A2F16052B2F5801FDF
:1026300001F0004328BFD2F17F6C0BD95FEA001C88
:1026400043EAC20242EB507018BF704728BF20F027
:1026500001007047B2F5801FBCBF184670474FEAB3
:10266000410C1CF5001F02D2084600F06CBE70B58C
:1026700000F06AFA00000089FFF7F6BF4FF0004053
:10268000A0F580007047000010B591EA030F48BF25
:1026900083F0004300F1F682841A71EB030C05D23B
:1026A000121943EB0C03001B61EB0C01DFF824E172
:1026B0004FEA1154A4EB135C1EEA430F18BF9EEAC5
:1026C000445F73D023EA0E03DCF1200E21EA0451AB
:1026D00043F4801332D322FA0CFE10EB0E0023FADF
:1026E0000CFE41EB0E01CCF1200E03FA0EFE10EBB6
:1026F0000E0051F10001B1F5801FCCF1200E32D255
:1027000001EB045112FA0EF2BDE8104058BF7047B9
:10271000401C38BF5FEA420218BF7047002814BF50
:1027200020F0010041F100014FEA410313F5001FC1
:1027300038BF7047A1F1C04100F054BA012A43EB01
:102740000302ACF1200CDCF11F0E32BF4FF0000E83
:1027500023FA0CF310EB030041EB0451B4EB115FCF
:10276000D0D0A1EB045101F5801149085FEA300097
:1027700001EB04510ED350F1000038BF12FA0EFEE7
:1027800008D1BDE81040C9E7401C38BF5FEA4202EB
:10279000CAD1C3E7BDE810404FEA410313F5001F5B
:1027A00038BF7047A1F1C04100F01CBA9EEA445FF7
:1027B00008D011EA5E0FBDE8104004BF01F00041EF
:1027C00000207047BDE8104070B500F0BDF900BFB3
:1027D00064FBBE3E0000E0FF491058BFC1F140411C
:1027E0005B1058BFC3F140438B42EFF3008070474A
:1027F0002DE9C04130B4DFF8A0C23CEA111418BF83
:102800003CEA131400F0EC8081EA03051CEA111481
:1028100044EAD57418BF1CEA131500F0C780A4EB76
:1028200005044FF0004545EAC12145EAC32341EACA
:10283000505143EA525304F17F74994204F5003435
:102840004FEAC0204FEAC22208BF904200F09C80AD
:102850004FEA13650FF24016765D4FEA134506FB0B
:1028600005F7C7F1807706FB07F74FEAD737A7FBD5
:1028700003687642C8F58038A7FB06CE38BFA8F1BA
:10288000010807FB08E64FF0000EA6FB028CE6FBF2
:1028900003CEDCF1000CCEF1004E38BFAEF1010EDC
:1028A000A6FB0C584FF000074FF00005E6FB0E8723
:1028B000A1FB08C6A0FB07CE16EB0E0645F10005EE
:1028C000E1FB076515F1E04E7EBFA4F580345FEAB9
:1028D00046066D4116F1800745F100054FEA1727BE
:1028E0004FEA066647EA0567A6F1DE46B6F1805F65
:1028F0004FEA15251FD9384624F0010C05EBC471A9
:10290000BCF1FE6F01EB0C1102D8F0BCBDE80081F8
:1029100024425CBF01F5801E9EEAC47F02D4F0BC55
:10292000BDE80081244238D4F0BCA1F1C041BDE82B
:10293000004100F057B94FEAD22242EA43524FEA2F
:10294000D323A7FB02864FEAD02040EA415007FB81
:1029500003661EEA0E0F4FEAD12105FB026658BF3F
:10296000A6EB0056B6EB00564FEA520E4EEAC37E77
:1029700018EB0E0E56EB530EBDD518EB02085E4158
:102980007F1C55F10005B6E74FF480154FF00007A6
:102990004FF000064FF00008ADE7F0BC4FF000002C
:1029A00001F1C04101F00041BDE8008111EA0C1FB6
:1029B0000CEA131500D00CE013EA0C1F00F0258080
:1029C0004FF00000F0BC81EA030101F00041BDE8D6
:1029D0000081F0BCBDE8004181EA030100F002B9CA
:1029E000F0BCBDE8004170B500F0AEF8097EFC3ED9
:1029F00000F007B881EA03014FF0000001F0004148
:102A0000704781EA030100F0EDB8F0BCBDE8004179
:102A10004FF0000021497047FFFDFBF9F7F5F4F294
:102A2000F0EEEDEBE9E8E6E4E3E1E0DEDDDBDAD869
:102A3000D7D5D4D3D1D0CFCDCCCBCAC8C7C6C5C4C7
:102A4000C2C1C0BFBEBDBCBBBAB9B8B7B6B5B4B3DE
:102A5000B2B1B0AFAEADACABAAA9A8A8A7A6A5A4C9
:102A6000A3A3A2A1A09F9F9E9D9C9C9B9A9999988D
:102A70009797969595949393929191908F8F8E8E30
:102A80008D8C8C8B8B8A89898888878786858584BD
:102A900084838382828181800000FF070000F87FA9
:102AA00010F0004248BF4042B0FA80F310FA03F140
:102AB0000AD0C3F11D0303F580634FEA415002EBD6
:102AC000035202EBD12170474FF000007047000025
:102AD00051EA030C17D41CF5801F58BFBCF5801FAA
:102AE00000F10680994218BF704708BF90427047B6
:102AF00007D711F5801F58BF13F5801F19D49942CD
:102B00007047894270471CF5801F08D5BCF5801FAF
:102B1000F7D58B4218BF704708BF824270474FF409
:102B2000001C1CEB410F38BF1CEB430F01D28B4242
:102B3000704770B500F008F8922449004FF000513A
:102B40004FF08053FFF748BE0EF1020E2EF0030E39
:102B50005EF8046B364205D4012A43EB030515F5F4
:102B6000001F12D8012841EB010C1CF5001F0CD8E6
:102B70000ED14FEAD17C15F5001F0CEB4C0C0CF17B
:102B8000020C08BF4CEBD37C04E04FF0080C01E0D2
:102B90004FEAD37C0CEB4C0526FA05F606F0070647
:102BA000B6F1040C06D20EEB860CBDE870404CF07A
:102BB000010C6047DFE80CF0090B02024FF0004106
:102BC0004FF00000A1F5002170BD19461046012804
:102BD00051EB010418BFD4F5001484BF002001F0AC
:102BE000004170BD0808A0F500114FEA310170479F
:102BF00053EA010C17D41CF5801F58BFBCF5801F89
:102C000000F106808B4218BF704708BF82427047B0
:102C100007D713F5801F58BF11F5801F19D48B42B9
:102C200070479B4270471CF5801F08D5BCF5801F7C
:102C3000F7D5994218BF704708BF904270474FF4CC
:102C4000001C1CEB430F38BF1CEB410F01D2994213
:102C500070470FB40CBC03BCFFF76BBF91EA030FC6
:102C600010B581F000413FF517AD83F0004300F04F
:102C700009B8000010B591EA030F48BF83F0004384
:102C80003FF50AAD841A71EB030C07D212198CF0D0
:102C9000004C43EB0C03001B61EB0C01DFF8A4E1DB
:102CA0004FEA1154A4EB135C1EEA430F18BF9EEACF
:102CB000445F00F0B08023EA6E03524221EA0451DF
:102CC000C3EB6E0338BF5B1EDCF1200E25D322FA66
:102CD0000CFE10EB0E0043FA0CFE41EB0E01CCF1A2
:102CE000200E03FA0EFE10EB0E0051F10001CCF1A4
:102CF000200E29D412FA0EF201EB0451BDE8104067
:102D000058BF7047401C1CBFB2F1004F70470028ED
:102D10000CBF491C20F00100704712EB020E43EB80
:102D2000030218BF4FF0010E4EEA4202ACF1200C34
:102D3000DCF11E0E54D943FA0CFE10EB0E0051F1DB
:102D4000FF31CCF11E0ED5D50EF1010E12FA0EFE9A
:102D5000404141EB010101EB445C5FEA5C5C10D94E
:102D600010EBDE7001EB045138BFBEF1004FBDE83F
:102D7000104018BF704700280CBF491C20F001000C
:102D8000704730D24FEAD42C11F5001124F40064BE
:102D90001BD0B1FA81F20B3AA41AA41ED2F120037F
:102DA000914030FA03F31943904001EBCC71002CB1
:102DB00001EB0451BDE81040A8BF704701F1C041CC
:102DC0004FF0000001F000417047B0FA80F310FAB4
:102DD00003F100D110BDE41A173C4805C90AE4E725
:102DE00001EB045110BD491001EB0451BDE8104046
:102DF0004FEA300002E04FF0000170474A0008BF80
:102E00000042F8D0B2F5001F28BF704701F0004122
:102E10004FF0000070479EEA445F07D011EA5E0F52
:102E2000BDE8104004BF002100207047BDE81040FD
:102E300070B5FFF789FE00BF40DFF63E83F000412A
:102E4000104670470000E0FF43004FEAD30C4FEA02
:102E50003C0C43401FBF40070CF1605113F0FE4F84
:102E600070471CF0006F03D100200CF00041704748
:102E70000CF0004343EA507010B540EACC0000F07B
:102E80001CFA00BF000000924FEA0001FFF7AABE43
:102E90004FF000414FF00000A1F500217047000005
:102EA00090EA010F48BF81F0004100F16282421AAE
:102EB0003CBF801A89184FEAD0524FF07F4C1CEA71
:102EC000410FA2EBD15318BF9CEA026F00F03B8088
:102ED0004FF0004C4CEA00204CEA012121FA03FC9F
:102EE00010EB0C0C1ED202F1FF325FEA1C2040EB0B
:102EF000C25038BF70471CF07F0F4FEA400C18BF1C
:102F0000BCF17F4F38BF7047C3F12003994008BF21
:102F100020F00100BCF17F4F38BF7047A0F1C040E6
:102F200000F011BA4FEA3C00000A40EBC25028BF43
:102F30001CF0FF0F4FEA400CE6D018BFBCF17F4FEA
:102F400038BF7047EAE79CEA026F05D010EA5C0FD1
:102F500008BF00F00040704710B500F0AEF900BFA8
:102F600064FBBE3E4FF47F0C1CEAD0121EBF1CEA6D
:102F7000D11392EA0C0F93EA0C0F00F0858090EACF
:102F8000010F48BF42F4807240F4000C41F400008D
:102F90002CF07F4120F07F4000B58142A2EB03027C
:102FA0000FF2081CACEB504EC0F100009EF800E0A0
:102FB0004FEA4E0E00FB0EFC38BF49004FEA2C1CB6
:102FC00002F5FA020CFB0EF34FEACE1E4FEA112C6B
:102FD0004FEAC1210EEB635E42EB22420EFB0CFC7A
:102FE0004FEA1C5300FB03114FEA112C4FEA013149
:102FF0000EFB0CFC4FEADC4C00FB0C11C14228BF5D
:1030000009184CEB03335DF804EB10EB410143EB83
:10301000C250B2F57C0F38BF704729D512F0F00FBF
:103020001CBF00F1C04000F0004070470081828367
:103030008485868788898B8C8D8E8F9192939596C7
:1030400097999A9C9D9FA0A2A3A5A7A8AAACAEB051
:10305000B2B3B5B7B9BCBEC0C2C5C7C9CCCED1D456
:10306000D7D9DCDFE2E6E9ECF0F3F7FAFE00000086
:103070004FEA400C0CF1807CBCF17E4F28BF7047BA
:10308000B0F1C04000F05FB990EA010F0CEAD11333
:1030900048BF42F48072624538BF634507D213F4DB
:1030A0007F0F16D080EA010000F00040704710B595
:1030B00000F003F9097EFC3E00F005B880EA01004B
:1030C00000F00040704780EA010000F0004000F08E
:1030D0003AB912F47F0F04BF0248704780EA01003A
:1030E00000F031B90000C07F41000B0ED3F19E0209
:1030F00008D950F400034FEA032323FA02F048BF33
:103100004042704710B500F0D8F800BF49922480C3
:10311000002070476FF0004282EA200070470000F4
:10312000C10DD1F19E0206DB4FEA002343F00043BC
:1031300023FA02F07047004207D54FEA4001B1F18F
:10314000FE4F02D24FF00000704710B500F0B5F806
:1031500049922480002070476FEA200070470000E9
:1031600010F0004148BF4042B0FA80F310FA03F279
:10317000C3F19D030BD051EAC35101EB122053065A
:1031800038BF704700F1010008BF20F00100704710
:10319000B0FA80F310FA03F2C3F19D030AD0D90507
:1031A00001EB1220530638BF704700F1010008BF41
:1031B00020F00100704700004FF47F0C1CEAD01291
:1031C0001EBF1CEAD11392EA0C0F93EA0C0F00F019
:1031D000478090EA010F48BF42F480724FF0004CE4
:1031E0004CEA00204CEA012102EB0302A0FB011390
:1031F000A2F50002002918BF43F001035B0028BFBD
:103200004FEA330342EB22425FEA132C4CEBC250ED
:103210002EBFBCEB436FB2F57C0F70474FEA036CD7
:10322000BCF1004F08BF20F00100B2F57C0F38BFA1
:1032300070470BD582F0FF0212F5803FC8BF704780
:1032400000F1C040D8BF00F00040704700F5000C0E
:103250005FEA4C0C48BF7047B0F1C04000F073B853
:1032600090EA010F0CEAD11348BF42F48072624524
:1032700038BF634504D280EA010000F00040704787
:1032800010B500F01AF800BF8900013E00F007B841
:1032900000F009B85FEA410C5FEA1C6C08D080EAD4
:1032A000010000F050B85FEA400C5FEA1C6CF6D1F8
:1032B0004FF00040A0F5800070470EF1020E2EF096
:1032C000030E5EF8044B244204D44FEA4102B2F1EB
:1032D0007F4F11D84FEA4003B3F17F4F0CD80ED186
:1032E0004FEAD07CB2F17F4F0CEB4C0C0CF1020C8E
:1032F00008BF4CEBD17C04E04FF0080C01E04FEA32
:10330000D17C0CEB4C0324FA03F404F00704B4F171
:10331000040C06D20EEB840CBDE810404CF0010CFE
:103320006047DFE80CF0070802024FF00040A0F50C
:10333000800010BD0846420018BFD2F1807288BFDD
:1033400000F0004010BDFF2141EAD050C005704799
:1033500080F0004090EA010F7FF5A9AD81F00041B7
:1033600000F007B890EA010F48BF81F000413FF537
:103370009EAD421A04D882F00042A0EB0200114434
:103380004FEAD0524FF07F4C1CEA410FA2EBD153D1
:1033900018BF9CEA026F4AD04FF0004C4CEA002064
:1033A0004CEA012121FA03FCB0EB0C0C0FD412F013
:1033B000FE0F36D05FEA4C001DD5001240EBC25024
:1033C00038BF70471CF03F0F18BF70470BE0A2F1E9
:1033D00001025FEA1C2040EBC25038BF70471CF06E
:1033E0007F0F18BF7047C3F12003994014BF401EE0
:1033F00020F00100704780084FEA122308BF704791
:10340000B0FA80FCA2EB0C02CCF1280C60FA0CF0B4
:1034100093EA122F04BF00EBC25070474FEAC3700B
:103420007047130A5FEADC1008BF7047F6E79CEAB2
:10343000026F04D010EA5C0F08BF0020704710B57F
:10344000FFF73BFF40DFF63E81F000407047000091
:103450000000000000000102030406070809000044
:1034600000000102030402030405060708090A0B11
:103470000C0D0E0F101001021400140000001400B7
:103480001400000000000000A83400080000002024
:10349000340000006C010008DC3400083400002017
:1034A00004070000880100080024F4000000000068
:1034B0000000000010000000010000005120000882
:1034C000D51800084121000800000000000000009D
:0C34D000000000000000000000000000F0
:0400000508000131BD
:00000001FF
