:020000040800F2
:10000000C8060020D50100088B1100085111000816
:1000100087110008D9040008051A00080000000034
:10002000000000000000000000000000C5180008EB
:10003000DD04000800000000EB010008ED010008ED
:10004000EF010008EF010008EF010008711300083C
:10005000EF010008EF010008EF010008EF010008C0
:10006000EF010008EF010008EF010008EF010008B0
:10007000EF010008EF010008EF010008EF010008A0
:10008000EF010008EF010008EF010008EF01000890
:10009000EF010008EF010008EF010008EF01000880
:1000A000EF010008EF010008EF010008EF01000870
:1000B000EF010008EF010008EF010008EF01000860
:1000C000EF010008EF010008EF010008EF01000850
:1000D000EF010008EF010008EF010008EF01000840
:1000E000EF010008EF010008EF010008EF01000830
:1000F000EF010008EF010008EF010008EF01000820
:10010000EF010008EF010008EF010008EF0100080F
:10011000EF010008EF010008EF010008EF010008FF
:10012000EF010008EF010008EF010008EF010008EF
:1001300000F002F800F03FF80AA090E8000C8244BA
:100140008344AAF10107DA4501D100F034F8AFF297
:10015000090EBAE80F0013F0010F18BFFB1A43F0A5
:1001600001031847441A0000641A0000103A24BF23
:1001700078C878C1FAD8520724BF30C830C144BF0C
:1001800004680C607047000000230024002500264E
:10019000103A28BF78C1FBD8520728BF30C148BFEA
:1001A0000B607047642900F07780002070471FB50E
:1001B0001FBD10B510BD00F05DF91146FFF7F7FF48
:1001C00001F08EFC00F07BF903B4FFF7F2FF03BCF3
:1001D00001F036FC0948804709480047FEE7FEE782
:1001E000FEE7FEE7FEE7FEE7FEE7FEE7FEE7FEE7E7
:1001F00004480549054A064B70470000DB18000813
:1002000031010008C8000020C8060020C8020020F4
:10021000C8020020704700000FB4044910B503AABB
:10022000029800F0F9F810BC5DF814FB04000020FF
:100230002DE9F0410E460446002020622046E16888
:10024000884730B3252805D0D4E901219047206A9A
:10025000401CF2E7E168204600278847050018D0D7
:10026000A5F14100192802D820354FF40067324625
:10027000294620462760FFF795FF40B1012804D0AA
:10028000F61D26F007060836D8E7361DD6E72846BD
:10029000DAE7206ABDE8F0812DE9F0410646002446
:1002A00010687529314616A510D0AFF300800028DC
:1002B00002DA404213A507E031688A0701D512A58A
:1002C00002E0490704D511A5012401E0AFF3008045
:1002D00000210A2206F1240709E0B0FBF2FCB0FB82
:1002E000F2F302FB1C00303078541846491C0028F9
:1002F000F3D123462A463046BDE8F04100F033B83A
:10030000000000002D0000002B0000002000000075
:100310004FF0000200B5134694469646203922BF9E
:10032000A0E80C50A0E80C50B1F12001BFF4F7AFE9
:10033000090728BFA0E80C5048BF0CC05DF804EBCB
:10034000890028BF40F8042B08BF704748BF20F839
:10035000022B11F0804F18BF00F8012B7047704737
:100360007047704770472DE9F0470D469946924611
:10037000044600F124080168880604D5E06921F0EC
:100380001001216000E00120A84201DD471B00E0D0
:100390000027A1697A1902EB0900081AA0612078E8
:1003A000C00602D42046AFF30080002608E0D4E95E
:1003B00001211AF806009047206A401C761C206232
:1003C0004E45F4DB2078C0060AD52046AFF3008006
:1003D00006E0D4E9012130209047206A401C2062C9
:1003E000381EA7F10107F4DC07E0D4E9012118F871
:1003F00005009047206A401C2062281EA5F10105D7
:10040000F3DC2046AFF300802078000602D50220FE
:10041000BDE8F0870120FBE7074B70B50D467B4434
:1004200000F011F80446284600F020F810B14FF013
:10043000FF3070BD204670BDA316000001694A1C44
:1004400002610878704700B58FB0CDE90131002115
:10045000059105497944CDE9031011466846FFF737
:10046000E7FE0FB000BD0000E5FFFFFF007B00F0DE
:1004700080007047754600F02BF8AE4605006946CF
:10048000534620F00700854618B020B5FFF7B0FEB0
:10049000BDE820404FF000064FF000074FF0000885
:1004A0004FF0000B21F00701AC46ACE8C009ACE806
:1004B000C009ACE8C009ACE8C0098D46704710B56A
:1004C0000446AFF300802046BDE81040FFF77CBE35
:1004D000004870476400002000BFFEE7704700003E
:1004E0002DE9F847024600239C467BE14FF00108C6
:1004F00008FA03F4D1F8008008EA0400A0427DD194
:10050000DFF8F4A2D1F80480A8EB0A09D0453AD06C
:1005100014DCB8F1030F50D009DCB8F1000F31D072
:10052000B8F1010F1CD0B8F1020F49D120E0B8F1A9
:10053000110F18D0B8F1120F42D11EE0B9F5881F83
:1005400025D006DCB9F5803F20D0B9F5801F37D122
:100550001AE0B9F5001F18D0B9F5041F30D117E023
:10056000D1F80CC02DE0D1F80C8008F1040C28E083
:10057000D1F80C8008F1080C23E0D1F80C8008F1C8
:100580000C0C1EE000BF00BF00BF00BF00BF00BFDB
:10059000D1F80880B8F1000F02D14FF0040C0BE045
:1005A000D1F80880B8F1010F03D14FF0080C1461A5
:1005B00002E04FF0080C546103E04FF0000C00E043
:1005C00000BF00BFFF2801D8904601E002F10408F7
:1005D0004646FF2802D84FEA830803E0A3F1080843
:1005E0004FEA88084746D6F800804FF00F0909FA0D
:1005F00007F928EA09080CFA07F900E07AE048EA66
:100600000908C6F80080D1F8048008F08058B8F1D5
:10061000805F6FD100BFDFF8E481D8F8188048F020
:100620000108DFF8D891C9F81880C846D8F81880B2
:1006300008F00108CDF8008000BF00BF4FEAB938CC
:100640004FEA930958F829504FEA83784FEA18790E
:100650004FF00F0808FA09F825EA0805DFF8A0812D
:10066000424502D14FF0000824E0DFF8988142456E
:1006700002D14FF001081DE0DFF88C81424502D124
:100680004FF0020816E0DFF88481424502D14FF0B6
:1006900003080FE0DFF87881424502D14FF00408EB
:1006A00008E0DFF87081424502D14FF0050801E013
:1006B0004FF006084FEA83794FEA197908FA09F8EA
:1006C00048EA0505DFF850814FEA930948F82950B8
:1006D000D1F8048008F48018B8F5801F0BD1DFF83A
:1006E0003C81D8F8008048EA0008DFF83091C9F86A
:1006F00000800AE075E0DFF82481D8F8008028EA5D
:100700000008DFF81891C9F80080D1F8048008F4D7
:100710000018B8F5001F0ED1DFF8008108F10408B9
:10072000D8F8008048EA0008DFF8F09009F10409E1
:10073000C9F800800DE0DFF8E48008F10408D8F87B
:10074000008028EA0008DFF8D49009F10409C9F80C
:100750000080D1F8048008F40038B8F5003F0ED1CD
:10076000DFF8B880A8F10408D8F8008048EA00084B
:10077000DFF8A890A9F10409C9F800800DE0DFF8BE
:100780009C80A8F10408D8F8008028EA0008DFF867
:100790008C90A9F10409C9F80080D1F8048008F40C
:1007A0008038B8F5803F0ED1DFF87080A8F10808D6
:1007B000D8F8008048EA0008DFF86090A9F108093D
:1007C000C9F800800DE0DFF85480A8F10808D8F8D7
:1007D000008028EA0008DFF84490A9F10809C9F868
:1007E00000805B1CD1F8008028FA03F8B8F1000FF4
:1007F0007FF47CAEBDE8F8870000111000100240C5
:1008000000080140000C01400010014000140140AC
:1008100000180140001C014008000140080401408C
:1008200001480068704700000800002010B5084823
:10083000006840F0100006490860032000F070F8DE
:100840000F2000F007F800F02BF8002010BD00008A
:100850000020024070B504460E4800784FF47A71CB
:10086000B1FBF0F00C490968B1FBF0F5284600F047
:10087000C7FB08B1012070BD102C07D20022214611
:10088000501E00F00EF80548046001E00120F2E778
:100890000020F0E710000020000000200C000020E5
:1008A00070472DE9F05F80460D461646002701F09F
:1008B000ABF8074639462A46334601F00700C0F137
:1008C000070ABAF1040F02D94FF0040A01E0C0F19F
:1008D000070AD14600F1040ABAF1070F02D24FF01D
:1008E000000A01E0A0F1030AD4464FF0010A0AFA17
:1008F00009FAAAF1010A0AEA020A0AFA0CFA4FF006
:10090000010B0BFA0CFBABF1010B0BEA030B4AEAF0
:100910000B042146404601F07FF8BDE8F09F00003F
:1009200000BF00F00702064B19684FF6FF0319409D
:10093000044B0B4343EA0221014B196000BF70478F
:100940000CED00E00000FA05012001490862704743
:1009500000000E4270B504460D460CB9012070BD72
:100960005A48006800F00700A8420ED257480068B5
:1009700020F007002843554908600846006800F049
:100980000700A84201D00120E9E7207800F002002A
:1009900002281DD1207800F00400042805D14C481D
:1009A000406840F4E0604A494860207800F0080060
:1009B000082805D14648406840F4605044494860E2
:1009C0004348406820F0F000A1680843404948606F
:1009D000207800F0010078B36068012806D13C4817
:1009E000006800F4003090B90120B8E76068022880
:1009F00006D13748006800F0007040B90120AEE72A
:100A00003348006800F0020008B90120A7E7304829
:100A1000406820F00300616808432D494860FFF7F3
:100A2000FFFE064609E0FFF7FBFE801B41F288311E
:100A3000884202D9032092E707E02548406800F089
:100A40000C006168B0EB810FEDD12048006800F028
:100A50000700A8420ED91D48006820F0070028436F
:100A60001A4908600846006800F00700A84201D053
:100A7000012074E7207800F00400042807D114480E
:100A8000406820F4E060E16808431149486020783C
:100A900000F00800082808D10D48406820F4605094
:100AA000216940EAC1000A49486000F03FF808495E
:100AB0004968C1F30311074A515CC8400649086000
:100AC00006480068FFF7C6FE002048E70020024005
:100AD000001002407E1B0008000000200C000020D7
:100AE00001480068704700000000002000B5FFF7D3
:100AF000F7FF04494968C1F30221034A515CC84029
:100B000000BD0000001002408E1B000800B5FFF77A
:100B1000E7FF04494968C1F3C221034A515CC84058
:100B200000BD0000001002408E1B000870B50021BF
:100B30000022002400230020134D696801F00C05F9
:100B4000F5B1042D02D0082D19D101E00F4819E0AC
:100B50000F4DC1F38346AB5D01F4803555B10A4DAD
:100B60006D68C5F340450B4E725D084D5D43B5FBA6
:100B7000F2F402E0084D03FB05F4204602E000BF5A
:100B8000024800BF00BF70BD0010024000127A0092
:100B9000961B0008A61B000800093D00F8B5044696
:100BA0000CB90120F8BD207800F00100002878D0B1
:100BB000F848406800F00C0004280CD0F548406864
:100BC00000F00C00082811D1F248406800F4803091
:100BD000B0F5803F0AD1EF48006800F400300028EB
:100BE0005FD0606800285CD10120DBE700BF60684F
:100BF000B0F5803F06D1E748006840F48030E54911
:100C0000086028E0606858B9E248006820F4803045
:100C1000E04908600846006820F4802008601AE077
:100C20006068B0F5A02F0BD1DA48006840F480204E
:100C3000D84908600846006840F4803008600AE03F
:100C4000D448006820F48030D24908600846006823
:100C500020F48020086000BF606888B1FFF7E0FDE5
:100C6000054606E0FFF7DCFD401B642801D90320A0
:100C700098E7C848006800F400300028F2D010E07F
:100C8000FFF7CEFD054606E0FFF7CAFD401B6428CE
:100C900001D9032086E7BF48006800F4003000282F
:100CA000F2D1207800F00200022857D1B9484068FC
:100CB00000F00C0050B1B748406800F00C00082864
:100CC00018D1B448406800F4803098B9B148006841
:100CD00000F0020020B12069012801D0012061E765
:100CE000AC48006820F0F800616940EAC100A949F9
:100CF000086033E02069E8B10120A7490860FFF7E8
:100D00008FFD054606E0FFF78BFD401B022801D949
:100D1000032047E79F48006800F002000028F2D057
:100D20009C48006820F0F800616940EAC1009949D8
:100D3000086013E0002098490860FFF771FD054640
:100D400006E0FFF76DFD401B022801D9032029E7CB
:100D50009048006800F002000028F2D1207800F0EE
:100D6000080008282DD1A069B8B101208B4908607E
:100D7000FFF756FD054606E0FFF752FD401B02282F
:100D800001D903200EE78348406A00F002000028E2
:100D9000F2D0012000F0FAF913E000207F4908604A
:100DA000FFF73EFD054606E0FFF73AFD401B02282F
:100DB00001D90320F6E67748406A00F002000028D7
:100DC000F2D1207800F00400042873D10027714884
:100DD000C06900F0805070B900BF6E48C06940F033
:100DE00080506C49C8610846C06900F0805000908E
:100DF00000BF00BF01276A48006800F48070B0B9E6
:100E00006748006840F4807065490860FFF708FD96
:100E1000054606E0FFF704FD401B642801D90320C6
:100E2000C0E65F48006800F480700028F2D000BF80
:100E3000E068012806D15748006A40F00100554992
:100E4000086227E0E06858B95248006A20F00100C3
:100E5000504908620846006A20F00400086219E060
:100E6000E06805280BD14B48006A40F0040049496E
:100E700008620846006A40F0010008620AE045483E
:100E8000006A20F00100434908620846006A20F029
:100E90000400086200BFE068A0B1FFF7C1FC05468E
:100EA00009E0FFF7BDFC401B41F28831884202D9BE
:100EB000032077E622E03748006A00F002000028AD
:100EC000EFD012E0FFF7ACFC054608E0FFF7A8FC06
:100ED000401B41F28831884201D9032062E62D4847
:100EE000006A00F002000028F0D1012F05D1294846
:100EF000C06920F080502749C86100BFE069C8B3CD
:100F00002448406800F00C00082860D0E0690228FE
:100F100048D1002020490866FFF782FC054606E01C
:100F2000FFF77EFC401B022801D903203AE619484E
:100F3000006800F000700028F2D1206AB0F5803F10
:100F400007D11448406820F40030A16808431149D3
:100F50004860D4E9080108430E49496821F4741136
:100F600008430C49486001200B490866FFF758FC0C
:100F7000054607E03DE0FFF753FC401B022801D97E
:100F800003200FE60348006800F000700028F2D04C
:100F90002FE0000000100240000042428004424264
:100FA00000700040002014490866FFF739FC054630
:100FB00006E0FFF735FC401B022801D90320F1E5CC
:100FC0000E48006800F000700028F2D111E0E069DE
:100FD000012800D1E6E50948466806F48031206A18
:100FE000814204D106F47011606A814201D001206F
:100FF000D8E50020D6E50000000042420010024083
:1010000070B504462546681EB0F1807F01D30120EB
:101010000FE0681E4FF0E02148610F214FF0FF30D4
:1010200000F0FAFC00204FF0E02188610720086101
:10103000002070BD10B504460CB9012010BDA06998
:1010400000B100E000BF94F8410028B9002084F806
:101050004000204600F02AF8242084F8410020684F
:10106000C06820F400502168C860204600F036FCBB
:101070002068006920F49040216808612068406978
:1010800020F02A00216848612068C06840F40050C0
:101090002168C86000206064202084F8410084F842
:1010A00042000020606300BFC8E7000010B586B0B2
:1010B000044624492068884242D100BF00BF22482C
:1010C000806940F00400204988610846806900F08A
:1010D0000400019000BF00BF00BF00BF00BF084672
:1010E000806940F0040088610846806900F00400CF
:1010F000019000BF00BF00BF00BF00BF084680696D
:1011000040F4804088610846806900F48040019086
:1011100000BF00BF00BF48150290022003900320CB
:10112000059002A90948FFF7DBF94FF480600290AF
:10113000002003900120049002A90448FFF7D0F991
:1011400006B010BD00380140001002400008014008
:1011500000BFFEE70146CA1701EB92729210A1EBA5
:1011600082022AB9642291FBF2F302FB131232B914
:101170004FF4C87291FBF2F302FB13120AB901207B
:1011800070470020FCE700BFFEE7704708B508493C
:101190000968C9084FF47A72B1FBF2F1414300913A
:1011A00000BF00BF00994A1E00920029F9D108BD76
:1011B000000000202DE9FF4F04460D4669B2A1F161
:1011C00002084FFA88F8B8F1000107DC01F10C08B9
:1011D0004FFA88F1A4F101081FFA88F44FF064096E
:1011E00094FBF9FA4FEAE47904EB99794FEAA90BF9
:1011F000A4F1010940F26D1E09FB0EB9A9EB0A0921
:101200004FF4C87A94FBFAFA09EB0A0340F26F181C
:1012100001FB08F84FF00C0998FBF9F808F11D06DE
:10122000571E03EB0608B844DFF83090A8EB090C12
:101230000CEB4C09DDF80C8008EBC908C8EB081969
:10124000DDF8348008EB8908C8EB0819DDF8388030
:1012500008EB890004B0BDE8F08F00003AF90A00FD
:10126000FEB53CA2D2E900109268CDE901020091DE
:101270003B4806683604001D006806443948B6FB42
:10128000F0F539480088A84238D040F2B2743649A7
:101290000D800DE0A0B2FFF75DFF30B1B5F5B77F6F
:1012A00002D3A5F5B77502E005E0A5F26D15641C43
:1012B000B5F5B67FEED800BF2C490C80002415E0B0
:1012C0002A490888FFF746FF30B1012C04D11D2CB4
:1012D00001D31D3C09E00BE01DF80400A84203D82F
:1012E0001DF804002D1A00E002E0641C1C2DE7D25A
:1012F00000BF601C1D498870681CC8701948B6FB87
:10130000F0F100FB11644FF46160B4FBF0F0174999
:1013100048714FF46160B4FBF0F100FB11403C21D7
:10132000B0FBF1F0114988714FF46160B4FBF0F14A
:1013300000FB11403C21B0FBF1F201FB12000B4914
:10134000C8710B46DA789978188800F081FA074955
:101350000871FEBD1F1C1F1E1F1E1F1F1E1F1E1FEC
:1013600018280040805101001A00002012000020BF
:101370001FB52448006800F00100D0B1FFF770FFEE
:101380002048006820F001001E4908601E48C0790E
:101390001D4989791C4A52791B4B1B79CDE90032D2
:1013A000CDE902101848C3788278018817A0FEF7AB
:1013B00033FF1448006800F00200A8B1114800682B
:1013C00020F002000F4908600F48C0790E49897962
:1013D0000D4A5279CDE9002102900B48C3788278FA
:1013E000018814A0FEF718FF0648006820F00400EA
:1013F0000449086000BF0348006800F0200000288E
:10140000F9D01FBD0428004012000020CAB5CAB19F
:10141000CAB1BCE43A25642D25642D256420776586
:10142000656B3A25642025643A25643A25640D0AE3
:1014300000000000C4D6D6D33A25642D25642D259E
:10144000642025643A25643A25640D0A00000000F2
:101450002DE9FC5F00270026C82400254FF0000876
:1014600000BFA348C06940F08050A149C861084648
:10147000C06900F08050019000BF00BF00BF084667
:10148000C06940F00060C8610846C06900F00060B3
:10149000019000BF00BFFFF757FA002000F032F9BB
:1014A000064645F2500086427ED09148006A40F0E0
:1014B00001008F49086204E0601E84B2052000F03C
:1014C000DFFA2CB18A48006A00F002000028F3D04D
:1014D0008748056A25F44075ACB9406A40F00100C0
:1014E0008349486200BF8248406A00F00200002839
:1014F000F9D045F4007549F63F4845F25101002006
:1015000000F0CEF908E045F4807547F6FF7845F223
:101510005001002000F0C4F945F40045744805620C
:1015200000BF7448006800F020000028F9D000BF18
:101530007048006800F008000028F9D06D48001FCE
:10154000006840F001006B49091F08600846006808
:1015500040F00200086000BF6648006800F020000C
:101560000028F9D06348006840F010006149086025
:101570000020091D0860081DC0F80080081F0068D1
:1015800020F01000091F086000BF5A48006800F0F2
:1015900020000028F9D045F25100864253D0564829
:1015A00001680091406800E005E001460190009864
:1015B00000F0F8F847E01E2404E0052000F060FA8F
:1015C000601E84B24B48006800F0080008B9002C87
:1015D000F3D164244748103005680AE0052000F084
:1015E0004FFA601E84B2434810300068A84200D011
:1015F00001E0002CF2D100BF8CB94FF6FF71002042
:1016000000F04EF94FF48030394908620A2000F0AA
:1016100037FA0020364908620120BDE8FC9F3548B2
:10162000001F006840F001003249091F08600846A9
:10163000006840F00200086000BF2E48006800F01B
:1016400020000028F9D00520012213460146C1F1EF
:10165000070ABAF1040F02D94FF0040A01E0C1F100
:10166000070AD14601F1040ABAF1070F02D24FF07E
:10167000000A01E0A1F1030AD4464FF0010A0AFA78
:1016800009FAAAF1010A0AEA020A0AFA0CFA4FF068
:10169000010B0BFA0CFBABF1010B0BEA030B4AEA53
:1016A0000B0A574603203946002804DB0A07130EAD
:1016B000124A135408E00A074FEA126C104A00F06D
:1016C0000F031B1F02F803C000BF0320002809DB23
:1016D00000F01F02012191404209920002F1E02234
:1016E000C2F8001100BFFFF7BBFD002095E7000026
:1016F00000100240042800401200002000E400E036
:1017000018ED00E001460022024800EB810210883B
:1017100070470000046C00402DE9FC4705460E466A
:1017200017469846DDE90A9A002443463A46314670
:101730002846CDE9009AFFF73DFD04461648C069EA
:1017400040F080501449C8610846C06940F000600C
:10175000C8611248006840F4807010490860104861
:10176000006840F010000E490860A0B20C4920311A
:101770000860200C091F08600948006820F010006C
:101780000749086000BF0648006800F020000028F4
:10179000F9D00020BDE8FC87001002400070004036
:1017A0000428004033B583B00024BDF80C0040F29B
:1017B000B271884205DBBDF80C0040F63301884267
:1017C00002DD012005B030BD9DF813009DF8121018
:1017D000CDE900109DF811309DF80F209DF80E10F6
:1017E000BDF80C00FFF7E6FC04461648C06940F05F
:1017F00080501449C8610846C06940F00060C86163
:101800001148006840F480700F4908600F48006874
:1018100040F010000D490860A0B20C491831086072
:10182000200C091F08600948006820F010000749D3
:10183000086000BF0548006800F020000028F9D0CB
:101840000020BFE700100240007000400428004064
:1018500070B503460020032904DA01F10C04E1B25B
:101860005C1EA3B24C1C04EB4404052594FBF5F567
:10187000541C022606FB01442C441C4404EBA30424
:10188000642593FBF5F5641B4FF4C87593FBF5F5E0
:101890002C44072594FBF5F605FB1644E0B270BD19
:1018A00010B50022054B1B6843F48073034C236082
:1018B000034B03EB8002118010BD0000007000405C
:1018C000046C0040704700204FF0E021086108469A
:1018D000006920F0040008617047704770B5044645
:1018E0002168096921F44051E268114322681161BD
:1018F0002269A1681143626941EA02052168C96849
:1019000041F20C62914329432268D1602168496900
:1019100021F44071A2691143226851612D4A216866
:10192000914202D1FFF7F2F801E0FFF7DFF800EB98
:10193000C00101EB001162689200B1FBF2F100EB13
:10194000C00202EB001263689B00B2FBF3F2642357
:10195000B2FBF3F202EBC20303EB0212A1EB820132
:10196000322202EB01116422B1FBF2F101F0F0012D
:1019700000EBC00202EB001263689B00B2FBF3F2C3
:101980006423B2FBF3F201EB021200EBC00101EBA6
:10199000001163689B00B1FBF3F100EBC00303EBA4
:1019A00000136668B600B3FBF6F36426B3FBF6F3E8
:1019B00003EBC30606EB0313A1EB8301322303EB16
:1019C00001116423B1FBF3F101F00F01114422680E
:1019D000916070BD0038014010B5044607480849C1
:1019E00008600846446000218160C1600161816136
:1019F0000C214161FFF71EFB10BD000000380140C3
:101A00001C00002000BFFEE702480068C0F302206F
:101A1000704700000CED00E010B5002804DB0A0759
:101A2000130E054A135406E00A07140E034A00F089
:101A30000F031B1FD45410BD00E400E018ED00E0BC
:101A400000BF7047FF214FF0E022916142F2283140
:101A5000414351611146096941F00101116100BF23
:101A60004FF0E021096901F480310029F8D04FF0EE
:101A7000E021096921F001014FF0E0221161704776
:101A800030B503460025B3F5E96F03DC1846FFF7D0
:101A9000D9FF15E004E0A3F5E96083B2681C85B2C4
:101AA000B3F5E96FF7DA002405E04FF4E960FFF7DA
:101AB000C9FF601C84B2AC42F7DB1846FFF7C2FFD7
:101AC00030BD000000BF054A126802F04002002A43
:101AD000F9D0C2B2014B1B1D1A607047003801409B
:101AE0001CB5FEF7A3FE4FF4E01000F015F8FFF769
:101AF000EAFE4FF4E130FFF76FFF012000210C23D5
:101B00000246CDE90010082140F2E770FFF704FE1D
:101B1000FFF79EFC00BFFEE730B58FB005460124FD
:101B2000282105A8FEF7F4FB14216846FEF7F0FB18
:101B300001200590000406900020079002200C90E0
:101B4000C1030D910E9505A8FFF728F804460CB1C6
:101B500000BFFEE70F2000900220019000200290BD
:101B60004FF4806003900020049002216846FEF745
:101B7000F1FE04460CB100BFFEE70FB030BD00001F
:101B8000000000000000010203040607080900002D
:101B900000000102030402030405060708090A0BFA
:101BA0000C0D0E0F10100102C81B000800000020D1
:101BB0001C0000006C010008E41B00081C00002051
:101BC000AC060000880100080024F40000000000BA
:101BD00000000000100000000100E7070801000CF1
:041BE0000000000001
:0400000508000131BD
:00000001FF
