:020000040800F2
:10000000E0170020DD010008D51B0008AB1A00082E
:10001000D11B0008410500085D2000080000000019
:10002000000000000000000000000000E51D0008C6
:100030004505000800000000F3010008F501000874
:10004000F7010008F7010008F7010008F7010008B0
:10005000F7010008F7010008F7010008F7010008A0
:10006000F7010008F7010008F7010008F701000890
:10007000F7010008F7010008F7010008F701000880
:10008000F7010008F7010008F7010008F701000870
:10009000F7010008F7010008F7010008F701000860
:1000A000F7010008F7010008F7010008F701000850
:1000B000F7010008F7010008F7010008F701000840
:1000C000F7010008F7010008F7010008F701000830
:1000D000F701000839200008F7010008F7010008BF
:1000E000F7010008F7010008F7010008F701000810
:1000F000F7010008F7010008F7010008F701000800
:10010000F7010008F7010008F7010008F7010008EF
:10011000F7010008F7010008F7010008F7010008DF
:10012000F7010008F7010008F7010008F7010008CF
:1001300000F002F800F042F80AA090E8000C8244B7
:100140008344AAF10107DA4501D100F037F8AFF294
:10015000090EBAE80F0013F0010F18BFFB1A43F0A5
:10016000010318472826000048260000103A24BF43
:1001700078C878C1FAD8520724BF30C830C144BF0C
:1001800004680C607047000000230024002500264E
:10019000103A28BF78C1FBD8520728BF30C148BFEA
:1001A0000B607047782900F0A580732900F0648106
:1001B000002070471FB51FBD10B510BD00F08EF9AF
:1001C0001146FFF7F7FF01F0CDFF00F0ACF903B4E3
:1001D000FFF7F2FF03BC01F05FFF00000948804712
:1001E00009480047FEE7FEE7FEE7FEE7FEE7FEE719
:1001F000FEE7FEE7FEE7FEE704480549054A064B31
:1002000070470000E71D000831010008E0110020E0
:10021000E0170020E0130020E013002070470000EA
:100220000FB4044910B503AA029800F029F910BCD4
:100230005DF814FB080000202DE9F0410E4604464D
:10024000002020622046E168884730B3252805D089
:10025000D4E901219047206A401CF2E7E16820467A
:1002600000278847050018D0A5F14100192802D8B9
:1002700020354FF400673246294620462760FFF7B5
:1002800091FF40B1012804D0F61D26F0070608367C
:10029000D8E7361DD6E72846DAE7206ABDE8F081C0
:1002A00070B50C460546012A05D02878800600D591
:1002B000EA69002302E0012305E05B1C934202D2BD
:1002C000E05C0028F9D1A869E618C01AA861286A7C
:1002D000184428622846AFF3008004E0D5E90121E4
:1002E00014F8010B9047B442F8D32846AFF30080CE
:1002F00070BD000070B504460D4621461068AFF38E
:1003000000802188090502D50F4A7A4402E00E4A8E
:100310007A440E32002104F1240305E000F00F06B8
:100320000009965D5E54491C0028F7D1207800230F
:10033000000704D5702D02D009B1022311322046E6
:10034000BDE8704000F02DB8562400004FF00002C8
:1003500000B5134694469646203922BFA0E80C50BB
:10036000A0E80C50B1F12001BFF4F7AF090728BF96
:10037000A0E80C5048BF0CC05DF804EB890028BF12
:1003800040F8042B08BF704748BF20F8022B11F03B
:10039000804F18BF00F8012B7047704770477047B7
:1003A00070472DE9F0470D4699469246044600F104
:1003B00024080168880604D5E06921F01001216055
:1003C00000E00120A84201DD471B00E00027A169F1
:1003D0007A1902EB0900081AA0612078C00602D43D
:1003E0002046AFF30080002608E0D4E901211AF886
:1003F00006009047206A401C761C20624E45F4DBC4
:100400002078C0060AD52046AFF3008006E0D4E984
:10041000012130209047206A401C2062381EA7F13D
:100420000107F4DC07E0D4E9012118F80500904742
:10043000206A401C2062281EA5F10105F3DC20463D
:10044000AFF300802078000602D50220BDE8F087D7
:100450000120FBE710B5436913B1AFF3008001E061
:10046000FFF71EFF012010BD127800F124010A7071
:1004700000224A700122EDE711684FF0FF32E9E7F0
:10048000074B70B50D467B4400F011F80446284632
:1004900000F020F810B14FF0FF3070BD204670BD65
:1004A000BF1C000001694A1C02610878704700B552
:1004B0008FB0CDE901310021059105497944CDE99D
:1004C000031011466846FFF7B7FE0FB000BD0000ED
:1004D000E5FFFFFF007B00F080007047754600F0ED
:1004E0002BF8AE4605006946534620F007008546C6
:1004F00018B020B5FFF780FEBDE820404FF00006A1
:100500004FF000074FF000084FF0000B21F00701FB
:10051000AC46ACE8C009ACE8C009ACE8C009ACE83E
:10052000C0098D46704710B50446AFF300802046E1
:10053000BDE81040FFF74BBE004870477C1100201B
:1005400000BFFEE77047000070B50446002594F830
:100550002100022803D00420A0630125C1E0206807
:10056000006820F00E00216808602068006820F014
:100570000100216808605C492068884252D95A49C4
:1005800078392068884201D1012047E05649643912
:100590002068884201D1102040E05349503920683A
:1005A000884201D1801539E04F493C3920688842A2
:1005B00001D1801432E04C4928392068884202D1A8
:1005C0004FF480302AE0484914392068884202D12B
:1005D0004FF4801022E044492068884201D1400451
:1005E0001CE042492068884201D1012016E03F49C1
:1005F00014312068884201D110200FE03B49283196
:100600002068884201D1801508E038493C312068D3
:10061000884201D1801401E04FF480303349091F32
:10062000086051E0304978392068884201D10120C2
:1006300047E02D4964392068884201D1102040E00C
:10064000294950392068884201D1801539E026496E
:100650003C392068884201D1801432E0224928398F
:100660002068884202D14FF480302AE01E491439B4
:100670002068884202D14FF4801022E01A49206895
:10068000884201D140041CE018492068884201D109
:10069000012016E0154914312068884201D110204C
:1006A0000FE0124928312068884201D1801508E006
:1006B0000E493C312068884201D1801401E04FF49A
:1006C0008030094980394860012084F8210000BF4A
:1006D000002084F8200000BF606B10B12046616BE1
:1006E0008847284670BD0000800002400804024090
:1006F0002DE9F847024600239C467BE14FF00108B4
:1007000008FA03F4D1F8008008EA0400A0427DD181
:10071000DFF8F4A2D1F80480A8EB0A09D0453AD05A
:1007200014DCB8F1030F50D009DCB8F1000F31D060
:10073000B8F1010F1CD0B8F1020F49D120E0B8F197
:10074000110F18D0B8F1120F42D11EE0B9F5881F71
:1007500025D006DCB9F5803F20D0B9F5801F37D110
:100760001AE0B9F5001F18D0B9F5041F30D117E011
:10077000D1F80CC02DE0D1F80C8008F1040C28E071
:10078000D1F80C8008F1080C23E0D1F80C8008F1B6
:100790000C0C1EE000BF00BF00BF00BF00BF00BFC9
:1007A000D1F80880B8F1000F02D14FF0040C0BE033
:1007B000D1F80880B8F1010F03D14FF0080C146193
:1007C00002E04FF0080C546103E04FF0000C00E031
:1007D00000BF00BFFF2801D8904601E002F10408E5
:1007E0004646FF2802D84FEA830803E0A3F1080831
:1007F0004FEA88084746D6F800804FF00F0909FAFB
:1008000007F928EA09080CFA07F900E07AE048EA53
:100810000908C6F80080D1F8048008F08058B8F1C3
:10082000805F6FD100BFDFF8E481D8F8188048F00E
:100830000108DFF8D891C9F81880C846D8F81880A0
:1008400008F00108CDF8008000BF00BF4FEAB938BA
:100850004FEA930958F829504FEA83784FEA1879FC
:100860004FF00F0808FA09F825EA0805DFF8A0811B
:10087000424502D14FF0000824E0DFF8988142455C
:1008800002D14FF001081DE0DFF88C81424502D112
:100890004FF0020816E0DFF88481424502D14FF0A4
:1008A00003080FE0DFF87881424502D14FF00408D9
:1008B00008E0DFF87081424502D14FF0050801E001
:1008C0004FF006084FEA83794FEA197908FA09F8D8
:1008D00048EA0505DFF850814FEA930948F82950A6
:1008E000D1F8048008F48038B8F5803F0BD1DFF8E8
:1008F0003C81D8F8008048EA0008DFF83091C9F858
:1009000000800AE075E0DFF82481D8F8008028EA4A
:100910000008DFF81891C9F80080D1F8048008F4C5
:100920000038B8F5003F0ED1DFF8008108F1040867
:10093000D8F8008048EA0008DFF8F09009F10409CF
:10094000C9F800800DE0DFF8E48008F10408D8F869
:10095000008028EA0008DFF8D49009F10409C9F8FA
:100960000080D1F8048008F48018B8F5801F0ED1FB
:10097000DFF8B88008F10808D8F8008048EA0008D5
:10098000DFF8A89009F10809C9F800800DE0DFF848
:100990009C8008F10808D8F8008028EA0008DFF8F1
:1009A0008C9009F10809C9F80080D1F8048008F496
:1009B0000018B8F5001F0ED1DFF8708008F10C08A0
:1009C000D8F8008048EA0008DFF8609009F10C09C7
:1009D000C9F800800DE0DFF8548008F10C08D8F861
:1009E000008028EA0008DFF8449009F10C09C9F8F2
:1009F00000805B1CD1F8008028FA03F8B8F1000FE2
:100A00007FF47CAEBDE8F8870000111000100240B2
:100A100000080140000C014000100140001401409A
:100A200000180140001C0140080001400004014082
:100A3000024693680B400BB1012000E00020704794
:100A40000AB1016101E00B040361704701480068CD
:100A5000704700001000002010B50848006840F002
:100A6000100006490860052000F080F80F2000F013
:100A700007F800F02BF8002010BD00000020024015
:100A800070B504460E4800784FF47A71B1FBF0F06F
:100A90000C490968B1FBF0F5284600F030FE08B1BA
:100AA000012070BD102C07D200222146501E00F0FC
:100AB0001EF80548046001E00120F2E70020F0E79D
:100AC000180000200000002014000020704701469C
:100AD0000846002809DB00F01F0301229A40430961
:100AE0009B0003F1E023C3F8002100BF70472DE90C
:100AF000F05F80460D461646002701F0B1FA074622
:100B000039462A46334601F00700C0F1070ABAF118
:100B1000040F02D94FF0040A01E0C0F1070AD146E0
:100B200000F1040ABAF1070F02D24FF0000A01E007
:100B3000A0F1030AD4464FF0010A0AFA09FAAAF111
:100B4000010A0AEA020A0AFA0CFA4FF0010B0BFA40
:100B50000CFBABF1010B0BEA030B4AEA0B04214639
:100B6000404601F085FABDE8F09F000000BF00F0AC
:100B70000702064B19684FF6FF031940044B0B435D
:100B800043EA0221014B196000BF70470CED00E001
:100B90000000FA0570B504460D460CB9012070BD81
:100BA0005A48006800F00700A8420ED25748006873
:100BB00020F007002843554908600846006800F007
:100BC0000700A84201D00120E9E7207800F00200E8
:100BD00002281DD1207800F00400042805D14C48DB
:100BE000406840F4E0604A494860207800F008001E
:100BF000082805D14648406840F4605044494860A0
:100C00004348406820F0F000A1680843404948602C
:100C1000207800F0010078B36068012806D13C48D4
:100C2000006800F4003090B90120B8E7606802283D
:100C300006D13748006800F0007040B90120AEE7E7
:100C40003348006800F0020008B90120A7E73048E7
:100C5000406820F00300616808432D494860FFF7B1
:100C6000F5FE064609E0FFF7F1FE801B41F28831F0
:100C7000884202D9032092E707E02548406800F047
:100C80000C006168B0EB810FEDD12048006800F0E6
:100C90000700A8420ED91D48006820F0070028432D
:100CA0001A4908600846006800F00700A84201D011
:100CB000012074E7207800F00400042807D11448CC
:100CC000406820F4E060E1680843114948602078FA
:100CD00000F00800082808D10D48406820F4605052
:100CE000216940EAC1000A49486000F03FF808491C
:100CF0004968C1F30311074A515CC84006490860BE
:100D000006480068FFF7BCFE002048E700200240CC
:100D1000001002404C2700080000002014000020B2
:100D200001480068704700000000002000B5FFF790
:100D3000F7FF04494968C1F30221034A515CC840E6
:100D400000BD0000001002405C27000800B5FFF75E
:100D5000E7FF04494968C1F3C221034A515CC84016
:100D600000BD0000001002405C270008F0B585B00F
:100D70000FF26C0C9CE8E01001A8A0E8E0101CA5A4
:100D80002D68009500210022002300240020194D29
:100D9000696801F00C05F5B1042D02D0082D19D1B8
:100DA00001E0154819E001ADC1F38346AC5D01F4E3
:100DB000803555B10F4D6D68C5F340451DF80520D0
:100DC0000D4D6543B5FBF2F302E00C4D04FB05F35A
:100DD000184602E000BF084800BF00BF05B0F0BDE4
:100DE00002030405060708090A0B0C0D0E0F10106C
:100DF000010200000010024000127A0000093D00CC
:100E0000F8B504460CB90120F8BD207800F00100C7
:100E1000002878D0F848406800F00C0004280CD076
:100E2000F548406800F00C00082811D1F2484068ED
:100E300000F48030B0F5803F0AD1EF48006800F43C
:100E4000003000285FD0606800285CD10120DBE71B
:100E500000BF6068B0F5803F06D1E748006840F405
:100E60008030E549086028E0606858B9E2480068C9
:100E700020F48030E04908600846006820F48020B3
:100E800008601AE06068B0F5A02F0BD1DA4800685E
:100E900040F48020D84908600846006840F480305B
:100EA00008600AE0D448006820F48030D249086025
:100EB0000846006820F48020086000BF606888B1A0
:100EC000FFF7C4FD054606E0FFF7C0FD401B6428A0
:100ED00001D9032098E7C848006800F400300028D2
:100EE000F2D010E0FFF7B2FD054606E0FFF7AEFDD9
:100EF000401B642801D9032086E7BF48006800F43E
:100F000000300028F2D1207800F00200022857D1EA
:100F1000B948406800F00C0050B1B748406800F094
:100F20000C00082818D1B448406800F4803098B903
:100F3000B148006800F0020020B12069012801D00A
:100F4000012061E7AC48006820F0F800616940EAE0
:100F5000C100A949086033E02069E8B10120A74930
:100F60000860FFF773FD054606E0FFF76FFD401BC5
:100F7000022801D9032047E79F48006800F00200DB
:100F80000028F2D09C48006820F0F800616940EA2F
:100F9000C1009949086013E0002098490860FFF7F4
:100FA00055FD054606E0FFF751FD401B022801D91B
:100FB000032029E79048006800F002000028F2D1E1
:100FC000207800F0080008282DD1A069B8B10120D0
:100FD0008B490860FFF73AFD054606E0FFF736FD4E
:100FE000401B022801D903200EE78348406A00F025
:100FF00002000028F2D0012000F0EEFD13E00020F6
:101000007F490860FFF722FD054606E0FFF71EFD59
:10101000401B022801D90320F6E67748406A00F019
:1010200002000028F2D1207800F00400042873D1D7
:1010300000277148C06900F0805070B900BF6E4849
:10104000C06940F080506C49C8610846C06900F032
:101050008050009000BF00BF01276A48006800F47C
:101060008070B0B96748006840F4807065490860D6
:10107000FFF7ECFC054606E0FFF7E8FC401B6428A0
:1010800001D90320C0E65F48006800F480700028A2
:10109000F2D000BFE068012806D15748006A40F04E
:1010A00001005549086227E0E06858B95248006AD3
:1010B00020F00100504908620846006A20F0040050
:1010C000086219E0E06805280BD14B48006A40F03F
:1010D0000400494908620846006A40F001000862BD
:1010E0000AE04548006A20F00100434908620846CA
:1010F000006A20F00400086200BFE068A0B1FFF7BA
:10110000A5FC054609E0FFF7A1FC401B41F2883130
:10111000884202D9032077E622E03748006A00F0CF
:1011200002000028EFD012E0FFF790FC054608E02F
:10113000FFF78CFC401B41F28831884201D9032023
:1011400062E62D48006A00F002000028F0D1012F6D
:1011500005D12948C06920F080502749C86100BFE7
:10116000E069C8B32448406800F00C00082860D04B
:10117000E069022848D1002020490866FFF766FC94
:10118000054606E0FFF762FC401B022801D9032058
:101190003AE61948006800F000700028F2D1206A91
:1011A000B0F5803F07D11448406820F40030A168B2
:1011B000084311494860D4E9080108430E494968C9
:1011C00021F4741108430C49486001200B4908665A
:1011D000FFF73CFC054607E03DE0FFF737FC401B0E
:1011E000022801D903200FE60348006800F00070D0
:1011F0000028F2D02FE00000001002400000424220
:101200008004424200700040002014490866FFF745
:101210001DFC054606E0FFF719FC401B022801D91A
:101220000320F1E50E48006800F000700028F2D1BC
:1012300011E0E069012800D1E6E50948466806F4B6
:101240008031206A814204D106F47011606A8142C3
:1012500001D00120D8E50020D6E500000000424280
:101260000010024010B504460CB9012010BD606AA0
:1012700038B96068B0F5827F00D105E00021E161F6
:1012800002E0002121616161A06AB0F5005F00D138
:1012900000BF94F8510028B9002084F8500020467F
:1012A00000F04AF8022084F851002068006820F01D
:1012B000400021680860A08800F48270218901F450
:1012C00004410843A18901F400610843217C01F035
:1012D00002010843217D01F001010843218B01F443
:1012E00000710843217F01F0380108432021095D86
:1012F00001F080010843218D01F400510843216869
:1013000008600421A06901EA104021684860A06AD1
:10131000B0F5005F03D1A08D80B22168086120681C
:10132000C06920F400602168C86100206065012068
:1013300084F85100002099E710B586B0044627498B
:101340002068884248D100BF00BF2548806940F02E
:101350000800234988610846806900F00800019070
:1013600000BF00BF00BF00BF00BF0846806940F05B
:10137000080088610846806900F00800019000BFFD
:1013800000BF00BF00BF00BF0846806940F00800F2
:1013900088610846806900F00800019000BF00BF26
:1013A00000BF4FF4005002900220039001200490EF
:1013B0000320059002A90B48FFF79AF94FF48040EB
:1013C000029002A90748FFF793F94FF400400290FA
:1013D00002A90448FFF78CF906B010BD00380040A0
:1013E00000100240000C01402DE9FF5F04468846D2
:1013F00091461D460E9E012002900020019000BFE4
:1014000094F85000012803D1022004B0BDE8F09FF9
:10141000012084F8500000BFFFF718FB074694F83E
:1014200051B060680390AA46BBF1010F0BD003983E
:10143000B0F5827F04D1A06810B9BBF1040F02D0CF
:10144000022001903DE1B8F1000F03D0B9F1000F87
:1014500000D015B90120019033E194F8510004281F
:1014600002D0052084F8510000206065C4F838904F
:10147000E587A587C4F83080E586A586206460648A
:10148000A06AB0F5005F0DD100BF2068006820F4AD
:101490000050216808602068006840F4005021680E
:1014A000086000BF2068006800F04000402805D0B8
:1014B0002068006840F0400021680860E068B0F5EE
:1014C000006F56D1606810B1BAF1010F09D1206BDD
:1014D00000882168C860206B801C2063E08E401E5D
:1014E000E0863FE02068806800F0020002281CD1FE
:1014F000E08ED0B10298012817D1206B00882168B6
:10150000C860206B801C2063E08E401EE0860020B7
:101510000290E08E48B9A06AB0F5005F05D120685E
:10152000006840F48050216808602068806800F0FE
:10153000010068B1E08F58B12068C068A16B0880D5
:10154000A06B801CA063E08F401EE087012002900A
:10155000FFF77CFAC01BB04204D3701C10B103200B
:101560000190AEE0E08E0028BCD1E08F0028B9D118
:1015700056E0606810B1BAF1010F09D1206B007814
:1015800021680873206B401C2063E08E401EE086BB
:1015900040E02068806800F0020002281CD1E08E44
:1015A000D0B10298012817D1206B00782168087308
:1015B000206B401C2063E08E401EE08600200290DD
:1015C000E08E48B9A06AB0F5005F05D120680068D8
:1015D00040F48050216808602068806800F00100B5
:1015E00068B1E08F58B12068C068A16B0870A06B2B
:1015F000401CA063E08F401EE08701200290FFF7AF
:1016000025FAC01BB04201D3701C00B916B90320E3
:10161000019056E0E08E0028BBD1E08F0028B8D1C1
:10162000A06AB0F5005F10D1334601221146204672
:10163000009700F06BFB30B1606D40F00200606518
:10164000032001903DE02068C06820688068C0F3F6
:101650000010E8B1204600F055FB012814D1606D60
:1016600040F00200606500BF2068006820F4005070
:10167000216808602068006840F400502168086014
:1016800000BF0120019003E04FF6EF7021688860F1
:101690003A463146204600F021FB20B1012001905E
:1016A000202060650DE0A06850B900BF00200090C8
:1016B0002068C068009020688068009000BF00BF6C
:1016C00000BF012084F8510000BF002084F85000C2
:1016D00000BF019899E6042808D14FF0E02109697C
:1016E00041F004014FF0E022116107E04FF0E021EA
:1016F000096921F004014FF0E0221161704770B5D3
:1017000004462546681EB0F1807F01D301200FE01A
:10171000681E4FF0E02148610F214FF0FF3000F0CC
:10172000A7FC00204FF0E02188610720086100201D
:1017300070BD70472DE9F0470446206805682068B1
:10174000C668206847694FF00008C14605F00F08D9
:10175000B8F1000F0AD105F0200038B106F02000E2
:1017600020B1204600F06AFBBDE8F087B8F1000F19
:1017700071D007F0010018B906F4907000286AD003
:1017800005F0010030B106F4807018B1E06B40F054
:101790000100E06305F0040030B107F0010018B16A
:1017A000E06B40F00200E06305F0020030B107F0AA
:1017B000010018B1E06B40F00400E06305F00800A0
:1017C00048B106F0200010B907F0010018B1E06B35
:1017D00040F00800E063E06B68B305F0200028B13A
:1017E00006F0200010B1204600F028FB2068406978
:1017F000C0F38019E06B00F0080010B9B9F1000FD8
:1018000022D0204600F0FAFA2068406900F040003B
:10181000B0B12068406920F0400021684861606BE9
:1018200050B11848616B4863606BFEF78DFE10B1D4
:10183000606B416B88470CE02046FFF77AFF08E0B9
:101840002046FFF776FF04E02046FFF772FF0020F6
:10185000E06389E7FFE705F0800030B106F0800023
:1018600018B1204600F0B8FB7EE705F0400030B12B
:1018700006F0400018B1204600F0D0FA74E700BF2F
:1018800072E70000E91D000810B504460CB90120FC
:1018900010BDA06900B100E000BF94F8390028B97C
:1018A000002084F83800204600F028F8242084F82E
:1018B00039002068C06820F400502168C8602046C4
:1018C00000F00CFB2068006920F49040216808615A
:1018D0002068406920F02A00216848612068C068BB
:1018E00040F400502168C8600020E063202084F8A4
:1018F000390084F83A000020CAE7000010B586B02D
:1019000004462849206888424AD100BF00BF2648C3
:10191000806940F00400244988610846806900F02D
:101920000400019000BF00BF00BF00BF00BF084619
:10193000806940F0040088610846806900F0040076
:10194000019000BF00BF00BF00BF00BF0846806914
:1019500040F4804088610846806900F4804001902E
:1019600000BF00BF00BF4815029002200390012075
:1019700004900320059002A90C48FEF7B9FE4FF42D
:10198000806002900020039002A90848FEF7B0FE94
:101990002520FFF79CF8032211462520FFF7A7F822
:1019A00006B010BD003801400010024000080140A0
:1019B00010B5034693F83A0020282FD101B10AB997
:1019C000012010BD00BF93F83800012801D102208A
:1019D000F7E7012083F8380000BF99629A85DA851D
:1019E0000020D863222083F83A0000BF002083F84B
:1019F000380000BF1868C06840F480701C68E06060
:101A00001868406940F001001C6860611868C0688F
:101A100040F020001C68E0600020D2E70220D0E700
:101A20001D4A0168914236D11C49098801F40041E0
:101A300089BB1A49098801F4804171B118490978B4
:101A40000A2903D00021154A118024E0134909888E
:101A500041F40041114A11801DE0114909780D2916
:101A600006D10E49098841F480410C4A118012E0E8
:101A70000B490978094A1288C2F30D02094B99549F
:101A800006490988491C054A118011460988C72959
:101A900001DD002111807047003801400C0000205A
:101AA0000E0000201C000020704700BFFEE7000071
:101AB00000B585B000BF00BF1A48806940F004003F
:101AC000184988610846806900F00400009000BF52
:101AD00000BF00BF0846806940F0400088610846AA
:101AE000806900F04000009000BF00BF00BF1020E0
:101AF0000190002002900120039001A90A48FEF7FE
:101B0000F7FD0820019001A90748FEF7F1FD01202B
:101B100001900220039001A90448FEF7E9FD05B0F9
:101B200000BD000000100240001801400008014004
:101B300070B50446002514B10120224908702148DF
:101B4000007848B310212048FEF772FF50B10821F9
:101B50001D48FEF76DFF28B101211C48FEF768FF04
:101B6000012819D10A2000F0ADFA002015490870AB
:101B700010211548FEF75CFF00B901250821124825
:101B8000FEF756FF00B9022501211048FEF750FF6D
:101B9000012815D1032513E010210B48FEF748FF5B
:101BA00001280DD108210848FEF742FF012807D17E
:101BB00001210648FEF73CFF10B9012001490870D9
:101BC000284670BD1900002000180140000801409F
:101BD00000BFFEE77047000008B508490968C9085A
:101BE0004FF47A72B1FBF2F14143009100BF00BFA4
:101BF00000994A1E00920029F9D108BD000000207A
:101C000008B500BF00BF1848C06940F480401649BD
:101C1000C8610846C06900F48040009000BF00BF62
:101C200000BF1248124908604FF4827048600021DA
:101C30000F488160C16002210161012141614902B7
:101C400081613821C1610021016241628162072105
:101C5000C162FFF707FB06480068006840F04000DB
:101C600003490968086008BD0010024000380040C0
:101C70002401002001B582B04FF47A70012301AA3B
:101C800002A900900248FFF7AFFB9DF804000EBDCB
:101C90002401002010490968096821F040010E4A1A
:101CA000126811600C49096809684FF6C772114043
:101CB000094A1268116008490968096841EAC001C7
:101CC000054A1268116004490968096841F0400139
:101CD000014A12681160704724010020F8B50446DB
:101CE0000D4616462B46002280212046009600F025
:101CF0000DF828B1606D40F0200060650320F8BD4C
:101D00000020FCE701460120704700002DE9F84F54
:101D100004460D4690461E46DDF82890FEF796FED6
:101D2000A0EB0900371AFEF791FE82462C480068A6
:101D3000C0F3CB307843009045E0701C002842D0BF
:101D4000FEF784FEA0EB0A00B84200D2A7BB2068D1
:101D5000406820F0E000216848606068B0F5827F4C
:101D60000DD1A068B0F5004F03D0A068B0F5806F2A
:101D700005D12068006820F0400021680860A06A52
:101D8000B0F5005F0DD100BF2068006820F400505E
:101D9000216808602068006840F4005021680860ED
:101DA00000BF012084F8510000BF002084F85000DB
:101DB00000BF0320BDE8F88FFFE7009800B90027B7
:101DC0000098401E0090206880682840A84201D1F9
:101DD000012000E000204045AFD10020EAE70000EC
:101DE000000000207047704770B505466C6A0020FF
:101DF000E085E0842046FFF79CFC70BD0168C9685F
:101E000021F490710268D1600168496921F00101F3
:101E100002685161202180F83A10704710B50446DD
:101E20002068C06820F040002168C860202084F845
:101E300039002046FFF738FE002010BD70B504467B
:101E400094F83A00222847D1A068B0F5805F0CD101
:101E5000206950B90025A66A20684068C0F30800D0
:101E60003080A06A801CA06215E0A56A0026A068E8
:101E7000B0F5805F03D0A06828B9206918B9206840
:101E80004068287004E02068406800F07F002870F7
:101E9000A06A401CA062E08D401E80B2E085C8B9F7
:101EA0002068C06820F020002168C8602068C068F1
:101EB00020F480702168C8602068406920F001002B
:101EC00021684861202084F83A002046FFF7A8FDE9
:101ED000002070BD0020FCE70220FAE770B5044640
:101EE0002168096921F44051E268114322681161B7
:101EF0002269A1681143626941EA02052168C96843
:101F000041F20C62914329432268D16021684969FA
:101F100021F44071A2691143226851612D4A216860
:101F2000914202D1FEF712FF01E0FEF7FFFE00EB47
:101F3000C00101EB001162689200B1FBF2F100EB0D
:101F4000C00202EB001263689B00B2FBF3F2642351
:101F5000B2FBF3F202EBC20303EB0212A1EB82012C
:101F6000322202EB01116422B1FBF2F101F0F00127
:101F700000EBC00202EB001263689B00B2FBF3F2BD
:101F80006423B2FBF3F201EB021200EBC00101EBA0
:101F9000001163689B00B1FBF3F100EBC00303EB9E
:101FA00000136668B600B3FBF6F36426B3FBF6F3E2
:101FB00003EBC30606EB0313A1EB8301322303EB10
:101FC00001116423B1FBF3F101F00F011144226808
:101FD000916070BD00380140014691F83900212818
:101FE00028D18868B0F5805F0BD1086948B90A6AC2
:101FF0001088C0F308000B685860086A801C0862EB
:1020000005E00B6A581C086218780B685860C88C89
:10201000401E80B2C88458B90868C06820F08000AB
:102020000B68D8600868C06840F040000B68D86052
:10203000002070470220FCE710B50648FFF77AFB46
:1020400000BF012204490348FFF7B2FC0028F8D181
:1020500010BD0000E40000200E00002000BFFEE7DD
:1020600002480068C0F30220704700000CED00E059
:1020700010B5002804DB0A07130E054A135406E0C6
:102080000A07140E034A00F00F031B1FD45410BD9F
:1020900000E400E018ED00E000BF704710B5044612
:1020A00000204FF0E0210861FFF715FB2046E11703
:1020B00004EB5171C1F3CF01014A118010BD000042
:1020C0000400002070B504464FF47A7094FBF0F5DC
:1020D00094FBF0F100FB114603E0074800F00EF816
:1020E0006D1E002DF9D12EB14FF47A7106FB01F06F
:1020F00000F004F870BD000040420F000146114A94
:1021000012884A434FF0E0235A6100229A611A462E
:10211000126942F001021A6100BF4FF0E02210691B
:1021200000F001021AB100F48032002AF5D04FF01D
:10213000E022126922F001024FF0E0231A6100222E
:102140009A6170470400002000BF054A126802F03F
:102150004002002AF9D0C2B2014B1B1D1A60704721
:10216000003801408AB000250020079008900990AF
:1021700027A207CA04AB07C328A207CA01AB07C33B
:10218000FEF76AFC4FF4E01000F091FA4820FFF7E8
:1021900085FF4FF4E13000F0BDFAFFF789FC00F055
:1021A00091F834E00020FFF7C3FC0546012D04D070
:1021B000022D15D0032D25D11BE0002404E00020C2
:1021C00007A90855601CC4B20B2CF8DB0B220021B8
:1021D00007A800F0DDF807A913A0FEF721F812E028
:1021E0000B22002104A800F075F915A0FEF718F8DD
:1021F00009E00B22002101A800F06CF918A0FEF7FD
:102200000FF800E000BF00BF0A20FFF75BFFC9E73F
:1022100030313233343536373839000039383736D3
:102220003534333231300000B6C1B3F6B5C4CAFD1F
:10223000BEDDCAC7A3BA25730D0A0D0A000000004F
:10224000D0B4C8EBB5C4CAFDBEDDCAC7A3BA30312D
:1022500032333435363738390D0A0D0A00000000A4
:10226000D0B4C8EBB5C4CAFDBEDDCAC7A3BA3938FD
:1022700037363534333231300D0A0D0A0000000094
:1022800010B50446240300F081F900F019F900BFED
:1022900000224FF480510A48FEF7D2FB00BF2020F5
:1022A000FFF7E8FC204600F0F1F800BF012211031F
:1022B0000348FEF7C5FB00BF00F002F910BD0000A7
:1022C000000C014010B586B000BF00BF2B488069EC
:1022D00040F00800294988610846806900F008003C
:1022E000019000BF00BF00BF88140290012003903E
:1022F00004900320059002A92148FEF7F9F900BFD8
:10230000012211031E48FEF79BFB00BFFFF778FC7C
:102310000020FFF7BFFC00F091F81A49088008463A
:1023200000884EF61871884220D1032000F058F83A
:10233000044604F00100C8B900F028F944F0020492
:102340002146032000F064F900BF00224FF48051C1
:102350000B48FEF775FB00BFB720FFF78BFC00BFF3
:10236000012211030648FEF76BFB00BF05480188F8
:1023700005A0FDF755FF06B010BD0000001002409B
:10238000000C01401A00002049443A25780D0A004B
:102390002DE9F04105460E46174600BF00224FF4D6
:1023A00080510E48FEF74CFB00BF0320FFF762FC94
:1023B000304600F06BF8002405E0FF20FFF75AFCE0
:1023C0002855601C84B2BC42F7DB00BF0122110318
:1023D0000248FEF735FB00BFBDE8F081000C01406C
:1023E00070B5044600250026012C04D0022C04D030
:1023F000032C06D103E0052605E0352603E015266B
:1024000001E0052600BF00BF00BF00224FF480514D
:102410000948FEF715FB00BF3046FFF72BFCFF20F5
:10242000FFF728FC054600BF012211030248FEF712
:1024300007FB00BF284670BD000C014010B500BF6F
:1024400000224FF480511048FEF7FAFA00BF9020A6
:10245000FFF710FC0020FFF70DFC0020FFF70AFC3F
:102460000020FFF707FCFF20FFF704FC0402FF2019
:10247000FFF700FC044300BF012211030248FEF7EE
:10248000DFFA00BF204610BD000C014010B5044625
:102490000A4800884EF61871884202D1200EFFF7D4
:1024A000E9FBC4F30740FFF7E5FBC4F30720FFF7A0
:1024B000E1FBE0B2FFF7DEFB10BD00001A000020D8
:1024C00010B500BF0120FFF78BFF00F001000028CE
:1024D000F8D110BD2DE9F05F81460F461646DFF8B2
:1024E000A8B04FEA1738C7F30B0ACAF58054A642C2
:1024F00000DC344644E04FEA08314FF4805258463D
:10250000FFF746FF002508E00AEB05001BF8000076
:10251000FF2800D003E0681C85B2A542F4DB00BFB1
:10252000A54216DA4046FFF7ABFE002507E019F892
:10253000050005EB0A010BF80100681C85B2A542F5
:10254000F5DB4FEA08314FF48052584600F08CF822
:1025500004E022463946484600F086F8A64200D1FB
:102560000FE008F101084FF0000AA1442744301B96
:1025700086B2B6F5805F02DD4FF4805400E0344649
:10258000B9E700BFBDE8F09F7C01002010B500BF97
:1025900000224FF480510748FEF752FA00BF062090
:1025A000FFF768FB00BF012211030248FEF748FA5B
:1025B00000BF10BD000C01402DE9F04105460E465C
:1025C0001746FFF7E3FF00BF00224FF480510F488A
:1025D000FEF736FA00BF0220FFF74CFB3046FFF74C
:1025E00055FF002404E0285DFFF744FB601C84B223
:1025F000BC42F8DB00BF012211030448FEF720FAB9
:1026000000BFFFF75DFFBDE8F0810000000C014056
:1026100070B504460D460026012C04D0022C04D0CF
:10262000032C06D103E0012605E0312603E0112644
:1026300001E0012600BF00BF00BF00224FF480511F
:102640000848FEF7FDF900BF3046FFF713FB2846A8
:10265000FFF710FB00BF012211030248FEF7F0F95B
:1026600000BF70BD000C01402DE9F04107460E4649
:102670001446F0B2C0F58075AC4200DC254612E08D
:102680002A4631463846FFF797FFAC4200D10BE0AF
:102690002F442E44601B84B2B4F5807F02DD4FF4DA
:1026A000807500E02546EBE700BFBDE8F08130B55E
:1026B0008FB005460124282105A8FDF747FE142107
:1026C0006846FDF743FE01200590000406900020B7
:1026D000079002200C90C1030D910E9505A8FEF7FE
:1026E0008FFB04460CB100BFFEE70F2000900220D4
:1026F0000190002002904FF480600390002004902D
:1027000002216846FEF746FA04460CB100BFFEE718
:102710000FB030BD10B5044609480A4908600846A4
:10272000446000218160C160016181610C214161CF
:10273000FFF7AAF8012204490248FFF739F910BD52
:1027400000380140E40000200E00002000000000DE
:102750000000000001020304060708090000000051
:1027600001020304303132333435363738394142CF
:1027700043444546403058003031323334353637E3
:10278000383961626364656640307800AC270008C0
:10279000000000201C0000006C010008C827000891
:1027A0001C000020C4170000880100080024F40069
:1027B0000000000000000000000000000000000019
:0827C000100000000101175296
:0400000508000131BD
:00000001FF
