:020000040800F2
:10000000D0060020CD0100083D1E0008E10F0008C9
:10001000391E0008690300081D20000800000000C8
:10002000000000000000000000000000DD1E0008CD
:100030006D03000800000000E3010008E50100086E
:10004000E7010008E7010008E7010008E7010008F0
:10005000E7010008E7010008E7010008E7010008E0
:10006000E7010008E7010008E7010008E7010008D0
:10007000E7010008E7010008E7010008E7010008C0
:10008000E7010008E7010008E7010008E7010008B0
:10009000E7010008E7010008E7010008E7010008A0
:1000A000E7010008E7010008E7010008E701000890
:1000B000E7010008E7010008E7010008E701000880
:1000C000E7010008E7010008E7010008E701000870
:1000D000E7010008E7010008E7010008E701000860
:1000E000E7010008E7010008E7010008E701000850
:1000F000E7010008E7010008E7010008E701000840
:10010000E7010008E7010008E7010008E70100082F
:10011000E7010008E7010008E7010008E70100081F
:10012000E7010008E7010008E7010008E70100080F
:1001300000F002F800F03AF80AA090E8000C8244BF
:100140008344AAF10107DA4501D100F02FF8AFF29C
:10015000090EBAE80F0013F0010F18BFFB1A43F0A5
:10016000010318475020000070200000103A24BFFF
:1001700078C878C1FAD8520724BF30C830C144BF0C
:1001800004680C607047000000230024002500264E
:10019000103A28BF78C1FBD8520728BF30C148BFEA
:1001A0000B6070471FB51FBD10B510BD00F096F86D
:1001B0001146FFF7F7FF01F09FFF00F0C8F803B406
:1001C000FFF7F2FF03BC01F047FF0000094880473A
:1001D00009480047FEE7FEE7FEE7FEE7FEE7FEE729
:1001E000FEE7FEE7FEE7FEE704480549054A064B41
:1001F00070470000F31E000831010008D000002005
:10020000D0060020D0020020D0020020704700005D
:100210000FB4044910B503AA029800F031F810BCDD
:100220005DF814FB040000204FF0000200B51346F7
:1002300094469646203922BFA0E80C50A0E80C5006
:10024000B1F12001BFF4F7AF090728BFA0E80C50B7
:1002500048BF0CC05DF804EB890028BF40F8042BB0
:1002600008BF704748BF20F8022B11F0804F18BF1D
:1002700000F8012B704770477047704770470000C7
:10028000074B70B50D467B4400F011F80446284634
:1002900000F020F810B14FF0FF3070BD204670BD67
:1002A000531E000001694A1C02610878704700B5BE
:1002B0008FB0CDE901310021059105497944CDE99F
:1002C00003101146684600F02EF80FB000BD000084
:1002D000E5FFFFFF007B00F080007047754600F0EF
:1002E0003FF8AE4605006946534620F007008546B4
:1002F00018B020B5FFF778FFBDE820404FF00006AA
:100300004FF000074FF000084FF0000B21F00701FD
:10031000AC46ACE8C009ACE8C009ACE8C009ACE840
:10032000C0098D4670472DE9F04106460024D6E904
:100330000170F5688046304603E04146B847641CCA
:100340003046A8470028F8D12046BDE8F08110B516
:100350000446AFF300802046BDE81040FFF72FBFF2
:10036000004870476C00002000BFFEE770470000A7
:100370002DE9F847024600239C467BE14FF0010837
:1003800008FA03F4D1F8008008EA0400A0427DD105
:10039000DFF8F4A2D1F80480A8EB0A09D0453AD0DE
:1003A00014DCB8F1030F50D009DCB8F1000F31D0E4
:1003B000B8F1010F1CD0B8F1020F49D120E0B8F11B
:1003C000110F18D0B8F1120F42D11EE0B9F5881FF5
:1003D00025D006DCB9F5803F20D0B9F5801F37D194
:1003E0001AE0B9F5001F18D0B9F5041F30D117E095
:1003F000D1F80CC02DE0D1F80C8008F1040C28E0F5
:10040000D1F80C8008F1080C23E0D1F80C8008F139
:100410000C0C1EE000BF00BF00BF00BF00BF00BF4C
:10042000D1F80880B8F1000F02D14FF0040C0BE0B6
:10043000D1F80880B8F1010F03D14FF0080C146116
:1004400002E04FF0080C546103E04FF0000C00E0B4
:1004500000BF00BFFF2801D8904601E002F1040868
:100460004646FF2802D84FEA830803E0A3F10808B4
:100470004FEA88084746D6F800804FF00F0909FA7E
:1004800007F928EA09080CFA07F900E07AE048EAD7
:100490000908C6F80080D1F8048008F08058B8F147
:1004A000805F6FD100BFDFF8E481D8F8188048F092
:1004B0000108DFF8D891C9F81880C846D8F8188024
:1004C00008F00108CDF8008000BF00BF4FEAB9383E
:1004D0004FEA930958F829504FEA83784FEA187980
:1004E0004FF00F0808FA09F825EA0805DFF8A0819F
:1004F000424502D14FF0000824E0DFF898814245E0
:1005000002D14FF001081DE0DFF88C81424502D195
:100510004FF0020816E0DFF88481424502D14FF027
:1005200003080FE0DFF87881424502D14FF004085C
:1005300008E0DFF87081424502D14FF0050801E084
:100540004FF006084FEA83794FEA197908FA09F85B
:1005500048EA0505DFF850814FEA930948F8295029
:10056000D1F8048008F48018B8F5801F0BD1DFF8AB
:100570003C81D8F8008048EA0008DFF83091C9F8DB
:1005800000800AE075E0DFF82481D8F8008028EACE
:100590000008DFF81891C9F80080D1F8048008F449
:1005A0000018B8F5001F0ED1DFF8008108F104082B
:1005B000D8F8008048EA0008DFF8F09009F1040953
:1005C000C9F800800DE0DFF8E48008F10408D8F8ED
:1005D000008028EA0008DFF8D49009F10409C9F87E
:1005E0000080D1F8048008F40038B8F5003F0ED13F
:1005F000DFF8B880A8F10408D8F8008048EA0008BD
:10060000DFF8A890A9F10409C9F800800DE0DFF82F
:100610009C80A8F10408D8F8008028EA0008DFF8D8
:100620008C90A9F10409C9F80080D1F8048008F47D
:100630008038B8F5803F0ED1DFF87080A8F1080847
:10064000D8F8008048EA0008DFF86090A9F10809AE
:10065000C9F800800DE0DFF85480A8F10808D8F848
:10066000008028EA0008DFF84490A9F10809C9F8D9
:1006700000805B1CD1F8008028FA03F8B8F1000F65
:100680007FF47CAEBDE8F887000011100010024036
:1006900000080140000C014000100140001401401E
:1006A00000180140001C01400800014008040140FE
:1006B0000AB1016101E00B04036170470148006861
:1006C000704700000800002010B50848006840F09E
:1006D000100006490860032000F070F80F2000F0B9
:1006E00007F800F02BF8002010BD000000200240A9
:1006F00070B504460E4800784FF47A71B1FBF0F003
:100700000C490968B1FBF0F5284600F0C1FB08B1BF
:10071000012070BD102C07D200222146501E00F08F
:100720000EF80548046001E00120F2E70020F0E740
:1007300010000020000000200C00002070472DE970
:10074000F05F80460D461646002701F069FC07461B
:1007500039462A46334601F00700C0F1070ABAF1CC
:10076000040F02D94FF0040A01E0C0F1070AD14694
:1007700000F1040ABAF1070F02D24FF0000A01E0BB
:10078000A0F1030AD4464FF0010A0AFA09FAAAF1C5
:10079000010A0AEA020A0AFA0CFA4FF0010B0BFAF4
:1007A0000CFBABF1010B0BEA030B4AEA0B042146ED
:1007B000404601F03DFCBDE8F09F000000BF00F0A6
:1007C0000702064B19684FF6FF031940044B0B4311
:1007D00043EA0221014B196000BF70470CED00E0B5
:1007E0000000FA0570B504460D460CB9012070BD35
:1007F0005A48006800F00700A8420ED25748006827
:1008000020F007002843554908600846006800F0BA
:100810000700A84201D00120E9E7207800F002009B
:1008200002281DD1207800F00400042805D14C488E
:10083000406840F4E0604A494860207800F00800D1
:10084000082805D14648406840F460504449486053
:100850004348406820F0F000A168084340494860E0
:10086000207800F0010078B36068012806D13C4888
:10087000006800F4003090B90120B8E760680228F1
:1008800006D13748006800F0007040B90120AEE79B
:100890003348006800F0020008B90120A7E730489B
:1008A000406820F00300616808432D494860FFF765
:1008B00005FF064609E0FFF701FF801B41F2883182
:1008C000884202D9032092E707E02548406800F0FB
:1008D0000C006168B0EB810FEDD12048006800F09A
:1008E0000700A8420ED91D48006820F007002843E1
:1008F0001A4908600846006800F00700A84201D0C5
:10090000012074E7207800F00400042807D114487F
:10091000406820F4E060E1680843114948602078AD
:1009200000F00800082808D10D48406820F4605005
:10093000216940EAC1000A49486000F03FF80849CF
:100940004968C1F30311074A515CC8400649086071
:1009500006480068FFF7CCFE002048E70020024070
:100960000010024088210008000000200C00002038
:1009700001480068704700000000002000B5FFF744
:10098000F7FF04494968C1F30221034A515CC8409A
:1009900000BD0000001002409821000800B5FFF7DC
:1009A000E7FF04494968C1F3C221034A515CC840CA
:1009B00000BD0000001002409821000870B5002121
:1009C0000022002400230020134D696801F00C056B
:1009D000F5B1042D02D0082D19D101E00F4819E01E
:1009E0000F4DC1F38346AB5D01F4803555B10A4D1F
:1009F0006D68C5F340450B4E725D084D5D43B5FB18
:100A0000F2F402E0084D03FB05F4204602E000BFCB
:100A1000024800BF00BF70BD0010024000127A0003
:100A2000A0210008B021000800093D00F8B50446E7
:100A30000CB90120F8BD207800F00100002878D022
:100A4000F848406800F00C0004280CD0F5484068D5
:100A500000F00C00082811D1F248406800F4803002
:100A6000B0F5803F0AD1EF48006800F4003000285C
:100A70005FD0606800285CD10120DBE700BF6068C0
:100A8000B0F5803F06D1E748006840F48030E54982
:100A9000086028E0606858B9E248006820F48030B7
:100AA000E04908600846006820F4802008601AE0E9
:100AB0006068B0F5A02F0BD1DA48006840F48020C0
:100AC000D84908600846006840F4803008600AE0B1
:100AD000D448006820F48030D24908600846006895
:100AE00020F48020086000BF606888B1FFF7E6FD51
:100AF000054606E0FFF7E2FD401B642801D903200C
:100B000098E7C848006800F400300028F2D010E0F0
:100B1000FFF7D4FD054606E0FFF7D0FD401B642833
:100B200001D9032086E7BF48006800F400300028A0
:100B3000F2D1207800F00200022857D1B94840686D
:100B400000F00C0050B1B748406800F00C000828D5
:100B500018D1B448406800F4803098B9B1480068B2
:100B600000F0020020B12069012801D0012061E7D6
:100B7000AC48006820F0F800616940EAC100A9496A
:100B8000086033E02069E8B10120A7490860FFF759
:100B900095FD054606E0FFF791FD401B022801D9AF
:100BA000032047E79F48006800F002000028F2D0C9
:100BB0009C48006820F0F800616940EAC10099494A
:100BC000086013E0002098490860FFF777FD0546AC
:100BD00006E0FFF773FD401B022801D9032029E737
:100BE0009048006800F002000028F2D1207800F060
:100BF000080008282DD1A069B8B101208B490860F0
:100C0000FFF75CFD054606E0FFF758FD401B022894
:100C100001D903200EE78348406A00F00200002853
:100C2000F2D0012001F046F913E000207F4908606E
:100C3000FFF744FD054606E0FFF740FD401B022894
:100C400001D90320F6E67748406A00F00200002848
:100C5000F2D1207800F00400042873D100277148F5
:100C6000C06900F0805070B900BF6E48C06940F0A4
:100C700080506C49C8610846C06900F080500090FF
:100C800000BF00BF01276A48006800F48070B0B957
:100C90006748006840F4807065490860FFF70EFD02
:100CA000054606E0FFF70AFD401B642801D9032032
:100CB000C0E65F48006800F480700028F2D000BFF2
:100CC000E068012806D15748006A40F00100554904
:100CD000086227E0E06858B95248006A20F0010035
:100CE000504908620846006A20F00400086219E0D2
:100CF000E06805280BD14B48006A40F004004949E0
:100D000008620846006A40F0010008620AE04548AF
:100D1000006A20F00100434908620846006A20F09A
:100D20000400086200BFE068A0B1FFF7C7FC0546F9
:100D300009E0FFF7C3FC401B41F28831884202D929
:100D4000032077E622E03748006A00F0020000281E
:100D5000EFD012E0FFF7B2FC054608E0FFF7AEFC6B
:100D6000401B41F28831884201D9032062E62D48B8
:100D7000006A00F002000028F0D1012F05D12948B7
:100D8000C06920F080502749C86100BFE069C8B33E
:100D90002448406800F00C00082860D0E069022870
:100DA00048D1002020490866FFF788FC054606E088
:100DB000FFF784FC401B022801D903203AE61948BA
:100DC000006800F000700028F2D1206AB0F5803F82
:100DD00007D11448406820F40030A1680843114945
:100DE0004860D4E9080108430E49496821F47411A8
:100DF00008430C49486001200B490866FFF75EFC78
:100E0000054607E03DE0FFF759FC401B022801D9E9
:100E100003200FE60348006800F000700028F2D0BD
:100E20002FE00000001002400000424280044242D5
:100E300000700040002014490866FFF73FFC05469B
:100E400006E0FFF73BFC401B022801D90320F1E537
:100E50000E48006800F000700028F2D111E0E0694F
:100E6000012800D1E6E50948466806F48031206A89
:100E7000814204D106F47011606A814201D00120E0
:100E8000D8E50020D6E500000000424200100240F4
:100E900070B504462546681EB0F1807F01D301205D
:100EA0000FE0681E4FF0E02148610F214FF0FF3046
:100EB00001F0BEF800204FF0E021886107200861B2
:100EC000002070BD10B504460CB9012010BDA0690A
:100ED00000B100E000BF94F8410028B9002084F878
:100EE0004000204600F02AF8242084F841002068C1
:100EF000C06820F400502168C860204600F0FAFF66
:100F00002068006920F490402168086120684069E9
:100F100020F02A00216848612068C06840F4005031
:100F20002168C86000206064202084F8410084F8B3
:100F300042000020606300BFC8E7000010B586B023
:100F4000044624492068884242D100BF00BF22489D
:100F5000806940F00400204988610846806900F0FB
:100F60000400019000BF00BF00BF00BF00BF0846E3
:100F7000806940F0040088610846806900F0040040
:100F8000019000BF00BF00BF00BF00BF08468069DE
:100F900040F4804088610846806900F480400190F8
:100FA00000BF00BF00BF481502900220039003203D
:100FB000059002A90948FFF7DBF94FF48060029021
:100FC000002003900120049002A90448FFF7D0F903
:100FD00006B010BD0038014000100240000801407A
:100FE00000BFFEE72148006820F0FF001F490860AD
:100FF000081D00681E4908401C49091D0860081F9B
:10100000006840F08800091F0860081D0068194941
:1010100008431649091D086014480C3000684CF25A
:101020000371084311490C3108601348006820F02F
:10103000704011490860081D00680020091D086003
:10104000081F006840F00040091F0860081D006884
:1010500040F08830091D086007480C3000684FF6E2
:101060008071084304490C31086070470014014046
:1010700000F0FF00880800880018014070B50546A0
:101080000A4800880949498800FB01F40021084604
:1010900000F0FCF90549088900F046FC03E0284609
:1010A00000F086FD641E002CF9D170BD5C000020AC
:1010B00010B5044644B900200D498871F02008801D
:1010C0004FF4A070488007E00120094988714FF46F
:1010D000A0700880F02048802C20054908812A2033
:1010E00048812B208881002000F034F910BD0000D9
:1010F0005C00002010B500F0E3F90A2000F0AEFF1C
:1011000042F27D4091498880CF2000F00DFC002004
:1011100000F04EFDC12000F04BFD302000F048FDF6
:10112000ED2000F001FC642000F042FD032000F0FF
:101130003FFD122000F03CFD812000F039FDE82049
:1011400000F0F2FB852000F033FD102000F030FDB0
:101150007A2000F02DFDCB2000F0E6FB392000F0D6
:1011600027FD2C2000F024FD002000F021FD34207C
:1011700000F01EFD022000F01BFDF72000F0D4FB64
:10118000202000F015FDEA2000F0CEFB002000F04A
:101190000FFD002000F00CFDC02000F0C5FB1B205F
:1011A00000F006FDC12000F0BFFB012000F000FDB3
:1011B000C52000F0B9FB302000F0FAFC302000F030
:1011C000F7FCC72000F0B0FBB72000F0F1FC3620A0
:1011D00000F0AAFB482000F0EBFC3A2000F0A4FB52
:1011E000552000F0E5FCB12000F09EFB002000F04F
:1011F000DFFC1A2000F0DCFCB62000F095FB0A2092
:1012000000F0D6FCA22000F0D3FCF22000F08CFB12
:10121000002000F0CDFC262000F086FB012000F02D
:10122000C7FCE02000F080FB0F2000F0C1FC2A206A
:1012300000F0BEFC282000F0BBFC082000F0B8FC49
:101240000E2000F0B5FC082000F0B2FC542000F0A5
:10125000AFFCA92000F0ACFC432000F0A9FC0A2060
:1012600000F0A6FC0F2000F0A3FC002000F0A0FC82
:10127000002000F09DFC002000F09AFC002000F00F
:1012800097FCE12000F050FB002000F091FC1520BD
:1012900000F08EFC172000F08BFC072000F088FC8B
:1012A000112000F085FC062000F082FC2B2000F0CD
:1012B0007FFC562000F07CFC3C2000F079FC0520EF
:1012C00000F076FC102000F073FC0F2000F070FCA2
:1012D0003F2000F06DFC3F2000F06AFC0F2000F082
:1012E00067FC2B2000F020FB002000F061FC0020B8
:1012F00000F05EFC012000F05BFC3F2000F058FC99
:101300002A2000F011FB002000F052FC002000F029
:101310004FFC002000F04CFCEF2000F049FC1120B5
:1013200000F002FB782000F0B7FE292000F0FCFA64
:101330000020FFF7BDFE012211460548FFF7B8F96E
:101340004FF6FF70FFF79AFE10BD00005C00002012
:10135000000C01402DE9F0410546002400274A48D1
:101360008079012818D1082D15D2DFE805F0040690
:10137000080A0C0E101206250DE007250BE00425C7
:1013800009E0052507E0012505E0002503E0032528
:1013900001E0022500BF00BF082D1CD2DFE805F0E8
:1013A0000406090C0F12151800BF14E044F0800465
:1013B00011E044F040040EE044F0C0040BE044F0BF
:1013C000200408E044F0600405E044F0A00402E0DA
:1013D00044F0E00400BF00BF362744F0080438465C
:1013E00000F0A2FA204600F0E3FB04F0200068B110
:1013F0002548008824494988884214DA224806880A
:10140000408821490880084646800CE01E48008834
:101410001D494988884206DD1B48068840881A49CC
:101420000880084646801849488900F07DFA002067
:1014300000F0BEFB002000F0BBFB13490988491EE9
:10144000C1F30F2000F0B4FB0F490978491EC8B260
:1014500000F0AEFB0C49888900F066FA002000F02D
:10146000A7FB002000F0A4FB07494988491EC1F3EF
:101470000F2000F09DFB04498978491EC8B200F096
:1014800097FBBDE8F08100005C00002070B50446C9
:101490000D460A49488900F047FA201200F088FBFF
:1014A000E0B200F085FB0549888900F03DFA28127A
:1014B00000F07EFBE8B200F07BFB70BD5C0000201A
:1014C00000B585B000BF3648806940F00800344957
:1014D00088610846806900F00800009000BF00BFE6
:1014E00000BF0846806940F0200088610846806996
:1014F00000F02000009000BF00BF00BF08468069D8
:1015000040F0400088610846806900F0400000908B
:1015100000BF00BF00BF0846806940F4807088614A
:101520000846806900F48070009000BF00BF012071
:10153000019002900320049001A91A48FEF718FFB9
:101540004CF23370019001A91748FEF711FF4FF6D6
:101550008070019001A91548FEF70AFF41F20100D1
:10156000019001A91248FEF703FF01221103104860
:10157000FFF79EF8012220210B48FFF799F801227E
:1015800010210948FFF794F8012211460848FFF797
:101590008FF8002201210348FFF78AF805B000BD4B
:1015A00000100240000C01400014014000180140EE
:1015B0000020014010B50024FFF714FD0122202176
:1015C0004348FFF775F8012211464248FFF770F8CB
:1015D00000224FF480513F48FFF76AF800221021A3
:1015E0003B48FFF765F83A4808300068C0F38030A0
:1015F0000443374808300068C0F3C03044EA400470
:1016000033480830006800F0010044EA80043048A4
:1016100008300068C0F3400044EAC0042E48006867
:10162000C0F3C01044EA00142B480068C0F3002047
:1016300044EA401428480068C0F3402044EA80147B
:1016400025480068C0F3802044EAC014224800689E
:10165000C0F3C02044EA00241F480068C0F30030F3
:1016600044EA40241C480068C0F3403044EA802427
:1016700019480068C0F3803044EAC0241648006866
:10168000C0F3C03044EA0034114808300068C0F3A9
:10169000002044EA40340E4808300068C0F340207F
:1016A00044EA80340A4808300068C0F3802044EAE5
:1016B000C034012210210648FEF7FAFF012211036F
:1016C0000448FEF7F5FF00F0BBFB204610BD00000C
:1016D00000140140002001400818014010B500240A
:1016E000D32000F021F9FFF765FF0446FFF762FF02
:1016F0000446FFF75FFF04464FF6FF7000EA04243C
:10170000FFF758FF044349F2413084427DD0042062
:1017100000F00AF9FFF74EFF0446FFF74BFF0446BF
:10172000FFF748FF04464FF6FF7000EA0424FFF776
:1017300041FF044348F25250844201D147F2897478
:1017400047F2897084426AD0D42000F0EDF8FFF7A8
:1017500031FF0446FFF72EFF0446FFF72BFF044638
:101760004FF6FF7000EA0424FFF724FF044345F21C
:101770001030844253D04FF4704000F0D5F855201B
:1017800000F016FA4FF2010000F0CEF8AA2000F0A7
:101790000FFA4FF2020000F0C7F8522000F008FAEA
:1017A0004FF2030000F0C0F8082000F001FA4FF2F9
:1017B000040000F0B9F8012000F0FAF94FF44540B8
:1017C00000F0B2F8FFF7F6FE04464FF6FF7000EAAD
:1017D00004244CF2015000F0A7F8FFF7EBFE04439D
:1017E000052000F059FC45F21050844217D0A1208A
:1017F00000F09AF8FFF7DEFE0446FFF7DBFE044632
:101800004FF6FF7000EA042400E008E0FFF7D2FE84
:10181000044345F26170844201D141F663142046CD
:1018200045F21052A11A944222D00BDCA0F5C85008
:10183000A0F1630000281FD0A0F56450AD38002847
:101840001ED111E0A1F50850793828B1A0F5D85083
:10185000B838002814D103E00DA0FEF7D9FC13E03E
:1018600010A0FEF7D5FC0FE014A0FEF7D1FC0BE0B2
:1018700018A0FEF7CDFC07E01CA0FEF7C9FC03E0B2
:1018800020A0FEF7C5FC00BF00BF204610BD000031
:101890004C4344C6C1D0CDBAC5A3BA535437373828
:1018A000390D0A004C4344C6C1D0CDBAC5A3BA49CC
:1018B0004C49393334310D0A000000004C4344C612
:1018C000C1D0CDBAC5A3BA4E5433353331300D0A29
:1018D000000000004C4344C6C1D0CDBAC5A3BA4EE7
:1018E0005433353531300D0A000000004C4344C6F6
:1018F000C1D0CDBAC5A3BA535344313936330D0ADA
:1019000000000000C3BBD3D04C4344C6C1BBF2CAE5
:10191000B9D3C3C1CBCEB4D6AAD0CDBAC5B5C44C09
:101920004344C6C10D0A000010B50446012210212F
:101930009C48FEF7BDFE002201219B48FEF7B8FE41
:1019400000224FF480519848FEF7B2FE0022202179
:101950009448FEF7ADFE04F0010040B191480C3010
:10196000006840F480408F490C31086007E08D48E2
:101970000C30006820F480408A490C31086004F083
:10198000020040B187480C30006840F400408549AF
:101990000C31086007E083480C30006820F40040F8
:1019A00080490C31086004F0040040B17D480C30DF
:1019B000006840F001007B490C31086007E079487D
:1019C0000C30006820F0010076490C31086004F00A
:1019D000080040B173480C30006840F002007149C3
:1019E0000C31086007E06F480C30006820F00200FE
:1019F0006C490C31086004F0100030B16B4800688D
:101A000040F080006949086005E06848006820F0FF
:101A100080006649086004F0200030B16348006827
:101A200040F480706149086005E06048006820F477
:101A300080705E49086004F0400030B15B48006887
:101A400040F400705949086005E05848006820F4E7
:101A500000705649086004F0800030B153480068B7
:101A600040F480605149086005E05048006820F467
:101A700080604E49086004F4807030B14B480068C3
:101A800040F400604949086005E04848006820F4D7
:101A900000604649086004F4007030B143480068B3
:101AA00040F480504149086005E04048006820F457
:101AB00080503E49086004F4806030B13B480068C3
:101AC00040F400503949086005E03848006820F4C7
:101AD00000503649086004F4006030B133480068B3
:101AE00040F480403149086005E03048006820F447
:101AF00080402E49086004F4805030B12B480068C3
:101B000040F400402949086005E02848006820F4B6
:101B100000402649086004F4005040B121480C30D0
:101B2000006840F480701F490C31086007E01D48D0
:101B30000C30006820F480701A490C31086004F4FD
:101B4000804040B117480C30006840F400701549DF
:101B50000C31086007E013480C30006820F4007076
:101B600010490C31086004F4004040B10D480C30BD
:101B7000006840F480600B490C31086007E00948B8
:101B80000C30006820F4806006490C3108600122A6
:101B900020210448FEF78CFD012211030248FEF7C4
:101BA00087FD10BD00140140002001400C180140C9
:101BB00010B50446012210219C48FEF779FD012250
:101BC00011469B48FEF774FD00224FF4805198485F
:101BD000FEF76EFD002220219448FEF769FD04F017
:101BE000010040B191480C30006840F480408F49BA
:101BF0000C31086007E08D480C30006820F480400C
:101C00008A490C31086004F0020040B187480C306A
:101C1000006840F4004085490C31086007E08348C3
:101C20000C30006820F4004080490C31086004F05A
:101C3000040040B17D480C30006840F001007B4951
:101C40000C31086007E079480C30006820F0010092
:101C500076490C31086004F0080040B173480C303C
:101C6000006840F0020071490C31086007E06F48DD
:101C70000C30006820F002006C490C31086004F060
:101C8000100030B16B48006840F08000694908607E
:101C900005E06848006820F080006649086004F0AC
:101CA000200030B16348006840F4807061490860EA
:101CB00005E06048006820F480705E49086004F028
:101CC000400030B15B48006840F40070594908603A
:101CD00005E05848006820F400705649086004F098
:101CE000800030B15348006840F48060514908607A
:101CF00005E05048006820F480604E49086004F414
:101D0000807030B14B48006840F400604949086079
:101D100005E04848006820F400604649086004F483
:101D2000007030B14348006840F480504149086079
:101D300005E04048006820F480503E49086004F403
:101D4000806030B13B48006840F400503949086079
:101D500005E03848006820F400503649086004F473
:101D6000006030B13348006840F480403149086079
:101D700005E03048006820F480402E49086004F4F3
:101D8000805030B12B48006840F400402949086079
:101D900005E02848006820F400402649086004F463
:101DA000005040B121480C30006840F480701F4959
:101DB0000C31086007E01D480C30006820F480708A
:101DC0001A490C31086004F4804040B117480C30C7
:101DD000006840F4007015490C31086007E01348B2
:101DE0000C30006820F4007010490C31086004F4D5
:101DF000004040B10D480C30006840F480600B4951
:101E00000C31086007E009480C30006820F480605D
:101E100006490C310860012220210448FEF748FCE5
:101E2000012211030248FEF743FC10BD00140140DB
:101E3000002001400C18014000BFFEE77047000081
:101E40001848006820F0FF0016490860081D006867
:101E5000154908401349091D0860081F006840F033
:101E60003300091F0860081D0068104908430D4928
:101E7000091D08600E48006820F070400C49086099
:101E8000081D00680020091D0860081F006840F058
:101E90004050091F0860081D006840F03330091DDC
:101EA000086070470014014000F0FF003303003366
:101EB0000018014008B508490968C9084FF47A724A
:101EC000B1FBF2F14143009100BF00BF00994A1EEF
:101ED00000920029F9D108BD0000002070470020C1
:101EE0004FF0E02108610846006920F00400086115
:101EF0007047704770B504462168096921F4405164
:101F0000E2681143226811612269A1681143626984
:101F100041EA02052168C96841F20C6291432943F4
:101F20002268D1602168496921F44071A269114396
:101F3000226851612D4A2168914202D1FEF72EFD9F
:101F400001E0FEF71BFD00EBC00101EB0011626830
:101F50009200B1FBF2F100EBC00202EB00126368E9
:101F60009B00B2FBF3F26423B2FBF3F202EBC20379
:101F700003EB0212A1EB8201322202EB0111642277
:101F8000B1FBF2F101F0F00100EBC00202EB001234
:101F900063689B00B2FBF3F26423B2FBF3F201EB44
:101FA000021200EBC00101EB001163689B00B1FB62
:101FB000F3F100EBC00303EB00136668B600B3FB5C
:101FC000F6F36426B3FBF6F303EBC30606EB031349
:101FD000A1EB8301322303EB01116423B1FBF3F185
:101FE00001F00F0111442268916070BD003801407A
:101FF00010B50446074808490860084644600021B7
:102000008160C160016181610C214161FEF75AFF6D
:1020100010BD0000003801401400002000BFFEE7A2
:1020200002480068C0F30220704700000CED00E099
:1020300010B5002804DB0A07130E054A135406E006
:102040000A07140E034A00F00F031B1FD45410BDDF
:1020500000E400E018ED00E000BF7047FF214FF002
:10206000E022916142F228314143516111460969F0
:1020700041F00101116100BF4FF0E021096901F455
:1020800080310029F8D04FF0E021096921F00101E9
:102090004FF0E0221161704730B503460025B3F5DB
:1020A000E96F03DC1846FFF7D9FF15E004E0A3F55C
:1020B000E96083B2681C85B2B3F5E96FF7DA0024F2
:1020C00005E04FF4E960FFF7C9FF601C84B2AC4241
:1020D000F7DB1846FFF7C2FF30BD000000BF054A1E
:1020E000126802F04002002AF9D0C2B2014B1B1D57
:1020F0001A60704700380140FEF7E6FA4FF4E0102E
:1021000000F00FF8FFF7EBFE4FF4E130FFF770FF40
:10211000FEF7F0FF3220FFF7BFFFFFF7DFFA00BF47
:10212000FEE730B58FB005460124282105A8FEF74B
:102130007BF814216846FEF777F80120059000042B
:1021400006900020079002200C90C1030D910E957F
:1021500005A8FEF76BFC04460CB100BFFEE70F209C
:10216000009002200190002002904FF480600390C4
:102170000020049002216846FEF734FB04460CB1AF
:1021800000BFFEE70FB030BD0000000000000000FF
:10219000010203040607080900000000010203040D
:1021A00002030405060708090A0B0C0D0E0F101098
:1021B00001020000D42100080000002014000000EB
:1021C0006C010008E821000814000020BC06000093
:1021D000880100080024F400000000000000000056
:0821E0001000000001000000E6
:0400000508000131BD
:00000001FF
