:020000040800F2
:1000000080060020CD01000865100008550E00088C
:1000100061100008C9020008A910000800000000D3
:100020000000000000000000000000009110000827
:10003000CD02000800000000E3010008E50100080F
:10004000E7010008E7010008E7010008E7010008F0
:10005000E7010008E7010008E7010008E7010008E0
:10006000E7010008E7010008E7010008E7010008D0
:10007000E7010008E7010008E7010008E7010008C0
:10008000E7010008E7010008E7010008E7010008B0
:10009000E7010008E7010008E7010008E7010008A0
:1000A000E7010008E7010008E7010008E701000890
:1000B000E7010008E7010008E7010008E701000880
:1000C000E7010008E7010008E7010008E701000870
:1000D000E7010008E7010008E7010008E701000860
:1000E000E7010008E7010008E7010008E701000850
:1000F000E7010008E7010008E7010008E701000840
:10010000E7010008E7010008E7010008E70100082F
:10011000E7010008E7010008E7010008E70100081F
:10012000E7010008E7010008E7010008E70100080F
:1001300000F002F800F03AF80AA090E8000C8244BF
:100140008344AAF10107DA4501D100F02FF8AFF29C
:10015000090EBAE80F0013F0010F18BFFB1A43F0A5
:1001600001031847E410000004110000103A24BFF6
:1001700078C878C1FAD8520724BF30C830C144BF0C
:1001800004680C607047000000230024002500264E
:10019000103A28BF78C1FBD8520728BF30C148BFEA
:1001A0000B6070471FB51FBD10B510BD00F05AF8A9
:1001B0001146FFF7F7FF00F0D7FF00F078F803B41F
:1001C000FFF7F2FF03BC00F08DFF000009488047F5
:1001D00009480047FEE7FEE7FEE7FEE7FEE7FEE729
:1001E000FEE7FEE7FEE7FEE704480549054A064B41
:1001F00070470000A71000083101000880000020AF
:1002000080060020800200208002002070474FF00E
:10021000000200B5134694469646203922BFA0E856
:100220000C50A0E80C50B1F12001BFF4F7AF090762
:1002300028BFA0E80C5048BF0CC05DF804EB890053
:1002400028BF40F8042B08BF704748BF20F8022B96
:1002500011F0804F18BF00F8012B704770477047AE
:1002600070477047754600F02BF8AE4605006946AA
:10027000534620F00700854618B020B5FFF7B4FFBD
:10028000BDE820404FF000064FF000074FF0000897
:100290004FF0000B21F00701AC46ACE8C009ACE818
:1002A000C009ACE8C009ACE8C0098D46704710B57C
:1002B0000446AFF300802046BDE81040FFF77FBF43
:1002C000004870471C00002000BFFEE77047000098
:1002D0002DE9F847024600239C467BE14FF00108D8
:1002E00008FA03F4D1F8008008EA0400A0427DD1A6
:1002F000DFF8F4A2D1F80480A8EB0A09D0453AD07F
:1003000014DCB8F1030F50D009DCB8F1000F31D084
:10031000B8F1010F1CD0B8F1020F49D120E0B8F1BB
:10032000110F18D0B8F1120F42D11EE0B9F5881F95
:1003300025D006DCB9F5803F20D0B9F5801F37D134
:100340001AE0B9F5001F18D0B9F5041F30D117E035
:10035000D1F80CC02DE0D1F80C8008F1040C28E095
:10036000D1F80C8008F1080C23E0D1F80C8008F1DA
:100370000C0C1EE000BF00BF00BF00BF00BF00BFED
:10038000D1F80880B8F1000F02D14FF0040C0BE057
:10039000D1F80880B8F1010F03D14FF0080C1461B7
:1003A00002E04FF0080C546103E04FF0000C00E055
:1003B00000BF00BFFF2801D8904601E002F1040809
:1003C0004646FF2802D84FEA830803E0A3F1080855
:1003D0004FEA88084746D6F800804FF00F0909FA1F
:1003E00007F928EA09080CFA07F900E07AE048EA78
:1003F0000908C6F80080D1F8048008F08058B8F1E8
:10040000805F6FD100BFDFF8E481D8F8188048F032
:100410000108DFF8D891C9F81880C846D8F81880C4
:1004200008F00108CDF8008000BF00BF4FEAB938DE
:100430004FEA930958F829504FEA83784FEA187920
:100440004FF00F0808FA09F825EA0805DFF8A0813F
:10045000424502D14FF0000824E0DFF89881424580
:1004600002D14FF001081DE0DFF88C81424502D136
:100470004FF0020816E0DFF88481424502D14FF0C8
:1004800003080FE0DFF87881424502D14FF00408FD
:1004900008E0DFF87081424502D14FF0050801E025
:1004A0004FF006084FEA83794FEA197908FA09F8FC
:1004B00048EA0505DFF850814FEA930948F82950CA
:1004C000D1F8048008F48018B8F5801F0BD1DFF84C
:1004D0003C81D8F8008048EA0008DFF83091C9F87C
:1004E00000800AE075E0DFF82481D8F8008028EA6F
:1004F0000008DFF81891C9F80080D1F8048008F4EA
:100500000018B8F5001F0ED1DFF8008108F10408CB
:10051000D8F8008048EA0008DFF8F09009F10409F3
:10052000C9F800800DE0DFF8E48008F10408D8F88D
:10053000008028EA0008DFF8D49009F10409C9F81E
:100540000080D1F8048008F40038B8F5003F0ED1DF
:10055000DFF8B880A8F10408D8F8008048EA00085D
:10056000DFF8A890A9F10409C9F800800DE0DFF8D0
:100570009C80A8F10408D8F8008028EA0008DFF879
:100580008C90A9F10409C9F80080D1F8048008F41E
:100590008038B8F5803F0ED1DFF87080A8F10808E8
:1005A000D8F8008048EA0008DFF86090A9F108094F
:1005B000C9F800800DE0DFF85480A8F10808D8F8E9
:1005C000008028EA0008DFF84490A9F10809C9F87A
:1005D00000805B1CD1F8008028FA03F8B8F1000F06
:1005E0007FF47CAEBDE8F8870000111000100240D7
:1005F00000080140000C01400010014000140140BF
:1006000000180140001C014008000140080401409E
:10061000024693680B400BB1012000E000207047B8
:100620000AB1016101E00B040361704701480068F1
:10063000704700000400002070B504460CB901208A
:1006400070BD4CF6CC402168086045F255502168D9
:100650000860D4E9001048602168A0688860FFF74E
:10066000E5FF05460BE0FFF7E1FF401B272806D911
:100670002068C06800F0030008B10320E0E72068AC
:10068000C06800F003000028EDD14AF6AA202168D6
:1006900008600020D4E701464AF6AA200A681060E4
:1006A0000020704710B50848006840F01000064967
:1006B0000860032000F070F80F2000F007F800F049
:1006C0002BF8002010BD00000020024070B5044649
:1006D0000E4800784FF47A71B1FBF0F00C490968CC
:1006E000B1FBF0F5284600F09BFB08B1012070BD7E
:1006F000102C07D200222146501E00F00EF80548AB
:10070000046001E00120F2E70020F0E70C00002087
:10071000000000200800002070472DE9F05F8046AF
:100720000D461646002700F0C1FC074639462A460A
:10073000334601F00700C0F1070ABAF1040F02D9ED
:100740004FF0040A01E0C0F1070AD14600F1040AA3
:10075000BAF1070F02D24FF0000A01E0A0F1030A3C
:10076000D4464FF0010A0AFA09FAAAF1010A0AEA84
:10077000020A0AFA0CFA4FF0010B0BFA0CFBABF170
:10078000010B0BEA030B4AEA0B042146404600F03A
:1007900095FCBDE8F09F000000BF00F00702064B8B
:1007A00019684FF6FF031940044B0B4343EA02213B
:1007B000014B196000BF70470CED00E00000FA0526
:1007C00070B504460D460CB9012070BD5A4800684A
:1007D00000F00700A8420ED25748006820F007003A
:1007E0002843554908600846006800F00700A84201
:1007F00001D00120E9E7207800F0020002281DD195
:10080000207800F00400042805D14C48406840F4EA
:10081000E0604A494860207800F00800082805D1C7
:100820004648406840F46050444948604348406846
:1008300020F0F000A168084340494860207800F0AB
:10084000010078B36068012806D13C48006800F4D4
:10085000003090B90120B8E76068022806D1374817
:10086000006800F0007040B90120AEE7334800682E
:1008700000F0020008B90120A7E73048406820F0E6
:100880000300616808432D494860FFF7CFFE064624
:1008900009E0FFF7CBFE801B41F28831884202D984
:1008A000032092E707E02548406800F00C006168EB
:1008B000B0EB810FEDD12048006800F00700A8429E
:1008C0000ED91D48006820F0070028431A49086027
:1008D0000846006800F00700A84201D0012074E734
:1008E000207800F00400042807D11448406820F460
:1008F000E060E168084311494860207800F0080092
:10090000082808D10D48406820F46050216940EA69
:10091000C1000A49486000F019F808494968C1F364
:100920000311074A515CC840064908600648006840
:10093000FFF7CCFE002048E70020024000100240F4
:100940001E120008000000200800002070B50021E1
:100950000022002400230020134D696801F00C05DB
:10096000F5B1042D02D0082D19D101E00F4819E08E
:100970000F4DC1F38346AB5D01F4803555B10A4D8F
:100980006D68C5F340450B4E725D084D5D43B5FB88
:10099000F2F402E0084D03FB05F4204602E000BF3C
:1009A000024800BF00BF70BD0010024000127A0074
:1009B000361200084612000800093D00F8B504464A
:1009C0000CB90120F8BD207800F00100002878D093
:1009D000F848406800F00C0004280CD0F548406846
:1009E00000F00C00082811D1F248406800F4803073
:1009F000B0F5803F0AD1EF48006800F400300028CD
:100A00005FD0606800285CD10120DBE700BF606830
:100A1000B0F5803F06D1E748006840F48030E549F2
:100A2000086028E0606858B9E248006820F4803027
:100A3000E04908600846006820F4802008601AE059
:100A40006068B0F5A02F0BD1DA48006840F4802030
:100A5000D84908600846006840F4803008600AE021
:100A6000D448006820F48030D24908600846006805
:100A700020F48020086000BF606888B1FFF7D6FDD1
:100A8000054606E0FFF7D2FD401B642801D903208C
:100A900098E7C848006800F400300028F2D010E061
:100AA000FFF7C4FD054606E0FFF7C0FD401B6428C4
:100AB00001D9032086E7BF48006800F40030002811
:100AC000F2D1207800F00200022857D1B9484068DE
:100AD00000F00C0050B1B748406800F00C00082846
:100AE00018D1B448406800F4803098B9B148006823
:100AF00000F0020020B12069012801D0012061E747
:100B0000AC48006820F0F800616940EAC100A949DA
:100B1000086033E02069E8B10120A7490860FFF7C9
:100B200085FD054606E0FFF781FD401B022801D93F
:100B3000032047E79F48006800F002000028F2D039
:100B40009C48006820F0F800616940EAC1009949BA
:100B5000086013E0002098490860FFF767FD05462C
:100B600006E0FFF763FD401B022801D9032029E7B7
:100B70009048006800F002000028F2D1207800F0D0
:100B8000080008282DD1A069B8B101208B49086060
:100B9000FFF74CFD054606E0FFF748FD401B022825
:100BA00001D903200EE78348406A00F002000028C4
:100BB000F2D0012000F058FA13E000207F490860CD
:100BC000FFF734FD054606E0FFF730FD401B022825
:100BD00001D90320F6E67748406A00F002000028B9
:100BE000F2D1207800F00400042873D10027714866
:100BF000C06900F0805070B900BF6E48C06940F015
:100C000080506C49C8610846C06900F0805000906F
:100C100000BF00BF01276A48006800F48070B0B9C7
:100C20006748006840F4807065490860FFF7FEFC83
:100C3000054606E0FFF7FAFC401B642801D90320B3
:100C4000C0E65F48006800F480700028F2D000BF62
:100C5000E068012806D15748006A40F00100554974
:100C6000086227E0E06858B95248006A20F00100A5
:100C7000504908620846006A20F00400086219E042
:100C8000E06805280BD14B48006A40F00400494950
:100C900008620846006A40F0010008620AE0454820
:100CA000006A20F00100434908620846006A20F00B
:100CB0000400086200BFE068A0B1FFF7B7FC05467A
:100CC00009E0FFF7B3FC401B41F28831884202D9AA
:100CD000032077E622E03748006A00F0020000288F
:100CE000EFD012E0FFF7A2FC054608E0FFF79EFCFC
:100CF000401B41F28831884201D9032062E62D4829
:100D0000006A00F002000028F0D1012F05D1294827
:100D1000C06920F080502749C86100BFE069C8B3AE
:100D20002448406800F00C00082860D0E0690228E0
:100D300048D1002020490866FFF778FC054606E008
:100D4000FFF774FC401B022801D903203AE619483A
:100D5000006800F000700028F2D1206AB0F5803FF2
:100D600007D11448406820F40030A16808431149B5
:100D70004860D4E9080108430E49496821F4741118
:100D800008430C49486001200B490866FFF74EFCF8
:100D9000054607E03DE0FFF749FC401B022801D96A
:100DA00003200FE60348006800F000700028F2D02E
:100DB0002FE0000000100240000042428004424246
:100DC00000700040002014490866FFF72FFC05461C
:100DD00006E0FFF72BFC401B022801D90320F1E5B8
:100DE0000E48006800F000700028F2D111E0E069C0
:100DF000012800D1E6E50948466806F48031206AFA
:100E0000814204D106F47011606A814201D0012050
:100E1000D8E50020D6E50000000042420010024064
:100E200070B504462546681EB0F1807F01D30120CD
:100E30000FE0681E4FF0E02148610F214FF0FF30B6
:100E400000F03CF900204FF0E021886107200861A4
:100E5000002070BD00BFFEE710B50248FFF71BFC85
:100E600010BD00001000002070B504460D46044877
:100E700004490860084644608560FFF7DDFB70BDEB
:100E8000003000401000002000B585B000BF2148B0
:100E9000806940F040001F4988610846806900F081
:100EA0004000009000BF00BF00BF0846806940F0CE
:100EB000400088610846806900F04000009000BF53
:100EC00000BF00BF0846806940F004008861084602
:100ED000806900F00400009000BF00BF1020019066
:100EE00000200290012003900320049001A90A48E9
:100EF000FFF7EEF90820019001A90748FFF7E8F98C
:100F0000012001900220039001A90448FFF7E0F9B5
:100F100005B000BD0010024000180140000801406B
:100F200010B500242948007800283AD0012128482B
:100F3000FFF76EFB012809D010212648FFF768FB58
:100F400020B108212348FFF763FB10BB0A2000F003
:100F5000E9F801211E48FFF75BFB012809D01021A9
:100F60001C48FFF755FB20B108211A48FFF750FB3A
:100F700078B900201549087010211648FFF748FB82
:100F800008B901240DE008211248FFF741FB08B918
:100F9000022406E001210E48FFF73AFB012800D1A8
:100FA000032401210A48FFF733FB68B910210948DF
:100FB000FFF72EFB012807D108210648FFF728FB81
:100FC000012801D101490870204610BD0D00002004
:100FD000000801400018014000B585B000BF1D4861
:100FE000806940F008001B4988610846806900F06C
:100FF0000800009000BF00BF00BF0846806940F0B5
:10100000400088610846806900F04000009000BF01
:1010100000BF202001900120029003900320049043
:1010200001A90D48FFF754F92020019001A90B48B0
:10103000FFF74EF900BF012220210748FFF7F0FA21
:1010400000BF00BF012220210448FFF7E9FA00BFDA
:1010500005B000BD00100240000C01400018014026
:1010600000BFFEE77047000008B508490968C908D5
:101070004FF47A72B1FBF2F14143009100BF00BF1F
:1010800000994A1E00920029F9D108BD00000020F5
:10109000704700204FF0E02108610846006920F009
:1010A000040008617047704700BFFEE7024800680F
:1010B000C0F30220704700000CED00E010B50028DE
:1010C00004DB0A07130E054A135406E00A07140E40
:1010D000034A00F00F031B1FD45410BD00E400E0CE
:1010E00018ED00E000BF7047FF214FF0E022916152
:1010F00042F22831414351611146096941F0010131
:10110000116100BF4FF0E021096901F4803100292D
:10111000F8D04FF0E021096921F001014FF0E02201
:101120001161704730B503460025B3F5E96F03DC64
:101130001846FFF7D9FF15E004E0A3F5E96083B294
:10114000681C85B2B3F5E96FF7DA002405E04FF4C7
:10115000E960FFF7C9FF601C84B2AC42F7DB1846B8
:10116000FFF7C2FF30BD00000024FFF79BFA4FF4E9
:10117000E01000F021F8FFF78CFFFFF72DFFFFF7DD
:1011800083FE40F253710420FFF76EFE4FF47A7035
:10119000FFF7C8FF00BF002220210648FFF740FAF2
:1011A00000BF05E0FFF7BCFE04460CB1FFF754FE9C
:1011B000F8E70000000C014030B58FB0054601246F
:1011C000282105A8FFF723F814216846FFF71FF828
:1011D00001200590000406900020079002200C904A
:1011E000C1030D910E9505A8FFF7E8FB04460CB16D
:1011F00000BFFEE70F200090022001900020029027
:101200004FF4806003900020049002216846FFF7AD
:10121000D7FA04460CB100BFFEE70FB030BD0000A6
:101220000000000000000102030406070809000096
:1012300000000102030402030405060708090A0B63
:101240000C0D0E0F101001026812000800000020A3
:10125000100000006C010008781200081000002047
:1012600070060000880100080024F400000000005F
:08127000100000000101000064
:0400000508000131BD
:00000001FF
