:020000040800F2
:10000000C8060020CD010008C9160008A510000888
:10001000C5160008C90200080D17000800000000FE
:10002000000000000000000000000000F5160008BD
:10003000CD02000800000000E3010008E50100080F
:10004000E7010008E7010008E7010008E7010008F0
:10005000E7010008E7010008E7010008E7010008E0
:10006000E7010008E7010008E7010008E7010008D0
:10007000E7010008E7010008E7010008E7010008C0
:10008000E7010008E7010008E7010008E7010008B0
:10009000E7010008E7010008E7010008E7010008A0
:1000A000E7010008E7010008E7010008E701000890
:1000B000E7010008E7010008E7010008E701000880
:1000C000E7010008E7010008E7010008E701000870
:1000D000E7010008E7010008E7010008E701000860
:1000E000E7010008E7010008E7010008E701000850
:1000F000E7010008E7010008E7010008E701000840
:10010000E7010008E7010008E7010008E70100082F
:10011000E7010008E7010008E7010008E70100081F
:10012000E7010008E7010008E7010008E70100080F
:1001300000F002F800F03AF80AA090E8000C8244BF
:100140008344AAF10107DA4501D100F02FF8AFF29C
:10015000090EBAE80F0013F0010F18BFFB1A43F0A5
:100160000103184758E7070078E70700103A24BF53
:1001700078C878C1FAD8520724BF30C830C144BF0C
:1001800004680C607047000000230024002500264E
:10019000103A28BF78C1FBD8520728BF30C148BFEA
:1001A0000B6070471FB51FBD10B510BD00F05AF8A9
:1001B0001146FFF7F7FF01F009FB00F078F803B4F0
:1001C000FFF7F2FF03BC01F0BFFA000009488047C7
:1001D00009480047FEE7FEE7FEE7FEE7FEE7FEE729
:1001E000FEE7FEE7FEE7FEE704480549054A064B41
:1001F000704700000B17000831010008C8000020FC
:10020000C8060020C8020020C802002070474FF036
:10021000000200B5134694469646203922BFA0E856
:100220000C50A0E80C50B1F12001BFF4F7AF090762
:1002300028BFA0E80C5048BF0CC05DF804EB890053
:1002400028BF40F8042B08BF704748BF20F8022B96
:1002500011F0804F18BF00F8012B704770477047AE
:1002600070477047754600F02BF8AE4605006946AA
:10027000534620F00700854618B020B5FFF7B4FFBD
:10028000BDE820404FF000064FF000074FF0000897
:100290004FF0000B21F00701AC46ACE8C009ACE818
:1002A000C009ACE8C009ACE8C0098D46704710B57C
:1002B0000446AFF300802046BDE81040FFF77FBF43
:1002C000004870476800002000BFFEE7704700004C
:1002D00000B593B000BF5048806940F008004E4917
:1002E00088610846806900F00800009000BF00BFE8
:1002F00000BF0846806940F0200088610846806998
:1003000000F02000009000BF00BF00BF08468069D9
:1003100040F0400088610846806900F0400000908D
:1003200000BF00BF00BF0846806940F4807088614C
:100330000846806900F48070009000BF00BF00BFD5
:100340000846406940F4807048610846406900F4FE
:100350008070009000BF00BF01200F90109003201C
:1003600012900FA92D4800F0E5F84CF233700F9071
:10037000022010900FA92A4800F0DCF84FF6807098
:100380000F900FA9274800F0D5F841F201000F9017
:100390000FA9254800F0CEF820480C30006820F066
:1003A00001001E490C3108600020089009900F20C0
:1003B0000A9000200B900C900D900E9001900290EE
:1003C00001200390002004900590069007904FF0C4
:1003D00020401649086016484860062088600021C1
:1003E0001248C1601021416100218161C1614162F7
:1003F0004FF4805181620021C1624FF4804101635A
:100400000021416381630161016201AA08A900F032
:10041000FBFD13B000BD000000100240000C0140C5
:10042000001401400018014000200140100000208D
:10043000040100A070B50446B3F5804F13D1D1E993
:10044000000540EA05108D6840EA05208D692843C3
:100450008D8940EA054054F82250064E3540284325
:1004600044F8220003E06FF0704044F822000020BE
:1004700070BD00000000F0CF70B50246086852F869
:10048000200020F001000E6842F826008868082845
:1004900001D1402300E00023486818438E683043B0
:1004A000CE6830430E6930434E693043CE693043E5
:1004B0000E6A30434E6A30438E6A3043CE6A304310
:1004C0000E6B40EA060488690443486B0443074DF9
:1004D00045F4806545F4E025086852F82000A843FB
:1004E00020430E6842F82600002070BD7FFB080004
:1004F00010B50346D1E9000440EA04108C6840EAD4
:1005000004208C8940EA0444088A401E44EA0054CE
:10051000087D801E44EA00608C692043541C53F817
:10052000244004F040442043541C43F8240000209D
:1005300010BD00002DE9F847024600239C467BE1F0
:100540004FF0010808FA03F4D1F8008008EA04002B
:10055000A0427DD1DFF8F4A2D1F80480A8EB0A090B
:10056000D0453AD014DCB8F1030F50D009DCB8F113
:10057000000F31D0B8F1010F1CD0B8F1020F49D1F2
:1005800020E0B8F1110F18D0B8F1120F42D11EE0DF
:10059000B9F5881F25D006DCB9F5803F20D0B9F524
:1005A000801F37D11AE0B9F5001F18D0B9F5041F24
:1005B00030D117E0D1F80CC02DE0D1F80C8008F153
:1005C000040C28E0D1F80C8008F1080C23E0D1F8E5
:1005D0000C8008F10C0C1EE000BF00BF00BF00BF84
:1005E00000BF00BFD1F80880B8F1000F02D14FF072
:1005F000040C0BE0D1F80880B8F1010F03D14FF0E3
:10060000080C146102E04FF0080C546103E04FF055
:10061000000C00E000BF00BFFF2801D8904601E0B9
:1006200002F104084646FF2802D84FEA830803E097
:10063000A3F108084FEA88084746D6F800804FF033
:100640000F0909FA07F928EA09080CFA07F900E086
:100650007AE048EA0908C6F80080D1F8048008F07A
:100660008058B8F1805F6FD100BFDFF8E481D8F81F
:10067000188048F00108DFF8D891C9F81880C846FA
:10068000D8F8188008F00108CDF8008000BF00BF3E
:100690004FEAB9384FEA930958F829504FEA83785E
:1006A0004FEA18794FF00F0808FA09F825EA08050B
:1006B000DFF8A081424502D14FF0000824E0DFF8C6
:1006C0009881424502D14FF001081DE0DFF88C818E
:1006D000424502D14FF0020816E0DFF8848142451E
:1006E00002D14FF003080FE0DFF87881424502D1D4
:1006F0004FF0040808E0DFF87081424502D14FF066
:10070000050801E04FF006084FEA83794FEA1979AE
:1007100008FA09F848EA0505DFF850814FEA93091D
:1007200048F82950D1F8048008F48018B8F5801FE3
:100730000BD1DFF83C81D8F8008048EA0008DFF8E8
:100740003091C9F800800AE075E0DFF82481D8F81C
:10075000008028EA0008DFF81891C9F80080D1F875
:10076000048008F40018B8F5001F0ED1DFF80081EE
:1007700008F10408D8F8008048EA0008DFF8F09093
:1007800009F10409C9F800800DE0DFF8E48008F100
:100790000408D8F8008028EA0008DFF8D49009F1AE
:1007A0000409C9F80080D1F8048008F40038B8F5CD
:1007B000003F0ED1DFF8B880A8F10408D8F8008017
:1007C00048EA0008DFF8A890A9F10409C9F80080F8
:1007D0000DE0DFF89C80A8F10408D8F8008028EA32
:1007E0000008DFF88C90A9F10409C9F80080D1F85D
:1007F000048008F48038B8F5803F0ED1DFF87080AF
:10080000A8F10808D8F8008048EA0008DFF86090EE
:10081000A9F10809C9F800800DE0DFF85480A8F1BB
:100820000808D8F8008028EA0008DFF84490A9F109
:100830000809C9F800805B1CD1F8008028FA03F889
:10084000B8F1000F7FF47CAEBDE8F887000011100E
:100850000010024000080140000C0140001001405F
:100860000014014000180140001C01400800014034
:10087000080401400AB1016101E00B040361704703
:1008800001480068704700000400002010B50848C7
:10089000006840F0100006490860032000F070F87E
:1008A0000F2000F007F800F02BF8002010BD00002A
:1008B0000020024070B504460E4800784FF47A716B
:1008C000B1FBF0F00C490968B1FBF0F5284600F0E7
:1008D000CFFB08B1012070BD102C07D200222146A9
:1008E000501E00F00EF80548046001E00120F2E718
:1008F0000020F0E70C00002000000020080000208D
:1009000070472DE9F05F80460D461646002700F03F
:10091000FFFE074639462A46334601F00700C0F17C
:10092000070ABAF1040F02D94FF0040A01E0C0F13E
:10093000070AD14600F1040ABAF1070F02D24FF0BC
:10094000000A01E0A0F1030AD4464FF0010A0AFAB6
:1009500009FAAAF1010A0AEA020A0AFA0CFA4FF0A5
:10096000010B0BFA0CFBABF1010B0BEA030B4AEA90
:100970000B042146404600F0D3FEBDE8F09F000086
:1009800000BF00F00702064B19684FF6FF0319403D
:10099000044B0B4343EA0221014B196000BF70472F
:1009A0000CED00E00000FA0570B504460D460CB9E8
:1009B000012070BD5A48006800F00700A8420ED21E
:1009C0005748006820F0070028435549086008464A
:1009D000006800F00700A84201D00120E9E7207874
:1009E00000F0020002281DD1207800F00400042845
:1009F00005D14C48406840F4E0604A49486020789E
:100A000000F00800082805D14648406840F46050CE
:100A1000444948604348406820F0F000A16808431A
:100A200040494860207800F0010078B360680128F0
:100A300006D13C48006800F4003090B90120B8E7C6
:100A40006068022806D13748006800F0007040B99D
:100A50000120AEE73348006800F0020008B9012029
:100A6000A7E73048406820F00300616808432D493B
:100A70004860FFF705FF064609E0FFF701FF801B0E
:100A800041F28831884202D9032092E707E02548E5
:100A9000406800F00C006168B0EB810FEDD1204898
:100AA000006800F00700A8420ED91D48006820F039
:100AB000070028431A4908600846006800F007004C
:100AC000A84201D0012074E7207800F00400042837
:100AD00007D11448406820F4E060E16808431149F8
:100AE0004860207800F00800082808D10D484068C8
:100AF00020F46050216940EAC1000A49486000F0D2
:100B000019F808494968C1F30311074A515CC84004
:100B10000649086006480068FFF7CCFE002048E759
:100B2000002002400010024082180008000000204F
:100B30000800002070B500210022002400230020BE
:100B4000134D696801F00C05F5B1042D02D0082D94
:100B500019D101E00F4819E00F4DC1F38346AB5D99
:100B600001F4803555B10A4D6D68C5F340450B4E13
:100B7000725D084D5D43B5FBF2F402E0084D03FBE6
:100B800005F4204602E000BF024800BF00BF70BD70
:100B90000010024000127A009A180008AA180008F3
:100BA00000093D00F8B504460CB90120F8BD2078D5
:100BB00000F00100002878D0F848406800F00C00F0
:100BC00004280CD0F548406800F00C00082811D12A
:100BD000F248406800F48030B0F5803F0AD1EF4819
:100BE000006800F4003000285FD0606800285CD105
:100BF0000120DBE700BF6068B0F5803F06D1E74821
:100C0000006840F48030E549086028E0606858B921
:100C1000E248006820F48030E04908600846006837
:100C200020F4802008601AE06068B0F5A02F0BD196
:100C3000DA48006840F48020D84908600846006817
:100C400040F4803008600AE0D448006820F4803026
:100C5000D24908600846006820F48020086000BF80
:100C6000606888B1FFF70CFE054606E0FFF708FE56
:100C7000401B642801D9032098E7C848006800F4A5
:100C800000300028F2D010E0FFF7FAFD054606E03C
:100C9000FFF7F6FD401B642801D9032086E7BF4813
:100CA000006800F400300028F2D1207800F0020043
:100CB000022857D1B948406800F00C0050B1B7483D
:100CC000406800F00C00082818D1B448406800F4CF
:100CD000803098B9B148006800F0020020B1206966
:100CE000012801D0012061E7AC48006820F0F8003D
:100CF000616940EAC100A949086033E02069E8B1B0
:100D00000120A7490860FFF7BBFD054606E0FFF795
:100D1000B7FD401B022801D9032047E79F48006820
:100D200000F002000028F2D09C48006820F0F80093
:100D3000616940EAC1009949086013E000209849C0
:100D40000860FFF79DFD054606E0FFF799FD401B93
:100D5000022801D9032029E79048006800F002002A
:100D60000028F2D1207800F0080008282DD1A069D1
:100D7000B8B101208B490860FFF782FD054606E007
:100D8000FFF77EFD401B022801D903200EE78348B0
:100D9000406A00F002000028F2D0012000F096FC2A
:100DA00013E000207F490860FFF76AFD054606E072
:100DB000FFF766FD401B022801D90320F6E67748BD
:100DC000406A00F002000028F2D1207800F0040010
:100DD000042873D100277148C06900F0805070B9B1
:100DE00000BF6E48C06940F080506C49C861084639
:100DF000C06900F08050009000BF00BF01276A4822
:100E0000006800F48070B0B96748006840F48070F2
:100E100065490860FFF734FD054606E0FFF730FD41
:100E2000401B642801D90320C0E65F48006800F435
:100E300080700028F2D000BFE068012806D1574832
:100E4000006A40F001005549086227E0E06858B99F
:100E50005248006A20F00100504908620846006AC2
:100E600020F00400086219E0E06805280BD14B4827
:100E7000006A40F00400494908620846006A40F0F0
:100E8000010008620AE04548006A20F00100434979
:100E900008620846006A20F00400086200BFE068AB
:100EA000A0B1FFF7EDFC054609E0FFF7E9FC401BA8
:100EB00041F28831884202D9032077E622E03748A0
:100EC000006A00F002000028EFD012E0FFF7D8FC23
:100ED000054608E0FFF7D4FC401B41F28831884208
:100EE00001D9032062E62D48006A00F002000028C4
:100EF000F0D1012F05D12948C06920F08050274941
:100F0000C86100BFE069C8B32448406800F00C0025
:100F1000082860D0E069022848D1002020490866EE
:100F2000FFF7AEFC054606E0FFF7AAFC401B0228CF
:100F300001D903203AE61948006800F00070002843
:100F4000F2D1206AB0F5803F07D11448406820F400
:100F50000030A168084311494860D4E908010843FA
:100F60000E49496821F4741108430C494860012076
:100F70000B490866FFF784FC054607E03DE0FFF7F4
:100F80007FFC401B022801D903200FE603480068BC
:100F900000F000700028F2D02FE0000000100240A6
:100FA0000000424280044242007000400020144988
:100FB0000866FFF765FC054606E0FFF761FC401B8D
:100FC000022801D90320F1E50E48006800F0007006
:100FD0000028F2D111E0E069012800D1E6E50948D6
:100FE000466806F48031206A814204D106F470110B
:100FF000606A814201D00120D8E50020D6E50000DA
:10100000000042420010024070B504460E461546EC
:101010001CB1A069B0F5807F01D1012070BD94F8AA
:10102000410028B9002084F84000204600F01FF855
:1010300004F108012068FFF71FFA3146A268206812
:10104000FFF756FA2946236BD4E90102FFF7F2F9BC
:10105000A168206850F8210040F00100A2682168D2
:1010600041F82200012084F841000020D6E77047B3
:1010700070B504462546681EB0F1807F01D301207B
:101080000FE0681E4FF0E02148610F214FF0FF3064
:1010900000F046FB00204FF0E02188610720086146
:1010A000002070BD00BFFEE730B504460A48008846
:1010B0000949498800FB01F50021084600F026FA9D
:1010C000054800890549088003E00448801C048025
:1010D0006D1E002DF9D130BD58000020FE07006CB8
:1010E0002DE9F84F07460D4690469946DDF828B0A1
:1010F000A8EB0700401C1FFA80FAA9EB0500401C72
:1011000080B20090002416E0281981B2384600F021
:10111000FDF90B49088900F0C9FA002607E004FB35
:101120000A613BF8110000F0C7FA701C86B2564500
:10113000F5DB601C84B200988442E5DBBDE8F88FE3
:101140005800002010B5044644B900200D498871AC
:10115000F02008804FF4A070488007E00120094982
:1011600088714FF4A0700880F02048802C20054939
:1011700008812A2048812B208881002000F034F942
:1011800010BD00005800002010B5FFF7A1F8322074
:1011900000F0DCFA42F27D4091498880CF2000F0D7
:1011A00085FA002000F088FAC12000F085FA30208E
:1011B00000F082FAED2000F079FA642000F07CFA69
:1011C000032000F079FA122000F076FA812000F076
:1011D00073FAE82000F06AFA852000F06DFA10201A
:1011E00000F06AFA7A2000F067FACB2000F05EFA8D
:1011F000392000F061FA2C2000F05EFA002000F0A7
:101200005BFA342000F058FA022000F055FAF7207B
:1012100000F04CFA202000F04FFAEA2000F046FAE5
:10122000002000F049FA002000F046FAC02000F04B
:101230003DFA1B2000F040FAC12000F037FA0120EF
:1012400000F03AFAC52000F031FA302000F034FA0C
:10125000302000F031FAC72000F028FAB72000F063
:101260002BFA362000F022FA482000F025FA3A2026
:1012700000F01CFA552000F01FFAB12000F016FA19
:10128000002000F019FA1A2000F016FAB62000F03B
:101290000DFA0A2000F010FAA22000F00DFAF22058
:1012A00000F004FA002000F007FA262000F0FEF912
:1012B000012000F001FAE02000F0F8F90F2000F022
:1012C000FBF92A2000F0F8F9282000F0F5F90820B1
:1012D00000F0F2F90E2000F0EFF9082000F0ECF930
:1012E000542000F0E9F9A92000F0E6F9432000F0CD
:1012F000E3F90A2000F0E0F90F2000F0DDF900200A
:1013000000F0DAF9002000F0D7F9002000F0D4F95D
:10131000002000F0D1F9E12000F0C8F9002000F031
:10132000CBF9152000F0C8F9172000F0C5F9072007
:1013300000F0C2F9112000F0BFF9062000F0BCF95E
:101340002B2000F0B9F9562000F0B6F93C2000F04F
:10135000B3F9052000F0B0F9102000F0ADF90F202E
:1013600000F0AAF93F2000F0A7F93F2000F0A4F90F
:101370000F2000F0A1F92B2000F098F9002000F0D8
:101380009BF9002000F098F9012000F095F93F202A
:1013900000F092F92A2000F089F9002000F08CF981
:1013A000002000F089F9002000F086F9EF2000F01D
:1013B00083F9112000F07AF9782000F0E5F929206E
:1013C00000F074F90020FFF7BDFE01221146054828
:1013D000FFF750FA4FF6FF70FFF766FE10BD0000F2
:1013E00058000020000C014030B5014600200023C9
:1013F000444CA479012C18D1082915D2DFE801F05A
:101400000406080A0C0E101206210DE007210BE05D
:10141000042109E0052107E0012105E0002103E0A6
:10142000032101E0022100BF00BF08291CD2DFE830
:1014300001F00406090C0F12151800BF14E040F06B
:10144000800011E040F040000EE040F0C0000BE0F2
:1014500040F0200008E040F0600005E040F0A0000F
:1014600002E040F0E00000BF00BF362340F008007B
:10147000254C2380A41C208000F020046CB1214C5A
:101480002488204D6D88AC4214DA1E4C2288648872
:101490001C4D2C802C4662800CE01A4C2488194D7F
:1014A0006D88AC4206DD174C22886488154D2C806F
:1014B0002C466280134C6489134D2C800024AD1C93
:1014C0002C802C800F4C2488641EC4F30F242C80A5
:1014D0000C4C2478641EE4B22C800A4CA489AD1E06
:1014E0002C800024AD1C2C802C80064C6488641E4B
:1014F000C4F30F242C80034CA478641EE4B22C8027
:1015000030BD000058000020FE07006C094A5289D7
:10151000094B1A8002129B1C1A80C2B21A80054A1B
:1015200092899B1E1A800A129B1C1A80CAB21A80CA
:101530007047000058000020FE07006CF0B505461B
:101540000C46134602F108075888998800FB01F6FB
:101550001D49488900F0AAF8281200F0ADF8284685
:1015600000F0AAF859882944491EC1F30F2000F061
:10157000A3F859882944491E88B200F09DF8124901
:10158000888900F093F8201200F096F8204600F0C9
:1015900093F899882144491EC1F30F2000F08CF87C
:1015A00099882144491E88B200F086F806490889C6
:1015B00000F07CF804E0388800F07EF8BF1C761E4E
:1015C000002EF8D1F0BD0000580000202DE9F043B6
:1015D00007460B4600249046B8F80250B8F804605D
:1015E0002806000C40EA25253006000C40EA262695
:1015F00005FB06F908322049488900F057F83812EF
:1016000000F05AF8384600F057F87919491EC1F32E
:101610000F2000F051F87919491E88B200F04CF8FB
:101620001549888900F042F8181200F045F818466C
:1016300000F042F89919491EC1F30F2000F03CF860
:101640009919491E88B200F037F80B49088900F053
:101650002DF80CE0012101EB4401515C12F814C09B
:1016600041EA0C2000F028F8641CA9F10109B9F145
:10167000000FEFD1BDE8F083580000202DE9F841BC
:1016800005460F461446264604F10808CDF80080AA
:10169000B0882844401E83B270882844401E82B21D
:1016A00039462846FFF71CFDBDE8F881014908804E
:1016B00070470000FE07006C014908807047000079
:1016C0000008006C00BFFEE77047000008B508493D
:1016D0000968C9084FF47A72B1FBF2F141430091F5
:1016E00000BF00BF00994A1E00920029F9D108BD31
:1016F00000000020704700204FF0E02108610846FC
:10170000006920F0040008617047704700BFFEE7E1
:1017100002480068C0F30220704700000CED00E0B2
:1017200010B5002804DB0A07130E054A135406E01F
:101730000A07140E034A00F00F031B1FD45410BDF8
:1017400000E400E018ED00E000BF7047FF214FF01B
:10175000E022916142F22831414351611146096909
:1017600041F00101116100BF4FF0E021096901F46E
:1017700080310029F8D04FF0E021096921F0010102
:101780004FF0E0221161704730B503460025B3F5F4
:10179000E96F03DC1846FFF7D9FF15E004E0A3F575
:1017A000E96083B2681C85B2B3F5E96FF7DA00240B
:1017B00005E04FF4E960FFF7C9FF601C84B2AC425A
:1017C000F7DB1846FFF7C2FF30BD0000FFF75EF8F9
:1017D0004FF4E01000F022F8FFF78DFFFFF7D4FC84
:1017E0000C4A00210846FFF7A9FE4FF4FA50FFF714
:1017F000CBFF094A00210846FFF7E8FE4FF4FA50F4
:10180000FFF7C2FF034A00210846FFF737FF00BF7A
:10181000FEE70000AC180008B438030830B58FB0FC
:1018200005460124282105A8FEF7F1FC142168468D
:10183000FEF7EDFC012005900004069000200790C3
:1018400002200C90C1030D910E9505A8FFF7AAF98F
:1018500004460CB100BFFEE70F200090022001906B
:10186000002002904FF48060039000200490022139
:101870006846FFF799F804460CB100BFFEE70FB0C9
:1018800030BD000000000000000001020304060754
:101890000809000000000102030402030405060712
:1018A00008090A0B0C0D0E0F101001020010F000B9
:1018B0004001011BB0ACB0ACB0B4D0B4F1B4F1B4E1
:1018C000F1B4F1B4F1B4F1BC11BD31BD31BD52C5BB
:1018D00052C572C572C572C552C572C572C552C5B0
:1018E00052C531BD52C552C552C552C531BD31BDBB
:1018F00011BD11BDF0B4F0B4F0B4F0B4D0B4D0B4B4
:10190000D0ACAFACAFACD0B48FAC6EA44EA44EA4F0
:101910004EA44EA44EA46FAC8FAC4EA44EA48FAC7C
:10192000AFB4AFB48FACD0B4F1BCF0BCF0BCF1BC80
:10193000AFB46EAC2EA4F0BCF0BCD0B4D0BCD0B46C
:101940006EAC4EA4EC9B8B936A934A8B298B498B8C
:10195000298B098309830983098309830983E87A29
:10196000E97AE97A29832A832A83298329832A83A6
:101970002A832A832A832A832A832A832A832A83FF
:101980004A834B8B8B8B8C8B8C8B6C8B6C8B6C8B8B
:101990006C8B4C836C8B4B838C8BCD93CD93EE9B5C
:1019A0000E9CCD93CD93ED93CE93CE93CE93CE93C9
:1019B000CE9BEE9B0E9C0E9C0EA40EA40EA42FA4F8
:1019C0002FA40FA40E9C0E9C0EA42FA44FA46FACAA
:1019D0006FAC6FAC4FAC4FAC4EAC6FAC6FB48FB460
:1019E0008FB48FB48FB48FB48FB48FB48FB4B0BCB6
:1019F000B0BCB0BC8FBC8FB4B0BCB0BCB0BCB0BCD1
:101A0000B0BCB0BC6FB46FB44FB44EB42EB46FBCA6
:101A100090BC8FBC6FBC8FBCB0BCB0BCD0BCD1C4C0
:101A2000F1C4F1C411C532C532CD52C552CD72CD0B
:101A300073CD93CD94CD94C594C594C595C5B5C5C6
:101A400095C5B5BD95BDB5BDD6C5F6C516C616C6F8
:101A5000F6C5F6C5F6C5F6C5F6C5F6C5F6C5F6C5AE
:101A6000F6C5F6C516C6F6C516CE16CE16CE16CED9
:101A7000F6CD17CE17CE37CE37CE37CE37CE37CEC0
:101A800037CE37CE37CE78D670940E8C2B6B78D677
:101A900016CE37CED0B4D0B4D0B4F1B4F1B4F1BCDA
:101AA00011BD11BD11BD31BD31BD52C552C572C58B
:101AB00072C593CD93CD72C572C572C572C572C51C
:101AC00052C531BD52C552C552C531BD31BD11BD22
:101AD00011BD11BD11B5F0B4F0B4F0B4F0B4F0B470
:101AE000F0B4D0B4D0B4D0B4AFB48FAC8FAC8FACB2
:101AF0006FAC6FAC8FACAFACB0B48FAC6FACB0B4FC
:101B0000B0B4B0B4B0B4F0BC11BDF0BCF0BCF0BC2B
:101B10008FAC4EA42EA4F0BCF0BCD0B4B0B4B0B422
:101B20006EAC4EA4EC9B8B936A934A8B2983298BD2
:101B3000298B098309830983E98209830983E87A68
:101B4000E87AE97A097B0983098309830983098390
:101B500009830983098309830A830A7B0A7B2A8311
:101B60002A834A836B836B8B4B834B834B834B83DF
:101B70004B834B834B832B836C8BAD93AD93CD9376
:101B8000ED93CD93CD93CD93CD93AD93AD93AD9395
:101B9000AD93CD93CE9BEE9BEE9BEE9BEE9BEE9B8F
:101BA000EE9BEE9BEE9BEE9BEE9B0E9C2EA42EA43A
:101BB0004FA44FA42EAC2EA42EA44EAC4FAC6FACB1
:101BC0006FAC6FAC6FB46FAC6FAC6FB46FB48FB4FD
:101BD00090BCB0BC8FB48FB490BCB0BCB0BCB0BC37
:101BE000B0BCB0BC8FB46FB44EB42EB42EB44FB4EE
:101BF0006FBC6FB46FB48FB490BCB0BCD0BCD0C459
:101C0000D1C4D1C4F1C411C532C532C552CD72CDD3
:101C100073CD93CD93CD94CD94C594C594C595C5FE
:101C2000B5C5B5BDB5C5D5C5D6C5F6C5F6C5F6C5E8
:101C3000F6C5F6C5F6C5F6C5F6C5F6C5F6C5F6C5CC
:101C4000F6C516C616C6F6C516C616C6F6C516CE0F
:101C5000F6CD17CE37CE37CE37CE37CE37CE37CEBE
:101C600037CE37CE37CE78D6D1A4CE834C7357D665
:101C700037CE37CED0B4F1B4F1B411BD11BD31BD02
:101C800032BD52C552C552C572C572C593CD93CDF2
:101C900093CDB3CDB3CD93CD93CD72C572C552C59F
:101CA00031BD31BD31BD31BD31BD31BD11BD11BD04
:101CB00011BDF0B411B5F0B4F0B4F0B4F0B4F0B4B8
:101CC000F0B4F0B4F0B4F0B4D0B4D0B4B0B4B0B4B4
:101CD000AFB48FACD0B4F0B4F0B4AFAC8FACD0B480
:101CE000D0B4D0B4D0B4F0BC11BDF0BCF0BCD0B412
:101CF0006EAC2EA44EA4F0BCF0BCD0B4B0B4B0B462
:101D00006FAC4EA4EC9B8B936A8B2A8B098329833F
:101D1000098309830983E982E882E87AC87AC87A64
:101D2000C87AC87AC87AE87AE97AE97AE97AE97AFF
:101D3000E97AE97AE97AE97AE97AE97AE97AE97A8B
:101D4000097B0A832A832A832B832A830B832B8391
:101D50002B832B830A7B0A7B4B838C8BAC8BAD93C1
:101D6000AD93AC8BAC8BAC8B8D8B8C8B8C8B8D8B30
:101D70008D93AD93AD93CD93CD93CD93CD93CD9BDB
:101D8000CD9BCD9BCD93CD93CD93CD9BEE9B0E9CC8
:101D90000EA42EA40DA40DA40DA40EA42EA42EA456
:101DA0002EA42EA42EAC2EAC4EAC4EAC4EAC6FB4CA
:101DB0006FB48FB46FB46FB48FB4B0BCB0BCB0BCF0
:101DC000B0BC90BC6FB44EB42EAC2EAC2EAC2EB4C6
:101DD0004EB42EB44EB46FB46FB490BCB0BCD0BC93
:101DE000D0BCD0C4D1C4F1C411C532C552CD72CD5E
:101DF00072CD93CD93CD94CDB4C594C5B4C5B5C5BE
:101E0000B5C5D5C5D6C5D6C5D6C5D5C5D5C5D5C51F
:101E1000F6C5F6C5F6C5F6C5F6C5F6C5F6C5F6C5EA
:101E2000F6C5F6C516C6F6C516C616C6F6C516CE4E
:101E300016CE37CE37CE37CE37CE37CE37CE37CE9B
:101E400037CE37CE37CE98DEF2A48D7B4B7316CECD
:101E500037CE37CEF1B4F1BC11BD32BD32BD52C563
:101E600052C572C572C572C572C593CD93CD93CD5F
:101E7000B3CDB3CDB3CD93CD93CD72C572C552C59D
:101E800031BD11BD31BD31BD31BD31BD11BDF0B46C
:101E9000F0B4F0B411B511B5F0B4F0B4F0B4F0B4DE
:101EA000F0B411B511BD11BDF0BCF0B4F0BCD0B4AC
:101EB000B0B4B0B4F0BCF1BCF0BCAFB4AFB4D0B40B
:101EC000D0B4D0B4D0B4D0B4F1BCF1BCF0BC8FACC1
:101ED0000D9CED9B4EA4F0BCF1BCF0BCB0B48FB433
:101EE0004EAC2EA4CC9B6B8B4A8B29830883098331
:101EF000098309830983E982C87AC87AC87AA772F4
:101F0000A872A872A872C872C87AC87AE87AE87A01
:101F1000E87AC87AC87AC87AC87AC87AC87AC87A91
:101F2000E97AE97A0A7B0A7B0A830A7B0A7B0A7BC5
:101F30000A7B0A7BEA7AEA7A2B836C8B6C8B8C8B1C
:101F40008C8B6C8B6C8B6C8B6C8B6C8B6C8B6C8BB9
:101F50008D8B8C8B8C938D93AD93AD93AD93AD9313
:101F6000AD93AD93AD93AD93AC93AD93CD93ED9B0A
:101F7000ED9BEE9BCD9BCD9BED9BED9B0DA40DA40E
:101F80000DA40DA40DA40DA42EA42EA42EAC2EAC35
:101F90004EAC4FB44EAC4EAC6FB48FB490BCB0BC32
:101FA000B0BC8FBC6FB42EAC0EAC0EAC0EAC0EAC95
:101FB0000EAC0EAC0EAC2EAC4EAC6FB48FBCB0BC45
:101FC000B0BCD0BCD0BCF1C4F1C411C552CD52CD0F
:101FD00072CD93CD93CD94CDB4CDB4C5B4C5B5C5B4
:101FE000B5C5B5C5D5C5D5C5B5C5D5BDD5BDD5C591
:101FF000D5C5F6C5F6C5F6C5F6C5F6C5F5C5F5C52C
:10200000F5C5F5C516C6F6C516CE16CE16CE16CE35
:1020100016CE37CE37CE37CE37CE37CE37CE37CEB9
:1020200037CE37CE57CEB9DE12AD8D7B2B6B16CEA9
:1020300057D657D611BD11BD31BD32C552C552C597
:1020400072C573C573C573CD93CD93CDB3CDB3CDE9
:10205000B3CDB3CD93CD93CD72C572C552C531BD4D
:1020600011BDF0B411BD31BD31BD11BD11BDF0B414
:1020700011BD11BD11B511B511B511B5F0B4F0B464
:1020800011BD11BD11BD11BDF1BCF0B4F1BCF0BC6E
:10209000D0B4D0B411BD11BDF0BCAFB4AFACD0B4AE
:1020A000D0B4B0B4B0B4D0B4F0BCF1BCD0B44EA491
:1020B000CC93CC934EA4D0B4D0B4D0B4AFB46FAC66
:1020C0002EA40DA4AB936A8B4A8B2983E9820983E2
:1020D00009830983E982E882C87AA87AA77AA77275
:1020E000A772877287728772A872A872C87AC87A34
:1020F000C87AC87AA872A872A872A872A872A872C0
:10210000C87AC87AC97AE97AE97AE97AEA7AEA7A17
:10211000EA7AEA7AEA7AEA7AEA7A2A834B834B8382
:102120004B834B834B834B834B834B834B834C833E
:102130006C8B6C8B6C8B6C8B6C8B6C8B6C8B6C8BE7
:102140008C8B6C8B6C8B6C8B6C8B6C8B8C93AC9347
:10215000CD9BCD9BCD9BCD9BCD9BCD9BCD9BED9B1F
:102160000DA40DA40DA40DA40DA40DA40DA40DA4E7
:102170000EAC2EAC2EAC0DAC2EAC6FB48FB4B0BC8C
:10218000B0BC8FBC6FB42EACEDABEDABEDA3CDA36B
:10219000CDA3EDA3EDAB0DAC2EAC4EAC6FB46FBCCC
:1021A00090BCB0BCB0BCD0BCF1C4F1C432C552CDFF
:1021B00052CD73CD93CD94CD94CDB4CDB4CDB5C522
:1021C000B5C5B5C5B5BDB5BDB5C5B5C5D5C5D5C50F
:1021D000D6BDF6C5F6C5F6C5F6C5F6C5F6C5F6C54F
:1021E000F6C5F6C5F6C5F6C516C616C616C616CE8B
:1021F000F6C516CE37CE37CE37CE37CE37CE37CE22
:1022000037CE37CE37CE98D653ADCD834B6B16CE67
:1022100037CE37CE31BD31BD32BD52C552C572C584
:1022200073C573CD93CD93CD93CD93CDB3CDB3CDB6
:1022300093CD93CD72C572C552C552C552C531BD3D
:1022400011BD11BDF0B411BD11BD11BDF0B4F0B49C
:1022500011BD11BD11B511B511B511B511B511B53E
:1022600011BD11BD11BD11BDF0BCF0B4F1BCF1BC8C
:10227000F0BCF0BC11BD11BDF1BCAFB4AFACD0B47B
:10228000D0B4B0B4B0B4D0B4F0BCD0B48FACED9B8B
:102290008B8BCC936FACD0B4B0B4B0B48FB46FAC04
:1022A0004EA40DA48B934A8B4A8B2983E982E98241
:1022B000E982E982C87AC87AC87AA7728772877277
:1022C00087728772666A666A877287728772877298
:1022D0008772877287728772877287728772A87215
:1022E000A872A872A872C87AC97AC97AC97AE97A32
:1022F000E97AC97AEA7AC972C972EA7A0A7B2A7BD0
:102300002A7B2A834B834B832B832B832B832B8327
:102310002B832B832B832B834B834B834B834B8BC5
:102320004B8B4B8B4B8B4B8B4B8B4B8B6B8B6C8BBC
:102330008C93AD93AC93AC93AC93AC93AC9BCC9B94
:10234000ED9BEDA3EDA3EDA3EDA3EDA3EDA3EDA315
:10235000EDA30DA40DA4EDA3EDA32EAC4FB48FB44B
:102360008FB46FB44EB40DACEDA3CDA3AC9B8C9BDE
:102370008C9B8C9BCCA3EDA30DA42EAC2EB44FB4A0
:102380008FB490BCB0BCB0BCD0BCD1C4F1C432C519
:1023900032CD72CD93CD93CD94CDB4CDB4CDB4CD5B
:1023A000B5C595C5B5C5B5C5B5C5D5C5D6C5D6C51B
:1023B000F6C5F6C5F6C5F6C5F6C5F6C516C616C603
:1023C00016C616C616C6F6C516C616C616C616C64E
:1023D00016CE37CE37CE37CE37CE37CE37CE37CEF6
:1023E00037CE37CE37CE57D674B5AD7B4B6BB5BD38
:1023F00037CE17CE32BD32BD52C552C573C573CD6F
:1024000093CD93CD93CD93CD93CD93CD93CD93CDCC
:1024100093CD72C552C552C531BD31BD31BD31BD3F
:1024200011BDF0B4D0B4F0B4F0B4F0B4F0B4F0B482
:10243000F0B4F0B4F0B4F0B4F0B4F0B4F0B411B55A
:1024400011BD11BD11BD11BDF0B4F0B4F1BCF1BCB2
:10245000F0BC11BD11BD11BDF1BCAFB4AFACD0B477
:10246000D0B4D0B4AFB4B0B4D0B48FAC2DA48B8BF7
:102470006A8B0D9C8FACB0B4AFB4B0B48FB48FACDA
:102480004EAC2EA4AB934A8B2A8B0983C87AC87AA8
:10249000E87AE982C87AC87AA77A8772677267721F
:1024A0006672466A466A466A466A666A676A676A22
:1024B000676A676A676A676A676A676A676A87726C
:1024C000877287728772A872A872A872A872A9729E
:1024D000C972C972C972C972C972C972E97AEA7AD3
:1024E000EA7A0A7B2A7B0A7B0A7B0A7B0A7B0A7BC5
:1024F0000A7B0A7B0A7B0A7B0A830A830B832B8372
:102500002B832B832B832B832B832B832B834B8B33
:102510006B8B6C8B8C938C938C938C938C93AC93F4
:10252000CC9BCC9BED9BED9BED9BED9BEDA3EDA39D
:10253000CDA3CDA3CDA3AC9B8C9BCC9B0DA42EACEB
:102540004EB44EAC2EACEDA3CCA38C9B6B934B93B3
:102550004B934B936B938C9BCC9BEDA30DAC2EAC10
:102560004EB46FB46FB490BCB0BCB0BCD1C4F1C4B5
:1025700011C532C572CD73CD93CDB4CDB4CDB4CD2C
:10258000B4C5B5C5B5C5B5C5B5C5D5C5D6C5D6C51A
:10259000F6C5F6C5F6C5F6C5F6C5F6C5F6C5F6C563
:1025A000F6C5F6C516C6F6C516C616C616C616CEA6
:1025B00016C637CE17C617C637CE37CE37CE37CE6C
:1025C00037CE37CE37CE37CEB5BD8D7B0B6B54B5FE
:1025D00057D637CE52C552C552C573C593CD93CD8C
:1025E00093CD93CD93CD93CD93CD93CD93CD93CDEB
:1025F00072C552C552C531BD31BD31BD11BD11BD10
:10260000F0B4D0B4D0B4D0B4D0B4D0B4D0B4F0B46A
:10261000F0B4F0B4F0B4F0B4D0B4D0B4F0B411B5B8
:1026200011BD11BD11BD11BDF0B4F0B4F0BCF0BCD2
:10263000F0BC11BDF1BC11BDF1BCAFB4AFACD0B4B6
:10264000D0B4D0B48FACAFB48FAC4EA4EC9B4A8363
:102650006A8B4EA48FACAFB48FACB0B48FB48FB4D0
:102660006EAC2EA4CC9B4A8B298BE982A87AC87ABF
:10267000E87A0983E882C87AA77A6772466A666A46
:10268000466A466A466A266A2662466A466A466A12
:10269000466A666A466A466A666A666A666A666A1A
:1026A000676A676A676A67728772877288728872F8
:1026B000A872A872A972A972A872A872C972C97206
:1026C000C972E9720A7BEA7AEA72EA72EA7AEA7A0B
:1026D000EA7AEA7AC97AEA7AEA7AEA7AEA7A0A7BDA
:1026E0000A7B0A7B0A830A830A830A830A830A8392
:1026F0002B834B8B6B8B6B8B6B8B6B8B6B8B8C9369
:102700008C93AC93AC9BAC9BAC9BCC9BCC9BCC9B61
:10271000AC9BAC9BAC9B6B934A936B93AC9BEDA334
:102720000EAC0DA40DACEDA3AC9B6B932A932A8B3E
:102730002A934A932A936B93AC9BCC9BCDA3EDA396
:102740000EAC2EAC4FB46FB48FB490BCD0BCD0BC28
:10275000F1C411C532C552C593CDB4CDB4D5B4CDF5
:10276000B5CDB5CDB5C5B5C5B5C5B5C5D5C5D6C548
:10277000F6C5F6C5F6C5F6C5F6C5F6C5F6C5F6C581
:10278000F6C5F6C5F6C5F6C516C616C616C616CEE5
:1027900016C616CE17C617C617C637CE37CE37CED3
:1027A00037CE57CE37CE57CEF6C5CD830B6B54B54B
:1027B00058D637CE72C572C593CD93CD93CD93CDF8
:1027C000B3CD93CD93CD93CD72C572C572C572C58D
:1027D00052C531BD31BD11BD11BD11BDF0B4F0B454
:1027E000D0B4D0B4AFACAFACAFACD0B4D0B4D0B444
:1027F000D0B4D0B4F0B4D0ACAFACAFACD0B4D0B4F3
:10280000F0B4F0B4F0BCF0B4D0B4D0B4D0B4D0B420
:10281000F0B4F0B4F0B4F0B4F1BC8FAC8FACF0B461
:10282000D0B4D0B48FAC8FAC6EAC0D9C8B8B2983A5
:10283000CC934EA46FAC8FACAFB4AFB4AFB4AFB465
:102840008FAC4EACCC9B8B934A8BE97A8772A77284
:10285000E87AE882E882C87AA77A6672466A466AA7
:10286000466A256A2562256205622562266226621D
:102870002662266226622662266226622662266218
:10288000466A466A466A466A466A466A676A676A86
:10289000876A886AA872886A876A876A886AA86A63
:1028A000A972C972C972C972A972A972A972A972F0
:1028B000A872A872A972A972A972A972C972C97202
:1028C000C972EA7AEA7AEA7AEA7A0A830A830A8396
:1028D0000A832B834B8B4B8B6B8B6B8B6B8B6B8B39
:1028E0006B938B938B93AC93AC93AC938C9BAC9B83
:1028F000AC9BCC9BCC9B2A8BE98209836B93CC9BB2
:10290000EDA3EDA3CDA3AC9B6B930A8BE982E98287
:10291000E98A098B098B2A8B6B938B9BAC9BACA3AD
:10292000EDA30DAC2EAC4EAC6FB48FBCB0BCB0BC44
:10293000D1C4F1C411C552C573CD73CD94CDB4CDFE
:10294000B5CDD5CDB5C5D5CDD5C5D5C5D5C5D5BDE7
:10295000F6C5D6C5D6C5D5C5D5C5F6C5D5C5D5C563
:10296000F6C5F6C5F6C5F6C5F6C516CE16CE16CE14
:10297000F6C537CE37CE16C616C637CEF6C517C63D
:1029800037CE37CE37CE57D616C6CA62CD830F8C18
:102990004F8C0E8C72C572C572C593CD93CD93CDFD
:1029A00093CD93CD72C572C552C552C552C552C59D
:1029B00031BD11BDF0B4F0B4F0B4F0B4D0B4D0B4C3
:1029C000AFACAFAC8FAC8FACAFACAFACD0B4D0B41D
:1029D000D0B4D0B4D0ACAFAC8FAC8FACAFACD0B4C3
:1029E000D0B4F0B4D0B4D0B4D0B4B0B4B0B4B0B407
:1029F000D0B4D0B4D0B4D0B4D0B48FAC8FACD0B449
:102A0000D0B4CFB48FAC6EAC4EA4CC934A834A837F
:102A10000D9C4EA44EA48FACAFB4AFB4AFB4AFB462
:102A20008FB46EAC0DA4CC9B6B8B0983A77A877295
:102A3000C77AC87AE882E882A87A6772466A256A05
:102A4000256A2562056205620562056225622562C6
:102A5000266226622562256225622562256226623B
:102A6000266226622662266226624662466A476AB5
:102A7000676A676A886A876A676A676A676A886A6C
:102A8000886AA86AA872A86A886A886A886A886A4E
:102A9000886A886A886A887288728872897288727D
:102AA000A972C972CA7AC97ACA7AE97AE97AEA7ADB
:102AB000EA7A0A832A832A834B8B4B8B4A8B4A8B75
:102AC0004A8B6B8B8B938B938B938B936B938B93A7
:102AD0008B9BAC9B8B93E982877AA87A098B6B934B
:102AE0008C9B8C9B8B9B4B930A8BC882A87AA87A71
:102AF000A882C882C982E9822A8B6B936B938B9BD5
:102B0000AC9BCDA30DA42EAC4EAC6FB48FB4B0BCB7
:102B1000B0BCD0BC11C532C553C573CD94CDB4CDB6
:102B2000B4CDD5CDD5CDB5CDB4C5B5C5B5C5B5BD7F
:102B3000D5C5D6C5D5C5D6C5D5C5D5BDF6C5F6C589
:102B4000D5C5D5C5F6C516C6F6C5F6C5F6C5F6C5CE
:102B5000D6C516C6F6C516C617C616C616C6D6BD3F
:102B600074B5F2A4B19C2F8CAD7BCE83AD7BEE838C
:102B7000AD7BCD8372C572C572C572C572C593CD6A
:102B800093CD72C552C552C552C531BD31BD11BDBF
:102B900011BDF0B4F0B4D0B4D0B4D0B4D0B4AFACB4
:102BA000AFAC8FAC8FAC8FAC8FACAFACAFACAFACCD
:102BB000AFACAFACAFAC8FAC6EA46EA46EAC8FAC50
:102BC0008FACAFAC8FAC8FAC8FAC8FAC8FAC8FAC0D
:102BD0008FACAFACAFB4AFB4AFB46EA46EACD0B486
:102BE000AFB4AFB48FAC6EAC2DA48B8B097BAB9321
:102BF0002DA44EA44EA46FACAFB4AFB4AFB4B0B478
:102C00008FB48FAC4EAC0DA4AB932983C87A877276
:102C100087728772C87AC87AA77A8772666A256AC5
:102C2000256225620562056205620562056205622C
:102C3000056205620562056205620562056205625C
:102C400005620562256205620562266226622662C9
:102C5000266246624762476247624762476247624E
:102C60004762676A686A686A676A676A686A686A00
:102C7000886A686A686A886A886A686A686A686A64
:102C8000886AA972C97AC97AC97AC97AC97AC97AA5
:102C9000C97AE97AE9820A830A832A832A832A8302
:102CA0004A8B4A8B4A8B4A8B4A8B4A8B4A8B4A8B7C
:102CB0006B936B936B93C88267726772A882098B60
:102CC0002A934A932A8BE98AA882677A47726772A5
:102CD000677A887AA87AC882098B2A8B4A934A93A2
:102CE0006B93AC9BEDA3EDA30DA42EAC4EAC6FB4D7
:102CF00090BCB0BCF1BC32C552C572CD73CD94CD81
:102D0000B4CDB4D5D5D5D5CDB5CDD5CDB5C594BD7E
:102D1000B5BDB5C5B5C5D6C5D5C5D5C5F6CDF6CDF8
:102D200016C637CEF6C5F6C516C637CE57D6F6CD7B
:102D300094BD33AD70940F846C73CA5A0A632B6BC5
:102D40006C738D738D7B8D7BAD7BAD7BEE838D7BCB
:102D50006C73B2A472C572C572C572C572C572C5F4
:102D600072C572C552C552C531BD31BD11BD11BD4F
:102D7000F0B4F0B4F0B4D0B4D0B4D0B4AFACAFAC25
:102D8000AFAC8FAC8FAC8FAC8FAC8FACAFACAFAC0B
:102D9000AFACAFAC8FAC6EA44EA44EA44EA44EA468
:102DA0004EA44EA46EA46EA46EA44EA44EA44EA433
:102DB0006EA46FAC8FAC8FAC8EAC4EA44EA48FAC17
:102DC0008FAC6EAC6EA46EA40D9C6A8B097BEC9BE1
:102DD0002DA44EA46EAC8FACB0B4B0B4B0B4B0B44B
:102DE000AFB48FAC4EAC0DA4CC9B6A8BE882A77AB3
:102DF0008672667287728772A772A7726672456A58
:102E00002562256A056205620562E561E559E559B5
:102E1000E559E559E559E559E559E5590562056270
:102E20000562056205620562056226622662266207
:102E30002662266226622662266226622662266252
:102E4000276227624762476247624762676A686A29
:102E5000886A886A686A886A886A686A686A686A62
:102E6000886AA972A972A972A972A872A97AA87AA5
:102E7000A87AC87AC97AC97AE97A098309832A8340
:102E80002A832A832A8B2A8B2A8B2A8B2A8B2A8BAA
:102E90002A8B2A8B4A8BA87A466A4672877AA8823E
:102EA000E982E982C882887A47722672267226727F
:102EB0004772677A877AA882E9820A8B0A8B0A8B23
:102EC0004A8B6B93CC9BCC9BEDA30DA42EAC4FB443
:102ED0008FB4B0BCD1BC11C532C552CD73CD93CD2A
:102EE00094CDB4D5B4CDD5CDD5CDD5CDD5CDB5C575
:102EF000D5C5B5C5D6C5F6CD17CE17CE37CEF6CDCE
:102F000074B513AD90940E8C6C73895A2752E641B8
:102F1000E64106426852A95AEA620B636C734B6B36
:102F20000B6B0B6B2B6B6C73AD7BEE838D7BAD7B77
:102F30001BEF99DE72C572C572C572C572C572C5C6
:102F400072C552C552C531BD31BD11BD11BD11BDD6
:102F5000F0B4F0B4F0B4D0B4D0B4AFACAFACAFAC6C
:102F60008FAC8FAC8FAC8FAC8FAC8FAC8FAC8FAC89
:102F70008FAC8FAC6EA44EA42EA42DA42DA42DA492
:102F80002DA42DA42DA42DA42DA40D9C0D9C0D9C31
:102F90002DA44EA44EA44EA44EA42D9C2DA46EA4EC
:102FA0006EA44EA42DA44EA4CC9329836A8B0D9CB1
:102FB0002DA42DA48FAC8FACB0B4B0B4B0B4B0B469
:102FC000AFB48FAC4EAC2DA4CC9B8A93498BE87ADE
:102FD0008672666A666A67728772A7728672466AC6
:102FE000256225620462046205620462E459E459C0
:102FF000E559E559E559E559E559E559E5590562B8
:10300000E561E56105620562056226622662266267
:1030100026622662266226620662066226622662B0
:10302000276227622762276247624762476A676AA8
:10303000686A686A686A886A886A686A686A686AC0
:103040008872A972A972A972A872A872A872A872CD
:10305000A872A872A872A872C87AC87AE97AE97ABE
:103060000983098309830983098309830983098300
:1030700009830A8B09836772E569056A467267727C
:10308000677A677A26720672E569E569E569066A14
:1030900026724772677AA87AC982E982E98209832F
:1030A0002A8B4A8B8C9BAC9BCC9BEDA30DA42EACA6
:1030B0006FB4B0B4D0BCF1BC11C532C573CD73CD03
:1030C00093CDB4CDD5D5D5D5B4CDB4CDB4CDB4C5CF
:1030D00094C553BDB1A4EF8B4C73895A074A074A74
:1030E000E749C641074A2852685248524852074A9F
:1030F000074A074A274A8852CA628D7B709433ADCB
:1031000095BD17C637CE99DEF6C58D7B8D7B2C73AA
:1031100038D617CE72C572C572C572C552C552C5B2
:1031200052C552C531BD31BD31BD11BD11BD11BD3D
:10313000F0B4F0B4D0B4D0B4AFACAFACAFACAFACD3
:103140008FAC8FAC6EA46EA46EA46EA48FAC8FAC4B
:103150008FAC6EA44EA42EA42D9C2D9C0D9C0D9C7A
:103160000D9C0D9C0D9C0D9CED9BEC9BCC93CC93EE
:10317000ED9B0D9C2D9C2D9C2D9C0D9C0D9C4DA480
:103180004DA42DA40D9C0D9C6A8B087BAB930D9CCC
:103190002DA46EAC8FACAFACB0B4B0B4B0B4AFB41F
:1031A0008FB48EAC4EAC2DA4EC9BAB936A93298369
:1031B000A77A6672666A466A666A66726672466A66
:1031C000256A25620462046205620462E559E459D5
:1031D000E559E559E559E559E559E559E559E559FF
:1031E000E561E561E559E559055A05622562055A2B
:1031F000065A065A26620662065A065A065A266277
:103200002662266227624762476247624762676AB0
:10321000686A686A686A886A686A686A686A686AFE
:10322000686AA872A872A872A872A872A872A87216
:10323000A8728772A772A772A872A872C87AC87A91
:10324000C87AC87AC87AC87AE97AE97AC982E982FA
:10325000E982E982E982466AC561E561066A266A11
:10326000266A066AC561A461A461A461C561E569B5
:10327000266A47726772877AA87AA882C882E9822A
:103280002A8B4A8B6B938B93AC9BCC9BEDA30EACA0
:103290004EAC8FB4B0BCF1BC11BD32C552CD52CDD5
:1032A00073CD93CD94D5D5D5D5D5F5D5B5CD32B58E
:1032B0004F9C6C7B895AC641074A685A2852074A74
:1032C000C641E641E7494852A95A2B6BEE8BB19CA7
:1032D00054B5D5C558CEB9DEDADEB9DE37CE37CE35
:1032E00017CE58D637CE37CE78D60B6BCE830B6B36
:1032F00078D658D652C572C552C551C551C551C5AB
:1033000031BD31BD31BD11BD11BD11BD11BDF0B417
:10331000F0B4D0B4D0B4D0B4AFACAFACAFACAFAC11
:10332000AFAC8FAC6EA46EA46EA46EA46EA46EA49B
:103330006EA44EA42EA42D9C0D9C0D9CED9BEC9B8D
:10334000CC9BCC9BCC9BCC9BCC93AB93AB93AB93C8
:10335000AC93CC93EC93EC9BEC9BEC9BEC9B0D9C8B
:103360000D9C0D9CEC93AB8B097B097BEC932DA4FE
:103370006EA48FACAFB4B0B4D0B4D0B4D0B4AFB44A
:103380008FB48EAC4EAC4DAC0C9CCB9BAB9B698B85
:10339000E882A77A8672666A256A256A456A456A5E
:1033A000456A256A0462046205620462055AE459AA
:1033B000E559E559E559E559E559E559E459E4591F
:1033C000E559E559E559E559E5590562055A055AA2
:1033D000055A055A065A0662065A065A065A065AE7
:1033E000065A065A07622762476247624762676A5F
:1033F000686A686A686A686A686A686A686A686A3D
:10340000686A887288728872887288728872887214
:1034100087728772877287728772A772A772A77284
:10342000A772A772A77AA87AA87AA87AA87AA87A9F
:10343000A87AA87AC87A056A83598459A461C561B3
:10344000A461A461845984598459A461C561E56962
:10345000067247726772677A877A887AA87AE982F1
:103460002A8B4A8B4B934B936B93AC9BCDA3EDA3D1
:103470002EAC4EACB0B4D0BCF1BC12C532CD52CDE6
:1034800052CD93CD94D5B4D5B4D5D5D5F5D594C575
:1034900032B5B0A4AD838A62695AEB6A6D7B308C19
:1034A000F2A4B6BD37CE79DE99DE78D637CE17CE08
:1034B00017CE37CE17CE17CE17C617C617CE37CEB4
:1034C00037CEF6C517CE17CE78D60B6BEE832B6BA7
:1034D00017CE37CE52C552C551C551C531BD31BDCC
:1034E00031BD31BD11BD11BD11BDF0B411BDF0B480
:1034F000F0B4D0B4D0B4AFACAFAC8FAC8FACAFAC99
:10350000AFAC8FAC6EA46EA46EA46EA46EA46EA4B9
:103510004EA42D9C2D9C0D9CEC93EC93CC93CC93C2
:10352000AC93CC93AB938B938B8B6B8B6A8B6A8BAB
:103530006B8B8B8BAB93CC93CC93CC93CC93EC9346
:10354000EC93CC93AB934A83E8724A830D9C4EA4D0
:103550008FACAFB4D0B4D0B4D0B4D0B4D0B4D0B4B5
:10356000AFB48EAC6EAC4DAC0CA4EC9BEC9BAA93B0
:1035700029830883A772666A256204620562256A48
:10358000256A25620462046205620462E459E45912
:10359000E559E559E559E559E559E459C459C4597E
:1035A000C459E559C459E559E55905620562055AFA
:1035B000055A055A065A065A065A065A065A065A0D
:1035C000065A065A065A2662276227624762476AE7
:1035D000676A676A476A686A686A676A686A476AA0
:1035E000676A887288728872877287728772877238
:1035F0008772677267726772877287728772877263
:1036000087728772877287728772A77A887A887AB8
:10361000887AA87A6772A4590249024943514351F2
:1036200043514351645963598459A461C561C569C3
:10363000066A46726772677267726772A87AE98271
:103640002A8B4A8B4A8B4A8B6B938C9BCC9BEDA32A
:103650000DA42EACB0B4D0BCF1BC11C532C532CD76
:1036600052CD73CD93D5B4D5B4D5D5D5F5D5D4CD6C
:10367000D5CDB4C5D6CD17D699DE58D617CE17CE30
:10368000F6C517CEF6C5F6CDD6C5F6C5D6C5F7CD67
:10369000F6C5F6C517CEF6C517CE17CE17CE17C688
:1036A00037CE17CE17CEF6C5B9DE6C73AE7BEB62A4
:1036B000F7CD58D631BD31BD31BD31BD31BD11BDA4
:1036C00011BD11BD11BD11BDF0B4F0B4F0B4F0B432
:1036D000F0B4F0B4D0B4D0B4AFACAFACAFACAFAC2E
:1036E0008FAC8FAC8FAC8FAC6EA46EA46EA44EA4C6
:1036F0002D9C0D9C0C9CEC9BEC9BCC93CC93CB9386
:10370000AB93AB938B8B6A8B2983097B29832A83A9
:103710004A836B8B8B8BAB938B8B6B8B8B8BAB9332
:103720008B8B6B8B4A83C872097BCC932DA46EACB8
:103730008FACD0B4D0B4F0BCF0BCB0B4AFB4AFB4C4
:103740008FAC6EAC6EAC6EAC2DA42DA40CA4EC9B17
:10375000AB934983087BA772666A25620462E461C1
:10376000046204620462046205620562E461E45971
:10377000E459E461C459C459A459A459A459A45999
:10378000A459C459E561E559E559055A055A055A40
:10379000055A055A055A065A065A065A265A2662E4
:1037A00026622662266226622662266226624662B9
:1037B000466246624662476A476A676A476A476A7C
:1037C000476A676A676A676A666A666A466A466AD5
:1037D0004672466A6772477267726772677267728B
:1037E00067726772677266726772877287726772D2
:1037F000677287720662E2388130E240E240C1407F
:103800000249225123518459A461A461C569E56923
:10381000066A26724672466A4772877AE9820A8B7E
:103820002A8B2A8B2A8B2A8B4A8B6B93AC9BCDA33A
:103830000DA44EACB0BCD1BCF1C412C552CD52CD1A
:1038400052CD53CD73CD73D593D5B4D5D4D5D4D56E
:10385000D4CDB4CD94C595C5B5C5D5C5F6C5F6BD11
:10386000F6C5F6C516C6F6C5F6C5F6C5F6C5F6C55F
:10387000F6C5F6C516C616C616CE16CE16CE16CE8A
:1038800017CEF7CD17CE37CE99DEAE83AE7B2C6B3D
:10389000F6C537CE31BD31BD31BD31BD31BD11BDF4
:1038A00011BD11BD11BD11BDF0B4F0B4F0B4F0B450
:1038B000F0B4F0B4D0B4D0B4AFACAFACAFACAFAC4C
:1038C0008FAC8FAC8FAC8FAC6EA46EA46EA44EA4E4
:1038D0002D9C0D9CEC9BEC9BCB93CB93AB93AB9330
:1038E0008A8B8A8B6A8B4983097BE87AE97A097B20
:1038F00029832A834A834A834A832A832A834A83E1
:103900002A83097BE87AC8726A8B0D9C4EA48FAC1F
:10391000AFB4D0B4F0BCF1BCF0BCD0B4AFB48FAC99
:103920008FAC6EAC8FAC8FAC6EAC6EA44DA42DA4DE
:10393000EC9BAA8B498B087BA772666A256204629E
:10394000E461E461C359C359C459E459C459C45921
:10395000C459C459C459C459A459A459A459A459FF
:10396000A459C459C459C459E459E559055A055ACA
:10397000055A055A055A255A265A265A065A265ACB
:1039800026622662266226622662266246624662B7
:1039900046624662466A466A466A476A476A276AD4
:1039A000266A466A666A666A666A666A466A47722E
:1039B000477247726772677267726772677267727F
:1039C0008772677267726772667266726772677211
:1039D000466A266A44496028402881308138A138E7
:1039E000E240024943516459A461C561C569E56972
:1039F00026724672266A266A6772A87AE9822A8B3C
:103A00002A932A8B2A8B2A8B4A8B8B93CC9BEDA3F0
:103A10002EA44EAC90B4D0BCF1C412C552CD52CD40
:103A200032CD52CD53CD73CD73D593D5B4D5D4D536
:103A3000D4CDB4CD94CD94C5B5C5D5C5F6C5F6BD28
:103A4000F6BDF6C5F5C5F5C5F6C516C616C616C645
:103A5000F6CDF7CDF6C5F6C516C616C616CEF6CD0A
:103A6000F7CDF7CD17CE17CE78DE0F8CAE7BEB629D
:103A700095BD58D631BD31BD31BD31BD11BD11BD72
:103A800011BD11BD11BD11BDF0B411BD11BD11BDF0
:103A9000F0B4F0B4D0B4D0B4AFACAFACAFACAFAC6A
:103AA0008FAC8FAC8FAC6EA46EA46EA44EA44EA44B
:103AB0000D9CEC93EC9BEC93CC93AB8B8B8B8A8B18
:103AC0006A834A834983097BE872C872C872E872C4
:103AD000E97AE97A097B097BE97AE87AE87AE97A8E
:103AE000E97AC872A8722983CC932DA46EACAFB4C6
:103AF000D0B4F0BCF0BCF1BCF1BCD0B4AFB48FAC6E
:103B00008FAC6FACAFB4AFB4AFB4AFB4AFB46EAC56
:103B10004DA4EC9BAB93498B0883C772666A256200
:103B2000E461C359A351A351A351A351A351A3517C
:103B3000A459C459C459C459C459A459A459A4591D
:103B4000A459C459C459C459C459E559E559E5594A
:103B5000E559055A055A055A06620662065A065A7A
:103B600026622662266226622662266226624662F5
:103B70004662466225622562266A266A266A266AA7
:103B8000266A466A666A666A666A466A466A466A75
:103B900047724772477247724772677267726772FD
:103BA0006772677247724772466A466A476A466A30
:103BB000E559845181300020202060286030803019
:103BC000A138C140025123516359A461C561E5691F
:103BD0002672266A266A46728772C87A0A8B4A8BD0
:103BE0004A8B2A8B2A8B4A8B4A8B8B93CC9BEDA3D7
:103BF0000EAC4EAC90B4D0BCF1C432CD52CD52CD4F
:103C000032CD52CD52CD73CD73D593D593D5B4D596
:103C1000B3CDB3CD94CD94C5B4C5D5C5F6BDF6BD71
:103C2000F6BDF6BDF6C5F6C5F6C5F6C5F6C5F6C5CC
:103C3000D6C5D6C5F6C516C616C616C616C616CE3F
:103C400017CE17CE37CE17CE78D630948E7B0C6B2E
:103C500095BD37CE31BD31BD31BD11BD11BD11BDD9
:103C600011BD11BD11BD11BD11BD11BD11BD11BDE4
:103C700011BDF0B4D0B4D0B4AFACAFACAFACAFAC5E
:103C80008FAC8FAC6EA46EA46EA44EA44EA42D9CDB
:103C90000D9CEC93EC9BEC93CB93AB8B8A8B6A8360
:103CA0004A834983097BE872A772876AA76AA77269
:103CB000A872C872C872C872876A876AA872A87226
:103CC000876A876AC8728B8B0D9C4EA46EAC8FACD2
:103CD000B0B4D0B4D0B4F0BCF0BCD0B4AFB4AFB4D6
:103CE000AFB4AFB4AFB4D0B4D0B4F0BCD0B4AFB410
:103CF0006EAC2DA4EC9BAB93498B0883A77A666AC4
:103D00000562E461A3518251625162516351635172
:103D10008351A459C459C559E559C559C459A45921
:103D2000C459C459C459C459C559E559E559E55947
:103D3000E559E559055A055A065A065A065A0662C1
:103D40002662266225622562256226622662266236
:103D50004662266225622562056205620662266267
:103D6000266A466A466A466A466A466A466A466AF3
:103D7000476A476A4772466A477247724772677274
:103D80006772476A466A466A266A26620662C559AB
:103D90004349C238202820204028603060308138D4
:103DA000A140C140E248225123516359C561066ACE
:103DB0002672467246726772A87AE9822A8B4B9302
:103DC0004A8B2A8B4A8B4A8B4A8B6B93AC9BEDA315
:103DD0000DA44EAC90B4D0BCF1C432C552CD52CD7E
:103DE00032CD52CD52CD53CD73D573D593D593CD1E
:103DF000B3CD93CD73CD74C594C5B4BDD5BDF6BD5B
:103E0000F6BDF5BDF6C5F6C5D5BDD5BDD5BDF6C566
:103E1000D6C5D6C516C616C616CE16CE16CE16CE24
:103E200017CE17CE17CE16CEB9DE919C2C73EB6A47
:103E3000B5BD37CE31BD11BD11BD11BD11BD11BD17
:103E400011BD31BD31BD31BD31BD11BD11BD11BD82
:103E5000F0B4F0B4D0B4AFACAFACAFACAFACAFACCF
:103E60008FAC8FAC6EA46EA44EA44EA44EA42D9C19
:103E70000D9CEC93EC93EC93AB8B8B8B6A836A83F6
:103E80004A83297BE87AA872876A6662666A876ACB
:103E9000876AA76A876A876A46624662876A466255
:103EA0002662876A2983CC934EA46EAC8FAC8FAC0C
:103EB0008FACAFB4D0B4D0B4D0B4B0B4AFB4B0B4AD
:103EC000D0B4D0B4D0B4F0BCD0B4F0BCD0B4AFB4A3
:103ED000AFB48EAC2DA4EC9BAB934A8B0883A77A2E
:103EE00066722562C4598351424942494249424956
:103EF0008351A359C459C559E561E561E561C459C8
:103F0000C561E561E561E561E559E559E559E559C1
:103F1000E559E559E559055A0562056206622662CA
:103F200026622662056205620562256225622662B6
:103F300026622662256225620562056205620562C7
:103F400026622662466A466A466A466A466A466A41
:103F5000476A476A4772466A466A466A266A266A16
:103F6000266A0662C559A5598451644944490339F2
:103F7000A130402840286028A130A138C140024922
:103F8000024923512351645963596359C561056A34
:103F9000E569267226726772A882098B4A8B6B9339
:103FA0004B932A8B4A8B4A8B4A8B8B93CC9BEDA3EA
:103FB0000EAC4EAC8FB4B0BCD0BCF1C411C511C5B1
:103FC00011C532CD32CD32CD52CD73CD73CD73CD3F
:103FD00093CD93CD94CD73C573C594BDD5BDF5BDBB
:103FE000F6BDD5BDD5BDD5BDD5BDF6BDF6C5F6C5AD
:103FF000F6C5F6CDF6C516C616C616C616C616C63C
:1040000017CE17CE37CE57CE57CE7094CF832C6BAA
:1040100013AD58D611BD11BDF0B411BD11BD11BD08
:1040200031BD31BD31BD31BD31BD11BD11BDF0B4AA
:10403000F0B4D0B4D0B4AFACAFACAFACAFAC8FAC2D
:104040008FAC8FAC6EA44EA44EA42D9C2D9C0D9CC9
:10405000EC93CC93CC93AB8B8B8B6A836A834A8330
:10406000297B097BC872A76A666246626662676AD4
:10407000676A876A46626662266226624662055AF7
:104080002562C8728B8BED9B2DA44EA46EAC6FACD9
:104090008FACAFB4D0B4D0B4D0B4D0B4D0B4D0B46A
:1040A000F0BCF0BCF0BCF1BCF0BCF1BCF0BCD0B4D6
:1040B000AFB48FAC6EAC2DA4EC9BAB93498BE88274
:1040C000A772456A0562C359625142492249424971
:1040D00062518351A451C459C459E461E561E4615A
:1040E000E561E561E561E561E559E559E559E559C0
:1040F000055A055AE559E559055A055A05620662F9
:104100000562056205620562056205620562056277
:104110000562056225622562266A26620562066AD4
:10412000266A266A466A466A466A466226622662A7
:1041300006620662066A05620562E561C559C559EF
:10414000A459845184512349E238C138A2308130C6
:10415000612881308030A138E240024123498459EE
:10416000A461C561E6692672E569C569066AE56903
:10417000A461C5614672877AC982098B2A8B4B93E9
:104180004B934A8B2A8B4A8B4B938B93CC9BEDA3FF
:104190000EAC4EAC4EAC6FB48FB4B0BCD1BCF1BC65
:1041A000F1C411C512CD12CD32CD53CD52CD73CD48
:1041B00073CD93D593CD53C553BD94BDB5BDD5BD7A
:1041C000D5BDD5BDD6BDF6C5F6C516C616C616C62E
:1041D000F6C5F6C5F6C5F6C516C616C616C616CE7B
:1041E00017CE17CE37CE17CE78D6F2A4AE7BEB62C1
:1041F00013A578D6F0B4F0B4F0B411BD11BD11BD63
:1042000031BD31BD31BD31BD11BDF0B4F0B4D0B45C
:10421000D0B4D0B4AFAC8FAC8FAC8FAC8FAC6EA43D
:104220006EA46EA44EA42D9C2D9C0D9C0D9CEC9315
:10423000CC93CC93AB8B8B8B4A834A834A83297B69
:10424000097BE872C872876A66624662666A666A55
:10425000666A46622562055A055A055AE451E451D8
:10426000666A2983AB93EC93EC9B0D9C2DA42EA442
:104270006FAC8FACB0B4D0B4D0B4D0B4D0B4F0BCC8
:10428000F0BCF1BCD0B4F0BCF0BCF1BCF1BCD0B41B
:10429000AFB48FAC6EAC4DA42DA4CC9B6A93298394
:1042A000C77A666A2562C459835142494249224904
:1042B000424962518351A351A459C459C459E45984
:1042C000E459E461E461E461E459E459C459E5590D
:1042D000E559E559E559E559E559E559E5610562BD
:1042E0000562056205620562056205620562056296
:1042F0000562056226622662266206620562056222
:1043000006620562056205620562E559E561C55907
:10431000C559C559A459A45984598351635163514E
:1043200043512249024180302020002020202028B3
:104330006128A230C240224964518459E661277243
:10434000677AC982E98A0A8BE98AC982A882477298
:10435000E569A461266A677AC882E9820A8B2A8B9A
:104360004A8B4A8B2A832A8B4A8B6B93AC9BAC9BE0
:10437000ACA3EDA3CD9BEDA32EA44FAC90B4B0BCE9
:10438000D1BC11C511C512CD32CD52CD52CD52CDB9
:1043900052CD73CD53CD12C512BD73BDB5BDB5BDE4
:1043A000D5BDF6BD17C617C616C616C616C616C69E
:1043B000F6C516C616C616C616C616C616C616C63E
:1043C00017C617C637CE37CE57D613AD6D730C6BE5
:1043D000F2A458CEF0B4F0B411BD11BD11BD11BDA1
:1043E00011BD11BD31BD11BDF0B4F0B4F0B4D0B405
:1043F000D0B4AFAC8FAC8FAC6EA46EA46EA46EA420
:104400004EA44EA42D9C0D9C0D9CEC93EC93CC9350
:10441000AB8BAB8B8B8B6A834A83297B297B297B74
:10442000087BE872A772876A466246624662466205
:1044300046622562055AA451A451A4518349C4512E
:10444000A76A4A838B8BCC93AC93EC9B0D9C0D9C01
:104450004EA44EA48FACAFB4B0B4D0B4D0B4D0B4EA
:10446000F0BCF0BCF1BCF1BCF0BCF0BCF0BCD0B412
:10447000B0B48FAC6EAC6EA42DA4EC9B8B93498B27
:10448000E87A8672E461A359624942494249424945
:104490004249625183518351A351C359C459C459EC
:1044A000C459C459C459C459C459C459C459E45904
:1044B000E459E459C459C459E559E559E559E56148
:1044C00005620562056205620562056205620562B4
:1044D00005620562065A06620662E559C559C55964
:1044E000A459A459845183518351835183518351D9
:1044F0006351635163516351635143514349435184
:1045000043490249E24080300028002020286028EA
:10451000C238E34023498451C561266A887AE9821A
:104520002A8B8C9BACA3AC9BCDA3CDA36B9B0A8B9E
:10453000887A066AE5614672887AC882E9820983C8
:104540002A8B2A8B09832A8B2A8B4A8B6B936B933A
:104550004B936B936B938B93CC9B0EA46FB490B4E3
:10456000D0BC11C5F1C412CD32CD32CD32CD11C582
:1045700032C552CD32C5F1BCF1B473BDB5BDD5BDA8
:10458000F6C517C616C6F6C5F6BDD5BDD5BDF6C56A
:10459000F6C516C616C616C616C616C616C616C65C
:1045A00017C617C617C637CE78D633AD4C73CB6255
:1045B000919C58D611BD11BD11BD11BD11BD11BDCC
:1045C000F0B4F0B4F0B4F0B4D0B4D0B4D0B4AFAC74
:1045D0008FAC8FAC6EA46EA46EA44EA44EA42D9C82
:1045E0002D9C0D9C0D9CEC93CC93CC93AB8B8B8B27
:1045F0006A836A834A832983297B097B097B097B38
:10460000E872C872876A46626662466225624662DE
:10461000055AE559A451A349834901396241255AF4
:10462000C872097B4A834A836A8B8B8BAC93CC9389
:10463000ED9B2EA46FAC8FAC8FACAFB4B0B4D0B444
:10464000D0B4D0B4D0B4D0B4D0B4F0BCD0B4B0B442
:104650008FAC6EAC4EA46EA42DA4EC9BAB93498B97
:10466000A7722562C45962494249424942494249B6
:104670004249224942496351634942496351835146
:1046800083518351A4518351A451A451835183492F
:1046900083498351634963518351835183518451C9
:1046A000A451C459C459C459C459C459C459C55949
:1046B000E559C551A551A54984496449644943490F
:1046C000434942492249434922494349635163517D
:1046D00043516351635963598459845984598459A6
:1046E0008451635123490241603000204028A130A9
:1046F000034144498459066A887AC9822A8B6B9B94
:10470000CDA3EDAB2EAC4FB46FB44EB42EACEDAB2D
:104710006B93E982877A266A2672887AC982E9824F
:1047200009830A8B2A8B2A8B2A8B2A8B0A8BE98294
:10473000C982098B2A8B6B93CC9B2EA48FB4B0B407
:10474000B0BCF1C4F1C4F1C411C512CD11C511C57D
:1047500011C511C5D0BC8FACF1AC94BDF5C516C662
:1047600037CE17C6F6C5F6C516C616C6F6C5F6C5C3
:10477000F6C5F6C516C616C616C616C616C616C69B
:1047800017C617C616C637CE37CE95B5CA5ACB5AF6
:10479000509478D611BD11BD11BD11BD11BDF0B43D
:1047A000F0B4F0B4F0B4D0B4D0B4AFACAFAC8FAC24
:1047B0008FAC6EA46EA44EA44EA44EA42D9C0D9C52
:1047C0000D9CEC93EC93CC93AB8BAB8B8B8B6A8374
:1047D0004A834A83297B097B087BE87AE872C8729E
:1047E000A772876A6662055A055A2662255A055AD3
:1047F000C451C45183494241224101396349055A98
:10480000A76AE872E97A097B097B2A834A836B8B62
:10481000AB93CC932EA44EA46FAC8FACAFB4B0B41A
:10482000D0B4D0B4AFB4AFB4D0B4D0B4AFB48FAC14
:104830006FAC4EA44DA42DA4EC9BAB936A8B098363
:1048400066720462A35162494249214101412249F1
:104850002249224922492249024101410241224979
:1048600022492249224922414349424122412241CF
:104870000139E1380141014102414249635183510B
:104880008351835183516349634963494249424992
:10489000424922410239E230C230C130E238E138C7
:1048A000E138E2400241224922496351845184594E
:1048B0008459A459E5610562266A266A266A266A31
:1048C000066A0662E561A559E24040286030E24090
:1048D0004351C559266A887A0A8B4B938C9BEDA36A
:1048E0002EAC4FB46FB490BCB0BCB0BC8FBC6FB436
:1048F0000EACAC9B0A8BC9826772466AA87AC982E1
:10490000E9820983E982E982C87A887A6772477204
:10491000887AE9824A8B8C930DA46FACB0B4B0BC9A
:10492000D0BCF1C4F1C4F1C4F1C4F1C4F1C4F1C408
:10493000F1C4D0BC6FAC90AC32B5D5C5F6C516C6C7
:10494000F6C5F6C5D6BDD6BDF6BDF6BDF6C5F6C5EF
:10495000F6C5F6C516C616C616C616C616C616C6B9
:1049600016C617C617C616C637CED5BD8952CB6236
:10497000EF8358D611BD11BD11BDF0B4F0B4F0B441
:10498000F0B4F0B4D0B4D0B4AFACAFAC8FAC8FACAB
:104990006EA44EA44EA44EA42D9C2D9C2D9C0D9C2B
:1049A000EC93CC93AB8B8B8B8B8B6A836A834A8320
:1049B000297B297B297B087BE872C872C872A76AA9
:1049C000876A66624662055AE551C451A451A349FB
:1049D0006349424142410139E130E1388349055A96
:1049E000666AA76AA76AA772A872C872097B298338
:1049F0004A838B8BEC9B2DA44EA46FAC6FAC8FAC19
:104A0000AFB4B0B48FAC8FAC8FAC8FAC6EAC4EA4E7
:104A10004EA42DA40C9C0C9CEC9BAB934A8BC77AA8
:104A20002562A35983516249624962494249424918
:104A3000224922410241E140C138C138C138C13860
:104A4000C138E238C238E238E238C138C130A1306A
:104A5000A030C138E138E13802414349A451C4597A
:104A6000C459A451A3518351634942490141C038FB
:104A7000A03060286020602040208028C13802419A
:104A800022414349634984518451C559E561066215
:104A9000266A47726772887AA87AC87AC97AE982E0
:104AA000C982C87AC87A8872C559A0388038224924
:104AB000A459266AA87A2A8B8B93CC9B0DA42EAC82
:104AC0004FB46FB490BCB0BCD1C4D1C4D1C4D0BCBD
:104AD00090BC6FB4CCA38B93E98267726772887ABB
:104AE000A87AA87AA87A877A2672066A266A47720E
:104AF000A8822A938B93EDA34FAC90B4D0BCD0BCCA
:104B0000D0BCF1BCF1C4F1C4F1C4D1C4D0BCD0BCA0
:104B1000B0B46FAC4FA4D1B494C516C616C6F6C5D2
:104B2000F6BDD6BDD6BDD6BDF6BDF6C5F6C5F6C535
:104B3000F6C516C617C616C616C616C6F6C5F6C5F7
:104B4000F6C5F6C537C616C616C617C6484AEB627E
:104B5000AD7B58D6F0B4F0B4F0B4F0B4D0B4D0B467
:104B6000D0B4D0B4D0B4AFAC8FAC8FAC6EA46EA4C4
:104B70004EA44EA42D9C2D9C0D9C0D9C0D9CEC9345
:104B8000AB8BAB8B8B8B6A834A834A834A83297BAB
:104B9000097B097BE872E872E872C872876A46622C
:104BA0002662265AE551C551C551C451C449A4498C
:104BB000634122390239C030C03001398349055A76
:104BC00026624662666266624662666A876AC87282
:104BD000097B4A83AB93EC9B2DA44EA44EA46EACF0
:104BE0006FAC8FAC6FAC4EA44EA42DA42DA40D9C25
:104BF0000D9C0D9C0C9CEC9BAB934983C77A456A3A
:104C0000E459C359A351C359C459C451A351835141
:104C100083514349434922490241E240E238C138C5
:104C2000A138A13081308130602840286028A1302F
:104C3000E138224163498351C5590662466A476A91
:104C4000676A676A26620562C45983512241C13886
:104C5000603020200010001000188028E2384349FE
:104C60006349A451E55906620662266A676A87723B
:104C7000A87AC98209832A834A8B4A8B6B938B93C8
:104C80008B938B936B932A8BA87A6351E14083516A
:104C9000066AA87A0A8B6B93CC9BEDA30EAC2EAC64
:104CA0004FB46FB490BCB0BCB0BCD1C4D1C4D0BC04
:104CB000B0BCB0BC6FB4EDA3AC9B2A8B6772266A04
:104CC0002672066A066AE569C561E5694772A882C7
:104CD0002A938B9BEDA34EAC8FB4B0B4B0BCD0BCC8
:104CE000D0BCD1BCD1BCD1BCD0BCD0BCD0BCB0B489
:104CF0006FAC4EA490AC32BDD5C5F6C5F6C5F6BDB9
:104D0000D6BDF6C5F6C5F6C5F6C5F6C516C616C6B1
:104D1000F6C516C6F6C5F6C5F6C5F6C5F6C5F6C59A
:104D2000F6C5F6C537C616C616C678D6284A0C6329
:104D30008D7B78D6D0B4F0B4D0B4D0B4D0B4D0B4E5
:104D4000AFACAFACAFAC8FAC8FAC6EA44EA44EA4E6
:104D50002D9C2D9C0D9CEC93EC93EC93CC93AB8B06
:104D60008B8B8B8B6A834A834A83297B297B297BA4
:104D7000097BE872C86AA76AA76A876A6662465AA8
:104D8000065A0552E551A44984498449844123398E
:104D9000E230E130C130E130E13842418349C45171
:104DA000055A055AE559E451C451E4512562666A31
:104DB000C8722A838B8BAC93ED9B0D9C0D9C2DA40C
:104DC0004EA44EA44EA40D9C0D9CEC9BEC9BEC9B26
:104DD000EC9BEC9BCB9BAA934983C77A456AE46121
:104DE000E459046225622562466225620562056215
:104DF0000562C559C459A451845164492341E2381C
:104E0000A23881306128612840202020A1306349E8
:104E1000A551E559466A676AC872E97A0983098328
:104E200009830983E87AA872676A2562C4596349CD
:104E3000E1388028001800104020E2388449C55924
:104E4000E5592662266A676A8872A872C87AE97A82
:104E500009832A836B8BAC93ED9B0DA42DA42EA408
:104E60002EA42EA40DA4EDA38B9387726351E5614C
:104E7000A87A098B6B93AC9BECA30DA42EAC2EAC43
:104E80004FB48FB490BCB0B4B0BCB0BCD0BCD0BC3C
:104E9000D0BCD0BCF1C46FB44EACCDA3A87AC46171
:104EA000845984598459A461C5612672A8822A93C1
:104EB0008CA3CDA32EAC6FB48FB48FB4B0B4D0BCE0
:104EC000D0BCD0BCD1BCD0BCD0BCD0BCB0BC6FAC12
:104ED0002EA44FA4F1B494C5D5C5D5BDD5BDF6BD9E
:104EE000F6BDF6C5F6C5F6C5F6C5F6C5F6BDF6C5FA
:104EF000F6C5F6C5F6C5F6C5F6C516C616C616C677
:104F000017C617C637C657CE16C699D6284AEB62BB
:104F10006D7358D6D0B4D0B4D0B4D0B4AFACAFACBD
:104F2000AFACAFAC8FAC8FAC6EA44EA42D9C2D9CBF
:104F30000D9C0D9CEC93CC93CC93AB8BAB8B8B8B60
:104F40006A836A834A83297B297B097B097BE87210
:104F5000C872A76AA76A86624662265A255A05520F
:104F6000E551C549A549C5498441644144392339BE
:104F70000231E128C1300239223963418349A45109
:104F8000C451C451A349834962418349C451466213
:104F9000A872097B6A8B8B8BCC93ED9B0D9C0D9C2F
:104FA0000D9C2DA40D9CEC9BCC93CC93EC93EC939B
:104FB000CB93AB936A8B4983E87A866A2562046255
:104FC000456A6672A772A772C872A772876A676A13
:104FD000676A266A26620562E559C5596349034135
:104FE000C2388130812820204020A13084492662A7
:104FF000876AC972097B09834A836B8B8B938B9376
:105000008B936B8B6B8B4A8B2983C87A876A26625A
:10501000845123416020001060284341C559066235
:105020002662676A8772A872C97A097B2A834A83D3
:105030006B8BAB93ED9B2EA46EAC8FAC8FACB0B4EE
:10504000D0B4B0B4B0BC8FB42EAC6B93066A266AF1
:10505000E98A4B938B9BCC9BECA3EDA30DA42EACC8
:105060004EAC6FB48FB48FB490B4B0BCD0BCD0BCD5
:10507000D0BCD0BCF1BCD0BCB0BC4FB44B93E5614C
:10508000024902514359A4612672A8820A936B9B7C
:10509000CDAB0EAC2EAC6FB48FB48FB4B0BCD0BC63
:1050A000D0BCD0BCD0BCD0BCB0BCB0B48FB42EA4EB
:1050B0002EA4B0AC53BDB5C5D5C5D5BDD6BDF6BDC6
:1050C000F6BDF6C5D6C5D6C5F6C5D5BDF6BDF6C581
:1050D000F6C5F6C5F6C5F6C5F6C516C636C637C654
:1050E00037CE37C637C657CE16C6B9DE284AEB626A
:1050F0004C7358D6D0B4D0B4D0B4AFACAFACAFAC26
:10510000AFAC8FAC8FAC6EA44EA42D9C2D9C0D9C8F
:10511000EC93EC93CC93AB8BAB8B8B8B6A834A83F6
:105120004A83297B297B097B097BE872E872C87274
:10513000876A6662465A665A4662465A055206525F
:10514000475A88620A730A73685A84410231E22816
:10515000E330E228E2302239433983498349A449C4
:10516000A34983496249424121394241C4514662BF
:10517000A872097B4A836B8BAB93CC93ED9BED9B21
:10518000EC9BEC9BCC93AB93AB93AB93AB93AB937C
:105190008A8B4983087BC77A666A2562256A6672AC
:1051A000C87A09832983298329832983E97AC87ADC
:1051B000A872676A466A25620562C459434902417A
:1051C000E23881304028001880288449676AC87214
:1051D000097B6B8B8B8B8B8BAC93CC93ED9BED9B7B
:1051E000ED9BED9BCC9BCC93AC936B8B0A83C872ED
:1051F0002762A55103394020A130A4510662476AB5
:105200008772A872C87AE97A0A7B4A836B8B8B8B88
:10521000CC930D9C4EA48FACAFB4D0B4F0B411BD00
:1052200031C532C511C511C5B0BC2EACE982887A32
:10523000E98A6B9B8B9BAB9BCC9BCC9BEDA30DA47A
:105240000EA44EAC4FAC6FAC6FB490B4B0BCB0BC5D
:10525000D1BCD0BCD0BCF1BCF1BCB0BC0DACA88200
:105260006359225184610672A8820A934B9B8CA3D6
:10527000CDAB0EAC2EAC6FB48FB490B4D0BCF1BC3F
:10528000F1BCF1BCD0BCD1BCB0B48FB46FAC4EA4F7
:105290006FAC11BDB4C5D6C5F6C5F6BDF6BDF6BD3D
:1052A000F6C5F6C5D6C5F6C5F6C5F6C5F6C516C625
:1052B00016C6F6C5F6C5F6C5F6C516C636C637C651
:1052C00037C637C637C637CE16C6D9DE284A0C6B66
:1052D0002B6B78D6D0B4D0B4AFACAFACAFAC8FAC96
:1052E0008FAC8FAC6EA44EA42D9C2D9C0D9CEC938A
:1052F000EC93CC93CC93AB8B8B8B6A834A83297BC7
:10530000297B297B097B097BE872C872A86A876AB6
:105310006762265A265225522652675AE96A8C83BA
:105320000E944F94709C91A40F942C73685A8541ED
:105330002331E2282331433923398449844984497C
:10534000834963494241213901394241E459676A3D
:10535000C872E97A2A834A838B8BAC93EC9BCC93FB
:10536000CC93AB93AB938A8B6A8B498B4A8B498BDB
:105370002983C77A8672666A456A456AA772298355
:105380008A8BAB93CB93AB936A8B4A830983E97A7D
:10539000A87A8772666A2562E559A4512241E138EC
:1053A000A13040280018402023412662C8724A8359
:1053B0008A8BCB93EC9BED9B0D9C0EA40EA40EA4AC
:1053C0002EA44EA42EA42EA42EA40D9CAC934B83ED
:1053D000E97A676AA5518028E138C5592662877243
:1053E000C87AE97A09834A836B8BAC93ED93ED938A
:1053F0000D9C2DA46EA4AFACF0B431BD31C552C527
:1054000072CD52CD52CD73D5F1C4D0BC8C9BE98204
:10541000098B6B938B9BAC9BAC9BCC9BCC9BCC9B11
:10542000ED9B0DA42EA44EAC4FAC6FB490B4B0BCA9
:10543000D1BCD0BCD1BCD0BCD0BCD1C46FB46B9BF0
:10544000477A8461067288820A934B9B8CA3ACA333
:10545000CDABEDAB4EAC6FB48FB4B0B4D0BCF1BC3F
:10546000F1BCF1BCD1BCF1BCB0BC8FAC6FAC6EA4D4
:10547000D0B493C5D5C5F6C5F6C5F6BDF6BDF6BD27
:10548000F6BDF6C5D6C5F6C5D6C5F6C516C637C629
:1054900017C617C637CE17C616C616C636C637C6BF
:1054A00037C637C637C616C616C6DADE48522C6B64
:1054B000EB62BADED0B4AFAC8FAC6EA46EA46EA4B7
:1054C0006EA44E9C2D9C0D9CEC93EC93EC93CC9392
:1054D000AB8B8B8B6A834A834A83297B297B097B2D
:1054E000097B097BE872E872876A67626762475ADC
:1054F000275A0652265267522B730E8CB1A4D1A4A0
:1055000033AD53B574B553B554B5D2A42F8C8D7B40
:105510004C73EA62685A27526439644164414341DA
:1055200022412241E138C030E138A3494662887205
:10553000C97A097B29834A836A836B8B6A8B4A8B7E
:105540004A8B4A8B4A8B2983298329830883E87AEB
:10555000C772666A456A456A666AC77A498BCB93A1
:105560000C9C0CA4EC9B0C9C8B8B4A83E87AC87A2D
:105570008772466A256AC4594249E138A1306028D9
:105580002020002000186028C659676A097B6A8BB2
:10559000CC93EC9B0D9C2EA42EA44EA44EA46FACD9
:1055A0006FAC8FAC8FACB0B48FAC6FAC2EA4ED9B56
:1055B0008B8B297B676A42418030C559266AA87265
:1055C000E97A09834A838B8BAC93EC930D9C2EA4D0
:1055D0004EA46FAC8FACB0B4F0BC31BD32C552C577
:1055E00073CD93D593D573CD73CD32CD8FB40A835C
:1055F000E9826B936B936B938B93AC93AC93CC9B43
:10560000CD9BED9B0DA40EA42EAC4EAC4EAC6FB456
:105610008FB4B0BCB0BCD0BCD0BCD0BC90BC0EACC5
:105620002A932672677AE98A0A936B9B6B9BACA3D9
:10563000CDAB0EAC0EAC4FB48FB490BCB0BCD0BCF4
:10564000D0BCD1BCF1C4D0BC90B4B0B46FA4D0ACC9
:1056500073BDD5C5F6C5F6BDF6BD16C6D5BDF6C536
:10566000F6C5F6C5F6C5D6C5F6C5F6C5F6C516C661
:10567000F6C517C617CE16CE16C616C637CE37CE07
:1056800016C637C637CE16C637CEDADEAA5A0B6B29
:10569000CA6258D6AFACAFAC8FAC6EA46EA46EA489
:1056A0004EA42D9C0D9C0D94EC93CC93AB8BAB8BAB
:1056B0008B836A834A832A83297B097B087BE87270
:1056C000E872E872E872666267628762265AE6519B
:1056D000475AA9626C7B2F8C909C13AD33AD94BD5F
:1056E00074B594B595B595B574B595B534AD13ADA0
:1056F000D3A4719491942F8C64396439233902397D
:10570000E138C138C130E1384341055A876AC8726F
:10571000E97AE97A097B297B297B29832983087B1C
:10572000E87AE87A0883E87AE882E882C77AA7729A
:10573000666A656A666AA772087B6A8BEB9B2DA412
:105740004DA44DA40D9CCB936A8B6A8BC87A87724B
:10575000466AA459635122490141E138C138803079
:10576000202800180018E2384762C97A4A83AB93B0
:105770000C9C2DA44EA46EA46FAC6FAC8FAC8FAC00
:105780008FACAFACD0B4D0B4D0B4D0B4AFAC8FACDD
:105790002D9CCC93097B05620141C459466AA87AC5
:1057A00009834A8B8B8BAC93EC930D9C2D9C4EA460
:1057B0006FAC8FAC8FACD0B4F0BC11BD31C552C54D
:1057C00073CD93CD93D5B4D593D572CDF1C4AC9BA5
:1057D0000A832A8B4A8B4A8B4A8B6B938B938B93CE
:1057E000AC93AC93CC9BED9B0DA40EA42EAC4EAC15
:1057F0006FB48FB490B4B0BCB0BCD0BC90BC4FB44C
:105800008CA3887A677AE98A0A934B9B6B9BACA33B
:10581000CDAB0EAC0EB44FB46FBC90BCB0BCD0BC22
:10582000D0BCD1C4D1BCD0BCB0B4B0B490ACF2AC9C
:10583000B5BDF6C5F6BD16BED6BDF6BDF6C516C6D7
:10584000D6BDF6C5F6C5F6C5F6C5F6C5F6C5F6C5A8
:10585000F7C517C617CE17CE57CE16C616C637CE03
:1058600016C636C637CE37CE37CEBADE2C6B2C6B8B
:10587000EB6A79D68FAC8FAC6EA46EA44EA44EA406
:105880002D9C2D9CEC93EC93CC93AB8B8B8B6A83F0
:105890004A834A832983097BE97AE872E872C872ED
:1058A000C76AA76A8762665A465A0552465A0973FA
:1058B0008C832E94B1A4F2A453B554B554B574B5E9
:1058C00095B534AD54AD54AD34ADB29C508C6D73C0
:1058D0006D73CA62E74168524852A5414339233982
:1058E000E230A030E1384241C551676AA872C872FF
:1058F000C872C872E872E872E87AE87AC87AC77241
:10590000A772A772A772A77AA77AA77A8672456A42
:105910004562656AA77208838A930CA44DA44DACB6
:105920004DA44DA40C9CAB934A8B298367722562CE
:105930000562A459C459C459E559E559E559C559F1
:105940006449E23880288449A8722A834A83CC9328
:105950000D9C4DA46EA48FAC8FACAFACB0B4B0B402
:10596000B0B4D0B4D0B4F1B411BD11BD11BDF0B418
:10597000AFAC8FACCC930983A4518351466AC87AEB
:105980002A8B6B8BAC93CC930D9C2D9C4EA46EA458
:105990006FAC8FACAFACD0B4F0B411BD31BD52C55B
:1059A00072CD93CD93CDD4D5D4D593D573CD6FACE3
:1059B0004A8BE9822A8B4A8B4A8B4A8B6B8B6B937F
:1059C0008B938B93AC9BAC9BCC9BEDA30DA42EAC8B
:1059D0004EAC4FB48FB4B0B4B0BCB0BC90BC90BCB3
:1059E000EDABA9822672A882E98A2A936B9BACA3AD
:1059F000ACA3EDAB0EB44FB46FB470BCB0BCB1BCD3
:105A0000D0BCD1C4D1BCB0BCB0B4B0B4B1AC53BD47
:105A1000D5C5B5BDF6C5F6BDF6BDF6BDD5BDF6C559
:105A200016C616C6F6C5F6C5F6C516C616C616C6F9
:105A300016C6F6C537CE37CE37CE16C637C637CEE2
:105A400016C637CE37CE37CE58CE37CECA62CE83C3
:105A50000C6B0C6B8FAC8FAC4EA42D9C2D9C2D9C95
:105A60000D9C0D9CCC93CC93AB8B8B8B6A83297B49
:105A7000297B097B097BE97AE872C872C872A76A38
:105A8000876A86626662465A675A2973ED8B4E941E
:105A90008F9C32B554B574B513A5B19C0F846D734A
:105AA000EB620B6389520742C639284A89528952F0
:105AB000AA5AAA5A695289526852485285414439B1
:105AC000434123396449E5514762886AA872A87244
:105AD000A872C872A772A772A772A772A772A772DC
