:020000040800F2
:1000000050070020D5010008FD170008F51700086B
:10001000F9170008D904000831200008000000008A
:100020000000000000000000000000002918000887
:10003000DD04000800000000EB010008ED010008ED
:10004000EF010008EF010008EF010008EF010008D0
:10005000EF010008EF010008EF010008EF010008C0
:10006000EF010008EF010008EF010008EF010008B0
:10007000EF010008EF010008EF010008EF010008A0
:10008000EF010008EF010008EF010008EF01000890
:10009000EF010008EF010008EF010008EF01000880
:1000A000EF010008EF010008EF010008EF01000870
:1000B000EF010008EF01000891190008EF010008A6
:1000C000EF010008EF010008EF010008EF01000850
:1000D000EF010008EF010008EF010008EF01000840
:1000E000EF010008EF010008EF010008EF01000830
:1000F000EF010008EF010008EF010008EF01000820
:10010000EF010008EF010008EF010008EF0100080F
:10011000EF010008EF010008EF010008EF010008FF
:10012000EF010008EF010008EF010008EF010008EF
:1001300000F002F800F03FF80AA090E8000C8244BA
:100140008344AAF10107DA4501D100F034F8AFF297
:10015000090EBAE80F0013F0010F18BFFB1A43F0A5
:10016000010318477023000090230000103A24BFB9
:1001700078C878C1FAD8520724BF30C830C144BF0C
:1001800004680C607047000000230024002500264E
:10019000103A28BF78C1FBD8520728BF30C148BFEA
:1001A0000B607047642900F07780002070471FB50E
:1001B0001FBD10B510BD00F05DF91146FFF7F7FF48
:1001C00001F064FF00F07BF903B4FFF7F2FF03BC1A
:1001D00001F04CFF0948804709480047FEE7FEE769
:1001E000FEE7FEE7FEE7FEE7FEE7FEE7FEE7FEE7E7
:1001F00004480549054A064B704700003F180008AF
:100200003101000850010020500700205003002059
:1002100050030020704700000FB4044910B503AA32
:10022000029800F0F9F810BC5DF814FB04000020FF
:100230002DE9F0410E460446002020622046E16888
:10024000884730B3252805D0D4E901219047206A9A
:10025000401CF2E7E168204600278847050018D0D7
:10026000A5F14100192802D820354FF40067324625
:10027000294620462760FFF795FF40B1012804D0AA
:10028000F61D26F007060836D8E7361DD6E72846BD
:10029000DAE7206ABDE8F0812DE9F0410646002446
:1002A00010687529314616A510D0AFF300800028DC
:1002B00002DA404213A507E031688A0701D512A58A
:1002C00002E0490704D511A5012401E0AFF3008045
:1002D00000210A2206F1240709E0B0FBF2FCB0FB82
:1002E000F2F302FB1C00303078541846491C0028F9
:1002F000F3D123462A463046BDE8F04100F033B83A
:10030000000000002D0000002B0000002000000075
:100310004FF0000200B5134694469646203922BF9E
:10032000A0E80C50A0E80C50B1F12001BFF4F7AFE9
:10033000090728BFA0E80C5048BF0CC05DF804EBCB
:10034000890028BF40F8042B08BF704748BF20F839
:10035000022B11F0804F18BF00F8012B7047704737
:100360007047704770472DE9F0470D469946924611
:10037000044600F124080168880604D5E06921F0EC
:100380001001216000E00120A84201DD471B00E0D0
:100390000027A1697A1902EB0900081AA0612078E8
:1003A000C00602D42046AFF30080002608E0D4E95E
:1003B00001211AF806009047206A401C761C206232
:1003C0004E45F4DB2078C0060AD52046AFF3008006
:1003D00006E0D4E9012130209047206A401C2062C9
:1003E000381EA7F10107F4DC07E0D4E9012118F871
:1003F00005009047206A401C2062281EA5F10105D7
:10040000F3DC2046AFF300802078000602D50220FE
:10041000BDE8F0870120FBE7074B70B50D467B4434
:1004200000F011F80446284600F020F810B14FF013
:10043000FF3070BD204670BD4F1C000001694A1C92
:1004400002610878704700B58FB0CDE90131002115
:10045000059105497944CDE9031011466846FFF737
:10046000E7FE0FB000BD0000E5FFFFFF007B00F0DE
:1004700080007047754600F02BF8AE4605006946CF
:10048000534620F00700854618B020B5FFF7B0FEB0
:10049000BDE820404FF000064FF000074FF0000885
:1004A0004FF0000B21F00701AC46ACE8C009ACE806
:1004B000C009ACE8C009ACE8C0098D46704710B56A
:1004C0000446AFF300802046BDE81040FFF77CBE35
:1004D00000487047EC00002000BFFEE770470000B6
:1004E0002DE9F847024600239C467BE14FF00108C6
:1004F00008FA03F4D1F8008008EA0400A0427DD194
:10050000DFF8F4A2D1F80480A8EB0A09D0453AD06C
:1005100014DCB8F1030F50D009DCB8F1000F31D072
:10052000B8F1010F1CD0B8F1020F49D120E0B8F1A9
:10053000110F18D0B8F1120F42D11EE0B9F5881F83
:1005400025D006DCB9F5803F20D0B9F5801F37D122
:100550001AE0B9F5001F18D0B9F5041F30D117E023
:10056000D1F80CC02DE0D1F80C8008F1040C28E083
:10057000D1F80C8008F1080C23E0D1F80C8008F1C8
:100580000C0C1EE000BF00BF00BF00BF00BF00BFDB
:10059000D1F80880B8F1000F02D14FF0040C0BE045
:1005A000D1F80880B8F1010F03D14FF0080C1461A5
:1005B00002E04FF0080C546103E04FF0000C00E043
:1005C00000BF00BFFF2801D8904601E002F10408F7
:1005D0004646FF2802D84FEA830803E0A3F1080843
:1005E0004FEA88084746D6F800804FF00F0909FA0D
:1005F00007F928EA09080CFA07F900E07AE048EA66
:100600000908C6F80080D1F8048008F08058B8F1D5
:10061000805F6FD100BFDFF8E481D8F8188048F020
:100620000108DFF8D891C9F81880C846D8F81880B2
:1006300008F00108CDF8008000BF00BF4FEAB938CC
:100640004FEA930958F829504FEA83784FEA18790E
:100650004FF00F0808FA09F825EA0805DFF8A0812D
:10066000424502D14FF0000824E0DFF8988142456E
:1006700002D14FF001081DE0DFF88C81424502D124
:100680004FF0020816E0DFF88481424502D14FF0B6
:1006900003080FE0DFF87881424502D14FF00408EB
:1006A00008E0DFF87081424502D14FF0050801E013
:1006B0004FF006084FEA83794FEA197908FA09F8EA
:1006C00048EA0505DFF850814FEA930948F82950B8
:1006D000D1F8048008F48018B8F5801F0BD1DFF83A
:1006E0003C81D8F8008048EA0008DFF83091C9F86A
:1006F00000800AE075E0DFF82481D8F8008028EA5D
:100700000008DFF81891C9F80080D1F8048008F4D7
:100710000018B8F5001F0ED1DFF8008108F10408B9
:10072000D8F8008048EA0008DFF8F09009F10409E1
:10073000C9F800800DE0DFF8E48008F10408D8F87B
:10074000008028EA0008DFF8D49009F10409C9F80C
:100750000080D1F8048008F40038B8F5003F0ED1CD
:10076000DFF8B880A8F10408D8F8008048EA00084B
:10077000DFF8A890A9F10409C9F800800DE0DFF8BE
:100780009C80A8F10408D8F8008028EA0008DFF867
:100790008C90A9F10409C9F80080D1F8048008F40C
:1007A0008038B8F5803F0ED1DFF87080A8F10808D6
:1007B000D8F8008048EA0008DFF86090A9F108093D
:1007C000C9F800800DE0DFF85480A8F10808D8F8D7
:1007D000008028EA0008DFF84490A9F10809C9F868
:1007E00000805B1CD1F8008028FA03F8B8F1000FF4
:1007F0007FF47CAEBDE8F8870000111000100240C5
:1008000000080140000C01400010014000140140AC
:1008100000180140001C014008000140080401408C
:1008200001480068704700000800002010B5084823
:10083000006840F0100006490860032000F080F8CE
:100840000F2000F007F800F02BF8002010BD00008A
:100850000020024070B504460E4800784FF47A71CB
:10086000B1FBF0F00C490968B1FBF0F5284600F047
:10087000D1FB08B1012070BD102C07D20022214607
:10088000501E00F01EF80548046001E00120F2E768
:100890000020F0E710000020000000200C000020E5
:1008A000704701460846002809DB00F01F030122BB
:1008B0009A4043099B0003F1E023C3F8002100BFE5
:1008C00070472DE9F05F80460D461646002701F07F
:1008D000B1FB074639462A46334601F00700C0F10E
:1008E000070ABAF1040F02D94FF0040A01E0C0F17F
:1008F000070AD14600F1040ABAF1070F02D24FF0FD
:10090000000A01E0A0F1030AD4464FF0010A0AFAF6
:1009100009FAAAF1010A0AEA020A0AFA0CFA4FF0E5
:10092000010B0BFA0CFBABF1010B0BEA030B4AEAD0
:100930000B042146404601F085FBBDE8F09F000016
:1009400000BF00F00702064B19684FF6FF0319407D
:10095000044B0B4343EA0221014B196000BF70476F
:100960000CED00E00000FA0570B504460D460CB928
:10097000012070BD5A48006800F00700A8420ED25E
:100980005748006820F0070028435549086008468A
:10099000006800F00700A84201D00120E9E72078B4
:1009A00000F0020002281DD1207800F00400042885
:1009B00005D14C48406840F4E0604A4948602078DE
:1009C00000F00800082805D14648406840F460500F
:1009D000444948604348406820F0F000A16808435B
:1009E00040494860207800F0010078B36068012831
:1009F00006D13C48006800F4003090B90120B8E707
:100A00006068022806D13748006800F0007040B9DD
:100A10000120AEE73348006800F0020008B9012069
:100A2000A7E73048406820F00300616808432D497B
:100A30004860FFF7F5FE064609E0FFF7F1FE801B70
:100A400041F28831884202D9032092E707E0254825
:100A5000406800F00C006168B0EB810FEDD12048D8
:100A6000006800F00700A8420ED91D48006820F079
:100A7000070028431A4908600846006800F007008C
:100A8000A84201D0012074E7207800F00400042877
:100A900007D11448406820F4E060E1680843114938
:100AA0004860207800F00800082808D10D48406808
:100AB00020F46050216940EAC1000A49486000F012
:100AC0003FF808494968C1F30311074A515CC8401F
:100AD0000649086006480068FFF7BCFE002048E7AA
:100AE0000020024000100240A8240008000000205E
:100AF0000C00002001480068704700000000002042
:100B000000B5FFF7F7FF04494968C1F30221034A22
:100B1000515CC84000BD000000100240B82400082D
:100B200000B5FFF7E7FF04494968C1F3C221034A52
:100B3000515CC84000BD000000100240B82400080D
:100B400070B500210022002400230020134D6968A5
:100B500001F00C05F5B1042D02D0082D19D101E0EA
:100B60000F4819E00F4DC1F38346AB5D01F48035AA
:100B700055B10A4D6D68C5F340450B4E725D084D89
:100B80005D43B5FBF2F402E0084D03FB05F420469B
:100B900002E000BF024800BF00BF70BD001002406D
:100BA00000127A00C0240008D024000800093D008B
:100BB000F8B504460CB90120F8BD207800F001001A
:100BC000002878D0F848406800F00C0004280CD0C9
:100BD000F548406800F00C00082811D1F248406840
:100BE00000F48030B0F5803F0AD1EF48006800F48F
:100BF000003000285FD0606800285CD10120DBE76E
:100C000000BF6068B0F5803F06D1E748006840F457
:100C10008030E549086028E0606858B9E24800681B
:100C200020F48030E04908600846006820F4802005
:100C300008601AE06068B0F5A02F0BD1DA480068B0
:100C400040F48020D84908600846006840F48030AD
:100C500008600AE0D448006820F48030D249086077
:100C60000846006820F48020086000BF606888B1F2
:100C7000FFF7D6FD054606E0FFF7D2FD401B6428CE
:100C800001D9032098E7C848006800F40030002824
:100C9000F2D010E0FFF7C4FD054606E0FFF7C0FD07
:100CA000401B642801D9032086E7BF48006800F490
:100CB00000300028F2D1207800F00200022857D13D
:100CC000B948406800F00C0050B1B748406800F0E7
:100CD0000C00082818D1B448406800F4803098B956
:100CE000B148006800F0020020B12069012801D05D
:100CF000012061E7AC48006820F0F800616940EA33
:100D0000C100A949086033E02069E8B10120A74982
:100D10000860FFF785FD054606E0FFF781FD401BF3
:100D2000022801D9032047E79F48006800F002002D
:100D30000028F2D09C48006820F0F800616940EA81
:100D4000C1009949086013E0002098490860FFF746
:100D500067FD054606E0FFF763FD401B022801D949
:100D6000032029E79048006800F002000028F2D133
:100D7000207800F0080008282DD1A069B8B1012022
:100D80008B490860FFF74CFD054606E0FFF748FD7C
:100D9000401B022801D903200EE78348406A00F077
:100DA00002000028F2D0012000F02AFD13E000200C
:100DB0007F490860FFF734FD054606E0FFF730FD88
:100DC000401B022801D90320F6E67748406A00F06C
:100DD00002000028F2D1207800F00400042873D12A
:100DE00000277148C06900F0805070B900BF6E489C
:100DF000C06940F080506C49C8610846C06900F085
:100E00008050009000BF00BF01276A48006800F4CE
:100E10008070B0B96748006840F480706549086028
:100E2000FFF7FEFC054606E0FFF7FAFC401B6428CE
:100E300001D90320C0E65F48006800F480700028F4
:100E4000F2D000BFE068012806D15748006A40F0A0
:100E500001005549086227E0E06858B95248006A25
:100E600020F00100504908620846006A20F00400A2
:100E7000086219E0E06805280BD14B48006A40F091
:100E80000400494908620846006A40F0010008620F
:100E90000AE04548006A20F001004349086208461C
:100EA000006A20F00400086200BFE068A0B1FFF70C
:100EB000B7FC054609E0FFF7B3FC401B41F288315F
:100EC000884202D9032077E622E03748006A00F022
:100ED00002000028EFD012E0FFF7A2FC054608E070
:100EE000FFF79EFC401B41F28831884201D9032064
:100EF00062E62D48006A00F002000028F0D1012FC0
:100F000005D12948C06920F080502749C86100BF39
:100F1000E069C8B32448406800F00C00082860D09D
:100F2000E069022848D1002020490866FFF778FCD4
:100F3000054606E0FFF774FC401B022801D9032098
:100F40003AE61948006800F000700028F2D1206AE3
:100F5000B0F5803F07D11448406820F40030A16804
:100F6000084311494860D4E9080108430E4949681B
:100F700021F4741108430C49486001200B490866AC
:100F8000FFF74EFC054607E03DE0FFF749FC401B3C
:100F9000022801D903200FE60348006800F0007022
:100FA0000028F2D02FE00000001002400000424272
:100FB0008004424200700040002014490866FFF798
:100FC0002FFC054606E0FFF72BFC401B022801D949
:100FD0000320F1E50E48006800F000700028F2D10F
:100FE00011E0E069012800D1E6E50948466806F409
:100FF0008031206A814204D106F47011606A814216
:1010000001D00120D8E50020D6E5000000004242D2
:101010000010024070B504462546681EB0F1807F7E
:1010200001D301200FE0681E4FF0E02148610F213D
:101030004FF0FF3001F006F800204FF0E02188610A
:1010400007200861002070BD2DE9F04104460D46DF
:101050001646002700BF94F83C00012802D1022068
:10106000BDE8F081012084F83C0000BF96B9EB6830
:10107000D5E90012206800F09DFE2068806920F00C
:101080000C002168886120688069A968084321688C
:10109000886141E0042E13D1EB68D5E90012206885
:1010A00000F0DAFE2068806920F4406021688861E1
:1010B00020688069A96840EA0120216888612BE0E6
:1010C000082E12D1EB68D5E90012206800F0E1FE8D
:1010D0002068C06920F00C002168C8612068C069E0
:1010E000A96808432168C86116E00C2E13D1EB688B
:1010F000D5E90012206800F0E8FE2068C06920F4FD
:1011000040602168C8612068C069A96840EA012080
:101110002168C86100E0012700BF002084F83C007E
:1011200000BF38469CE710B504460CB9012010BD3D
:1011300094F83D0028B9002084F83C00204600F0D7
:1011400025F8022084F83D00211D206800F080FC75
:10115000012084F8460000BF84F83E0001213F20B2
:101160000155402001554120015500BF00BF01201D
:1011700084F8420043200155442001554520015583
:1011800000BF012084F83D000020D0E710B586B0F4
:1011900004460F492068884218D100BF0D48806975
:1011A00040F008000B4988610846806900F008009B
:1011B000019000BF00BF40200290022003900490E5
:1011C0000320059002A90448FFF78AF906B010BD74
:1011D0000008004000100240000C01402DE9F043DF
:1011E00004460D46002615B994F83E000BE0042D88
:1011F00002D13F20005D06E0082D02D14020005DB5
:1012000001E04120005D804615B994F842000BE0F2
:10121000042D02D14320005D06E0082D02D14420B8
:10122000005D01E04520005D8146B8F1010F02D16B
:10123000B9F1010F02D00120BDE8F0831DB90220F1
:1012400084F83E000EE0042D03D102213F20015519
:1012500008E0082D03D102214020015502E00221BF
:10126000412001551DB9022084F842000EE0042DF2
:1012700003D102214320015508E0082D03D10221AA
:101280004420015502E002214520015535B1042DCD
:101290000BD0082D10D00C2D1CD114E02068C06894
:1012A00040F002002168C86016E02068C06840F085
:1012B00004002168C8600FE02068C06840F00800A2
:1012C0002168C86008E02068C06840F0100021680C
:1012D000C86001E0012600BF00BF46BB01222946CD
:1012E000206800F003FC16492068884213D0154995
:1012F000206888420FD02068B0F1804F0BD012498F
:101300002068884207D011492068884203D01049DC
:10131000206888420CD12068806800F00707062FFB
:101320000CD02068006840F001002168086005E0EA
:101330002068006840F001002168086030467BE7C3
:10134000002C01400034014000040040000800402F
:10135000000C00402DE9F04104460D4616460027DA
:1013600000BF94F83C00012802D10220BDE8F081C2
:10137000012084F83C0000BF36B1042E1BD0082E9B
:1013800031D00C2E5ED145E02946206800F0CAFB22
:101390002068806940F008002168886120688069C1
:1013A00020F0040021688861206880692969084369
:1013B0002168886148E02946206800F0EBFB20683E
:1013C000806940F40060216888612068806920F4A9
:1013D00080602168886120688069296940EA01206D
:1013E0002168886130E02946206800F011FC2068FF
:1013F000C06940F008002168C8612068C06920F019
:1014000004002168C8612068C0692969084321680F
:10141000C86119E02946206800F036FC2068C069E0
:1014200040F400602168C8612068C06920F48060D1
:101430002168C8612068C069296940EA01202168E3
:10144000C86101E0012700BF00BF00BF002084F891
:101450003C0000BF384689E710B504460CB90120AE
:1014600010BD94F83D0028B9002084F83C002046C7
:1014700000F026F8022084F83D00211D206800F0CD
:10148000E7FA012084F8460000BF84F83E000121FD
:101490003F200155402001554120015500BF00BFAC
:1014A000012084F842004320015544200155452085
:1014B000015500BF012084F83D000020D0E7000066
:1014C00010B586B004461C492068884231D100BF5F
:1014D0001A48806940F00800184988610846806908
:1014E00000F00800019000BF00BF00BF08468069FF
:1014F00040F0010088610846806900F00100019019
:1015000000BF00BF00BF0E49486820F4406040F0B3
:10151000E06040F40060486000BF2020029002209C
:101520000390012004900320059002A90548FEF7CE
:10153000D7FF06B010BD00000004004000100240BC
:1015400000000140000C014070B504460D4615B97D
:1015500094F83E000BE0042D02D13F20005D06E030
:10156000082D02D14020005D01E04120005D0128EE
:1015700001D0012070BD1DB9022084F83E000EE0AC
:10158000042D03D102213F20015508E0082D03D18D
:1015900002214020015502E0022141200155012293
:1015A0002946206800F0A2FA1F492068884203D02B
:1015B0001E492068884201D1012000E0002028B1A6
:1015C0002068406C40F40040216848641649206857
:1015D000884213D01549206888420FD02068B0F1A6
:1015E000804F0BD012492068884207D011492068EB
:1015F000884203D01049206888420CD12068806856
:1016000000F00706062E0CD02068006840F00100AC
:101610002168086005E02068006840F0010021684A
:1016200008600020A6E70000002C014000340140C3
:101630000004004000080040000C0040024600206A
:1016400031B1042907D0082908D00C290CD108E0B1
:101650001368586B09E01368986B06E01368D86B41
:1016600003E01368186C00E000BF00BF704770B55E
:1016700004460D4600BF94F83C00012801D1022029
:1016800070BD012084F83C0000BF022084F83D00BA
:101690002946204600F022FB48B1012084F83D0095
:1016A00000BF002084F83C0000BF0120E8E720686C
:1016B000C06840F040002168C8602068C06820F41D
:1016C00080402168C860012084F83D0000BF0020F0
:1016D00084F83C0000BF00BFD2E710B504460CB947
:1016E000012010BDA06900B100E000BF94F84100E6
:1016F00028B9002084F84000204600F029F8242072
:1017000084F841002068C06820F400502168C86057
:10171000204600F0F9FB2068006920F49040216821
:1017200008612068406920F02A002168486120682B
:10173000C06840F400502168C86000206064202028
:1017400084F8410084F842000020606300BFC8E7CD
:1017500010B586B0044624492068884242D100BFB3
:1017600000BF2248806940F0040020498861084693
:10177000806900F00400019000BF00BF00BF00BFFF
:1017800000BF0846806940F004008861084680690F
:1017900000F00400019000BF00BF00BF00BF00BF09
:1017A0000846806940F4804088610846806900F4FA
:1017B0008040019000BF00BF00BF4815029002208A
:1017C00003900320059002A90948FEF789FE4FF413
:1017D00080600290002003900120049002A9044838
:1017E000FEF77EFE06B010BD00380140001002403A
:1017F0000008014000BFFEE700BFFEE770470000A1
:1018000008B508490968C9084FF47A72B1FBF2F1CA
:101810004143009100BF00BF00994A1E0092002979
:10182000F9D108BD00000020704700204FF0E021F2
:1018300008610846006920F004000861704770479D
:1018400070B588B006460C4615461C2101A8FEF767
:101850005FFD00BF1348C06940F002001149C86134
:101860000846C06900F00200009000BF00BF0E48AB
:101870000E4908600846C66044600021016181602D
:10188000FFF7EAFD602001900295022003900422F8
:1018900001A90648FFF75EFD04210448FFF754FE46
:1018A00008B070BD00100240000400405C00002041
:1018B00030B58BB005460C46002007900890099083
:1018C0000A90142102A8FEF723FD00BF2D48C0692D
:1018D00040F004002B49C8610846C06900F00400CC
:1018E000019000BF00BF2848284908600846C5602D
:1018F0004460002101618160FFF715FC0420029023
:101900005020039002A92148FFF7B1FE0020079064
:1019100001200890002009900A90002207A91B4886
:10192000FFF792FB01220021174800F0DFF80220A8
:1019300007900890042207A91448FFF785FB0122AD
:101940000421114800F0D2F810480068C06840F047
:1019500002000E490968C8600C480068C06840F081
:1019600004000A490968C860012211461E20FEF7DA
:10197000A8FF1E20FEF795FF00210448FFF72EFC6C
:101980000BB030BD0010024000080040A400002051
:101990002DE9F047214800680069C0F3800050B18C
:1019A0006FF004001D490968086104211B48FFF716
:1019B00045FE1B490880194800680069C0F34020B3
:1019C000002828D06FF400701449096808610012DB
:1019D00012490968086100211048FFF72FFE84B200
:1019E000204600F081FC80460D48008800F07CFC19
:1019F0008146414600F096FB07460A4900F088FC04
:101A0000064600F051FC85B22B4605480288214667
:101A100005A0FEF701FCBDE8F0870000A40000204F
:101A2000120000200000C842D6DCC6DAA3BA256442
:101A3000202020B8DFB5E7C6BDA3BA25642020204A
:101A4000D5BCBFD5B1C8A3BA256425250D0A0000B1
:101A500010B50268204B98420ED0204B98420BD014
:101A6000B0F1804F08D01E4B984205D01D4B9842D4
:101A700002D01D4B984203D122F070024B681A43EA
:101A8000154B98420ED0154B98420BD0B0F1804FB9
:101A900008D0134B984205D0124B984202D0124BFB
:101AA000984203D122F44072CB681A4322F080039B
:101AB0004C6943EA040202608B68C3620B6883626C
:101AC000054B984202D0054B984201D10B69036344
:101AD0000123436110BD0000002C0140003401408F
:101AE0000004004000080040000C004030B501F048
:101AF0001F05012404FA05F3046A9C430462046A86
:101B000001F01F0502FA05F52C43046230BD30B523
:101B10000C46816821F47F4142EA0325254329438D
:101B2000816030BD30B5026A056A25F001050562A5
:101B30004368846924F0700424F003040D682C4386
:101B400022F002028D682A43104DA84200D103E022
:101B50000F4DA84206D100BF22F00802CD682A43EB
:101B600022F00402094DA84202D0094DA84207D133
:101B700023F4807323F400734D692B438D692B4349
:101B8000436084614D684563026230BD002C0140B2
:101B90000034014030B5026A056A25F0100505627F
:101BA0004368846924F4E04424F440740D6844EAF2
:101BB000052422F020028D6842EA0512124DA84247
:101BC00000D103E0114DA84207D100BF22F08002EE
:101BD000CD6842EA051222F040020B4DA84202D025
:101BE0000A4DA84209D123F4806323F400634D69B0
:101BF00043EA85038D6943EA8503436084614D6848
:101C00008563026230BD0000002C014000340140B9
:101C100030B5026A056A25F4807505624368C469B7
:101C200024F0700424F003040D682C4322F40072A5
:101C30008D6842EA0522124DA84200D103E0114D01
:101C4000A84207D100BF22F40062CD6842EA052213
:101C500022F480620A4DA84202D00A4DA84209D15E
:101C600023F4805323F400534D6943EA05138D692F
:101C700043EA05134360C4614D68C563026230BD29
:101C8000002C01400034014030B5036A056A25F498
:101C9000805505624468C26922F4E04222F4407231
:101CA0000D6842EA052223F400538D6843EA0533A8
:101CB000084DA84202D0084DA84204D124F4804423
:101CC0004D6944EA85144460C2614D68056403624D
:101CD00030BD0000002C0140003401402DE9F047E8
:101CE00005460C464FF000092868866826F0700605
:101CF0006068064326F00706206806432868866069
:101D0000606800F00F0100293BD10011082838D28B
:101D1000DFE800F0333435360B272D04D4E9031304
:101D2000A2682868FFF7F3FE2EE02068052802D19C
:101D30000120BDE8F0872868D0F820802868006A74
:101D400020F00100296808622868876927F0F007F9
:101D5000206947EA0017286887612868C0F8208052
:101D600012E02269A168286800F011F80CE02269ED
:101D7000A168286800F05CF806E000BF00BF00BF63
:101D800002E04FF0010900BF00BF4846D1E730B57F
:101D90000B461446026A056A25F001050562816951
:101DA00021F0F00141EA041122F00A021A43816194
:101DB000026230BD70B50C461546026A066A26F00E
:101DC000010606628169154EB0420ED0144EB04233
:101DD0000BD0B0F1804F08D0124EB04205D0124E59
:101DE000B04202D0114EB04201D1012600E00026DF
:101DF0001EB121F00301294301E041F0010121F06E
:101E0000F001F02606EA0316314322F00A0204F03C
:101E10000A0632438161026270BD0000002C01405D
:101E2000003401400004004000080040000C004065
:101E300030B50B461446026A056A25F010050562A6
:101E4000816921F4704141EA043122F0A00242EAA2
:101E500003128161026230BD70B50C461546026AFC
:101E6000066A26F010060662816921F4407141EA93
:101E7000052121F470414FF4704606EA03363143E0
:101E800022F0A002A02606EA041632438161026213
:101E900070BD70B50C461546026A066A26F4807657
:101EA0000662C16921F00301294321F0F001F02607
:101EB00006EA0316314322F400724FF4007606EA74
:101EC00004263243C161026270BD70B50C461546EE
:101ED000026A066A26F480560662C16921F44071DE
:101EE00041EA052121F470414FF4704606EA0336B9
:101EF000314322F400524FF4005606EA04363243CE
:101F0000C161026270BD000070B5044621680969B4
:101F100021F44051E2681143226811612269A168ED
:101F20001143626941EA02052168C96841F20C6205
:101F3000914329432268D1602168496921F44071A5
:101F4000A2691143226851612D4A2168914202D150
:101F5000FEF7E6FD01E0FEF7D3FD00EBC00101EB6B
:101F6000001162689200B1FBF2F100EBC00202EBDB
:101F7000001263689B00B2FBF3F26423B2FBF3F23E
:101F800002EBC20303EB0212A1EB8201322202EB4D
:101F900001116422B1FBF2F101F0F00100EBC0028B
:101FA00002EB001263689B00B2FBF3F26423B2FB06
:101FB000F3F201EB021200EBC00101EB00116368C8
:101FC0009B00B1FBF3F100EBC00303EB0013666869
:101FD000B600B3FBF6F36426B3FBF6F303EBC306DC
:101FE00006EB0313A1EB8301322303EB01116423FE
:101FF000B1FBF3F101F00F0111442268916070BD53
:102000000038014010B504460748084908600846F2
:10201000446000218160C160016181610C214161E6
:10202000FFF75BFB10BD00000038014014000020EA
:1020300000BFFEE702480068C0F3022070470000BE
:102040000CED00E010B5002804DB0A07130E054A6A
:10205000135406E00A07140E034A00F00F031B1F77
:10206000D45410BD00E400E018ED00E000BF70475C
:1020700000BF054A126802F04002002AF9D0C2B23D
:10208000014B1B1D1A60704700380140FEF7CEFB64
:102090004FF4E01000F013F8FFF7C7FB4FF4E13006
:1020A000FFF7B0FF4FF4FA7248215000FFF7C8FB6A
:1020B00048214FF6FF70FFF7FBFB00BFFEE730B58E
:1020C0008FB005460124282105A8FEF721F9142127
:1020D0006846FEF71DF901200590000406900020D7
:1020E000079002200C90C1030D910E9505A8FEF7F4
:1020F0005FFD04460CB100BFFEE70F2000900220F8
:102100000190002002904FF4806003900020049022
:1021100002216846FEF728FC04460CB100BFFEE72A
:102120000FB030BD4FF47F0C1CEAD0121EBF1CEA6A
:10213000D11392EA0C0F93EA0C0F00F0858090EA1D
:10214000010F48BF42F4807240F4000C41F40000DB
:102150002CF07F4120F07F4000B58142A2EB0302CA
:102160000FF2081CACEB504EC0F100009EF800E0EE
:102170004FEA4E0E00FB0EFC38BF49004FEA2C1C04
:1021800002F5FA020CFB0EF34FEACE1E4FEA112CB9
:102190004FEAC1210EEB635E42EB22420EFB0CFCC8
:1021A0004FEA1C5300FB03114FEA112C4FEA013197
:1021B0000EFB0CFC4FEADC4C00FB0C11C14228BFAB
:1021C00009184CEB03335DF804EB10EB410143EBD2
:1021D000C250B2F57C0F38BF704729D512F0F00F0E
:1021E0001CBF00F1C04000F00040704700818283B6
:1021F0008485868788898B8C8D8E8F919293959616
:1022000097999A9C9D9FA0A2A3A5A7A8AAACAEB09F
:10221000B2B3B5B7B9BCBEC0C2C5C7C9CCCED1D4A4
:10222000D7D9DCDFE2E6E9ECF0F3F7FAFE000000D4
:102230004FEA400C0CF1807CBCF17E4F28BF704708
:10224000B0F1C04000F02BB990EA010F0CEAD113B5
:1022500048BF42F48072624538BF634507D213F429
:102260007F0F16D080EA010000F00040704710B5E3
:1022700000F0CFF8097EFC3E00F005B880EA0100CE
:1022800000F00040704780EA010000F0004000F0DC
:1022900006B912F47F0F04BF0248704780EA0100BC
:1022A00000F0FDB80000C07FC10DD1F19E0206DB39
:1022B0004FEA002343F0004323FA02F07047004244
:1022C00007D54FEA4001B1F1FE4F02D24FF00000B6
:1022D000704710B500F09DF84992248000207047A7
:1022E0006FEA200070470000B0FA80F310FA03F2A2
:1022F000C3F19D030AD0D90501EB1220530638BF64
:10230000704700F1010008BF20F001007047000095
:102310004FF47F0C1CEAD0121EBF1CEAD11392EAC4
:102320000C0F93EA0C0F00F0478090EA010F48BFB2
:1023300042F480724FF0004C4CEA00204CEA01213C
:1023400002EB0302A0FB0113A2F50002002918BF53
:1023500043F001035B0028BF4FEA330342EB224204
:102360005FEA132C4CEBC2502EBFBCEB436FB2F5AF
:102370007C0F70474FEA036CBCF1004F08BF20F0A0
:102380000100B2F57C0F38BF70470BD582F0FF0219
:1023900012F5803FC8BF704700F1C040D8BF00F0C1
:1023A0000040704700F5000C5FEA4C0C48BF7047D6
:1023B000B0F1C04000F073B890EA010F0CEAD113FD
:1023C00048BF42F48072624538BF634504D280EA58
:1023D000010000F00040704710B500F01AF800BF8F
:1023E0008900013E00F007B800F009B85FEA410C2F
:1023F0005FEA1C6C08D080EA010000F050B85FEA88
:10240000400C5FEA1C6CF6D14FF00040A0F5800054
:1024100070470EF1020E2EF0030E5EF8044B2442BC
:1024200004D44FEA4102B2F17F4F11D84FEA400382
:10243000B3F17F4F0CD80ED14FEAD07CB2F17F4F71
:102440000CEB4C0C0CF1020C08BF4CEBD17C04E003
:102450004FF0080C01E04FEAD17C0CEB4C0324FA5E
:1024600003F404F00704B4F1040C06D20EEB840C60
:10247000BDE810404CF0010C6047DFE80CF00708A5
:1024800002024FF00040A0F5800010BD0846420057
:1024900018BFD2F1807288BF00F0004010BDFF214C
:1024A00041EAD050C0057047000000000000000065
:1024B00001020304060708090000000001020304EA
:1024C00002030405060708090A0B0C0D0E0F101075
:1024D00001020000F42400080000002014000000A5
:1024E0006C01000808250008140000203C070000CB
:1024F000880100080024F400000000000000000033
:082500001000000001000000C2
:0400000508000131BD
:00000001FF
