:020000040800F2
:1000000018170020D50100082D1500082515000837
:10001000291500082D0400082D1800080000000014
:10002000000000000000000000000000ED160008C5
:100030003104000800000000EB010008ED01000899
:10004000EF010008EF010008EF010008EF010008D0
:10005000EF010008EF010008EF010008EF010008C0
:10006000EF010008EF010008EF010008EF010008B0
:10007000EF010008EF010008EF010008EF010008A0
:10008000EF010008EF010008EF010008EF01000890
:10009000EF010008EF010008EF010008EF01000880
:1000A000EF010008EF010008EF010008EF01000870
:1000B000EF010008EF010008EF010008EF01000860
:1000C000EF010008EF010008EF010008EF01000850
:1000D000EF010008EF010008EF010008EF01000840
:1000E000EF010008EF010008EF010008EF01000830
:1000F000EF010008EF010008EF010008EF01000820
:10010000EF010008EF010008EF010008EF0100080F
:10011000EF010008EF010008EF010008EF010008FF
:10012000EF010008EF010008EF010008EF010008EF
:1001300000F002F800F03FF80AA090E8000C8244BA
:100140008344AAF10107DA4501D100F034F8AFF297
:10015000090EBAE80F0013F0010F18BFFB1A43F0A5
:1001600001031847F41A0000141B0000103A24BFC2
:1001700078C878C1FAD8520724BF30C830C144BF0C
:1001800004680C607047000000230024002500264E
:10019000103A28BF78C1FBD8520728BF30C148BFEA
:1001A0000B607047732900F0DD80002070471FB599
:1001B0001FBD10B510BD00F007F91146FFF7F7FF9E
:1001C00001F0C0FC00F025F903B4FFF7F2FF03BC17
:1001D00001F0A8FC0948804709480047FEE7FEE710
:1001E000FEE7FEE7FEE7FEE7FEE7FEE7FEE7FEE7E7
:1001F00004480549054A064B7047000003170008EC
:1002000031010008181100201817002018130020D1
:1002100018130020704700000FB4044910B503AA5A
:10022000029800F0A3F810BC5DF814FB0400002055
:100230002DE9F0410E460446002020622046E16888
:10024000884730B3252805D0D4E901219047206A9A
:10025000401CF2E7E168204600278847050018D0D7
:10026000A5F14100192802D820354FF40067324625
:10027000294620462760FFF795FF40B1012804D0AA
:10028000F61D26F007060836D8E7361DD6E72846BD
:10029000DAE7206ABDE8F08170B50C460546012A10
:1002A00005D02878800600D5EA69002302E0012302
:1002B00005E05B1C934202D2E05C0028F9D1A869FA
:1002C000E618C01AA861286A184428622846AFF3C5
:1002D000008004E0D5E9012114F8010B9047B442F5
:1002E000F8D32846AFF3008070BD4FF0000200B590
:1002F000134694469646203922BFA0E80C50A0E849
:100300000C50B1F12001BFF4F7AF090728BFA0E8F6
:100310000C5048BF0CC05DF804EB890028BF40F8C2
:10032000042B08BF704748BF20F8022B11F0804F04
:1003300018BF00F8012B704770477047704770472F
:1003400010B5436913B1AFF3008001E0FFF7A4FFDC
:10035000012010BD127800F124010A7000224A70B9
:100360000122EDE711684FF0FF32E9E7074B70B566
:100370000D467B4400F011F80446284600F020F8B2
:1003800010B14FF0FF3070BD204670BDB3170000B4
:1003900001694A1C02610878704700B58FB0CDE949
:1003A00001310021059105497944CDE90310114639
:1003B0006846FFF73DFF0FB000BD0000E5FFFFFFFF
:1003C000007B00F080007047754600F02BF8AE46C9
:1003D00005006946534620F00700854618B020B551
:1003E000FFF706FFBDE820404FF000064FF0000782
:1003F0004FF000084FF0000B21F00701AC46ACE8CD
:10040000C009ACE8C009ACE8C009ACE8C0098D4639
:10041000704710B50446AFF300802046BDE8104099
:10042000FFF7D2BE00487047B410002000BFFEE7BF
:10043000704700002DE9F847024600239C467BE107
:100440004FF0010808FA03F4D1F8008008EA04002C
:10045000A0427DD1DFF8F4A2D1F80480A8EB0A090C
:10046000D0453AD014DCB8F1030F50D009DCB8F114
:10047000000F31D0B8F1010F1CD0B8F1020F49D1F3
:1004800020E0B8F1110F18D0B8F1120F42D11EE0E0
:10049000B9F5881F25D006DCB9F5803F20D0B9F525
:1004A000801F37D11AE0B9F5001F18D0B9F5041F25
:1004B00030D117E0D1F80CC02DE0D1F80C8008F154
:1004C000040C28E0D1F80C8008F1080C23E0D1F8E6
:1004D0000C8008F10C0C1EE000BF00BF00BF00BF85
:1004E00000BF00BFD1F80880B8F1000F02D14FF073
:1004F000040C0BE0D1F80880B8F1010F03D14FF0E4
:10050000080C146102E04FF0080C546103E04FF056
:10051000000C00E000BF00BFFF2801D8904601E0BA
:1005200002F104084646FF2802D84FEA830803E098
:10053000A3F108084FEA88084746D6F800804FF034
:100540000F0909FA07F928EA09080CFA07F900E087
:100550007AE048EA0908C6F80080D1F8048008F07B
:100560008058B8F1805F6FD100BFDFF8E481D8F820
:10057000188048F00108DFF8D891C9F81880C846FB
:10058000D8F8188008F00108CDF8008000BF00BF3F
:100590004FEAB9384FEA930958F829504FEA83785F
:1005A0004FEA18794FF00F0808FA09F825EA08050C
:1005B000DFF8A081424502D14FF0000824E0DFF8C7
:1005C0009881424502D14FF001081DE0DFF88C818F
:1005D000424502D14FF0020816E0DFF8848142451F
:1005E00002D14FF003080FE0DFF87881424502D1D5
:1005F0004FF0040808E0DFF87081424502D14FF067
:10060000050801E04FF006084FEA83794FEA1979AF
:1006100008FA09F848EA0505DFF850814FEA93091E
:1006200048F82950D1F8048008F48018B8F5801FE4
:100630000BD1DFF83C81D8F8008048EA0008DFF8E9
:100640003091C9F800800AE075E0DFF82481D8F81D
:10065000008028EA0008DFF81891C9F80080D1F876
:10066000048008F40018B8F5001F0ED1DFF80081EF
:1006700008F10408D8F8008048EA0008DFF8F09094
:1006800009F10409C9F800800DE0DFF8E48008F101
:100690000408D8F8008028EA0008DFF8D49009F1AF
:1006A0000409C9F80080D1F8048008F40038B8F5CE
:1006B000003F0ED1DFF8B880A8F10408D8F8008018
:1006C00048EA0008DFF8A890A9F10409C9F80080F9
:1006D0000DE0DFF89C80A8F10408D8F8008028EA33
:1006E0000008DFF88C90A9F10409C9F80080D1F85E
:1006F000048008F48038B8F5803F0ED1DFF87080B0
:10070000A8F10808D8F8008048EA0008DFF86090EF
:10071000A9F10809C9F800800DE0DFF85480A8F1BC
:100720000808D8F8008028EA0008DFF84490A9F10A
:100730000809C9F800805B1CD1F8008028FA03F88A
:10074000B8F1000F7FF47CAEBDE8F887000011100F
:100750000010024000080140000C01400010014060
:100760000014014000180140001C01400800014035
:10077000080401400AB1016101E00B040361704704
:1007800001480068704700000800002010B50848C4
:10079000006840F0100006490860032000F070F87F
:1007A0000F2000F007F800F02BF8002010BD00002B
:1007B0000020024070B504460E4800784FF47A716C
:1007C000B1FBF0F00C490968B1FBF0F5284600F0E8
:1007D00002FE08B1012070BD102C07D20022214674
:1007E000501E00F00EF80548046001E00120F2E719
:1007F0000020F0E710000020000000200C00002086
:1008000070472DE9F05F80460D461646002701F03F
:100810006DF9074639462A46334601F00700C0F114
:10082000070ABAF1040F02D94FF0040A01E0C0F13F
:10083000070AD14600F1040ABAF1070F02D24FF0BD
:10084000000A01E0A0F1030AD4464FF0010A0AFAB7
:1008500009FAAAF1010A0AEA020A0AFA0CFA4FF0A6
:10086000010B0BFA0CFBABF1010B0BEA030B4AEA91
:100870000B042146404601F041F9BDE8F09F00001D
:1008800000BF00F00702064B19684FF6FF0319403E
:10089000044B0B4343EA0221014B196000BF704730
:1008A0000CED00E00000FA0570B504460D460CB9E9
:1008B000012070BD5A48006800F00700A8420ED21F
:1008C0005748006820F0070028435549086008464B
:1008D000006800F00700A84201D00120E9E7207875
:1008E00000F0020002281DD1207800F00400042846
:1008F00005D14C48406840F4E0604A49486020789F
:1009000000F00800082805D14648406840F46050CF
:10091000444948604348406820F0F000A16808431B
:1009200040494860207800F0010078B360680128F1
:1009300006D13C48006800F4003090B90120B8E7C7
:100940006068022806D13748006800F0007040B99E
:100950000120AEE73348006800F0020008B901202A
:10096000A7E73048406820F00300616808432D493C
:100970004860FFF705FF064609E0FFF701FF801B0F
:1009800041F28831884202D9032092E707E02548E6
:10099000406800F00C006168B0EB810FEDD1204899
:1009A000006800F00700A8420ED91D48006820F03A
:1009B000070028431A4908600846006800F007004D
:1009C000A84201D0012074E7207800F00400042838
:1009D00007D11448406820F4E060E16808431149F9
:1009E0004860207800F00800082808D10D484068C9
:1009F00020F46050216940EAC1000A49486000F0D3
:100A00003FF808494968C1F30311074A515CC840DF
:100A10000649086006480068FFF7CCFE002048E75A
:100A200000200240001002402E1C000800000020A0
:100A30000C00002001480068704700000000002002
:100A400000B5FFF7F7FF04494968C1F30221034AE3
:100A5000515CC84000BD0000001002403E1C000870
:100A600000B5FFF7E7FF04494968C1F3C221034A13
:100A7000515CC84000BD0000001002403E1C000850
:100A800070B500210022002400230020134D696866
:100A900001F00C05F5B1042D02D0082D19D101E0AB
:100AA0000F4819E00F4DC1F38346AB5D01F480356B
:100AB00055B10A4D6D68C5F340450B4E725D084D4A
:100AC0005D43B5FBF2F402E0084D03FB05F420465C
:100AD00002E000BF024800BF00BF70BD001002402E
:100AE00000127A00461C0008561C000800093D0050
:100AF000F8B504460CB90120F8BD207800F00100DB
:100B0000002878D0F848406800F00C0004280CD089
:100B1000F548406800F00C00082811D1F248406800
:100B200000F48030B0F5803F0AD1EF48006800F44F
:100B3000003000285FD0606800285CD10120DBE72E
:100B400000BF6068B0F5803F06D1E748006840F418
:100B50008030E549086028E0606858B9E2480068DC
:100B600020F48030E04908600846006820F48020C6
:100B700008601AE06068B0F5A02F0BD1DA48006871
:100B800040F48020D84908600846006840F480306E
:100B900008600AE0D448006820F48030D249086038
:100BA0000846006820F48020086000BF606888B1B3
:100BB000FFF7E6FD054606E0FFF7E2FD401B64286F
:100BC00001D9032098E7C848006800F400300028E5
:100BD000F2D010E0FFF7D4FD054606E0FFF7D0FDA8
:100BE000401B642801D9032086E7BF48006800F451
:100BF00000300028F2D1207800F00200022857D1FE
:100C0000B948406800F00C0050B1B748406800F0A7
:100C10000C00082818D1B448406800F4803098B916
:100C2000B148006800F0020020B12069012801D01D
:100C3000012061E7AC48006820F0F800616940EAF3
:100C4000C100A949086033E02069E8B10120A74943
:100C50000860FFF795FD054606E0FFF791FD401B94
:100C6000022801D9032047E79F48006800F00200EE
:100C70000028F2D09C48006820F0F800616940EA42
:100C8000C1009949086013E0002098490860FFF707
:100C900077FD054606E0FFF773FD401B022801D9EA
:100CA000032029E79048006800F002000028F2D1F4
:100CB000207800F0080008282DD1A069B8B10120E3
:100CC0008B490860FFF75CFD054606E0FFF758FD1D
:100CD000401B022801D903200EE78348406A00F038
:100CE00002000028F2D0012000F022FC13E00020D6
:100CF0007F490860FFF744FD054606E0FFF740FD29
:100D0000401B022801D90320F6E67748406A00F02C
:100D100002000028F2D1207800F00400042873D1EA
:100D200000277148C06900F0805070B900BF6E485C
:100D3000C06940F080506C49C8610846C06900F045
:100D40008050009000BF00BF01276A48006800F48F
:100D50008070B0B96748006840F4807065490860E9
:100D6000FFF70EFD054606E0FFF70AFD401B64286D
:100D700001D90320C0E65F48006800F480700028B5
:100D8000F2D000BFE068012806D15748006A40F061
:100D900001005549086227E0E06858B95248006AE6
:100DA00020F00100504908620846006A20F0040063
:100DB000086219E0E06805280BD14B48006A40F052
:100DC0000400494908620846006A40F001000862D0
:100DD0000AE04548006A20F00100434908620846DD
:100DE000006A20F00400086200BFE068A0B1FFF7CD
:100DF000C7FC054609E0FFF7C3FC401B41F2883100
:100E0000884202D9032077E622E03748006A00F0E2
:100E100002000028EFD012E0FFF7B2FC054608E020
:100E2000FFF7AEFC401B41F28831884201D9032014
:100E300062E62D48006A00F002000028F0D1012F80
:100E400005D12948C06920F080502749C86100BFFA
:100E5000E069C8B32448406800F00C00082860D05E
:100E6000E069022848D1002020490866FFF788FC85
:100E7000054606E0FFF784FC401B022801D9032049
:100E80003AE61948006800F000700028F2D1206AA4
:100E9000B0F5803F07D11448406820F40030A168C5
:100EA000084311494860D4E9080108430E494968DC
:100EB00021F4741108430C49486001200B4908666D
:100EC000FFF75EFC054607E03DE0FFF759FC401BDD
:100ED000022801D903200FE60348006800F00070E3
:100EE0000028F2D02FE00000001002400000424233
:100EF0008004424200700040002014490866FFF759
:100F00003FFC054606E0FFF73BFC401B022801D9E9
:100F10000320F1E50E48006800F000700028F2D1CF
:100F200011E0E069012800D1E6E50948466806F4C9
:100F30008031206A814204D106F47011606A8142D6
:100F400001D00120D8E50020D6E500000000424293
:100F50000010024010B504460CB9012010BD606AB3
:100F600038B96068B0F5827F00D105E00021E16109
:100F700002E0002121616161A06AB0F5005F00D14B
:100F800000BF94F8510028B9002084F85000204692
:100F900000F04AF8022084F851002068006820F030
:100FA000400021680860A08800F48270218901F463
:100FB00004410843A18901F400610843217C01F048
:100FC00002010843217D01F001010843218B01F456
:100FD00000710843217F01F0380108432021095D99
:100FE00001F080010843218D01F40051084321687C
:100FF00008600421A06901EA104021684860A06AE5
:10100000B0F5005F03D1A08D80B22168086120682F
:10101000C06920F400602168C8610020606501207B
:1010200084F85100002099E710B586B004462349A2
:101030002068884240D100BF2148806940F0080004
:101040001F4988610846806900F00800019000BFD0
:1010500000BF00BF0846806940F00800886108466C
:10106000806900F00800019000BF00BF00BF084683
:10107000806940F0080088610846806900F0080037
:10108000019000BF00BF4FF4005002900220039077
:101090000320059002A90B48FFF7CCF94FF48040DC
:1010A000029002A90748FFF7C5F94FF400400290EB
:1010B00002A90448FFF7BEF906B010BD0038004091
:1010C00000100240000C01402DE9F04F85B00446AD
:1010D000884691461D460E9E0020039001200290F6
:1010E0000020019000BF94F85000012803D1022095
:1010F00005B0BDE8F08F012084F8500000BFFFF775
:101100003FFB074694F851B060680490AA46BBF1D3
:10111000010F0BD00498B0F5827F04D1A06810B9FC
:10112000BBF1040F02D0022001904DE1B8F1000F95
:1011300003D0B9F1000F00D015B90120019043E1AF
:1011400094F85100042802D0052084F851000020B2
:101150006065C4F83890E587A587C4F83080E586D7
:10116000A58620646064A06AB0F5005F0DD100BF61
:101170002068006820F4005021680860206800683A
:1011800040F400502168086000BF2068006800F04B
:101190004000402805D02068006840F040002168E9
:1011A0000860E068B0F5006F59D1606810B1BAF11D
:1011B000010F09D1206B00882168C860206B801C5A
:1011C0002063E08E401EE08642E02068806800F0E8
:1011D000020002281CD1E08ED0B10298012817D15C
:1011E000206B00882168C860206B801C2063E08E23
:1011F000401EE08600200290E08E48B9A06AB0F55B
:10120000005F05D12068006840F4805021680860C4
:101210002068806800F0010068B1E08F58B1206854
:10122000C068A16B0880A06B801CA063E08F401E8B
:10123000E08701200290FFF7A3FAC01BB04207D35A
:10124000701C28B103200190012084F85100BBE0FC
:10125000E08E0028B9D1E08F0028B6D159E060684F
:1012600010B1BAF1010F09D1206B00782168087321
:10127000206B401C2063E08E401EE08643E0206827
:10128000806800F0020002281CD1E08ED0B10298E4
:10129000012817D1206B007821680873206B401C4F
:1012A0002063E08E401EE08600200290E08E48B968
:1012B000A06AB0F5005F05D12068006840F4805056
:1012C000216808602068806800F0010068B1E08F44
:1012D00058B12068C068A16B0870A06B401CA06367
:1012E000E08F401EE08701200290FFF749FAC01B03
:1012F000B04201D3701C00B92EB903200190012027
:1013000084F8510060E0E08E0028B8D1E08F00281A
:10131000B5D1A06AB0F5005F12D133460122114663
:101320002046009700F076F930B1606D40F0020081
:1013300060650320019047E02068C068039000BF0B
:1013400020688068C0F30010E8B1204600F05EF924
:10135000012814D1606D40F00200606500BF206874
:10136000006820F40050216808602068006840F49C
:1013700000502168086000BF0120019003E04FF693
:10138000EF70216888603A463146204600F02AF91D
:1013900020B1012001902020606515E0A06850B9BF
:1013A00000BF002000902068C0680090206880681E
:1013B000009000BF00BF606D10B10120019002E0FD
:1013C000012084F8510000BF00BF002084F85000C5
:1013D00000BF01988CE670B504462546681EB0F142
:1013E000807F01D301200FE0681E4FF0E0214861AB
:1013F0000F214FF0FF3000F081FB00204FF0E02183
:10140000886107200861002070BD10B504460CB942
:10141000012010BDA06900B100E000BF94F84100B8
:1014200028B9002084F84000204600F029F8242044
:1014300084F841002068C06820F400502168C8602A
:10144000204600F05FF92068006920F49040216890
:1014500008612068406920F02A00216848612068FE
:10146000C06840F400502168C860002060642020FB
:1014700084F8410084F842000020606300BFC8E7A0
:1014800010B586B0044624492068884242D100BF86
:1014900000BF2248806940F0040020498861084666
:1014A000806900F00400019000BF00BF00BF00BFD2
:1014B00000BF0846806940F00400886108468069E2
:1014C00000F00400019000BF00BF00BF00BF00BFDC
:1014D0000846806940F4804088610846806900F4CD
:1014E0008040019000BF00BF00BF4815029002205D
:1014F00003900320059002A90948FEF79BFF4FF4D3
:1015000080600290002003900120049002A904480A
:10151000FEF790FF06B010BD0038014000100240F9
:101520000008014000BFFEE700BFFEE77047000073
:1015300008B508490968C9084FF47A72B1FBF2F19D
:101540004143009100BF00BF00994A1E009200294C
:10155000F9D108BD0000002008B500BF1648C069D9
:1015600040F480401449C8610846C06900F48040D6
:10157000009000BF00BF1148114908604FF482700D
:10158000486000210E488160C160016141614FF4F3
:10159000007181610021C1610162416281620721A4
:1015A000C162FFF7D7FC06480068006840F04000C1
:1015B00003490968086008BD001002400038004077
:1015C0005C00002001B582B04FF47A70012302AABA
:1015D00002A900900248FFF777FD9DF808000EBDB4
:1015E0005C000020F8B504460D4616462B46002246
:1015F00080212046009600F00DF828B1606D40F083
:10160000200060650320F8BD0020FCE701460120B2
:10161000704700002DE9F84F04460D4690461E46DF
:10162000DDF82890FFF7ACF8A0EB0900371AFFF7B8
:10163000A7F882462C480068C0F3CB30784300906E
:1016400045E0701C002842D0FFF79AF8A0EB0A0092
:10165000B84200D2A7BB2068406820F0E0002168B3
:1016600048606068B0F5827F0DD1A068B0F5004F8A
:1016700003D0A068B0F5806F05D12068006820F025
:10168000400021680860A06AB0F5005F0DD100BF7E
:101690002068006820F40050216808602068006815
:1016A00040F400502168086000BF012084F8510018
:1016B00000BF002084F8500000BF0320BDE8F88F71
:1016C000FFE7009800B900270098401E00902068AE
:1016D00080682840A84201D1012000E00020404558
:1016E000AFD10020EAE70000000000207047002092
:1016F0004FF0E02108610846006920F0040008610D
:101700007047704770B504462168096921F440515B
:10171000E2681143226811612269A168114362697C
:1017200041EA02052168C96841F20C6291432943EC
:101730002268D1602168496921F44071A26911438E
:10174000226851612D4A2168914202D1FFF788F940
:1017500001E0FFF775F900EBC00101EB00116268D1
:101760009200B1FBF2F100EBC00202EB00126368E1
:101770009B00B2FBF3F26423B2FBF3F202EBC20371
:1017800003EB0212A1EB8201322202EB011164226F
:10179000B1FBF2F101F0F00100EBC00202EB00122C
:1017A00063689B00B2FBF3F26423B2FBF3F201EB3C
:1017B000021200EBC00101EB001163689B00B1FB5A
:1017C000F3F100EBC00303EB00136668B600B3FB54
:1017D000F6F36426B3FBF6F303EBC30606EB031341
:1017E000A1EB8301322303EB01116423B1FBF3F17D
:1017F00001F00F0111442268916070BD0038014072
:1018000010B50446074808490860084644600021AE
:101810008160C160016181610C214161FFF7F5FDCB
:1018200010BD0000003801401400002000BFFEE79A
:1018300000B585B000BF1048806940F008000E492F
:1018400088610846806900F00800009000BF00BF72
:1018500088140190012002900320049001A90748F8
:10186000FEF7E8FD012211030448FEF783FFFFF7AE
:1018700073FE05B000BD000000100240000C0140E6
:1018800070B506460C46154600F0FAF800224FF4F3
:1018900080510C48FEF76EFF0220FFF793FE3046A2
:1018A00000F07AF804E02878FFF78CFE6D1C641EC7
:1018B000002CF8D1012211030248FEF75BFF00F073
:1018C00079F870BD000C014070B506460C4615460F
:1018D00000224FF480510C48FEF74CFF0320FFF725
:1018E00071FE304600F058F805E0FF20FFF76AFE71
:1018F00028706D1C641E002CF7D1012211030248D0
:10190000FEF738FF70BD0000000C014070B50446C2
:1019100000250026012C04D0022C04D0032C06D173
:1019200003E0052605E0352603E0152601E005263F
:1019300000BF00BF00224FF480510848FEF71AFF95
:101940003046FFF73FFEFF20FFF73CFE0546012231
:1019500011030248FEF70EFF284670BD000C01403F
:1019600010B5044600F08CF800F024F800224FF483
:1019700080510848FEF7FEFE2020FFF723FE204698
:1019800000F00AF8012211030248FEF7F3FE00F00E
:1019900011F810BD000C014010B50446C4F3074017
:1019A000FFF710FEC4F30720FFF70CFEE0B2FFF7CD
:1019B00009FE10BD10B500BF0120FFF7A7FF00F022
:1019C00001000028F8D110BD2DE9F05F07460E4652
:1019D0009146DFF8A8B04FEA1738C7F30B0ACAF5EB
:1019E0008054A64200DC344644E04FEA08305A46B0
:1019F0004FF48051FFF768FF002508E00AEB05006F
:101A00001BF80000FF2800D003E0681C85B2A54247
:101A1000F4DB00BFA54216DA4046FFF7A1FF002520
:101A200007E019F8050005EB0A010BF80100681C36
:101A300085B2A542F5DB4FEA08305A464FF4805193
:101A400000F030F804E04A462146384600F02AF813
:101A5000A64200D10FE008F101084FF0000AA144AE
:101A60002744301B86B2B6F5805F02DD4FF4805408
:101A700000E03446B9E700BFBDE8F09FB4000020A5
:101A800010B500224FF480510548FEF773FE062082
:101A9000FFF798FD012211030148FEF76BFE10BD10
:101AA000000C01402DE9F04106460C461746F0B205
:101AB000C0F58075AC4200DC254612E03A46294666
:101AC0003046FFF7DDFEAC4200D10BE02F442E4440
:101AD000601B84B2B4F5807F02DD4FF4807500E0B6
:101AE0002546EBE700BFBDE8F08100000248006832
:101AF000C0F30220704700000CED00E010B5002894
:101B000004DB0A07130E054A135406E00A07140EF5
:101B1000034A00F00F031B1FD45410BD00E400E083
:101B200018ED00E000BF704700BF054A126802F0E0
:101B30004002002AF9D0C2B2014B1B1D1A60704747
:101B4000003801408CB016A30FCBCDE90A23CDE9B4
:101B5000080120216846FEF7C8FBFEF717FE4FF488
:101B6000E01000F031F8FFF7C2FD4FF4E130FFF76D
:101B700047FEFFF75DFE08AA10210020FFF724FFB3
:101B80006A4610210020FFF79FFE08A908A0FEF773
:101B900043FB694609A0FEF73FFB00BFFEE70000DC
:101BA0007177653132333435363738397A786300B6
:101BB000737472A3BA25730D0A000000617272A3D8
:101BC000BA25730D0A00000030B58FB00546012418
:101BD000282105A8FEF789FB14216846FEF785FB3E
:101BE00001200590000406900020079002200C9030
:101BF000C1030D910E9505A8FEF77AFF04460CB1BE
:101C000000BFFEE70F20009002200190002002900C
:101C10004FF4806003900020049002216846FEF794
:101C200043FE04460CB100BFFEE70FB030BD00001C
:101C3000000000000000010203040607080900007C
:101C400000000102030402030405060708090A0B49
:101C50000C0D0E0F10100102781C0008000000206F
:101C6000140000006C0100088C1C00081400002007
:101C700004170000880100080024F40000000000A0
:0C1C800000000000100000000100000047
:0400000508000131BD
:00000001FF
